:100000000C949D040C94E4040C94E4040C947D1171
:100010000C94E4040C94E4040C94E4040C94E404C0
:100020000C94E4040C94E4040C94E3230C94B7249F
:100030000C94041F0C94E4040C94E4040C94E40465
:100040000C94E4040C94E4040C94E4040C94E40490
:100050000C94E4040C94771F0C94E4040C94E404D2
:100060000C94E4040C94E4040C94E4040C94E40470
:100070000C94E4040C94E4040C94E4040C94E40460
:100080000C94E4040C94E4040C94E4040C94E40450
:100090000C94E4040C94E4040C94E4040C94E40440
:1000A0000C94E4040C94E4040C94E40420949596D9
:1000B0002020B4B5B62020D4D5D62000209798991A
:1000C0002020B7B8B92020D7D8D92000209A9B9CEF
:1000D0002020BABBBC2020DADBDC200080818283B8
:1000E00084A0A1A2A3A4C0C1C2C3C40047696F4B2E
:1000F000696D008081828384A0A1A2A3A4C0C1C233
:10010000C3C400ABAC00CFD000C600CA00C800A971
:10011000AA00B1B2008B8C00CDCE00C500C900C7CB
:1001200000CB00898A00919200A7A800AFB000C65A
:1001300000CA00C800A5A600ADAE008788008F9059
:1001400000C500C900C700CB008586008D8E002049
:100150002020202000065703570457055713001C82
:1001600000085704001200080018000C00E0000905
:100170005714000D000E001B00000000000000E3FB
:1001800000295D2C002A000F00150006000A000956
:10019000004C001600110017000B000700E4001DC2
:1001A0000019001A00100005000000000000000AFD
:1001B000572A5D28005F00600061002F002F022693
:1001C000025C005D005E0021022402200259005AF8
:1001D000005B0062000B572900000000000000E3F4
:1001E0000001002C002A000057075730003002277A
:1001F000024C0001574F00520051005000E4000231
:10020000571E022302250265000000000000000ABC
:10021000572A5D28003A003B003C003D003E003F6D
:1002200000400041004200430044004500005C00E3
:10023000000000B300B2004600000000000000E330
:1002400000295D2C00E60079007A007D007C007BAF
:1002500000BD00BE00A900AA00A800AE000000007A
:10026000000000AD00AB00AC000000000000000A80
:10027000570100280000AE00AF00DA0281FFD9F17B
:10028000DB20A4A62EAF00A0C000A1C800AED58080
:10029000A81FD300408D1420000000000000003E85
:1002A0005B4F5B3E003E6B4F6B3E001C3E7C3E1C3A
:1002B00000183C7E3C18001C577D571C001C5E7FBC
:1002C0005E1C0000183C180000FFE7C3E7FF0000B9
:1002D0001824180000FFE7DBE7FF0030483A060E5D
:1002E00000262979292600407F05050700407F0563
:1002F000253F005A3CE73C5A007F3E1C1C08000882
:100300001C1C3E7F0014227F2214005F5F005F5F91
:100310000006097F017F00006689956A00606060C1
:1003200060600094A2FFA2940008047E04080010FC
:10033000207E20100008082A1C0800081C2A080833
:10034000001E10101010000C1E0C1E0C0030383E49
:10035000383000060E3E0E060000000000000000CF
:10036000005F000000000700070000147F147F14E6
:1003700000242A7F2A12002313086462003649569B
:10038000205000000807030000001C22410000006C
:1003900041221C00002A1C7F1C2A0008083E080875
:1003A00000008070300000080808080800000060A5
:1003B0006000002010080402003E5149453E000044
:1003C000427F4000007249494946002141494D336E
:1003D000001814127F10002745454539003C4A4952
:1003E0004931004121110907003649494936004683
:1003F0004949291E0000001400000000403400009C
:1004000000000814224100141414141400004122A6
:100410001408000201590906003E415D594E007C56
:100420001211127C007F49494936003E4141412268
:10043000007F4141413E007F49494941007F090910
:100440000901003E41415173007F0808087F000008
:10045000417F4100002040413F01007F08142241BC
:10046000007F40404040007F021C027F007F040864
:10047000107F003E4141413E007F09090906003ED0
:100480004151215E007F0919294600264949493218
:100490000003017F0103003F4040403F001F204018
:1004A000201F003F4038403F0063140814630003DE
:1004B00004780403006159494D4300007F414141E4
:1004C00000020408102000004141417F00040201A5
:1004D00002040040404040400000030708000020A4
:1004E00054547840007F2844443800384444442819
:1004F00000384444287F0038545454180000087EC3
:100500000902001824241C78007F080404780000E5
:10051000447D4000002040403D00007F1028440002
:100520000000417F4000007C04780478007C0804CF
:100530000478003844444438007C182424180018F7
:100540002424187C007C08040408004854545424D3
:100550000004043F4424003C4040207C001C204018
:10056000201C003C4030403C004428102844004CF3
:100570009090907C004464544C4400000836410044
:100580000000007700000000413608000002010270
:100590000402003C2623263C00F078F808C42454CA
:1005A00014141414341414349494149424C408F0BB
:1005B0000000808000000000F8042252E242424223
:1005C000E2522222224282020222220204F8000087
:1005D000F804020282422242820202028242221273
:1005E0002242820204F80000F8FCDEAE1EBEBEBE4F
:1005F0001EAEDEDEDEBE7EFEFEDEDEFEFCF80000AF
:10060000F8FCFEFE7EBEDEBE7EFEFE0000000000A8
:10061000008080404020201010080810102020404A
:100620004080808080C0C0E0E0F0F0F8F8F0F0E0BA
:10063000E0C0C0808080804040202010100808105A
:1006400010202040408080808040C060A050B05882
:10065000A850B060A040C080803C9EFF00FF2000FA
:10066000080080021000F00F0000416204070447F8
:10067000024160000FF000001F20444A47424242FE
:10068000474A44404040404142444440201F00000B
:100690001F2040414040404040414041414F484878
:1006A000484F4141201F00001F3F7B75787D7D7DB5
:1006B00078757B7F7F7F7F7E7D7B7B7F3F1F000008
:1006C0001F3F7F7E7F7F7F7F7F7E7F000000000057
:1006D0000088885D5D3E3E7C7CF8F87C7C3E3E5D1B
:1006E0005D888888885555232347478F8F47472340
:1006F00023555588888888D5D5E2E2C4C48888C443
:10070000C4E2E2D5D5888888885DD56BB66DD6AD54
:10071000DA6DD66BB65DD588880703073C28192BA0
:100720002A3A0A0A0A0A0B0A0C18282B3A0A1B2A28
:100730002A3B080402010004F80000F804201F000E
:10074000001F20FCF80000F8043F1F00001F2004D9
:10075000F80000F8FC201F00001F3FFCF80000F824
:10076000FC3F1F00001F3FFE7EBEDEEEDEBE7EFEB3
:10077000FCF8007E7E70777777707E7E3F1F0000EA
:100780000000000000000000000000000000000069
:10079000000000010102020404080804040202012E
:1007A0000100000000010102020404080804040220
:1007B000020101000000000101030307070F0F07FA
:1007C0000703030101000000000101030205060DFB
:1007D0000A0506030201010000040330000000487E
:1007E0000343006F0072006E00650020004B00653F
:1007F00000790062006F0061007200640020005206
:1008000000650076002E003100200028004C0065B5
:100810000067006100630079002000530070006CE5
:10082000006900740029000000100366006F006F6B
:10083000007300740061006E0000000403090409E5
:10084000023B00020100A0FA0904000001030101BB
:100850000009211101000122400007058103080061
:100860000A0904010001030000000921110100012F
:10087000226D000705820320000A1201100100000A
:10088000000853460100010001020301050109802F
:10089000A101850319012AB700150126B7009501AA
:1008A00075108100C0050C0901A101850419012AF8
:1008B000A002150126A002950175108100C0050156
:1008C0000906A1018505050719E029E7150025019D
:1008D0009508750181020507190029EF150025010A
:1008E00095F0750181020508190129059505750125
:1008F0009102950175039101C005010906A1010549
:100900000719E029E7150025019508750181029571
:1009100001750881010507190029FF150026FF0050
:1009200095067508810005081901290595057501C9
:100930009102950175039101C00011241FBECFEFF4
:10094000DAE0DEBFCDBF04B603FE27C080912106EA
:1009500090912206A0912306B09124068730904BF7
:10096000A740B04BD1F410922106109222061092AB
:1009700023061092240614BE84B7877F84BF0FB667
:10098000F894A8958091600088618093600010922F
:1009900060000FBEE0E0F8E3099512E0A0E0B1E0EE
:1009A000ECE5F7E502C005900D92AC3EB107D9F732
:1009B00026E0ACEEB2E001C01D92A132B207E1F731
:1009C0000E9423210C94882B0C940000CF93DF937A
:1009D000AFE6B2E043E752E0C1E0D0E08D91E82F0E
:1009E000E295EF70F0E061A18F709E0101C0220FCF
:1009F0008A95EAF7922F9095962391A382A1822B54
:100A000082A34A175B0751F7DF91CF9108950895AC
:100A100008950C940805209A559A289A5D9A08958D
:100A20005D9808955D9A089528980895289A0895E4
:100A30000E94D0060E94E604A9E6B2E061E070E000
:100A40008D91E82FE295EF70F0E041A18F709B014E
:100A500001C0220F8A95EAF7922F9095942391A3D3
:100A600082A1822B82A382E0AF36B80749F70E94A9
:100A70000B05E4EFF2E0ACEEB2E011921D9282E0E1
:100A8000EC3FF807D1F70E94AF068093FC020C946C
:100A90004B098F929F92AF92BF92CF92DF92EF92CB
:100AA000FF920F931F93CF93DF9380910101C4E0D6
:100AB000D0E0882311F0D0E0C0E08FE6C82E82E0BD
:100AC000D82EAE0144515D4F7A018A01912CAA249F
:100AD000A394B12C25E0822EF60181916F01E82FBD
:100AE000E295EF70F0E021A18F70A50102C0440FE4
:100AF000551F8A95E2F7CA01922F982B91A392A1D4
:100B00008095892382A350EA5A95F1F7E9E6F2E04D
:100B100020E050E040E03191A32FA295AF70B0E00B
:100B200090968C9190E03F7002C0959587953A958C
:100B3000E2F780FD3CC0C501042E01C0880F0A9475
:100B4000EAF7282B4F5F5F4F4630510521F7F80138
:100B50008081821729F02083809200019924939448
:100B60000E94E6040F5F1F4FF3E7CF16F2E0DF06A7
:100B700009F0B2CF80910001882359F08150809311
:100B800000018823B1F08FE99FE00197F1F700C0E1
:100B90000000892DDF91CF911F910F91FF90EF9071
:100BA000DF90CF90BF90AF909F908F90089580E09E
:100BB000C8CFCC50DD4F84E0F70191917F0199932C
:100BC0008150D1F7E6CF0F931F93CF93DF932091FE
:100BD000010110E000E0222311F004E010E00E9487
:100BE000EB06EC01009739F0029711F40E9414050E
:100BF000C1E0D0E011C00E941605F801EC50FD4F95
:100C00008091080390910903A0910A03B0910B030E
:100C100080839183A283B383CE01DF91CF911F9113
:100C20000F9108950E94490590910101E4E0F0E0E0
:100C3000992311F0F0E0E0E0EC50FD4F30E020E0CF
:100C400040E0D901A85FBC4F5C919191591341E0FC
:100C50009C932F5F3F4F2430310599F7909101030A
:100C6000940F9093010308951F93CF93DF93809186
:100C7000FC02882309F44BC00E944905182F80917B
:100C80000101C4E0D0E0882311F0D0E0C0E0CC50F6
:100C9000DD4F44E050E0BE0184E093E00E94702804
:100CA000488159816A817B814093040350930503F5
:100CB00060930603709307030E94E305892B11F1EB
:100CC0000E9410058091FD028F5F8093FD028630A7
:100CD00070F080910101F0E0E0E0882311F0E4E0A1
:100CE000F0E0EC50FD4F10821182128213820E94BC
:100CF0005309C1E0111101C0C0E08C2FDF91CF91E9
:100D00001F9108950E9412051092FD02F0CF0E94DB
:100D10001206C1E0811101C0C0E080910101811182
:100D200014C090E080E08C509D4F4091040350919E
:100D300005036091060370910703FC014083518312
:100D4000628373830E945309D8CF84E090E0EBCF95
:100D5000E82FF0E0EC50FD4F8081089508958091D8
:100D6000FE02811111C08091D80080618093D8006B
:100D70008AE18A95F1F700C09091D900892F81709E
:100D800090FF82E08093FE0281E09091FE0291301C
:100D900009F080E008950E94AF0691E08927089548
:100DA0000E94CB06809301010E94AF06882321F0A8
:100DB0000E94DF06789408950E94E506FBCF63E069
:100DC00070E082E091E00C942A1163E070E082E030
:100DD00091E00C9433110F931F93CF93DF938C0109
:100DE00090911B0180911A01D0E0C0E0981759F052
:100DF00082E090E00E940C12EC01892B21F480919A
:100E00001A0180931B018091FF0290910003082B2F
:100E1000192B90E080E0012B11F081E090E00E941E
:100E20000C12892B71F48091010380931A011092A6
:100E300000031092FF02CE01DF91CF911F910F911D
:100E4000089581E090E0909300038093FF02F3CF38
:100E50000C94070583E0089560E08FE491E00C9422
:100E6000DB0DCF93DF93D82FD878C82FC47460E000
:100E7000DD2329F18CE491E00E94DB0D60E085E444
:100E800091E0CC2329F160E087E491E00E94DB0D42
:100E900060E08EE391E00E94DB0D60E0DD2311F164
:100EA00088E391E00E94DB0D60E083E391E00E9423
:100EB000DB0DC11122C060E089E291E021C089E42C
:100EC00091E00E94DB0DC11109C060E081E491E076
:100ED0000E94DB0D60E08BE391E0DDCF60E083E416
:100EE00091E0D4CF85E391E00E94DB0D60E0CC235C
:100EF00059F081E391E00E94DB0D60E08CE291E02B
:100F0000DF91CF910C94DB0D8FE291E00E94DB0D1D
:100F1000D2CFCF93DF93D82FD171C82FC27260E0A8
:100F2000DD2329F186E291E00E94DB0D60E08FE194
:100F300091E0CC2329F160E081E291E00E94DB0D99
:100F400060E088E191E00E94DB0D60E0DD2311F1BB
:100F500082E191E00E94DB0D60E08DE091E00E9473
:100F6000DB0DC11122C060E083E091E021C083E28B
:100F700091E00E94DB0DC11109C060E08BE191E0BE
:100F80000E94DB0D60E085E191E0DDCF60E08DE166
:100F900091E0D4CF8FE091E00E94DB0D60E0CC23A4
:100FA00059F08BE091E00E94DB0D60E086E091E07B
:100FB000DF91CF910C94DB0D89E091E00E94DB0D75
:100FC000D2CF60E083EF90E00E94DB0D60E08CEE1A
:100FD00090E00C94DB0D60E08CED90E00E94DB0D66
:100FE0000E948D0B1F928F9387E792E09F938F93C0
:100FF0008EEF93E09F938F930E947D280F900F9028
:101000000F900F900F900F9060E08EEF93E00C9494
:10101000BF0D81E00E94151B882329F060E08CEC55
:1010200090E00C94DB0D82E00E94151B60E08823A9
:1010300019F08CEB90E0F5CF8CEA90E0F2CFCF93F3
:101040000E94E1070E942C070E9409080E942C07B9
:101050000E94BD1CC82F0E94E61C8C2B0E943107E9
:101060000E94BD1CC82F0E94E61C8C2BCF910C94B3
:101070008907CF930E94EB070E942C070E94090862
:101080000E942C070E94BD1CC82F0E94E61C8C2BBE
:101090000E9431070E94BD1CC82F0E94E61C8C2BA9
:1010A000CF910C94890760910C0370910D0380918E
:1010B0000E0390910F030E945B1F613472448F40B6
:1010C000910510F00C94010F0E94ED0D8091FC022F
:1010D00081110C941F080C9439080F931F93CF9320
:1010E000DF938C01EB018A81882351F00E94401F1D
:1010F00060930C0370930D0380930E0390930F0382
:1011000009328DE5180751F00A321D4579F0C1E02A
:101110008C2FDF91CF911F910F910895CA8181E0AB
:10112000CC2339F00E94351BC0E0F2CFCA8182E0A7
:10113000F7CF0E94561BECCFCF93DF939C013A95DB
:1011400021153F4168F5EC01CC27D170DC01AA27BD
:10115000B270AC01442754709C012227387094FF70
:1011600011C080E1CD2B09F480E0AB2B09F0806247
:10117000452B09F08064232B09F08068FB01DF9187
:10118000CF91099481E0CD2B09F480E0AB2B09F0DD
:101190008260452B09F08460232B81F38860EECFB9
:1011A000DF91CF910895CF93DF93EC01805E910999
:1011B000089720F060E777E1209711F469E275E184
:1011C000CE010E949C088C2FDF91CF910C94BB1410
:1011D000CF93DF93EC010E940115CE01805E91094F
:1011E000089720F067E777E1209711F460E375E155
:1011F000CE01DF91CF910C949C0881E008950C946E
:101200006D0808950C9401091F93CF93DF9300D0CC
:1012100000D00F92CDB7DEB749835A836B833091EC
:10122000540389819A8131111DC06623B9F02223AC
:10123000A9F00E94281C182F682F89819A810E948A
:10124000D11B69817A81812F0F900F900F900F90A1
:101250000F90DF91CF911F910C94B3090E94FF1B57
:10126000182FEFCF0E94281C69817A81EDCFFC01F5
:10127000262F408151816281738184810C940409FD
:10128000CF93DF93EC0160E00E943709BE01DF914C
:10129000CF910C9402090E94621D811102C00E942C
:1012A000F21D0C9428070E9470100E940F0C0C94E1
:1012B000090508950E9490170E9459092FEF84E3B1
:1012C0009CE0215080409040E1F700C000000C9469
:1012D0009B1F0F931F93CF93DF93EC0161E00E945C
:1012E00037098C018A81882319F0C8010E94B90B43
:1012F000BE01C8010E94D00FBE01C8010E94FF08B4
:101300008823C9F0BE01C8010E941610882399F0F5
:101310008A81882339F001158CE5180751F00E3DBC
:101320001C4579F0CE01DF91CF911F910F910C9464
:10133000FD080E945A0980E0DF91CF911F910F9123
:1013400008950E94F21DF7CF08950C94A40981E03E
:1013500008950C94A709CF93C82F0E94A5098C2F3C
:10136000CF910C94A909972F70E026E0929F600D11
:10137000711D1124FB0190E3899FE00DF11D1124E3
:10138000EE0FFF1FEB5AFE4F859194910895CF9376
:10139000DF930E94B3090E94B30AEC01811522E594
:1013A0009207E8F5811531E5930708F0ACC0883E57
:1013B000910510F5803E910570F5883A910570F41D
:1013C000853A910508F078C08130910521F10097A8
:1013D00011F1049700F5D0E0C0E01DC08F3B9105EE
:1013E000D0F7C85AD0E0CC0FDD1FCF57DD4F0990A2
:1013F000D881C02DD4640FC0811540E5940708F052
:1014000066C0C11580E4D80708F05EC0CE019A9589
:1014100081159F4100F7CE01DF91CF91089581158D
:1014200036E5930718F5811545E5940708F083C064
:10143000C11584E5D80708F079C09C2F969596953C
:101440009E0123703327C115D34508F461C0C1E064
:10145000D0E002C0CC0FDD1F2A95E2F730E2939F67
:10146000C0011124C82BD92BDA68D5CFC1158AE564
:10147000D80778F4C11599E5D90708F066C0C115F9
:1014800028E5D20708F4A7CFDC2FCC27C06FD06A9D
:10149000C2CFCE0190568115904208F09CCF8D2F7F
:1014A0008F710E944A0B90E0982F882788279F71A0
:1014B0009C012C2BE90147C0C55AD0E0C155DD4F36
:1014C000C881D0E0D064A7CFDF70D06AA4CFE4E0B9
:1014D00096958795EA95E1F783702C2F26952695AA
:1014E000237040E2249F90011124382B8C2F8370AD
:1014F000C1E0D0E002C0CC0FDD1F8A95E2F7C22B1D
:10150000D32BDC6888CFD82FCC27C16FD06A83CF8C
:10151000C1E0D0E002C0CC0FDD1F2A95E2F720E247
:10152000929FC0011124C82BD92BEBCFDC2FCC27E5
:10153000C46FD06A70CF0E944A0BC82FD0E0DC2F56
:10154000CC27CC27DF71D06266CF8C2F8F700E94A2
:101550004A0B34E0D695C7953A95E1F7CF709C2FAA
:10156000EC01D06958CF82389105B1F1B0F48133E4
:10157000910509F475C048F48932910509F469C0F0
:101580008A32910509F473C008958533910509F4F1
:1015900059C08933910501F10895833E9105A9F160
:1015A00038F4803E9105F9F0823E910549F10895A5
:1015B000863E9105A9F1873E9105C9F1843E9105CA
:1015C00019F52091130621FF1FC08091120684FD9A
:1015D00014C087EE90E00895209112062370A1F0C8
:1015E00080EE90E008952091120620FD47C03091D2
:1015F000130630FF09C024FF44C090E080E004C01F
:101600002091120622FDF7CF08952091120622FDA7
:101610003BC03091130630FDE3CF24FFF5CFEDCF73
:101620002091120623FFF0CF24FDE7CFD2CF2091E7
:10163000120623FD2CC03091130631FFEECF84EE4D
:1016400090E008952091120625FFDECF89E290E018
:1016500008952091120625FFD7CF85E390E00895E5
:101660002091120626FFD0CF8AE290E008952091C3
:10167000120626FFC9CF81E390E0089589E390E048
:10168000089583EE90E0089582EE90E0089586EE4E
:1016900090E008959091120692FF06C0282F2871BD
:1016A0002830F9F4877F846093FF06C0282F2871C3
:1016B0002831F1F4877E84612091130620FF06C053
:1016C000382F38713830D9F4877F816021FF06C008
:1016D000282F28712831D1F4877E816194FD877E7F
:1016E0000895282F24712430F9F68B7F8860DCCF91
:1016F000282F2471243101F78B7E8861DDCF382FAC
:101700003171313019F78E7F8860E0CF282F217139
:10171000213121F78E7E8861E1CF809112030895F7
:101720009C013056211540E2340748F0305E211507
:1017300040E1340720F0315C21153F4178F49927CE
:101740009C01245031092432310578F027523109A7
:1017500081E02E30310550F080E008958F3F9105F3
:1017600079F370F390E080E0EBCF81E008950C9482
:10177000900BCF92DF92EF92FF92CF93DF930E9474
:10178000B70B882309F444C0809110039091110392
:101790000097C1F10E944C1F60911203C62FD0E048
:1017A0009C0150E040E060E67AEE80E090E00E942C
:1017B0002028CA01B90125E030E040E050E00E9455
:1017C000202830E02C1B3D0BB901330F880B990BFF
:1017D0000E94072727EA39E747E45DE30E94932741
:1017E0006B017C01BE01DD0F880B990B0E9407275E
:1017F0009B01AC01C701B6010E946A260E94D62651
:10180000609312030E94341F90931103809310037E
:10181000DF91CF91FF90EF90DF90CF900895CF921E
:10182000DF92EF92FF92CF93DF938091100390911C
:1018300011030E944C1F893E934060F16091120396
:10184000C62FD0E0662777276C1B7D0B072E000C78
:10185000880B990B0E94072727EA39E747E45DE3E5
:101860000E9493276B017C01BE01DD0F880B990B51
:101870000E9407279B01AC01C701B6010E946A269E
:101880000E94D626609312030E94341F9093110386
:1018900080931003DF91CF91FF90EF90DF90CF9076
:1018A0000895CF92DF92EF92FF920F931F93CF9301
:1018B000DF936C017B0164E670E088E70E94901280
:1018C000EC0197FD12C010E000E0F601E00FF11FFF
:1018D000849164E670E00E94EC12EC01892B29F4FB
:1018E0000F5F1F4F0E151F0581F70E946F13CE016A
:1018F000DF91CF911F910F91FF90EF90DF90CF90EC
:101900000895E8E0F4E080E092E0DF019C011D92A0
:1019100021503040E1F7F0930D06E0930C068FEF75
:101920009FEF90933F0380933E0308950E942A0700
:1019300080933A0380FD0FC080E8809339030E94B2
:101940008A126DE070E08CE892E00E94510C892BC5
:1019500021F080E0089580E2F0CF80913A0363E0C7
:1019600070E081FD26C089E892E00E94510C892B2D
:1019700081F76DE070E089E792E00E94510C892BBD
:1019800041F70E94401F605A75418F4F9F4F6093EF
:1019900008067093090680930A0690930B060E942E
:1019A000810C81E080933D0380933C0310923B03C4
:1019B000089586E892E0D9CF2091390336E0839FDD
:1019C000C0011124629F800D911D1124811522E018
:1019D000920714F090E080E0885F9B4F90930D0693
:1019E00080930C06089520910C0630910D0622502C
:1019F000344040913903642F70E0C9010E940C28E3
:101A0000481B463010F4240F311D211582E03807A1
:101A100010F030E020E0285F3B4F30930D0620931C
:101A20000C0608951F93CF93DF93162F8A3031F45D
:101A300081E0DF91CF911F910C948C0D8D3011F4CA
:101A400080E0F7CFC0910C06D0910D0696E0FE0124
:101A5000A3E1B3E001900D929A95E1F7803EC8F0C2
:101A600086E0FE0111928A95E9F711111EC0C0911E
:101A70000C06D0910D0646E050E0BE0183E193E0F4
:101A80000E947028892BF9F4DF91CF911F910C945B
:101A9000F30CF6E08F9FB001112467567D4F46E0AE
:101AA00050E0CE010E946728E0CFE0910C06F09153
:101AB0000D069F012A5F3F4F2E173F07C1F280811D
:101AC00080958193F9CFC850D440CE0125E09695FA
:101AD00087952A95E1F721E030E0A90102C0440F83
:101AE000551F8A95E2F7CA0140913E0350913F038A
:101AF000842B952B259645E0D695C7954A95E1F719
:101B000002C0220F331FCA95E2F7822B932B9093CA
:101B10003F0380933E03B8CFCF93382FE0910C065C
:101B2000F0910D06E850F44020913903622F70E0E7
:101B3000CF010E940C28281B822F332369F066E016
:101B40000E940028C82FC15010F4CF91089560E082
:101B500080E20E94120DF7CF9F01280F311D211541
:101B6000324018F080E0F0E0E0E08E0F9F2F911DF2
:101B7000885F9B4F90930D0680930C06E6CFFF92F3
:101B80000F931F93CF93DF93EC01F62EFC0101908E
:101B90000020E9F78F0101501109C017D10730F07B
:101BA000DF91CF911F910F91FF9008956F2D899133
:101BB0000E94120DF2CF1F93CF93DF93EC01162FEB
:101BC000FE018491811104C0DF91CF911F9108958E
:101BD000612F0E94120D2196F3CF0E94401F605A80
:101BE00075418F4F9F4F609308067093090680934D
:101BF0000A0690930B0680913C03811108C062E0B5
:101C000070E087E792E00E94510C892B19F08091D7
:101C10003C03089581E080933C03F9CF2F923F92DB
:101C20005F926F927F928F929F92AF92BF92CF926C
:101C3000DF92EF92FF920F931F93CF93DF93209148
:101C40003E0330913F032115310531F080913B0374
:101C500061E070E0882399F0DF91CF911F910F919F
:101C6000FF90EF90DF90CF90BF90AF909F908F90BC
:101C70007F906F905F903F902F9008958F5F082F17
:101C800010E01B01082E02C0220C331C0A94E2F75C
:101C9000A90142215321452B89F390913A0390FDEC
:101CA00044C08295880F80768093560298013695BD
:101CB00027953695279520935902815E8093570288
:101CC00010925A0224E630E047E050E064E572E00A
:101CD00088E70E941B13892B09F0BECFA80125E0DD
:101CE000440F551F2A95E1F780913A0380FD2BC0E0
:101CF000485F5B4F04E610E020E230E060E488E7F4
:101D00000E944213892B09F0A7CF0E94ED0DE1013B
:101D1000C095D09580913E0390913F03C823D9236D
:101D2000D0933F03C0933E0397CF880F880F880F4F
:101D30008093560210925902895F8093570283E084
:101D400080935A02BFCFE9E1F3E080E2DF011D9208
:101D50008A95E9F7A6EBB2E002EB12E08AEBC82E17
:101D600082E0D82E97E0592E772473948D91E80164
:101D700029918E01240F352F311D285F3B4FE82F0D
:101D8000F0E0E75EFC4F90E080E0652C681A872C5D
:101D9000082E01C0880C0A94EAF77901A12CE7010A
:101DA000B9907E01B820662D6A196770962E062EAE
:101DB000000C770BDB2D01C0DD0F9A94EAF77195CB
:101DC000619571096770772701C0B6946A95EAF743
:101DD000BD2A6081962E9B289082A39468E0A6126B
:101DE000DECF019631968830910579F6CA16DB066A
:101DF00009F0BCCF04E610E020E230E049E153E016
:101E00007DCF80913C03882369F062E070E085E734
:101E100092E00E94510C892B19F080913C030895A7
:101E200010923C0380913C0391E0892708950F9321
:101E30001F9380913D03882301F160E080E00E94C0
:101E4000DC0C0E9453080E940E0E80913C038823F4
:101E5000A1F00E94401F00910806109109062091F0
:101E60000A0630910B06601B710B820B930B97FDDA
:101E700004C01F910F910C94010F1F910F910895B1
:101E8000CF93DF93EC0181E0898B8F810E94C01C8E
:101E900088850E94D31C0E94FF1CEA81FB81309739
:101EA00039F06C897D89CE010696DF91CF91099436
:101EB000DF91CF910895CF93DF93EC018881823039
:101EC00039F4FB01828193810E94D30881E08B87E2
:101ED000DF91CF910895FC018081813029F4FB01CD
:101EE000808191810C94D308823021F4FB0182819E
:101EF0009381F8CF0895FC018081813029F4FB01A2
:101F0000808191810C94E808823021F4FB01828168
:101F10009381F8CF0895EF92FF920F931F93CF9381
:101F2000DF93EC018A85811134C0EB80FC8087E56A
:101F3000F81A26E12E9DC0012F9D900D1124DC0181
:101F4000A45EBE4F1496ED91FC911597309731F039
:101F500054966D917C918E5D9E4F099586E18E9D84
:101F600080018F9D100D1124045E1E4FF8018781A2
:101F70000E94C61CF80180850E94D91C0E94FF1C8B
:101F8000188219861B861E821D82109241031092B0
:101F90004003DF91CF911F910F91FF90EF90089533
:101FA000DF92EF92FF920F931F93CF93DF937C0109
:101FB000FB018281882391F080915B028F3F71F059
:101FC000CCE1D1E010E000E0DD24D39480915B020D
:101FD000082E000C990B8017910744F4DF91CF91E4
:101FE0001F910F91FF90EF90DF9008958E818823CD
:101FF000C9F089859A858E159F0539F48091400333
:10200000909141038E159F0569F0DF86FC86EB8673
:102010008989811103C0CE010E94400FCE0106962E
:102020000E948B0F0F5F1F4F6696D0CFEF92FF92EB
:102030000F931F93CF93DF937C0197558F3F9105AB
:1020400009F0D8F520915B02022E000C330B281703
:10205000390714F480935B02FB01228136E1389F3B
:102060008001399F100D1124E801C45EDE4F288BDA
:1020700092818E81992349F1FA86E9868F5F8E835A
:102080000E94341F9E878D870E94E61C8F830E94CA
:10209000BD1C88870E94D01C9885892B8887E88181
:1020A000F981309731F06C897D89C8018E5D9E4F32
:1020B0000995F0924103E092400381E0DF91CF91D6
:1020C0001F910F91FF90EF9008958823B1F38989B4
:1020D000882399F3C8018E5D9E4F0E948B0FEDCF30
:1020E000CF92DF92EF92FF920F931F93CF93DF93E4
:1020F00080915B0210E006E18F3FF1F5DF91CF9117
:102100001F910F91FF90EF90DF90CF9008950E9D5B
:10211000F0010F9DF00D1124E45EFE4FC288D388BC
:10212000C114D10439F470E060E0818592850E9489
:10213000061A6C010E9DE0010F9DD00D1124C45EA6
:10214000DE4F8E818823B9F08D859E850E944C1FBD
:10215000C816D90680F4109F700111248989811155
:1021600005C0C701845E9E4F0E94400FC7018E5D6F
:102170009E4F0E948B0F1F5FE12EF12C80915B021E
:10218000082E000C990B8E159F050CF6B7CF8EE12B
:102190004A9B02C08150E1F74A9BFECF08955A98AE
:1021A00080E28A95F1F75A9A0895FC013BE03A954E
:1021B000F1F720E090E080E031E040E14A95F1F76E
:1021C000880F4A9B02C08160232742E04A95F1F7BD
:1021D000000040E14A95F1F79F5F6913EECF90E16F
:1021E0009A95F1F799B132E03A95F1F7000040E1A4
:1021F0004A95F1F792FB992790F992272081920F47
:1022000090830895EF92FF920F931F93CF93DF93E4
:102210000F92CDB7DEB719828C017C01E60EF11C5E
:102220000E151F0561F481E09981911180E00F90F6
:10223000DF91CF911F910F91FF90EF9008950E9431
:10224000C71068E0CE0101960E94D510F801819375
:102250008F01E6CF9093440380934303609342033E
:10226000529A5A9A0895909344038093430360933B
:10227000420352985A9AEA9AE9E6F0E080818F7C0C
:10228000808308956150770B91E001C0990F6A95A2
:10229000EAF720E031E0911108C0222391F05A9A28
:1022A00080E28A95F1F75A980895492F482339F02A
:1022B0005A9A232740E24A95F1F79695ECCF5A981F
:1022C000F9CF5A98EDCFFF920F931F93CF93DF93DF
:1022D000EC018C01060F111DC017D10731F4DF91FD
:1022E000CF911F910F91FF900895F9900E94CF1008
:1022F00068E08F2D0E944211EFCF1F920F920FB610
:102300000F9211240F931F932F933F934F935F933B
:102310006F937F938F939F93AF93BF93EF93FF93AD
:10232000CF93DF930F92CDB7DEB719820E94C7100B
:1023300067E0CE0101960E94D510082F06950695FC
:102340000695982F92959570202F2570920F292F22
:102350002370969596958770920F891344C0898152
:10236000811141C0809142038017E8F120E12A9554
:10237000F1F75A9A529A82E08A95F1F700C0A8E0E4
:102380000A9FC00111240091430310914403080FD8
:10239000191F5A98F8016581662321F0868197817B
:1023A0000E9463110E94CF10F0E1FA95F1F75A985C
:1023B00052985A9A20E12A95F1F7D80112966C9119
:1023C0001297662331F113968D919C910E94021110
:1023D000D801ED91FC91882311F088E001C082E0E2
:1023E00080830E94C7100F90DF91CF91FF91EF91F2
:1023F000BF91AF919F918F917F916F915F914F911D
:102400003F912F911F910F910F900FBE0F901F9032
:102410001895ED91FC91E1CF0F931F93CF93DF932C
:1024200020914203281719060CF471C08C0193E027
:10243000000F111F9A95E1F7C0914303D091440317
:10244000C00FD11FF894529A5A9825E02A95F1F7B7
:102450000000982F969595708570980F892F83703E
:1024600096959695980F092B0E94CF1000C067E0B3
:10247000802F0E94421180E18A95F1F752985A9A72
:102480004A9B17C087E090E04A9915C06D8166238A
:1024900021F18E819F810E94021181111EC0529AEA
:1024A0005A9AE881F98182E08083789482E090E012
:1024B0000DC000C0E5CF019771F4529A5A9AE88195
:1024C000F98181E08083789481E090E0DF91CF9181
:1024D0001F910F91089500C0D7CF0E94C71020E22E
:1024E0002A95F1F75A98529A80E18A95F1F76A8114
:1024F000662321F08B819C810E9463110E94CF1082
:10250000E881F9811082789490E080E0DFCF84E068
:1025100090E0DCCF1092B9008CE08093B800089571
:10252000EF92FF920F931F93CF93DF93182FEB013E
:102530001092BC0084EA8093BC000E94341F7C018E
:102540008091BC0087FF27C08091B900887F8830C8
:1025500029F08091B900887F8031D9F51093BB00B4
:1025600084E88093BC000E94341F8C018091BC00E1
:1025700087FF24C02091B900287F90E080E02831B7
:10258000B1F081E090E0203411F490E080E091958A
:10259000819591090CC0CF3FDC0791F20E94341F56
:1025A0008E199F098C179D0758F28EEF9FEFDF91D0
:1025B000CF911F910F91FF90EF900895CF3FDC07CF
:1025C000A9F20E94341F801B910B8C179D0770F29B
:1025D000ECCF8FEF9FEFEBCF0F931F93CF93DF9352
:1025E000EB018093BB0084E88093BC000E94341F01
:1025F0008C018091BC0087FF11C02091B900287F19
:1026000081E090E0283211F490E080E0919581958E
:102610009109DF91CF911F910F910895CF3FDC0772
:1026200041F30E94341F801B910B8C179D0708F308
:102630008EEF9FEFEECFCF92DF92EF92FF920F934C
:102640001F93CF93DF936B018A017901B9010E9437
:102650009012E6010C0D1D1DC017D10761F424E98D
:102660002093BC00DF91CF911F910F91FF90EF90CD
:10267000DF90CF90089597FDF2CFB70189910E9426
:10268000EC12EACFCF92DF92EF92FF920F931F935B
:10269000CF93DF93C62F6A017901B8010E9490128F
:1026A00097FD0CC0B8018C2F0E94EC12E601EC0CD7
:1026B000FD1CCE15DF0511F097FF0CC024E9209317
:1026C000BC00DF91CF911F910F91FF90EF90DF90B1
:1026D000CF900895B80189910E94EC12EACF84E965
:1026E0008093BC00089590934A0380934903089512
:1026F000E0914903F0914A03309721F00190F08175
:10270000E02D099480E00895E0914903F0914A0397
:10271000309799F020916802222359F020911206F7
:1027200027FF07C0DC012C9111962C93119725E00F
:102730002C930280F381E02D0994089520914703A2
:10274000309148032817390771F09093480380931C
:102750004703E0914903F0914A03309721F0068046
:10276000F781E02D099408952091450330914603A7
:102770002817390771F09093460380934503E09141
:102780004903F0914A03309721F00084F185E02D50
:102790000994089585B7806885BF85B7806885BF2F
:1027A0000895089508950C94D11308950C94D513A9
:1027B0000E94CA130E94D2130C94D31381E008958F
:1027C0000C94DE130E942B1F0E94180580E00E94CB
:1027D000960C0E94AC1F0C94D613AF92BF92CF926E
:1027E000DF92EF92FF920F931F93CF93DF93CDB7BA
:1027F000DEB72A970FB6F894DEBF0FBECDBF0E949A
:102800003406B82E0E94E013882309F463C08CE4D8
:10281000C82E83E0D82E10E000E0A02E802F0E946A
:10282000A806E82EF601F1906F01F81609F44CC0E5
:102830008091D80381FD0E94AE069F2D9E2580E0E9
:10284000FF24F394292F2F21D1F18E83AF82EF2023
:1028500081E009F480E088870E94341F8160782F2E
:102860009A8789874E815F8168858A850E948C144A
:10287000F801E45BFC4F8081F826F0820E94170F7C
:10288000B1100E94ED0D0E94781390914B038917AF
:1028900091F10E94781380934B032A960FB6F89417
:1028A000DEBF0FBECDBFDF91CF911F910F91FF9083
:1028B000EF90DF90CF90BF90AF900C94AB098F5FFB
:1028C000FF0C863009F0BECF0F5F1F4F0830110597
:1028D00009F0A3CF8FEF89838A831B820E94341F64
:1028E0008160782F9D838C8349815A816B818D8192
:1028F0000E948C14C3CF2A960FB6F894DEBF0FBE89
:10290000CDBFDF91CF911F910F91FF90EF90DF909E
:10291000CF90BF90AF900895CF93DF93CDB7DEB740
:102920002B970FB6F894DEBF0FBECDBF4F835887ED
:1029300069877A878B871E821D8285E0FE01379624
:10294000DE01119601900D928A95E1F749815A8135
:102950006B817C818D819E812B960FB6F894DEBFB2
:102960000FBECDBFDF91CF910C94091AFC0180817D
:1029700091810C946A1CCF93C82F882309F43FC01F
:102980008CEF8C0F813AA0F46C2F80915C029091B7
:102990005D020E94081E882329F08C2F0E949F1C34
:1029A0000E94FF1C8C2F0E94981CCF910C94FF1C3E
:1029B00080E28C0F883048F4C77081E001C0880F36
:1029C000CA95EAF70E94C01CF0CFEBE5EC0FE330AC
:1029D00040F4F0E0E851FD4F808190E0CF910C94FD
:1029E0009E13C85AC73158F4EC2FF0E0EE0FFF1FCA
:1029F000E654FD4F80819181CF910C94B413CF9117
:102A00000895882329F19CEF980F913A20F40E94B1
:102A10009F1C0C94FF1C90E2980F983050F4877024
:102A200091E001C0990F8A95EAF7892F0E94C61C90
:102A3000F0CF9BE5980F933020F490E080E00C9469
:102A40009E13885A873120F490E080E00C94B413F0
:102A50000895882321F00E94C01C0C94FF1C089547
:102A6000882321F00E94C61C0C94FF1C0895BF927D
:102A7000CF92DF92EF92FF920F931F93CF93DF934A
:102A80007C01D62FC72FFC01058102950F701281A2
:102A900011110E94E01C0E94B61CD82E882391F0D0
:102AA0001123E9F08C2F807F803421F080E28D0F9C
:102AB0008830A8F082E00E944A1D0E94B61C91E076
:102AC000D82ED926CC2EC2949FE0C922FBE0FC155B
:102AD000A8F1EC2DF0E0E657F44D0C943F28D12CF2
:102AE000F1CF0C2F0F70C07F11F00295007F1123E2
:102AF000A9F0002359F080E28D0F883010F0D11139
:102B000009C0802F0E94C01C0E94FF1C8D2F0E94B4
:102B1000BB1414C0802F0E94D31CF6CF8D2F0E94AF
:102B20000115002359F080E28D0F883010F0D1118B
:102B30002BC0802F0E94C61C0E94FF1CEC2DE85069
:102B4000FF0B349720F40E9478130E94AB09DD201C
:102B500009F47DC10E94B21C80FD79C1F701128287
:102B60000E94AC1C0E94351BC7010E9448170E949E
:102B7000AC1CDF91CF911F910F91FF90EF90DF90F0
:102B8000CF90BF900C94561B802F0E94D91CD4CF9D
:102B90002C2F2F70B22EC07FC03219F0B29480EF6C
:102BA000B822DD2339F0D13019F1112361F100236E
:102BB00021F1ACCF112381F0011106C00E94E61C67
:102BC0008B290E942915BACF0130C1F70E94E61C5B
:102BD0008B290E94EC1CB2CF011106C00E94F51C8B
:102BE0008B2D0E943015AACF013009F4A7CFF6CF64
:102BF000112329F0063008F0A1CF8B2DE2CF05304C
:102C000008F09CCFEDCF002359F3D93349F43FEFBF
:102C100087EE93E0315080409040E1F700C0000023
:102C20008D2F0E9401158ACF8C2F869586958370F3
:102C300069F0813009F082CF8D2F9C2F9370111194
:102C400002C090E080E00E94B41378CF8D2F9C2FBB
:102C50009370111102C090E080E00E949E136ECF2D
:102C60008C2F837009F041C0111168CF4D2F429510
:102C700046954770440F440F0D2F0F7010E030E061
:102C800020E0042E04C0000F111F221F331F0A94DE
:102C9000D2F760E070E0CB01D4FF0FC06FE070E0CE
:102CA00080E090E004C0660F771F881F991F4A9547
:102CB000D2F76095709580959095C695C695C3702E
:102CC000602B712B822B932BC23049F058F4C1300A
:102CD00019F00E94C71A32CF0E94B51A2FCF0E9456
:102CE000D91A2CCF0E94B31A29CF8695112311F03F
:102CF0008C2F8170882309F421CF4D2F4295469562
:102D00004770440F440F0D2F0F7010E030E020E0AB
:102D1000042E04C0000F111F221F331F0A94D2F784
:102D200060E070E0CB01D4FF0FC06FE070E080E0A6
:102D300090E004C0660F771F881F991F4A95D2F74D
:102D40006095709580959095C695C695C370602BDB
:102D5000712B822B932BC23049F058F4C13019F0FB
:102D60000E94AC1BEBCE0E949A1BE8CE0E94BE1BB9
:102D7000E5CE0E94EF1AE2CECF70112329F08C2FFE
:102D80000E94351B8D2F1DCF8D2F0E9430158C2F4B
:102D90000E94561BD3CED23F89F160F4D03FC9F0D8
:102DA000D13F29F1112309F442C00111AFCE8C2F7C
:102DB0008F7121C0D33F39F1D43FA1F7112369F1BD
:102DC000CF718C2F0E94351B63E08C2F0E94351D24
:102DD000B5CE112341F0053008F0B0CE8C2F8F71A5
:102DE0000E94791BABCE063008F0A8CEF7CF8C2F0F
:102DF0008F71112369F20E94351BA0CE8C2F8F7129
:102E00001123C9F3C5CF112329F08C2F8F710E9494
:102E1000201B94CE0E94FB1A91CE81E00E944A1D95
:102E2000023008F48BCE82E00E944A1D87CE002338
:102E300059F0D93309F0F4CEEFEFF7EE23E0E1508B
:102E4000F0402040E1F7EACE8C2F8F71A1CFDF91C7
:102E5000CF911F910F91FF90EF90DF90CF90BF9097
:102E600008950F931F93CF93DF93EC0168817981CD
:102E70008A810E94741C8C010E94D01B0E94B21A8D
:102E8000B801CE01DF91CF911F910F910C943715AE
:102E9000CF93DF93EC018B819C81892B29F0888172
:102EA000998189238F3F59F4DF91CF910895CE0105
:102EB0000E943117CE01DF91CF910C944009CE01D1
:102EC0000E9469098111F3CF0E94B61C882361F327
:102ED0008A81882349F382E0DF91CF910C944A1DC7
:102EE000882321F00E94D31C0C94FF1C0895882392
:102EF00021F00E94D91C0C94FF1C08950E94E01C34
:102F00000E94E31C0E94FF1C90E080E00E949E1340
:102F100090E080E00C94B4130E94A61C0C947E17E1
:102F20000E94CD1C0C948C17E92FE295EF70E250B3
:102F3000EE3070F4F0E0EA56F44D0C943F28803FF8
:102F400019F020F4883E20F481E00895843FE1F3F5
:102F500080E00895883EC0F3813FD1F7F5CF93FB21
:102F6000882780F908950E946A1C0C949417CF93C7
:102F7000DF9300D000D00F92CDB7DEB70F900F9047
:102F80000F900F900F90DF91CF910895CF93DF9323
:102F900000D000D000D0CDB7DEB726960FB6F8949B
:102FA000DEBF0FBECDBFDF91CF9108951F93CF93AA
:102FB000DF93C091550316E0809156038C1304C033
:102FC000DF91CF911F910895D0E01C9FF0011D9FCC
:102FD000F00D1124E95AFC4F4081518162817381C7
:102FE000848195810E94C6172196C770E5CF4091D4
:102FF0008703509188036091890370918A038091BF
:103000008B0390918C030C94C6171F93CF93DF937F
:1030100080918C03807FA9F480918903882389F0B3
:1030200080915503C0915603609187037091880386
:10303000A0918A03B0918B03D62FD72316E0C81333
:1030400004C0DF91CF911F91089590E0109711F087
:10305000DF3F19F401968770F2CF189F9001199FF6
:10306000300D1124F901E95AFC4F41814713F2CF89
:1030700040814613EFCF42814111ECCF438154810F
:103080004A1B5B0B403A510528F780918C038F70E7
:10309000806180938C03F901E45AFC4F80818F702A
:1030A0008061808387E893E00E944817DF91CF9189
:1030B0001F910C94D617AF92BF92CF92DF92EF92EE
:1030C000FF920F931F93CF93DF93CDB7DEB7619736
:1030D0000FB6F894DEBF0FBECDBF8C0185E0F801BE
:1030E000DE011D9601900D928A95E1F7F80140816D
:1030F0005181E28087E8C82E83E0D82E60918A0350
:1031000070918B036115710509F461C1909187037A
:1031100020918803892F82238F3F09F458C1A3800F
:10312000B480F0908903F501E61BF70BFF2009F44A
:10313000FCC080918C03382F307FE03AF10508F015
:10314000B2C0311179C0FE2C251323C0941321C0C5
:10315000E1101FC08F70806180938C030E94F7176D
:10316000C6010E94481780918C03F80185838F2D3A
:1031700061960FB6F894DEBF0FBECDBFDF91CF9141
:103180001F910F91FF90EF90DF90CF90BF90AF9085
:103190000895AB2829F0842F85238F3F09F033C190
:1031A00080E0F82FF170DF2E80FF3CC08091550346
:1031B0002091560336E0821315C04D875E878D85BA
:1031C0009E850E946A1C292F22952F702230F0F0D4
:1031D000243018F59F70F1F0F8019581907FD1F4BB
:1031E000D12C1EC090E0389FF001399FF00D1124C2
:1031F000E95AFC4F6181651306C06081641303C006
:1032000062816E110FC001968770D5CF9F7011F04B
:10321000882331F3805E883018F3C8010E94481774
:10322000FD2CA5CFEE2009F4A2CF80918C03816004
:1032300080938C03F12C9BCF251306C0941304C0FC
:10324000F801EE2009F48DC04D875E878D859E853F
:103250000E94B317882319F1EE2009F180918C03A5
:10326000803270F0209187033091880338872F8354
:103270001986BB86AA868C87CE0107960E944817BE
:1032800086E0F801A7E8B3E001900D928A95E1F796
:103290000E9405180E94F717FF24F39468CFC80115
:1032A0000E944817F9CF311113C07A2DB98AA88A24
:1032B0006E2D89890E94B71787E893E00E9448170E
:1032C00086E0F60111928A95E9F70E94F717B2CFCE
:1032D00025130FC094130DC0E1100BC0F8018583B6
:1032E000C8010E94481786E0F60111928A95E9F715
:1032F0003ECF4D875E878D859E850E94B3178823BC
:1033000071F2EE2061F280918C03803208F4B8CF24
:1033100020918703309188033A8329831B82BD82E1
:10332000AC828E83CE010196A9CFE03AF10508F078
:1033300041C0FE2CEE2009F4B2CF25132AC094130D
:1033400028C080918C0380FD1BC0982F907FC1F016
:10335000F8018583903F31F0982F907F905F8F70B8
:10336000892B8583C8010E94481786E0F801A7E8E9
:10337000B3E001900D928A95E1F70E94F717F7CE1E
:1033800086E0F801A7E8B3E001900D928A95E1F795
:10339000EECE4D875E878D859E850E94B317811185
:1033A0006FCF80918C03816080938C03C8010E9451
:1033B0004817DDCE7A2DB98AA88A6E2D89890E9498
:1033C000B71786E0F60111928A95E9F7D6CFEE207D
:1033D00009F465CF4D875E878D859E850E94B31762
:1033E000F82E882309F45BCF86E0F801A7E8B3E064
:1033F00001900D928A95E1F787E893E00E94B61458
:103400000E940518BACF81E08E25CBCE80EA90E0ED
:1034100008951F93CF93DF93CDB7DEB72C970FB6E8
:10342000F894DEBF0FBECDBF4F83588769877A8778
:103430008B879C87CE0107960E945B18882369F0D2
:103440008A859B85892B39F04F815885842F852368
:103450008F3F09F071C016E05FC086E0FE0137962D
:10346000DE01119601900D928A95E1F78A859B8580
:10347000892B89F38F81988589238F3F61F3209170
:10348000560330E0C9010196877099274091550392
:103490004817190671F40E94901710925603109263
:1034A000550386E0E7E8F3E0DF011D928A95E9F72E
:1034B000D2CF96E0929FD001939FB00D1124A95ACC
:1034C000BC4FFE01319601900D929A95E1F78093E1
:1034D00056030E94D617BFCF819FC0011124895A7D
:1034E0009C4F0E945B188823E9F0E09155031E9FD2
:1034F000F0011124E95AFC4F4081518162817381AE
:10350000848195810E94C6178091550390E00196B1
:1035100087709927809355038091550390915603A6
:103520008913DACF2C960FB6F894DEBF0FBECDBF4D
:10353000DF91CF911F91089569857A858B859C8550
:103540000E94C61788CF08950C94A31A0E94A41A4B
:103550006093AF037093B0038093B1039093B20371
:103560000C947E1708950C94A61A0F931F93009144
:10357000AF031091B0032091B1033091B203602BDF
:10358000712B822B932B1F910F910C94A61A0F93E2
:103590001F930091AF031091B0032091B1033091BC
:1035A000B20360237123822393231F910F910C9404
:1035B000A61A0F931F930091AF031091B0032091AF
:1035C000B1033091B20360277127822793271F919F
:1035D0000F910C94A61A0C94A31A0C94EB1A0E9447
:1035E000ED1A6093AB037093AC038093AD0390939B
:1035F000AE030C947E1760E070E0CB010C94EF1AE0
:10360000611571058105910529F481E0442361F07C
:1036100080E00895DC01CB0104C0B695A79597958D
:1036200087954A95D2F781700895482F6091AB0332
:103630007091AC038091AD039091AE030C94001B8C
:103640000F931F9341E050E060E070E08A019B011E
:1036500004C0000F111F221F331F8A95D2F7C90122
:10366000B8011F910F910C94EF1A0F931F9341E033
:1036700050E060E070E004C0440F551F661F771FE4
:103680008A95D2F78091AB039091AC03A091AD03E2
:10369000B091AE038A019B01082B192B2A2B3B2BDF
:1036A000C901B8011F910F910C94EF1A0F931F934A
:1036B00041E050E060E070E004C0440F551F661F19
:1036C000771F8A95D2F7CB01BA01609570958095E6
:1036D00090950091AB031091AC032091AD03309114
:1036E000AE0360237123822393231F910F910C94C7
:1036F000EF1A0F931F9341E050E060E070E004C0C8
:10370000440F551F661F771F8A95D2F78091AB0330
:103710009091AC03A091AD03B091AE038A019B01DF
:10372000082719272A273B27C901B8011F910F91A4
:103730000C94EF1A0F931F930091AB031091AC03FD
:103740002091AD033091AE03602B712B822B932B14
:103750001F910F910C94EF1A0F931F930091AB03DD
:103760001091AC032091AD033091AE03602371231F
:10377000822393231F910F910C94EF1A0F931F93A1
:103780000091AB031091AC032091AD033091AE03D7
:1037900060277127822793271F910F910C94EF1AAE
:1037A0000895E92FEE0FE90FEE0F8E0F982F977007
:1037B00041E001C0440F9A95EAF786958695869573
:1037C00095E0899FF0011124E357FC4F30E020E0A1
:1037D00070E05191DF011197CB01022E02C0969546
:1037E00087950A94E2F78170819585278423852740
:1037F0008C932F5F3F4F2530310559F70895E92FFE
:10380000EE0FE90FEE0F8E0F982F97708695869525
:10381000869525E0829FF0011124E357FC4F50E08C
:1038200040E080E0219130E0092E02C036952795D6
:103830000A94E2F721703327042E01C0220F0A9464
:10384000EAF7822B4F5F5F4F4530510559F70895D6
:10385000BF92CF92DF92EF92FF920F931F93CF937D
:10386000DF938C01C090AB03D090AC03E090AD032C
:10387000F090AE038091AF039091B003A091B1039B
:10388000B091B203C82AD92AEA2AFB2ACFE1D0E0B4
:10389000BC2ED701C6010C2E04C0B695A7959795EE
:1038A00087950A94D2F780FD0EC0219788F7B12C36
:1038B0008B2DDF91CF911F910F91FF90EF90DF90B3
:1038C000CF90BF900895B8018C2F0E94C70901972F
:1038D00061F3EECFCF93DF93EC010E94281CBE0171
:1038E000DF91CF910C94C7091F93CF93DF93EB0126
:1038F00090915403992331F0CB01DF91CF911F9127
:103900000C946A1C882379F0CB010E94281C182F84
:10391000682FCE010E94D11BBE01812FDF91CF9174
:103920001F910C94C709CB010E94FF1B182FF4CFE5
:10393000682F80915C0290915D020C94881E682F24
:1039400080915C0290915D020C94931E80915C02C8
:1039500090915D020C949E1E8091B3038595859590
:10396000859508958091B303877008959091B3036E
:10397000977081E009F480E008958091D70308955D
:103980009091D703892B8093D703089580959091C8
:10399000D70398239093D70308951092D7030895DF
:1039A0008091D60308959091D603892B8093D603F6
:1039B000089580959091D60398239093D603089507
:1039C0001092D60308951092D50308958091B40300
:1039D000089508950C94E91C9091B403981721F070
:1039E0008093B4030C94EA1C08958091B403882357
:1039F00029F01092B40380E00C94EA1C0895E09141
:103A00005C02F0915D028091D7038083E0915C02BB
:103A1000F0915D0280819091D603892B8083E091A3
:103A20005C02F0915D0280819091D503892B8083A7
:103A30009091B403992381F0E0915C02F0915D02D2
:103A40008081892B808380915C0290915D020E942D
:103A5000F41D81110E94F51C80915C0290915D0221
:103A60000C94841308950C94321D98E0899F900162
:103A70001124622B6093B3030E94351B8091B30322
:103A80008595859585950C94331D1092B30380E040
:103A90000C94331D9091B303809589238093B303D5
:103AA000282F277071F4282F082E000C330B921743
:103AB000130639F08595859585950E94561B0C94C3
:103AC000451D089590E080E00E94172B21E08C3E78
:103AD0009E4F09F020E0822F089582E090E00C9440
:103AE0000F2B83E090E00C940F2BCF9384E090E0B9
:103AF0000E940F2BC82F81E290E00E940F2B982F7D
:103B00008C2FCF910895AB01BC018FE090E00C9415
:103B10002F2BAB01BC0183E190E00C942F2B60E0D4
:103B200070E0CB010C94891D60E070E0CB010E9435
:103B3000831D0C948F1D6CEE7EEF90E080E00E9460
:103B40003B2B60E082E090E00E941D2B60E083E070
:103B500090E00E941D2B1092AF031092B0031092C0
:103B6000B1031092B20360E084E090E00E941D2B4C
:103B700060E081E290E00E941D2B60E085E090E033
:103B80000E941D2B60E086E090E00E941D2B6FEFED
:103B900087E090E00E941D2B40E050E0BA0188E0F1
:103BA00090E00E942F2B60E08DE090E00E941D2BA2
:103BB00040E050E0BA0188E190E00E942F2B60E0E5
:103BC00087E190E00E941D2B40E050E0BA018CE1BB
:103BD00090E00E942F2B60E080E290E00E941D2B7D
:103BE0000C94941D0C949B1DFC01329680916802EC
:103BF000882321F0809112069EE187FF96E080E005
:103C0000915008F4089521912223D1F38F5FF8CFCA
:103C1000662301F1209168022223F1F0209112061F
:103C200027FF1AC0462F4695469546954E3190F48B
:103C3000677021E030E002C0220F331F6A95E2F77F
:103C4000840F911DFC01828190E02823392381E0BB
:103C5000232B69F480E00895FC01329608962191A7
:103C6000261721F0E817F907D1F7F4CF81E008957E
:103C70009C01FC0132969FEF80E04191461751F084
:103C80009F3F19F4411101C0982F8F5F8630A9F72B
:103C90009F3F09F40895290F311D97FD3A95F901C9
:103CA00062830895FC01329608962191261303C081
:103CB000DF0111971C92E817F907B9F70895E62F6D
:103CC000E695E695E695EE3168F4E80FF92FF11DDB
:103CD000677021E030E001C0220F6A95EAF7828127
:103CE000822B82830895E62FE695E695E695EE31E0
:103CF00070F4E80FF92FF11D677021E030E001C08A
:103D0000220F6A95EAF7209582812823228308955D
:103D100020916802222329F02091120627FD0C949D
:103D20005F1E0C94381E20916802222329F02091F6
:103D3000120627FD0C94731E0C94521EFC01329641
:103D400080916802882351F08091120687FF06C097
:103D50008EE1DF011D928A95E9F7089586E0F9CF9B
:103D6000089508950C94B11E0E94B21E8091180609
:103D7000843049F11092D90388E190E020E40FB635
:103D8000F894A895809360000FBE2093600080E0B7
:103D90000E94AB090E94B21E83B7817F846083BFFB
:103DA00083B7816083BF7894889583B78E7F83BF04
:103DB0000FB6F894A89580916000886180936000A8
:103DC000109260000FBE08950895CF930E94B01E18
:103DD0000E9434060E94E41EC0E08C2F0E94A806B8
:103DE000811105C0CF5FC830C1F7CF91089581E040
:103DF000FCCF08950C94F91E0E9490170E9478132E
:103E00000E94AB090C94FA1E1F921FB61F92112438
:103E10008F939F93AF93BF938091D903811113C068
:103E200080910E0690910F06A0911006B091110698
:103E30004196A11DB11D80930E0690930F06A0938D
:103E40001006B0931106BF91AF919F918F911F9073
:103E50001FBE1F90189582E084BD93E095BD9AEF38
:103E600097BD80936E0008952FB7F89480910E0649
:103E700090910F06A0911006B09111062FBF0895E2
:103E80002FB7F89460910E0670910F06809110067E
:103E9000909111062FBF08959C014FB7F89480911F
:103EA0000E0690910F06A0911006B09111064FBF1B
:103EB000821B930B0895CF92DF92EF92FF922FB760
:103EC000F894C0900E06D0900F06E0901006F09087
:103ED00011062FBFA7019601261B370B480B590B64
:103EE000CA01B901FF90EF90DF90CF9008957894C8
:103EF0001F921FB61F9211248F939F93AF93BF936E
:103F000080910E0690910F06A0911006B0911106B7
:103F10000196A11DB11D80930E0690930F06A093EC
:103F20001006B0931106BF91AF919F918F911F9092
:103F30001FBE1F90189587E797E79093010880931D
:103F4000000888E19AE00FB6F894A8958093600085
:103F50000FBE90936000FFCF0E94621D811102C0CE
:103F60000E94F21D0E946D1D8093D8030E94751D52
:103F700090931306809312060E94711D682F70E0C3
:103F800090E080E00E94B31A6091AB037091AC03A3
:103F90008091AD039091AE030C94ED1A8091FA03D9
:103FA00008950895CF93DF9300D00F92CDB7DEB779
:103FB00090911806943019F589837B836A8382E097
:103FC0008093E9008FEF9091E800815095FD06C045
:103FD00095ED9A95F1F700008111F5CF8091E800F9
:103FE00085FF0DC050E040E063E070E0CE01019637
:103FF0000E94D8218091E8008E778093E8000F908E
:104000000F900F90DF91CF910895BC0184E00C9444
:10401000D21FBC0183E00C94D21FCF93DF93EC013D
:10402000809168028823B1F18091120687FF32C027
:1040300060E282E08093E9008FEF9091E800815088
:1040400095FD06C095ED9A95F1F700008111F5CF29
:104050008091E80085FF1BC08091680270E050E00D
:1040600040E0811104C050E040E068E070E0CE0123
:104070000E94D8218091E8008E778093E80080E24A
:10408000FE01AAEDB3E001900D928A95E1F7DF9170
:10409000CF91089568E081E0CDCF8091170681111E
:1040A00009C00E9468230E94C5238091E2008460B9
:1040B0008093E200089510921706089508950895D8
:1040C0000C94FC1E42E061EC81E00E94E42242E29A
:1040D00061EC82E00C94E42280911A06833009F4AA
:1040E0005FC030F48130C1F1823009F49BC0089583
:1040F0008A3009F487C08B3009F46DC0893009F02B
:104100004EC080911906813209F049C080911D0688
:1041100090911E06029708F042C08091E800877FC8
:104120008093E8008091E80082FF35C09091F30011
:104130008091F200029729F48091F1008B7F813009
:1041400021F48091F1008093FA038091E8008B774D
:104150008093E8000C94182380911906813AF9F4B1
:104160008091E800877F8093E80080911D06909100
:104170001E06892B61F460E28AED93E070E00E94F4
:1041800027228091E8008B778093E800089560E013
:1041900090E080E0F3CF809118068111C3CF08959D
:1041A00080911906813AD9F780911D0690911E06DB
:1041B000892BA9F78091E800877F8093E8008091A0
:1041C000E80080FFFCCF809168028093F10080912D
:1041D000E8008E77BDCF80911906813201F780917A
:1041E0001D0690911E06892BD1F68091E800877FED
:1041F0008093E8000E94182380911B068093680238
:104200000C94901780911906813249F68091E8004C
:10421000877F8093E8000E94182380911C0680937A
:10422000FB03089580911906813A09F0B8CF809177
:10423000E800877F8093E8008091E80080FFFCCF52
:104240008091FB03C2CF84B7877F84BF0FB6F894F9
:10425000A895809160008861809360001092600052
:104260000FBE80E890E00FB6F894809361009093C1
:1042700061000FBE0E94D8130E9468230E94C523CC
:104280008091E20084608093E20078940E944E2640
:104290000E94E2138EE592E00E947313809118064B
:1042A000853019F00E94ED13F9CF0E94B41E809161
:1042B0001606882399F30E94E51E882379F30E944D
:1042C000C221ECCF0C946421292F332723303105F0
:1042D00019F168F42130310509F44AC02230310562
:1042E00009F44BC090E080E030E020E028C02132AB
:1042F000310579F122323105A9F780E490E029EF08
:1043000038E061157105D9F08DE690E02CE838E0D1
:1043100061307105A1F0E6CF99278130910599F0C0
:10432000009741F08230910589F00397D9F6E9EDC5
:10433000F7E002C0EBE3F8E0849190E09F01FA011E
:10434000318320830895E9E2F8E0F6CFEFEDF7E05E
:10435000F3CF89E090E021E538E06115710579F34C
:1043600089E090E02AE638E06130710541F3BACF88
:1043700082E190E02AE738E0E2CF8BE390E02FE3A0
:1043800038E0DDCF80E189BD82E189BD09B400FE5E
:10439000FDCF8091D8008F7D8093D8008091E00080
:1043A00082608093E0008091E00081FDFCCF089561
:1043B000AF92BF92CF92DF92FF920F931F93CF9352
:1043C000DF936C01EB018A010E943723F82E8111E3
:1043D00023C00115110539F0F80180819181C81BB6
:1043E000D90BC80ED91EB12CA12C2097A9F0809111
:1043F000E80085FD22C08091E8008E778093E80078
:1044000001151105A1F0F80180819181A80EB91E56
:10441000B182A08285E0F82E8F2DDF91CF911F9180
:104420000F91FF90DF90CF90BF90AF9008950E94C2
:1044300037238823D1F2F82EEFCFF60181916F0157
:104440008093F1002197FFEFAF1ABF0ACECFFC0196
:1044500080911F069091200686179707A0F061159E
:10446000710529F49091E8009E779093E80090E020
:104470006115710551F4911108C08091E80082FF27
:1044800034C080E00895BC01F2CF809118068823E3
:10449000C1F18530C1F18091E80083FD30C0809189
:1044A000E80082FDEACF8091E80080FFE1CF8091B3
:1044B000F3002091F200382F6115710519F02830B2
:1044C000310558F091E02830310509F090E0209155
:1044D000E8002E772093E800CBCF81918093F10004
:1044E000615071092F5F3F4FE7CF809118068823F5
:1044F00041F0853041F08091E80083FFBECF81E03C
:10450000089582E0089583E00895FC0180911F06DC
:104510009091200686179707A0F06115710529F480
:104520008091E8008E778093E80090E06115710536
:1045300051F4911108C08091E80082FF35C080E0FD
:104540000895BC01F2CF809118068823C9F1853007
:10455000C9F18091E80083FD31C08091E80082FDBF
:10456000EACF8091E80080FFE1CF8091F3002091B5
:10457000F200382F6115710519F02830310558F017
:1045800091E02830310509F090E08091E8008E77C5
:104590008093E800CBCF84918093F10031966150F5
:1045A00071092F5F3F4FE6CF80911806882341F0B5
:1045B000853041F08091E80083FFBDCF81E0089510
:1045C00082E0089583E00895982F973028F08F7047
:1045D0008093E90081E008959093E900242F762FDD
:1045E00050E0981731F07091EC002091ED0050915F
:1045F000F00021FD02C09F5FE8CF3091EB003E7FCD
:104600003093EB003091ED003D7F3093ED00309121
:10461000EB0031603093EB007093EC002093ED00E1
:104620005093F0002091EE0027FDE5CF80E0089543
:104630008091190687FF13C08091E80082FF06C0B1
:104640008091E8008B778093E80004C08091180681
:104650008111F2CF0895809118068823D9F38091B3
:10466000E80080FFF8CF8091E8008E77ECCF2091B2
:10467000E4003091E50095E6A9012091EC00822F3D
:10468000817020FF06C08091E80080FF06C080E0B6
:1046900008952091E80022FD1AC080911806882311
:1046A00089F0853089F08091EB0085FD0FC0209165
:1046B000E4003091E50042175307F9F29150E1F61A
:1046C00084E0089582E0089583E0089581E00895EC
:1046D0000E94D6230E94DE23E0EEF0E0808181601C
:1046E0008083E8EDF0E080818F77808319BCA7EDAF
:1046F000B0E08C918E7F8C9380818F7E808310922E
:10470000170608950F931F93CF93DF930E94D6232C
:104710000E94DE23C8EDD0E088818F77888388816E
:104720008068888388818F7D888319BC10921806E1
:1047300010921406109216061092150600EE10E064
:10474000F80180818B7F808388818160888342E04B
:1047500060E080E00E94E422E1EEF0E080818E7F64
:104760008083E2EEF0E080818160808380818860D8
:104770008083F80180818E7F808388818061888337
:10478000DF91CF911F910F910895E8EDF0E08081C6
:104790008F7E8083E7EDF0E080818160808384E01C
:1047A00082BF81E0809317060C948223E8EDF0E04D
:1047B00080818E7F80831092E20008951092DA004B
:1047C0001092E10008951F920F920FB60F921124DC
:1047D0002F933F934F935F936F937F938F939F9309
:1047E000AF93BF93EF93FF938091E10082FF0BC0E3
:1047F0008091E20082FF07C08091E1008B7F80936F
:10480000E1000E944D268091DA0080FF19C080915E
:10481000D80080FF15C08091DA008E7F8093DA0087
:104820008091D90080FF96C080E189BD82E189BD79
:1048300009B400FEFDCF81E0809318060E944D2050
:104840008091E10080FF19C08091E20080FF15C0D7
:104850008091E2008E7F8093E2008091E20080618F
:104860008093E2008091D80080628093D80019BCC8
:1048700085E0809318060E945F208091E10084FF0C
:104880002BC08091E20084FF27C080E189BD82E1D6
:1048900089BD89B5982F917080FFFBCF8091D8009A
:1048A0008F7D8093D8008091E1008F7E8093E1001E
:1048B0008091E2008F7E8093E2008091E20081602F
:1048C0008093E20080911406882309F449C084E0B3
:1048D000809318060E9460208091E10083FF29C028
:1048E0008091E20083FF25C08091E100877F809363
:1048F000E10082E080931806109214068091E10096
:104900008E7F8093E1008091E2008E7F8093E200B1
:104910008091E20080618093E20042E060E080E00C
:104920000E94E4228091F00088608093F0000E9451
:104930005E20FF91EF91BF91AF919F918F917F91F9
:104940006F915F914F913F912F910F900FBE0F90FC
:104950001F90189519BC109218060E945B2070CF0A
:104960008091E30087FD93E090931806B3CF1F92E8
:104970000F920FB60F9211242F933F934F935F9393
:104980006F937F938F939F93AF93BF93CF93DF9357
:10499000EF93FF93D091E900DF708091EC00C82F76
:1049A000C17080FDC0E81092E9008091F000877F1F
:1049B0008093F00078940E94FB241092E90080918B
:1049C000F00088608093F000CD2BCF70C093E90099
:1049D000FF91EF91DF91CF91BF91AF919F918F9117
:1049E0007F916F915F914F913F912F910F900FBEEB
:1049F0000F901F9018951F93CF93DF93CDB7DEB71D
:104A0000AA970FB6F894DEBF0FBECDBF89E196E03E
:104A10002091F100FC012193CF01F6E081329F0744
:104A2000B9F70E946C208091E80083FF1EC180913D
:104A3000190690911A069A3008F017C1E92FF0E094
:104A4000EC55F44D0C943F28803899F0823809F0E9
:104A50000CC180911D068F70873008F006C18093CD
:104A6000E9008091EB0085FB882780F91092E9002E
:104A700006C0809115069091160691118260909162
:104A8000E800977F9093E8008093F1001092F10086
:104A90008091E8008E77E5C0882309F4D3C0823086
:104AA00009F0E3C080911B068111D6C080911D06DC
:104AB0008F702FEF280F263008F0D7C08093E900C1
:104AC0002091EB0020FFC8C0933031F48091EB00BF
:104AD00080628093EB00C0C09091EB009061909356
:104AE000EB0021E030E001C0220F8A95EAF7209325
:104AF000EA001092EA008091EB008860EACF811111
:104B0000B4C010911B061F778091E3008078812B41
:104B10008093E3008091E800877F8093E8000E9403
:104B200018238091E80080FFFCCF8091E30080682B
:104B30008093E30082E0111183E08093180695C012
:104B40008058823008F091C080911B0690911C061D
:104B50008C3D23E09207A1F583E08A838AE2898372
:104B60004FB7F894DE01139620E03EE051E2E32FC8
:104B7000F0E050935700E49120FF03C0E295EF70FE
:104B80003F5FEF708E2F90E0EA30C0F0C7968D93B4
:104B90009D932F5F243159F74FBF8091E800877FA5
:104BA0008093E8006AE270E0CE0101960E9427221D
:104BB0008091E8008B778093E80057C0C096E7CFDC
:104BC00060911D0670911E06AE014F5F5F4F0E94FF
:104BD0006221BC01892B09F448C09091E800977FBD
:104BE0009093E80089819A810E948522E1CF8038E4
:104BF000E1F58091E800877F8093E80080911406BA
:104C00008093F10045CF811130C090911B06923006
:104C100060F58091E800877F8093E8009093140608
:104C20000E94182380911406882311F084E005C0A7
:104C30008091E30087FDFACF81E0809318060E94FF
:104C4000622013C080911B06813079F481E093309B
:104C500009F080E0809316061092E9008091E80048
:104C6000877F8093E8000E9418238091E80083FFEB
:104C70000AC08091E800877F8093E8008091EB0074
:104C800080628093EB00AA960FB6F894DEBF0FBE49
:104C9000CDBFDF91CF911F9108950895CF9380915B
:104CA00018068823A1F0C091E900CF709091EC0024
:104CB000892F817090FD80E8C82B1092E9008091C7
:104CC000E80083FD0E94FB24CF70C093E900CF91E0
:104CD00008955058BB27AA270E9481260C94592773
:104CE0000E944B2738F00E94522720F039F49F3F52
:104CF00019F426F40C9448270EF4E095E7FB0C9485
:104D00004227E92F0E946A2758F3BA1762077307F0
:104D10008407950720F079F4A6F50C948C270EF4FF
:104D2000E0950B2EBA2FA02D0B01B90190010C01BB
:104D3000CA01A0011124FF27591B99F0593F50F4D3
:104D4000503E68F11A16F040A22F232F342F44272B
:104D5000585FF3CF469537952795A795F040539523
:104D6000C9F77EF41F16BA0B620B730B840BBAF0F3
:104D70009150A1F0FF0FBB1F661F771F881FC2F75E
:104D80000EC0BA0F621F731F841F48F48795779572
:104D90006795B795F7959E3F08F0B0CF9395880F2C
:104DA00008F09927EE0F9795879508950E9472272E
:104DB00088F09F5798F0B92F9927B751B0F0E1F0DC
:104DC000660F771F881F991F1AF0BA95C9F714C08C
:104DD000B13091F00E948C27B1E008950C948C279B
:104DE000672F782F8827B85F39F0B93FCCF38695C5
:104DF00077956795B395D9F73EF490958095709522
:104E000061957F4F8F4F9F4F0895E89409C097FB9E
:104E10003EF490958095709561957F4F8F4F9F4F91
:104E20009923A9F0F92F96E9BB279395F6958795D5
:104E300077956795B795F111F8CFFAF4BB0F11F498
:104E400060FF1BC06F5F7F4F8F4F9F4F16C088233F
:104E500011F096E911C0772321F09EE8872F762F75
:104E600005C0662371F096E8862F70E060E02AF0B6
:104E70009A95660F771F881FDAF7880F96958795A2
:104E800097F9089597F99F6780E870E060E00895CA
:104E90009FEF80EC089500240A9416161706180652
:104EA0000906089500240A9412161306140605062E
:104EB0000895092E0394000C11F4882352F0BB0FBF
:104EC00040F4BF2B11F460FF04C06F5F7F4F8F4F22
:104ED0009F4F089557FD9058440F551F59F05F3F5D
:104EE00071F04795880F97FB991F61F09F3F79F00C
:104EF00087950895121613061406551FF2CF46958E
:104F0000F1DF08C0161617061806991FF1CF86950F
:104F10007105610508940895E894BB2766277727F3
:104F2000CB0197F908950E94A6270C9459270E9457
:104F30004B2738F00E94522720F0952311F00C9453
:104F400042270C94482711240C948D270E946A272D
:104F500070F3959FC1F3950F50E0551F629FF001CC
:104F6000729FBB27F00DB11D639FAA27F00DB11DE5
:104F7000AA1F649F6627B00DA11D661F829F22276E
:104F8000B00DA11D621F739FB00DA11D621F839FF5
:104F9000A00D611D221F749F3327A00D611D231FCB
:104FA000849F600D211D822F762F6A2F11249F5719
:104FB00050409AF0F1F088234AF0EE0FFF1FBB1F1C
:104FC000661F771F881F91505040A9F79E3F5105DB
:104FD00080F00C9442270C948D275F3FE4F3983EB9
:104FE000D4F3869577956795B795F795E7959F5F85
:104FF000C1F7FE2B880F911D9695879597F9089517
:10500000991B79E004C0991F961708F0961B881F1A
:105010007A95C9F780950895AA1BBB1B51E107C07B
:10502000AA1FBB1FA617B70710F0A61BB70B881F38
:10503000991F5A95A9F780959095BC01CD010895C7
:10504000052E97FB1EF400940E94372857FD07D0C9
:105050000E94452807FC03D04EF40C943728509545
:105060004095309521953F4F4F4F5F4F0895909554
:105070008095709561957F4F8F4F9F4F0895EE0FEC
:10508000FF1F0590F491E02D0994A1E21A2EAA1BAE
:10509000BB1BFD010DC0AA1FBB1FEE1FFF1FA217E8
:1050A000B307E407F50720F0A21BB30BE40BF50BE5
:1050B000661F771F881F991F1A9469F7609570956E
:1050C000809590959B01AC01BD01CF010895FB0136
:1050D000DC0102C005900D9241505040D8F7089570
:1050E000FB01DC0104C08D910190801921F4415035
:1050F0005040C8F7881B990B0895AEE0B0E0E3E894
:10510000F8E20C945F2B0D891E8986E08C831A834C
:1051100009838FEF9FE79E838D83AE01475E5F4FCC
:105120006F89788DCE0101960E94A0282F81388545
:10513000020F131FF80110822E96E4E00C947B2BD3
:10514000ABE0B0E0E6EAF8E20C94512B7C013B01C5
:105150008A01FC0117821682838181FFB9C19AE01E
:10516000292ECE0101965C01F7019381F30193FD95
:10517000859193FF81913F01882309F446C18532CF
:1051800039F493FD859193FF81913F01853229F494
:10519000B70190E00E94812AE7CF912C412C512C3D
:1051A000FFE1F51538F08B3209F188F4803201F116
:1051B000833221F157FC3AC020ED280F2A3040F508
:1051C00056FE1FC0929C200D1124922E06C08D32D7
:1051D00091F0803379F7689450F8F30193FD85914D
:1051E00093FF81913F018111DBCF20C0689451F87A
:1051F000689452F8F2CF689453F8EFCF689454F85B
:10520000ECCF429C200D1124422E689455F8E5CF36
:105210008E3229F456FCF9C0689456F8DECF8C36ED
:1052200019F4689457F8D9CF8836B9F2982F9F7D32
:1052300095549330C0F08336A1F18337C1F18335A3
:1052400009F05BC0F801C190D1908F01692D70E029
:1052500056FC02C06FEF7FEFC6010E946B2A4C0123
:10526000689457F80AC00C5F1F4F2FE329838824E6
:105270008394912C6501E89457F853FC04C04814BA
:10528000190409F018F5342C8114910431F53320F8
:1052900009F46ACFB70180E290E00E94812A3A9433
:1052A000F6CFF801808189830E5F1F4FE0CFF801B0
:1052B000C190D1908F01692D70E056FC02C06FEF54
:1052C0007FEFC6010E94762A4C01D5CFB70180E25C
:1052D00090E00E94812A4A94D2CFF60157FC859132
:1052E00057FE81916F01B70190E00E94812A311031
:1052F0003A94F1E08F1A9108C7CF843619F08936B5
:1053000009F074C0F80157FE6AC0619171918191F2
:1053100091918F01252D2F76D22E97FF09C0909560
:105320008095709561957F4F8F4F9F4F6894D7F808
:105330002AE030E0A5010E94B12AC82ECA188C2CA0
:105340005D2CD6FE0CC0E89450F8C91440F4D4FE8D
:1053500005C0D2FC03C0FD2DFE7E5F2E892C54FEBD
:105360008FC0FE01EC0DF11D8081803309F081C0FA
:10537000252D297E522E852D8870382E53FC8FC006
:1053800050FE89C09C2C841418F44C0C942C981852
:1053900054FE8BC0B70180E390E00E94812A52FE48
:1053A00009C088E790E051FE02C088E590E0B701AF
:1053B0000E94812AC91408F484C0CA94D12C9FEF9A
:1053C000C91AD90ACA0CDB1CF60182916F01B70118
:1053D00090E00E94812AAC14BD04B1F758CF6191CE
:1053E0007191072E000C880B990B93CFD52CE89464
:1053F000D4F82AE030E0853739F1952D997FD92E00
:105400008F3601F148F48835A9F0F701868197813C
:105410002B96E2E10C946D2B803749F08837A9F781
:10542000D4FE02C06894D2F820E130E00DC0689448
:10543000D4F8F6CF54FE03C0E92FE660DE2E20E15B
:1054400032E002C028E030E0F801D7FE0DC06191E3
:105450007191819191918F01A5010E94B12AC82E6D
:10546000CA18E894D7F86BCF6191719190E080E011
:10547000F2CF52FC02C083947ECF839483947BCF7F
:10548000852D867809F477CFF6CFB70180E290E0DA
:105490000E94812A83948414C0F3312C79CF342C58
:1054A0003818841408F474CFF8CF852D867809F461
:1054B00081CF8BE251FE80E257FC8DE2B70190E094
:1054C00077CFB70180E390E00E94812A9A9472CF4F
:1054D0008FEF9FEF9DCFFC01059061507040011050
:1054E000D8F7809590958E0F9F1F0895FC0161500D
:1054F000704001900110D8F7809590958E0F9F1FF6
:1055000008950F931F93CF93DF93182F092FEB016B
:105510008B8181FD09C01FEF0FEF812F902FDF914D
:10552000CF911F910F91089582FF14C02E813F816A
:105530008C819D81281739073CF4E881F981CF01DE
:1055400001969983888310838E819F8101969F8322
:105550008E83E3CFE885F985812F0995892BA1F307
:10556000DACFFA01AA27283051F1203181F1E894ED
:105570006F936E7F6E5F7F4F8F4F9F4FAF4FB1E046
:105580003ED0B4E03CD0670F781F891F9A1FA11D41
:10559000680F791F8A1F911DA11D6A0F711D811D42
:1055A000911DA11D20D009F468943F912AE0269F07
:1055B00011243019305D3193DEF6CF010895462F66
:1055C0004770405D4193B3E00FD0C9F7F6CF462F47
:1055D0004F70405D4A3318F0495D31FD40524193B0
:1055E00002D0A9F7EACFB4E0A6959795879577956D
:1055F0006795BA95C9F700976105710508959B01F4
:10560000AC010A2E06945795479537952795BA957C
:10561000C9F7620F731F841F951FA01D0895F99984
:10562000FECF92BD81BDF89A992780B50895A8E173
:10563000B0E042E050E00C94432B262FF999FECFC6
:1056400092BD81BDF89A019700B4021639F01FBAD5
:1056500020BD0FB6F894FA9AF99A0FBE08950396F2
:10566000272F0E941E2B0E941D2B252F0E941E2BD0
:10567000242F0C941E2B0196272F0E941E2B0C9476
:105680001D2BDC01CB01FC01F999FECF06C0F2BD58
:10569000E1BDF89A319600B40D9241505040B8F7F0
:1056A00008952F923F924F925F926F927F928F92C6
:1056B0009F92AF92BF92CF92DF92EF92FF920F93A1
:1056C0001F93CF93DF93CDB7DEB7CA1BDB0B0FB6AB
:1056D000F894DEBF0FBECDBF09942A883988488868
:1056E0005F846E847D848C849B84AA84B984C884FE
:1056F000DF80EE80FD800C811B81AA81B981CE0FF5
:10570000D11D0FB6F894DEBF0FBECDBFED010895D9
:10571000F894FFCF71157115C815C81514169E158C
:105720009E159E153016BC16CB16CB169F179F17CD
:10573000A817A817AA17A817A817A8179F179F1781
:10574000AF17A817A817AF1724254C2535264C25C9
:0C57500035267F25A0253526F7250326E9
:10575C00050103030000000101030303040403011A
:10576C0001030203000000040803FFFF5B0F6B0F33
:10577C007B0F000000000000000000000000000093
:10578C0050025B0F6B0F7B0F00000000000000004D
:10579C0000000000000044025B0F6B0F7B0F000049
:1057AC0000000000000000000000000040025B0F41
:1057BC006B0F7B0F000000000000000000000000D9
:1057CC0000003C025B0F6B0F7B0F00000000000021
:1057DC00000000000000000038025B0F6B0F7B0F15
:1057EC000000000000000000000000000000340277
:1057FC005B0F6B0F7B0F000000000000000000002F
:10580C00000000002C025B0F6B0F7B0F00000000F0
:10581C000000000000000000000048025B0F6B0F4E
:10582C007B0F0000000000000000000000000000E2
:10583C0028025B0F6B0F7B0F0000000000000000C4
:10584C000000000000004C025B0F6B0F7B0F000090
:10585C0000000000000000000000000024025B0FAC
:10586C006B0F7B0F00000000000000000000000028
:10587C0000003002E600E200E10039002B002900B4
:10588C00350035023700370236003602330033025A
:10589C002D002D02310031022E002E023400340274
:1058AC00380038020021007F220003FFB503CE1F11
:1058BC000D20D11F0920052001F4F5F6F7313394A2
:1058CC006697C60000000057504D3A2025303364CF
:1058DC0000E200E900EA00B500B600B700CD008395
:1058EC0001CC008A01920194012102230224022599
:1058FC0002260227022A02B300B4006F0070008156
:10590C0082830008101818100800E200E900EA0071
:10591C00B500B600B700CD008301CC008A0192011E
:10592C0094012102230224022502260227022A02C4
:0C593C00B300B4006F0070008182830093
:00000001FF
