:100000000C9494040C94DB040C94DB040C948A127E
:100010000C94DB040C94DB040C94DB040C94DB04E4
:100020000C94DB040C94DB040C9415250C94E9254A
:100030000C9436200C94DB040C94DB040C94DB044D
:100040000C94DB040C94DB040C94DB040C94DB04B4
:100050000C94DB040C94A9200C94DB040C94DB04BA
:100060000C94DB040C94DB040C94DB040C94DB0494
:100070000C94DB040C94DB040C94DB040C94DB0484
:100080000C94DB040C94DB040C94DB040C94DB0474
:100090000C94DB040C94DB040C94DB040C94DB0464
:1000A0000C94DB040C94DB040C94DB0420949596F4
:1000B0002020B4B5B62020D4D5D62000209798991A
:1000C0002020B7B8B92020D7D8D92000209A9B9CEF
:1000D0002020BABBBC2020DADBDC20004E61687532
:1000E0006D008081828384A0A1A2A3A4C0C1C2C3E9
:1000F000C400ABAC00CFD000C600CA00C800A9AA9B
:1001000000B1B2008B8C00CDCE00C500C900C70085
:10011000CB00898A00919200A7A800AFB000C6006A
:10012000CA00C800A5A600ADAE008788008F900069
:10013000C500C900C700CB008586008D8E00202039
:1001400020202000005714001A0008001500170096
:10015000015704001600070009000A00E0001D0016
:100160001B00060019000500000000000000E3006D
:10017000295D2C002A00130012000C0018001C003E
:100180004C0035000F000E000D000B00E5003300A1
:100190003700360010001100000000000000025778
:1001A0002A5D280029007B007C007D007A00790010
:1001B000AE00A800AA00A900BE00BD00AC00AB00C4
:1001C000AD00000000000000000000000000E3009F
:1001D00001002C002A0038002E00300030022702D7
:1001E0004C0031001E02520023022502E5002D00C2
:1001F0004F00510050006500000000000000025751
:100200002A5D28003A003B003C003D003E003F00D4
:10021000400041004200430044004500005C0000F3
:100220000000B300B2004600000000000000E30040
:10023000295D2C002600250024002F002F02260215
:100240002300220021002E022402210220001F0090
:100250001E002700200235020000000000000257A7
:100260000100280000AE00AF00DA0281FFD9F1DB07
:1002700020A4A62EAF00A0C000A1C800AED580A8C3
:100280001FD300408D1420000000000000003E5BE2
:100290004F5B3E003E6B4F6B3E001C3E7C3E1C00A5
:1002A000183C7E3C18001C577D571C001C5E7F5E6E
:1002B0001C0000183C180000FFE7C3E7FF0000180F
:1002C00024180000FFE7DBE7FF0030483A060E0085
:1002D000262979292600407F05050700407F05254E
:1002E0003F005A3CE73C5A007F3E1C1C0800081C9B
:1002F0001C3E7F0014227F2214005F5F005F5F00BE
:1003000006097F017F00006689956A006060606071
:10031000600094A2FFA2940008047E04080010204C
:100320007E20100008082A1C0800081C2A08080063
:100330001E10101010000C1E0C1E0C0030383E3821
:100340003000060E3E0E0600000000000000000017
:100350005F000000000700070000147F147F1400F6
:10036000242A7F2A1200231308646200364956208B
:100370005000000807030000001C2241000000415B
:10038000221C00002A1C7F1C2A0008083E080800C6
:100390000080703000000808080808000000606055
:1003A00000002010080402003E5149453E00004272
:1003B0007F4000007249494946002141494D3300C0
:1003C0001814127F10002745454539003C4A494919
:1003D0003100412111090700364949493600464993
:1003E00049291E00000014000000004034000000F5
:1003F00000081422410014141414140000412214A3
:1004000008000201590906003E415D594E007C1268
:1004100011127C007F49494936003E41414122008A
:100420007F4141413E007F49494941007F09090917
:1004300001003E41415173007F0808087F000041E0
:100440007F4100002040413F01007F08142241000D
:100450007F40404040007F021C027F007F04081064
:100460007F003E4141413E007F09090906003E41AF
:1004700051215E007F091929460026494949320069
:1004800003017F0103003F4040403F001F20402008
:100490001F003F4038403F0063140814630003040A
:1004A000780403006159494D4300007F41414100F8
:1004B000020408102000004141417F0004020102B3
:1004C0000400404040404000000307080000205462
:1004D000547840007F28444438003844444428007D
:1004E000384444287F0038545454180000087E09CA
:1004F00002001824241C78007F08040478000044BB
:100500007D4000002040403D00007F102844000056
:1005100000417F4000007C04780478007C080404DB
:1005200078003844444438007C18242418001824E7
:1005300024187C007C080404080048545454240007
:1005400004043F4424003C4040207C001C20402008
:100550001C003C4030403C004428102844004C9093
:1005600090907C004464544C4400000836410000E4
:10057000000077000000004136080000020102047C
:1005800002003C2623263C00F0180C060201010163
:10059000010139293302020705060C0818103060E2
:1005A000C0800000000000F8042252E2424242E211
:1005B000522222224282020222220204F80000F881
:1005C0000402028242224282020202824222122259
:1005D00042820204F80000F8FCDEAE1EBEBEBE1E63
:1005E000AEDEDEDEBE7EFEFEDEDEFEFCF80000F8E5
:1005F000FCFEFE7EBEDEBE7EFEFE000000000000B1
:10060000808040402020101008081010202040401A
:1006100080808080C0C0E0E0F0F0F8F8F0F0E0E02A
:10062000C0C080808080404020201010080810103A
:10063000202040408080808040C060A050B058A8FA
:1006400050B060A040C080800FF8000000008080A3
:10065000C040C0C040C0C040C0C040C0808080809A
:10066000000103867C00001F20444A474242424763
:100670004A44404040404142444440201F00001F43
:100680002040414040404040414041414F4848485F
:100690004F4141201F00001F3F7B75787D7D7D7895
:1006A000757B7F7F7F7F7E7D7B7B7F3F1F00001F71
:1006B0003F7F7E7F7F7F7F7F7E7F00000000000086
:1006C00088885D5D3E3E7C7CF8F87C7C3E3E5D5DCE
:1006D000888888885555232347478F8F474723238A
:1006E000555588888888D5D5E2E2C4C48888C4C4B2
:1006F000E2E2D5D5888888885DD56BB66DD6ADDA4F
:100700006DD66BB65DD588881C3F3F7070E1E0C147
:10071000C1C0C0C0C0C4E27F71200001010003035A
:1007200001030301000004F80000F804201F00008A
:100730001F20FCF80000F8043F1F00001F2004F8F1
:100740000000F8FC201F00001F3FFCF80000F8FC30
:100750003F1F00001F3FFE7EBEDEEEDEBE7EFEFCC3
:10076000F8007E7E70777777707E7E3F1F000000F6
:100770000000000000000000000000000000000079
:10078000000001010202040408080404020201013D
:10079000000000000101020204040808040402022F
:1007A0000101000000000101030307070F0F070705
:1007B00003030101000000000101030205060D0A08
:1007C0000506030201010000040330000000480395
:1007D00043006F0072006E00650020004B00650052
:1007E000790062006F006100720064002000520016
:1007F000650076002E003100200028004C006500C6
:1008000067006100630079002000530070006C00F5
:100810006900740029000000100366006F006F007B
:100820007300740061006E000000040309040902F3
:100830003B00020100A0FA090400000103010100CD
:100840000921110100012240000705810308000A67
:100850000904010001030000000921110100012227
:100860006D000705820320000A120110010000003C
:10087000085346010001000102030105010980A19E
:1008800001850319012AB700150126B700950175E6
:10089000108100C0050C0901A101850419012AA0DD
:1008A00002150126A002950175108100C0050109FD
:1008B00006A1018505050719E029E7150025019521
:1008C00008750181020507190029EF15002501951A
:1008D000F075018102050819012905950575019139
:1008E00002950175039101C005010906A1010507E3
:1008F00019E029E715002501950875018102950188
:10090000750881010507190029FF150026FF0095CC
:1009100006750881000508190129059505750191DD
:1009200002950175039101C011241FBECFEFDAE0DB
:10093000DEBFCDBF04B603FE27C080912205909193
:100940002305A0912405B09125058730904BA74041
:10095000B04BD1F410922205109223051092240579
:100960001092250514BE84B7877F84BF0FB6F89414
:10097000A89580916000886180936000109260006B
:100980000FBEE0E0F8E3099511E0A0E0B1E0EEE78A
:10099000F0E502C005900D92A83FB107D9F725E018
:1009A000A8EFB1E001C01D92A232B207E1F70E94A8
:1009B00055220C9419280C940000CF93DF93A5E8DE
:1009C000B1E049E851E0C1E0D0E08D91E82FE29537
:1009D000EF70F0E061A18F709E0101C0220F8A9537
:1009E000EAF7922F9095962391A382A1822B82A35E
:1009F0004A175B0751F7DF91CF9108950895089545
:100A00000C94FF04209A559A289A5D9A08955D984F
:100A100008955D9A089528980895289A08950E9447
:100A2000C7060E94DD04AFE7B1E061E070E08D91A0
:100A3000E82FE295EF70F0E041A18F709B0101C0BB
:100A4000220F8A95EAF7922F9095942391A382A181
:100A5000822B82A381E0A538B80749F70E940205DE
:100A6000E0E0F2E0A8EFB1E011921D9282E0E83000
:100A7000F807D1F70E94A606809308020C94050996
:100A80008F929F92AF92BF92CF92DF92EF92FF929E
:100A90000F931F93CF93DF9380910101C4E0D0E0C7
:100AA000882311F0D0E0C0E085E8C82E81E0D82E80
:100AB000AE0148505E4F7A018A01912CAA24A3947A
:100AC000B12C25E0822EF60181916F01E82FE2958D
:100AD000EF70F0E021A18F70A50102C0440F551FF7
:100AE0008A95E2F7CA01922F982B91A392A1809543
:100AF000892382A350EA5A95F1F7EFE7F1E020E06D
:100B000050E040E03191A32FA295AF70B0E09096F5
:100B10008C9190E03F7002C0959587953A95E2F7E9
:100B200080FD3CC0C501042E01C0880F0A94EAF77D
:100B3000282B4F5F5F4F4630510521F7F801808128
:100B4000821729F0208380920001992493940E94B7
:100B5000DD040F5F1F4FF9E8CF16F1E0DF0609F063
:100B6000B2CF80910001882359F081508093000119
:100B70008823B1F08FE99FE00197F1F700C00000F2
:100B8000892DDF91CF911F910F91FF90EF90DF9012
:100B9000CF90BF90AF909F908F90089580E0C8CF86
:100BA000C050DE4F84E0F70191917F01999381500D
:100BB000D1F7E6CF0F931F93CF93DF9320910101DD
:100BC00010E000E0222311F004E010E00E94E206B1
:100BD000EC01009739F0029711F40E940B05C1E077
:100BE000D0E011C00E940D05F801E050FE4F809149
:100BF000140290911502A0911602B0911702808301
:100C00009183A283B383CE01DF91CF911F910F9186
:100C100008950E94400590910101E4E0F0E09923DD
:100C200011F0F0E0E0E0E050FE4F30E020E040E086
:100C3000D901AC5EBD4F5C919191591341E09C93F9
:100C40002F5F3F4F2430310599F790910D02940F9B
:100C500090930D0208951F93CF93DF938091080224
:100C6000882309F44BC00E944005182F8091010190
:100C7000C4E0D0E0882311F0D0E0C0E0C050DE4FE7
:100C800044E050E0BE0180E192E00E94CA27488122
:100C900059816A817B8140931002509311026093C5
:100CA0001202709313020E94DA05892B11F10E943F
:100CB0000705809109028F5F80930902863070F0EA
:100CC00080910101F0E0E0E0882311F0E4E0F0E041
:100CD000E050FE4F10821182128213820E940D0991
:100CE000C1E0111101C0C0E08C2FDF91CF911F91A5
:100CF00008950E94090510920902F0CF0E9409068A
:100D0000C1E0811101C0C0E080910101811114C0D6
:100D100090E080E080509E4F40911002509111026F
:100D20006091120270911302FC014083518362832F
:100D300073830E940D09D8CF84E090E0EBCFE82FB9
:100D4000F0E0E050FE4F80810895089580910A02FE
:100D5000811111C08091D80080618093D8008AE110
:100D60008A95F1F700C09091D900892F817090FF8A
:100D700082E080930A0281E090910A02913009F0AA
:100D800080E008950E94A60691E0892708950E94B8
:100D9000C206809301010E94A606882321F00E94CA
:100DA000D606789408950E94DC06FBCF63E070E0DD
:100DB00082E091E00C94371263E070E082E091E011
:100DC0000C9440120F931F93CF93DF938C0190915B
:100DD0001B0180911A01D0E0C0E0981759F082E021
:100DE00090E00E941913EC01892B21F480911A01E3
:100DF00080931B0180910B0290910C02082B192B00
:100E000090E080E0012B11F081E090E00E94191346
:100E1000892B71F480910D0280931A0110920C02BB
:100E200010920B02CE01DF91CF911F910F91089587
:100E300081E090E090930C0280930B02F3CF0C942E
:100E4000FE0483E0089560E08EE391E00C94BE0C14
:100E5000CF93DF93D82FD878C82FC47460E0DD23F8
:100E600029F18BE391E00E94BE0C60E084E391E005
:100E7000CC2329F160E086E391E00E94BE0C60E0A3
:100E80008DE291E00E94BE0C60E0DD2311F187E26B
:100E900091E00E94BE0C60E082E291E00E94BE0CF4
:100EA000C11122C060E088E191E021C088E391E0B7
:100EB0000E94BE0CC11109C060E080E391E00E9475
:100EC000BE0C60E08AE291E0DDCF60E082E391E079
:100ED000D4CF84E291E00E94BE0C60E0CC2359F0B4
:100EE00080E291E00E94BE0C60E08BE191E0DF9136
:100EF000CF910C94BE0C8EE191E00E94BE0CD2CF3B
:100F0000CF93DF93D82FD171C82FC27260E0DD2359
:100F100029F185E191E00E94BE0C60E08EE091E055
:100F2000CC2329F160E080E191E00E94BE0C60E0FA
:100F300087E091E00E94BE0C60E0DD2311F181E0CA
:100F400091E00E94BE0C60E08CEF90E00E94BE0C2D
:100F5000C11122C060E082EF90E021C082E191E007
:100F60000E94BE0CC11109C060E08AE091E00E94BD
:100F7000BE0C60E084E091E0DDCF60E08CE091E0C9
:100F8000D4CF8EEF90E00E94BE0C60E0CC2359F0ED
:100F90008AEF90E00E94BE0C60E085EF90E0DF9168
:100FA000CF910C94BE0C88EF90E00E94BE0CD2CF83
:100FB00060E082EE90E00E94BE0C60E08CED90E07C
:100FC0000C94BE0C81E00E94351C882329F060E05F
:100FD0008CEC90E00C94BE0C82E00E94351C60E02A
:100FE000882319F08CEB90E0F5CF8CEA90E0F2CFFB
:100FF000CF930E94D8070E9423070E94E2070E9415
:1010000023070E94DD1DC82F0E94061E8C2B0E9404
:1010100028070E94DD1DC82F0E94061E8C2BCF9131
:101020000C948007609118027091190280911A0245
:1010300090911B020E948D20613472448F40910573
:1010400010F00C94E40D0E94D00C0C94F8070F9350
:101050001F93CF93DF938C01EB018A81882351F09A
:101060000E947220609318027093190280931A02F2
:1010700090931B0209328DE5180751F00A321D4585
:1010800079F0C1E08C2FDF91CF911F910F910895DE
:10109000CA8181E0CC2339F00E94551CC0E0F2CF18
:1010A000CA8182E0F7CF0E94761CECCFCF93DF930A
:1010B0009C013A9521153F4168F5EC01CC27D17090
:1010C000DC01AA27B270AC01442754709C0122278E
:1010D000387094FF11C080E1CD2B09F480E0AB2B78
:1010E00009F08062452B09F08064232B09F08068A9
:1010F000FB01DF91CF91099481E0CD2B09F480E0D1
:10110000AB2B09F08260452B09F08460232B81F31F
:101110008860EECFDF91CF910895CF93DF93EC01FC
:10112000805E9109089720F060E978E1209711F43A
:1011300069E476E1CE010E9456088C2FDF91CF91B1
:101140000C94C815CF93DF93EC010E940E16CE01CC
:10115000805E9109089720F067E978E1209711F403
:1011600060E576E1CE01DF91CF910C94560881E0E5
:1011700008950C94270808950C94BB081F93CF93EF
:10118000DF9300D000D00F92CDB7DEB749835A83EA
:101190006B833091610289819A8131111DC0662370
:1011A000B9F02223A9F00E94481D182F682F8981C9
:1011B0009A810E94F11C69817A81812F0F900F9092
:1011C0000F900F900F90DF91CF911F910C947609A3
:1011D0000E941F1D182FEFCF0E94481D69817A8140
:1011E000EDCFFC01262F4081518162817381848182
:1011F0000C94BE08CF93DF93EC0160E00E94F108ED
:10120000BE01DF91CF910C94BC080E94821E811117
:1012100002C00E941F1F0C941F070E947D110C9496
:10122000000508950E94B0180E9411092FEF84E371
:101230009CE0215080409040E1F700C000000C94F9
:10124000CD200F931F93CF93DF93EC0161E00E94B9
:10125000F1088C01BE010E94DD10BE01C8010E9490
:10126000B908882359F1BE01C8010E9423118823BF
:1012700029F1BE01C8010E94AE0E8823F9F0BE011B
:10128000C8010E94000F8823C9F0BE01C8010E9456
:101290002310882399F08A81882339F001158CE581
:1012A000180751F00E3D1C4579F0CE01DF91CF912A
:1012B0001F910F910C94B7080E94120980E0DF91F2
:1012C000CF911F910F9108950E941F1FF7CF08958E
:1012D0000C94670981E008950C946A09CF93C82F94
:1012E0000E9468098C2FCF910C946C09972F70E0A5
:1012F00026E0929F600D711D1124FB0190E3899FF0
:10130000E00DF11D1124EE0FFF1FEC5BFE4F8591E8
:1013100094910895CF93DF930E9476090E94760AF4
:10132000EC01811522E59207E8F5811531E5930777
:1013300008F0ACC0883E910510F5803E910570F52F
:10134000883A910570F4853A910508F078C08130AB
:10135000910521F1009711F1049700F5D0E0C0E06C
:101360001DC08F3B9105D0F7C85AD0E0CC0FDD1FD0
:10137000C357DE4F0990D881C02DD4640FC08115AA
:1013800040E5940708F066C0C11580E4D80708F06E
:101390005EC0CE019A9581159F4100F7CE01DF9185
:1013A000CF910895811536E5930718F5811545E528
:1013B000940708F083C0C11584E5D80708F079C008
:1013C0009C2F969596959E0123703327C115D34582
:1013D00008F461C0C1E0D0E002C0CC0FDD1F2A9547
:1013E000E2F730E2939FC0011124C82BD92BDA68B1
:1013F000D5CFC1158AE5D80778F4C11599E5D90785
:1014000008F066C0C11528E5D20708F4A7CFDC2F85
:10141000CC27C06FD06AC2CFCE01905681159042C2
:1014200008F09CCF8D2F8F710E940D0B90E0982FAC
:10143000882788279F719C012C2BE90147C0C55A3A
:10144000D0E0C554DE4FC881D0E0D064A7CFDF70B4
:10145000D06AA4CFE4E096958795EA95E1F783708A
:101460002C2F26952695237040E2249F900111246D
:10147000382B8C2F8370C1E0D0E002C0CC0FDD1F71
:101480008A95E2F7C22BD32BDC6888CFD82FCC27E4
:10149000C16FD06A83CFC1E0D0E002C0CC0FDD1FA6
:1014A0002A95E2F720E2929FC0011124C82BD92B84
:1014B000EBCFDC2FCC27C46FD06A70CF0E940D0B0E
:1014C000C82FD0E0DC2FCC27CC27DF71D06266CFCD
:1014D0008C2F8F700E940D0B34E0D695C7953A95EE
:1014E000E1F7CF709C2FEC01D06958CF823891057D
:1014F000B1F1B0F48133910509F475C048F4893233
:10150000910509F469C08A32910509F473C0089500
:101510008533910509F459C08933910501F1089586
:10152000833E9105A9F138F4803E9105F9F0823EA1
:10153000910549F10895863E9105A9F1873E9105EF
:10154000C9F1843E910519F52091140521FF1FC0B2
:101550008091130584FD14C087EE90E008952091DA
:1015600013052370A1F080EE90E0089520911305FB
:1015700020FD47C03091140530FF09C024FF44C04E
:1015800090E080E004C02091130522FDF7CF08957C
:101590002091130522FD3BC03091140530FDE3CFAF
:1015A00024FFF5CFEDCF2091130523FFF0CF24FDCD
:1015B000E7CFD2CF2091130523FD2CC03091140525
:1015C00031FFEECF84EE90E008952091130525FFC2
:1015D000DECF89E290E008952091130525FFD7CF53
:1015E00085E390E008952091130526FFD0CF8AE28D
:1015F00090E008952091130526FFC9CF81E390E084
:10160000089589E390E0089583EE90E0089582EED6
:1016100090E0089586EE90E008959091130592FF72
:1016200006C0282F28712830F9F4877F846093FF43
:1016300006C0282F28712831F1F4877E846120911B
:10164000140520FF06C0382F38713830D9F4877F51
:10165000816021FF06C0282F28712831D1F4877EB0
:10166000816194FD877E0895282F24712430F9F636
:101670008B7F8860DCCF282F2471243101F78B7E8B
:101680008861DDCF382F3171313019F78E7F886056
:10169000E0CF282F2171213121F78E7E8861E1CFA3
:1016A000CF92DF92EF92FF920F931F93CF93DF932E
:1016B0006C017B0164E670E088E70E949D13EC01F9
:1016C00097FD12C010E000E0F601E00FF11F8491D9
:1016D00064E670E00E94F913EC01892B29F40F5F96
:1016E0001F4F0E151F0581F70E947C14CE01DF915C
:1016F000CF911F910F91FF90EF90DF90CF900895C1
:10170000E9E0F3E080E092E0DF019C011D922150CE
:101710003040E1F7F0930E05E0930D058FEF9FEF5A
:10172000909348028093470208950E942107809376
:10173000430280FD0FC080E8809342020E9497130D
:101740006DE070E08BE792E00E94500B892B21F056
:1017500080E0089580E2F0CF8091430263E070E082
:1017600081FD26C088E792E00E94500B892B81F70B
:101770006DE070E088E692E00E94500B892B41F703
:101780000E947220605A75418F4F9F4F60930905E8
:1017900070930A0580930B0590930C050E94800BB3
:1017A00081E080934602809345021092440208959E
:1017B00085E792E0D9CF2091420236E0839FC001B5
:1017C0001124629F800D911D1124811522E0920742
:1017D00014F090E080E0875F9C4F90930E0580931B
:1017E0000D05089520910D0530910E0523503340CD
:1017F00040914202642F70E0C9010E94A727481B54
:10180000463010F4240F311D211582E0380710F006
:1018100030E020E0275F3C4F30930E0520930D050C
:1018200008951F93CF93DF93162F8A3031F481E010
:10183000DF91CF911F910C948B0C8D3011F480E0CF
:10184000F7CFC0910D05D0910E0596E0FE01ACE1F9
:10185000B2E001900D929A95E1F7803EC8F086E0E3
:10186000FE0111928A95E9F711111EC0C0910D0574
:10187000D0910E0546E050E0BE018CE192E00E945E
:10188000CA27892BF9F4DF91CF911F910C94F20BA9
:10189000F6E08F9FB001112468577D4F46E050E07D
:1018A000CE010E94C127E0CFE0910D05F0910E0519
:1018B0009F012A5F3F4F2E173F07C1F2808180951D
:1018C0008193F9CFC950D340CE0125E096958795F5
:1018D0002A95E1F721E030E0A90102C0440F551F2D
:1018E0008A95E2F7CA014091470250914802842B41
:1018F000952B259645E0D695C7954A95E1F702C008
:10190000220F331FCA95E2F7822B932B9093480244
:1019100080934702B8CFCF93382FE0910D05F09117
:101920000E05E950F34020914202622F70E0CF0192
:101930000E94A727281B822F332369F066E00E94AC
:101940009B27C82FC15010F4CF91089560E080E22A
:101950000E94110CF7CF9F01280F311D2115324035
:1019600018F080E0F0E0E0E08E0F9F2F911D875F80
:101970009C4F90930E0580930D05E6CF1F93CF9358
:10198000DF93EC01162FFE018491811104C0DF91D9
:10199000CF911F910895612F0E94110C2196F3CFD2
:1019A0000E947220605A75418F4F9F4F60930905C6
:1019B00070930A0580930B0590930C058091450266
:1019C000811108C062E070E086E692E00E94500B50
:1019D000892B19F080914502089581E0809345029A
:1019E000F9CF2F923F925F926F927F928F929F9248
:1019F000AF92BF92CF92DF92EF92FF920F931F931D
:101A0000CF93DF9320914702309148022115310591
:101A100031F08091440261E070E0882399F0DF9119
:101A2000CF911F910F91FF90EF90DF90CF90BF90DB
:101A3000AF909F908F907F906F905F903F902F908E
:101A400008958F5F082F10E01B01082E02C0220CA2
:101A5000331C0A94E2F7A90142215321452B89F353
:101A60009091430290FD44C08295880F80768093C8
:101A70006C019801369527953695279520936F012F
:101A8000815E80936D011092700124E630E047E0A2
:101A900050E06AE671E088E70E942814892B09F07B
:101AA000BECFA80125E0440F551F2A95E1F780918C
:101AB000430280FD2BC0475F5C4F04E610E020E24C
:101AC00030E060E488E70E944F14892B09F0A7CF2B
:101AD0000E94D00CE101C095D09580914702909171
:101AE0004802C823D923D0934802C093470297CF16
:101AF000880F880F880F80936C0110926F01895FA7
:101B000080936D0183E080937001BFCFE2E2F2E049
:101B100080E2DF011D928A95E9F7A2ECB1E00EEBBD
:101B200011E086ECC82E81E0D82E97E0592E77245C
:101B300073948D91E80129918E01240F352F311D69
:101B4000275F3C4FE82FF0E0EE5DFD4F90E080E036
:101B5000652C681A872C082E01C0880C0A94EAF7B5
:101B60007901A12CE701B9907E01B820662D6A1990
:101B70006770962E062E000C770BDB2D01C0DD0F53
:101B80009A94EAF77195619571096770772701C09A
:101B9000B6946A95EAF7BD2A6081962E9B289082BA
:101BA000A39468E0A612DECF0196319688309105A5
:101BB00079F6CA16DB0609F0BCCF04E610E020E295
:101BC00030E042E252E07DCF80914502882369F007
:101BD00062E070E084E692E00E94500B892B19F0DD
:101BE000809145020895109245028091450291E04E
:101BF000892708950F931F9380914602882301F14E
:101C000060E080E00E94DB0B0E9412080E94F10C51
:101C1000809145028823A1F00E947220009109055D
:101C200010910A0520910B0530910C05601B710B7A
:101C3000820B930B97FD04C01F910F910C94E40D40
:101C40001F910F910895AF92BF92CF92DF92EF92C2
:101C5000FF920F931F93CF93DF937C015B01C42FFF
:101C6000D22FFC0182818823F9F040934B020E941D
:101C7000662090934A028093490280E28C0F88305C
:101C800008F061C0C77081E001C0880FCA95EAF70B
:101C9000DF91CF911F910F91FF90EF90DF90CF9048
:101CA000BF90AF900C94491610914B02141340C092
:101CB0008091490290914A020E947E206C01B701F6
:101CC000C5010E94261BC816D90690F5C0E2CD0FAB
:101CD0001D17B9F080E2810F883040F4177081E061
:101CE00001C0880F1A95EAF70E945016C83048F4D0
:101CF00081E09D2F977001C0880F9A95EAF70E94A6
:101D00004916802F0E943616C830E8F4D77081E05B
:101D100001C0880FDA95EAF7DF91CF911F910F91FB
:101D2000FF90EF90DF90CF90BF90AF900C94501643
:101D300080E28C0F883038F4C77081E001C0880FD2
:101D4000CA95EAF7E9CFDF91CF911F910F91FF90EC
:101D5000EF90DF90CF90BF90AF9008950F939C01CC
:101D6000CB01233F4CE5340759F1A8F4283DFCE5AD
:101D70003F0701F1293D4CE53407D1F1273D3C45B2
:101D800091F406E221EE41EE67ED7CE50E94230E20
:101D900080E00F910895253FFCE53F07E9F0B0F0A2
:101DA000263F3C45F9F0FC018281882339F11092ED
:101DB0004B02EFCF07E225EE45EE68ED7CE5E6CF7E
:101DC00006E221EE40EE63EF7CE5E0CF07E225EE90
:101DD00044EE64EF7CE5DACF06E221EE42EE65EFF9
:101DE0007CE5D4CF07E225EE46EE66EF7CE5CECF6C
:101DF00008E221E045EE69ED7CE5C8CF81E0C9CF7E
:101E0000CF93DF93EC01FB018281882309F419C190
:101E1000C230FCE5DF07C0F1C6319CE5D90730F0E0
:101E20009E012A5F3C452930310570F50E94951EC0
:101E30009093140580931305C031ECE5DE0709F497
:101E4000CFC008F05BC0C8308CE5D80709F4B6C035
:101E500088F5C430ECE5DE0709F4A8C0C0F4C23050
:101E60008CE5D80709F49CC0809113058260C330CB
:101E7000DC4509F498C080911305909114050E94E7
:101E8000A31E0E94B01880E0DF91CF910895809149
:101E900013058061C630ECE5DE0709F484C080914B
:101EA00013058860C730DC4508F47DC080911305B8
:101EB000806279C0CC308CE5D80709F489C070F411
:101EC000809113058C60CA30ECE5DE0709F46BC025
:101ED00008F478C0809113058E7F65C0CE308CE504
:101EE000D80709F479C0809113058B7FCF30DC458A
:101EF00008F459C0809113058F7E55C0CB3FECE5A7
:101F0000DE0709F457C030F5C3318CE5D80709F472
:101F10006FC078F4C131ECE5DE0709F465C0C23169
:101F2000DC4509F0A8CF0E94B018809113058F7787
:101F30003AC0C5318CE5D80709F462C008F476C010
:101F4000809114058160CA3FDC4509F094CF8093ED
:101F5000140591CFCF3FFCE5DF0709F44DC088F4AD
:101F6000809114058D7FCD3F9CE5D90781F3809149
:101F700014058E7FCE3FDC4550F3809114058360BD
:101F8000E6CFC130FDE5DF0709F459C008F444C0CD
:101F900080E0C230DD4509F06ECF0E94211F6BCF7B
:101FA0008091130581608093130565CF809113059F
:101FB0008460F9CF809114058260C9CF80911305A8
:101FC0008064F1CF0E94B018809113058068EBCF38
:101FD000809113058D7FE7CF80911305877FE3CF35
:101FE000809113058F7DDFCF809113058F7BDBCF31
:101FF00080911305837FD7CF809114058C7FA7CF65
:102000008091130582FB992790F921E0922790FB9C
:1020100082F990FB83F9C7CF80911405982F909592
:1020200091708E7F892B90FB81F991CF0E94B0181F
:1020300090911305892F97FB87F98058B4CF81E0E1
:10204000ACCF81E021CFCF93DF93EB0186319C456C
:1020500011F50E94DD1D9A81992399F08A7A91E009
:1020600009F490E090934C02811109C089E20E942A
:10207000B81D0E941F1E80E0DF91CF91089585E377
:10208000F6CF80914C02811104C089E20E94BF1DED
:10209000F0CF85E3FBCF81E0EFCFCF93DF93EC016F
:1020A00081E0898B8F810E94E01D88850E94F31D4D
:1020B0000E941F1EEA81FB81309739F06C897D896F
:1020C000CE010696DF91CF910994DF91CF910895CB
:1020D000CF93DF93EC018881823039F4FB01828158
:1020E00093810E948D0881E08B87DF91CF910895C5
:1020F000FC018081813029F4FB01808191810C9465
:102100008D08823021F4FB0182819381F8CF0895FC
:10211000FC018081813029F4FB01808191810C9444
:10212000A208823021F4FB0182819381F8CF0895C7
:10213000EF92FF920F931F93CF93DF93EC018A8569
:10214000811134C0EB80FC8087E5F81A26E12E9DD2
:10215000C0012F9D900D1124DC01A45EBE4F14968A
:10216000ED91FC911597309731F054966D917C91DB
:102170008E5D9E4F099586E18E9D80018F9D100D8D
:102180001124045E1E4FF80187810E94E61DF801AC
:1021900080850E94F91D0E941F1E188219861B86C9
:1021A0001E821D8210924E0210924D02DF91CF913D
:1021B0001F910F91FF90EF900895DF92EF92FF92A1
:1021C0000F931F93CF93DF937C01FB0182818823C0
:1021D00091F0809171018F3F71F0CCE1D1E010E07E
:1021E00000E0DD24D39480917101082E000C990B3E
:1021F0008017910744F4DF91CF911F910F91FF90C9
:10220000EF90DF9008958E818823C9F089859A85A3
:102210008E159F0539F480914D0290914E028E15D6
:102220009F0569F0DF86FC86EB868989811103C0F2
:10223000CE010E944D10CE0106960E9498100F5FAD
:102240001F4F6696D0CFEF92FF920F931F93CF93BD
:10225000DF937C0197558F3F910509F0D8F52091C8
:102260007101022E000C330B2817390714F48093E8
:102270007101FB01228136E1389F8001399F100DE9
:102280001124E801C45EDE4F288B92818E81992350
:1022900049F1FA86E9868F5F8E830E9466209E87C9
:1022A0008D870E94061E8F830E94DD1D88870E94F5
:1022B000F01D9885892B8887E881F981309731F066
:1022C0006C897D89C8018E5D9E4F0995F0924E0202
:1022D000E0924D0281E0DF91CF911F910F91FF902D
:1022E000EF9008958823B1F38989882399F3C80171
:1022F0008E5D9E4F0E949810EDCFCF92DF92EF92AD
:10230000FF920F931F93CF93DF938091710110E0A1
:1023100006E18F3FF1F5DF91CF911F910F91FF9073
:10232000EF90DF90CF9008950E9DF0010F9DF00D7E
:102330001124E45EFE4FC288D388C114D10439F45D
:1023400070E060E0818592850E94261B6C010E9DE5
:10235000E0010F9DD00D1124C45EDE4F8E818823D5
:10236000B9F08D859E850E947E20C816D90680F41E
:10237000109F700111248989811105C0C701845EF5
:102380009E4F0E944D10C7018E5D9E4F0E94981077
:102390001F5FE12EF12C80917101082E000C990B2A
:1023A0008E159F050CF6B7CF8EE14A9B02C0815077
:1023B000E1F74A9BFECF08955A9880E28A95F1F79B
:1023C0005A9A0895FC013BE03A95F1F720E090E03D
:1023D00080E031E040E14A95F1F7880F4A9B02C066
:1023E0008160232742E04A95F1F7000040E14A95D9
:1023F000F1F79F5F6913EECF90E19A95F1F799B1EC
:1024000032E03A95F1F7000040E14A95F1F792FB8E
:10241000992790F992272081920F90830895EF9247
:10242000FF920F931F93CF93DF930F92CDB7DEB739
:1024300019828C017C01E60EF11C0E151F0561F45A
:1024400081E09981911180E00F90DF91CF911F91F0
:102450000F91FF90EF9008950E94D41168E0CE0193
:1024600001960E94E211F80181938F01E6CF9093CB
:1024700051028093500260934F02529A5A9A0895E3
:10248000909351028093500260934F0252985A9A4F
:10249000EA9AE9E6F0E080818F7C808308956150BC
:1024A000770B91E001C0990F6A95EAF720E031E0DF
:1024B000911108C0222391F05A9A80E28A95F1F78F
:1024C0005A980895492F482339F05A9A232740E211
:1024D0004A95F1F79695ECCF5A98F9CF5A98EDCFE7
:1024E000FF920F931F93CF93DF93EC018C01060FA4
:1024F000111DC017D10731F4DF91CF911F910F91BA
:10250000FF900895F9900E94DC1168E08F2D0E94E1
:102510004F12EFCF1F920F920FB60F9211240F930D
:102520001F932F933F934F935F936F937F938F935B
:102530009F93AF93BF93EF93FF93CF93DF930F924C
:10254000CDB7DEB719820E94D41167E0CE010196A3
:102550000E94E211082F069506950695982F9295F0
:102560009570202F2570920F292F237096959695A0
:102570008770920F891344C08981811141C0809175
:102580004F028017E8F120E12A95F1F75A9A529A02
:1025900082E08A95F1F700C0A8E00A9FC0011124EB
:1025A0000091500210915102080F191F5A98F8011A
:1025B0006581662321F0868197810E9470120E94B6
:1025C000DC11F0E1FA95F1F75A9852985A9A20E105
:1025D0002A95F1F7D80112966C911297662331F182
:1025E00013968D919C910E940F12D801ED91FC9150
:1025F000882311F088E001C082E080830E94D4111A
:102600000F90DF91CF91FF91EF91BF91AF919F918B
:102610008F917F916F915F914F913F912F911F917A
:102620000F910F900FBE0F901F901895ED91FC9198
:10263000E1CF0F931F93CF93DF9320914F02281781
:1026400019060CF471C08C0193E0000F111F9A95CC
:10265000E1F7C0915002D0915102C00FD11FF89400
:10266000529A5A9825E02A95F1F70000982F9695EE
:1026700095708570980F892F837096959695980F11
:10268000092B0E94DC1100C067E0802F0E944F12CE
:1026900080E18A95F1F752985A9A4A9B17C087E0D1
:1026A00090E04A9915C06D81662321F18E819F814A
:1026B0000E940F1281111EC0529A5A9AE881F98124
:1026C00082E08083789482E090E00DC000C0E5CF86
:1026D000019771F4529A5A9AE881F98181E08083D6
:1026E000789481E090E0DF91CF911F910F91089550
:1026F00000C0D7CF0E94D41120E22A95F1F75A9852
:10270000529A80E18A95F1F76A81662321F08B81E4
:102710009C810E9470120E94DC11E881F981108274
:10272000789490E080E0DFCF84E090E0DCCF1092FE
:10273000B9008CE08093B8000895EF92FF920F9358
:102740001F93CF93DF93182FEB011092BC0084EA04
:102750008093BC000E9466207C018091BC0087FFB2
:1027600027C08091B900887F883029F08091B90016
:10277000887F8031D9F51093BB0084E88093BC003A
:102780000E9466208C018091BC0087FF24C02091AC
:10279000B900287F90E080E02831B1F081E090E03E
:1027A000203411F490E080E09195819591090CC05E
:1027B000CF3FDC0791F20E9466208E199F098C178B
:1027C0009D0758F28EEF9FEFDF91CF911F910F91F0
:1027D000FF90EF900895CF3FDC07A9F20E9466209A
:1027E000801B910B8C179D0770F2ECCF8FEF9FEF42
:1027F000EBCF0F931F93CF93DF93EB018093BB003D
:1028000084E88093BC000E9466208C018091BC000B
:1028100087FF11C02091B900287F81E090E0283225
:1028200011F490E080E0919581959109DF91CF912D
:102830001F910F910895CF3FDC0741F30E9466205E
:10284000801B910B8C179D0708F38EEF9FEFEECF47
:10285000CF92DF92EF92FF920F931F93CF93DF936C
:102860006B018A017901B9010E949D13E6010C0DEB
:102870001D1DC017D10761F424E92093BC00DF912E
:10288000CF911F910F91FF90EF90DF90CF9008951F
:1028900097FDF2CFB70189910E94F913EACFCF9249
:1028A000DF92EF92FF920F931F93CF93DF93C62F88
:1028B0006A017901B8010E949D1397FD0CC0B8010F
:1028C0008C2F0E94F913E601EC0CFD1CCE15DF05E0
:1028D00011F097FF0CC024E92093BC00DF91CF9149
:1028E0001F910F91FF90EF90DF90CF900895B80166
:1028F00089910E94F913EACF84E98093BC0008957E
:1029000090935702809356020895E0915602F091F9
:102910005702309721F00190F081E02D099480E07A
:102920000895E0915602F0915702309799F0209166
:102930007E01222359F02091130527FF07C0DC01F7
:102940002C9111962C93119725E02C930280F38102
:10295000E02D0994089520915402309155022817D2
:10296000390771F09093550280935402E09156021A
:10297000F0915702309721F00680F781E02D0994FD
:10298000089520915202309153022817390771F0AF
:102990009093530280935202E0915602F0915702B5
:1029A000309721F00084F185E02D0994089585B7D2
:1029B000806885BF85B7806885BF089508950895AC
:1029C0000C94DE1408950C94E2140E94D7140E9413
:1029D000DF140C94E01481E008950C94EB140E9431
:1029E0005D200E940F0580E00E94950B0E94DE2072
:1029F0000C94E314AF92BF92CF92DF92EF92FF92CA
:102A00000F931F93CF93DF93CDB7DEB72A970FB6FF
:102A1000F894DEBF0FBECDBF0E942B06B82E0E94D9
:102A2000ED14882309F463C089E5C82E82E0D82E0E
:102A300010E000E0A02E802F0E949F06E82EF601F5
:102A4000F1906F01F81609F44CC08091E50281FD08
:102A50000E94A5069F2D9E2580E0FF24F394292F38
:102A60002F21D1F18E83AF82EF2081E009F480E045
:102A700088870E9466208160782F9A8789874E8197
:102A80005F8168858A850E949915F801E75AFD4F94
:102A90008081F826F0820E94FA0DB1100E94D00CBD
:102AA0000E94851490915802891791F10E94851413
:102AB000809358022A960FB6F894DEBF0FBECDBFA2
:102AC000DF91CF911F910F91FF90EF90DF90CF900A
:102AD000BF90AF900C946E098F5FFF0C863009F0A9
:102AE000BECF0F5F1F4F0830110509F0A3CF8FEF46
:102AF00089838A831B820E9466208160782F9D8350
:102B00008C8349815A816B818D810E949915C3CF35
:102B10002A960FB6F894DEBF0FBECDBFDF91CF91DE
:102B20001F910F91FF90EF90DF90CF90BF90AF90EB
:102B30000895CF93DF93CDB7DEB72B970FB6F894F8
:102B4000DEBF0FBECDBF4F83588769877A878B87DB
:102B50001E821D8285E0FE013796DE0111960190EE
:102B60000D928A95E1F749815A816B817C818D8133
:102B70009E812B960FB6F894DEBF0FBECDBFDF91BE
:102B8000CF910C94291BFC01808191810C948A1DAA
:102B9000CF93C82F882309F43FC08CEF8C0F813A64
:102BA000A0F46C2F80917201909173010E943A1FE2
:102BB000882329F08C2F0E94BF1D0E941F1E8C2F7E
:102BC0000E94B81DCF910C941F1E80E28C0F88309C
:102BD00048F4C77081E001C0880FCA95EAF70E94E7
:102BE000E01DF0CFEBE5EC0FE33040F4F0E0EC500B
:102BF000FE4F808190E0CF910C94AB14C85AC7313E
:102C000058F4EC2FF0E0EE0FFF1FEA53FE4F8081E7
:102C10009181CF910C94C114CF910895882329F10B
:102C20009CEF980F913A20F40E94BF1D0C941F1E38
:102C300090E2980F983050F4877091E001C0990F9E
:102C40008A95EAF7892F0E94E61DF0CF9BE5980F41
:102C5000933020F490E080E00C94AB14885A8731D4
:102C600020F490E080E00C94C1140895CF93C82F15
:102C70000E94C815C93349F42FEF87EE93E0215025
:102C800080409040E1F700C000008C2FCF910C9461
:102C90000E16882321F00E94E01D0C941F1E08953B
:102CA000882321F00E94E61D0C941F1E0895BF92F8
:102CB000CF92DF92EF92FF920F931F93CF93DF9308
:102CC0007C01D62FC72FFC01058102950F70128160
:102CD00011110E94001E0E94D61DD82E882391F04B
:102CE0001123E9F08C2F807F803421F080E28D0F5A
:102CF0008830A8F082E00E946A1E0E94D61D91E0F2
:102D0000D82ED926CC2EC2949FE0C922FBE0FC1518
:102D1000A8F1EC2DF0E0E55EF74D0C94BB27D12C2B
:102D2000F1CF0C2F0F70C07F11F00295007F11239F
:102D3000A9F0002359F080E28D0F883010F0D111F6
:102D400009C0802F0E94E01D0E941F1E8D2F0E942F
:102D5000C81514C0802F0E94F31DF6CF8D2F0E943E
:102D60000E16002359F080E28D0F883010F0D1113B
:102D70002BC0802F0E94E61D0E941F1EEC2DE850E4
:102D8000FF0B349720F40E9485140E946E09DD2009
:102D900009F47DC10E94D21D80FD79C1F701128224
:102DA0000E94CC1D0E94551CC7010E9468180E94F9
:102DB000CC1DDF91CF911F910F91FF90EF90DF908D
:102DC000CF90BF900C94761C802F0E94F91DD4CF19
:102DD0002C2F2F70B22EC07FC03219F0B29480EF2A
:102DE000B822DD2339F0D13019F1112361F100232C
:102DF00021F1ACCF112381F0011106C00E94061E03
:102E00008B290E944916BACF0130C1F70E94061ED5
:102E10008B290E940C1EB2CF011106C00E94151E04
:102E20008B2D0E945016AACF013009F4A7CFF6CF00
:102E3000112329F0063008F0A1CF8B2DE2CF053009
:102E400008F09CCFEDCF002359F3D93349F43FEF7D
:102E500087EE93E0315080409040E1F700C00000E1
:102E60008D2F0E940E168ACF8C2F869586958370A3
:102E700069F0813009F082CF8D2F9C2F9370111152
:102E800002C090E080E00E94C11478CF8D2F9C2F6B
:102E90009370111102C090E080E00E94AB146ECFDD
:102EA0008C2F837009F041C0111168CF4D2F4295CE
:102EB00046954770440F440F0D2F0F7010E030E01F
:102EC00020E0042E04C0000F111F221F331F0A949C
:102ED000D2F760E070E0CB01D4FF0FC06FE070E08C
:102EE00080E090E004C0660F771F881F991F4A9505
:102EF000D2F76095709580959095C695C695C370EC
:102F0000602B712B822B932BC23049F058F4C130C7
:102F100019F00E94E71B32CF0E94D51B2FCF0E94D1
:102F2000F91B2CCF0E94D31B29CF8695112311F0BA
:102F30008C2F8170882309F421CF4D2F429546951F
:102F40004770440F440F0D2F0F7010E030E020E069
:102F5000042E04C0000F111F221F331F0A94D2F742
:102F600060E070E0CB01D4FF0FC06FE070E080E064
:102F700090E004C0660F771F881F991F4A95D2F70B
:102F80006095709580959095C695C695C370602B99
:102F9000712B822B932BC23049F058F4C13019F0B9
:102FA0000E94CC1CEBCE0E94BA1CE8CE0E94DE1C14
:102FB000E5CE0E940F1CE2CECF70112329F08C2F9A
:102FC0000E94551C8D2F1DCF8D2F0E9450168C2FC7
:102FD0000E94761CD3CED23F89F160F4D03FC9F075
:102FE000D13F29F1112309F442C00111AFCE8C2F3A
:102FF0008F7121C0D33F39F1D43FA1F7112369F17B
:10300000CF718C2F0E94551C63E08C2F0E94551E9F
:10301000B5CE112341F0053008F0B0CE8C2F8F7162
:103020000E94991CABCE063008F0A8CEF7CF8C2FAB
:103030008F71112369F20E94551CA0CE8C2F8F71C5
:103040001123C9F3C5CF112329F08C2F8F710E9452
:10305000401C94CE0E941B1C91CE81E00E946A1EEF
:10306000023008F48BCE82E00E946A1E87CE0023D5
:1030700059F0D93309F0F4CEEFEFF7EE23E0E15049
:10308000F0402040E1F7EACE8C2F8F71A1CFDF9185
:10309000CF911F910F91FF90EF90DF90CF90BF9055
:1030A00008950F931F93CF93DF93EC01688179818B
:1030B0008A810E94941D8C010E94F01C0E94D21BE8
:1030C000B801CE01DF91CF911F910F910C9457164B
:1030D000CF93DF93EC018B819C81892B29F0888130
:1030E000998189238F3F59F4DF91CF910895CE01C3
:1030F0000E945118CE01DF91CF910C94FA08CE01B5
:103100000E9421098111F3CF0E94D61D882361F30B
:103110008A81882349F382E0DF91CF910C946A1E63
:10312000882321F00E94F31D0C941F1E089588230C
:1031300021F00E94F91D0C941F1E08950E94001E8C
:103140000E94031E0E941F1E90E080E00E94AB14AC
:1031500090E080E00C94C1140E94C61D0C949E184F
:103160000E94ED1D0C94AC18E92FE295EF70E2502F
:10317000EE3070F4F0E0E95DF74D0C94BB27803F32
:1031800019F020F4883E20F481E00895843FE1F3B3
:1031900080E00895883EC0F3813FD1F7F5CF93FBDF
:1031A000882780F908950E948A1D0C94B418CF9343
:1031B000DF9300D000D00F92CDB7DEB70F900F9005
:1031C0000F900F900F90DF91CF910895CF93DF93E1
:1031D00000D000D000D0CDB7DEB726960FB6F89459
:1031E000DEBF0FBECDBFDF91CF9108951F93CF9368
:1031F000DF93C091620216E0809163028C1304C0D9
:10320000DF91CF911F910895D0E01C9FF0011D9F89
:10321000F00D1124EC59FD4F408151816281738181
:10322000848195810E94E6182196C770E5CF409170
:10323000940250919502609196027091970280914C
:103240009802909199020C94E6181F93CF93DF9304
:1032500080919902807FA9F480919602882389F059
:1032600080916202C0916302609194027091950214
:10327000A0919702B0919802D62FD72316E0C813D9
:1032800004C0DF91CF911F91089590E0109711F045
:10329000DF3F19F401968770F2CF189F9001199FB4
:1032A000300D1124F901EC59FD4F41814713F2CF44
:1032B00040814613EFCF42814111ECCF43815481CD
:1032C0004A1B5B0B403A510528F7809199028F7099
:1032D000806180939902F901E759FD4F80818F70D9
:1032E0008061808384E992E00E946818DF91CF9129
:1032F0001F910C94F618AF92BF92CF92DF92EF928B
:10330000FF920F931F93CF93DF93CDB7DEB76197F3
:103310000FB6F894DEBF0FBECDBF8C0185E0F8017B
:10332000DE011D9601900D928A95E1F7F80140812A
:103330005181E28084E9C82E82E0D82E6091970204
:10334000709198026115710509F461C19091940220
:1033500020919502892F82238F3F09F458C1A380C1
:10336000B480F0909602F501E61BF70BFF2009F4FC
:10337000FCC080919902382F307FE03AF10508F0C7
:10338000B2C0311179C0FE2C251323C0941321C083
:10339000E1101FC08F708061809399020E941719FD
:1033A000C6010E94681880919902F80185838F2DCB
:1033B00061960FB6F894DEBF0FBECDBFDF91CF91FF
:1033C0001F910F91FF90EF90DF90CF90BF90AF9043
:1033D0000895AB2829F0842F85238F3F09F033C14E
:1033E00080E0F82FF170DF2E80FF3CC080916202F8
:1033F0002091630236E0821315C04D875E878D856C
:103400009E850E948A1D292F22952F702230F0F070
:10341000243018F59F70F1F0F8019581907FD1F478
:10342000D12C1EC090E0389FF001399FF00D11247F
:10343000EC59FD4F6181651306C06081641303C0C0
:1034400062816E110FC001968770D5CF9F7011F009
:10345000882331F3805E883018F3C8010E94681811
:10346000FD2CA5CFEE2009F4A2CF809199028160B6
:1034700080939902F12C9BCF251306C0941304C0AE
:10348000F801EE2009F48DC04D875E878D859E85FD
:103490000E94D318882319F1EE2009F18091990236
:1034A000803270F0209194023091950238872F83FA
:1034B0001986BB86AA868C87CE0107960E9468185B
:1034C00086E0F801A4E9B2E001900D928A95E1F757
:1034D0000E9425190E941719FF24F39468CFC80190
:1034E0000E946818F9CF311113C07A2DB98AA88AC1
:1034F0006E2D89890E94D71884E992E00E9468188D
:1035000086E0F60111928A95E9F70E941719B2CF69
:1035100025130FC094130DC0E1100BC0F801858373
:10352000C8010E94681886E0F60111928A95E9F7B1
:103530003ECF4D875E878D859E850E94D318882358
:1035400071F2EE2061F280919902803208F4B8CFD6
:1035500020919402309195023A8329831B82BD8287
:10356000AC828E83CE010196A9CFE03AF10508F036
:1035700041C0FE2CEE2009F4B2CF25132AC09413CB
:1035800028C08091990280FD1BC0982F907FC1F0C8
:10359000F8018583903F31F0982F907F905F8F7076
:1035A000892B8583C8010E94681886E0F801A4E988
:1035B000B2E001900D928A95E1F70E941719F7CEBB
:1035C00086E0F801A4E9B2E001900D928A95E1F756
:1035D000EECE4D875E878D859E850E94D318811122
:1035E0006FCF80919902816080939902C8010E94F7
:1035F0006818DDCE7A2DB98AA88A6E2D89890E9435
:10360000D71886E0F60111928A95E9F7D6CFEE2019
:1036100009F465CF4D875E878D859E850E94D318FE
:10362000F82E882309F45BCF86E0F801A4E9B2E024
:1036300001900D928A95E1F784E992E00E94C3150A
:103640000E942519BACF81E08E25CBCE80EA90E08A
:1036500008951F93CF93DF93CDB7DEB72C970FB6A6
:10366000F894DEBF0FBECDBF4F83588769877A8736
:103670008B879C87CE0107960E947B19882369F06F
:103680008A859B85892B39F04F815885842F852326
:103690008F3F09F071C016E05FC086E0FE013796EB
:1036A000DE01119601900D928A95E1F78A859B853E
:1036B000892B89F38F81988589238F3F61F320912E
:1036C000630230E0C9010196877099274091620238
:1036D0004817190671F40E94B018109263021092F4
:1036E000620286E0E4E9F2E0DF011D928A95E9F7E3
:1036F000D2CF96E0929FD001939FB00D1124AC5988
:10370000BD4FFE01319601900D929A95E1F780939D
:1037100063020E94F618BFCF819FC00111248C590B
:103720009D4F0E947B198823E9F0E09162021E9F61
:10373000F0011124EC59FD4F408151816281738168
:10374000848195810E94E6188091620290E0019642
:103750008770992780936202809162029091630240
:103760008913DACF2C960FB6F894DEBF0FBECDBF0B
:10377000DF91CF911F91089569857A858B859C850E
:103780000E94E61888CF08950C94C31B0E94C41BA6
:103790006093BC027093BD028093BE029093BF02FF
:1037A0000C949E1808950C94C61B0F931F930091C0
:1037B000BC021091BD022091BE023091BF02602B6D
:1037C000712B822B932B1F910F910C94C61B0F937F
:1037D0001F930091BC021091BD022091BE02309156
:1037E000BF0260237123822393231F910F910C94B6
:1037F000C61B0F931F930091BC021091BD02209134
:10380000BE023091BF0260277127822793271F9144
:103810000F910C94C61B0C94C31B0C940B1C0E94A0
:103820000D1C6093B8027093B9028093BA02909312
:10383000BB020C949E1860E070E0CB010C940F1C4E
:10384000611571058105910529F481E0442361F03A
:1038500080E00895DC01CB0104C0B695A79597954B
:1038600087954A95D2F781700895482F6091B802E4
:103870007091B9028091BA029091BB020C94201C05
:103880000F931F9341E050E060E070E08A019B01DC
:1038900004C0000F111F221F331F8A95D2F7C901E0
:1038A000B8011F910F910C940F1C0F931F9341E0CF
:1038B00050E060E070E004C0440F551F661F771FA2
:1038C0008A95D2F78091B8029091B902A091BA027C
:1038D000B091BB028A019B01082B192B2A2B3B2B91
:1038E000C901B8011F910F910C940F1C0F931F93E6
:1038F00041E050E060E070E004C0440F551F661FD7
:10390000771F8A95D2F7CB01BA01609570958095A3
:1039100090950091B8021091B9022091BA023091AD
:10392000BB0260237123822393231F910F910C9478
:103930000F1C0F931F9341E050E060E070E004C063
:10394000440F551F661F771F8A95D2F78091B802E2
:103950009091B902A091BA02B091BB028A019B0179
:10396000082719272A273B27C901B8011F910F9162
:103970000C940F1C0F931F930091B8021091B90281
:103980002091BA023091BB02602B712B822B932BBA
:103990001F910F910C940F1C0F931F930091B8026D
:1039A0001091B9022091BA023091BB0260237123B9
:1039B000822393231F910F910C940F1C0F931F933D
:1039C0000091B8021091B9022091BA023091BB0265
:1039D00060277127822793271F910F910C940F1C4A
:1039E0000895E92FEE0FE90FEE0F8E0F982F9770C5
:1039F00041E001C0440F9A95EAF786958695869531
:103A000095E0899FF0011124E656FD4F30E020E05B
:103A100070E05191DF011197CB01022E02C0969503
:103A200087950A94E2F781708195852784238527FD
:103A30008C932F5F3F4F2530310559F70895E92FBB
:103A4000EE0FE90FEE0F8E0F982F977086958695E3
:103A5000869525E0829FF0011124E656FD4F50E047
:103A600040E080E0219130E0092E02C03695279594
:103A70000A94E2F721703327042E01C0220F0A9422
:103A8000EAF7822B4F5F5F4F4530510559F7089594
:103A9000BF92CF92DF92EF92FF920F931F93CF933B
:103AA000DF938C01C090B802D090B902E090BA02C6
:103AB000F090BB028091BC029091BD02A091BE0229
:103AC000B091BF02C82AD92AEA2AFB2ACFE1D0E066
:103AD000BC2ED701C6010C2E04C0B695A7959795AC
:103AE00087950A94D2F780FD0EC0219788F7B12CF4
:103AF0008B2DDF91CF911F910F91FF90EF90DF9071
:103B0000CF90BF900895B8018C2F0E948A09019729
:103B100061F3EECFCF93DF93EC010E94481DBE010D
:103B2000DF91CF910C948A091F93CF93DF93EB0120
:103B300090916102992331F0CB01DF91CF911F91D8
:103B40000C948A1D882379F0CB010E94481D182F00
:103B5000682FCE010E94F11CBE01812FDF91CF9111
:103B60001F910C948A09CB010E941F1D182FF4CFBE
:103B7000682F80917201909173010C94BA1F682F85
:103B800080917201909173010C94C51F8091720114
:103B9000909173010C94D01F8091C00285958595FA
:103BA000859508958091C002877008959091C00214
:103BB000977081E009F480E008958091E40208950F
:103BC0009091E402892B8093E4020895809590916E
:103BD000E40298239093E40208951092E402089579
:103BE0008091E30208959091E302892B8093E30290
:103BF000089580959091E30298239093E3020895AD
:103C00001092E30208951092E20208958091C10299
:103C1000089508950C94091E9091C102981721F0FF
:103C20008093C1020C940A1E08958091C1028823DA
:103C300029F01092C10280E00C940A1E0895E091D0
:103C40007201F09173018091E4028083E09172012E
:103C5000F091730180819091E302892B8083E09140
:103C60007201F091730180819091E202892B80832F
:103C70009091C102992381F0E0917201F09173015A
:103C80008081892B808380917201909173010E94C1
:103C9000261F81110E94151E80917201909173015F
:103CA0000C94911408950C94521E98E0899F9001F1
:103CB0001124622B6093C0020E94551C8091C002A7
:103CC0008595859585950C94531E1092C00280E0D1
:103CD0000C94531E9091C002809589238093C0025A
:103CE000282F277071F4282F082E000C330B921701
:103CF000130639F08595859585950E94761C0C9460
:103D0000651E089590E080E00E94DF2721E08C3E50
:103D10009E4F09F020E0822F089582E090E00C94FD
:103D2000D72783E090E00C94D727CF9384E090E0EE
:103D30000E94D727C82F81E290E00E94D727982FB2
:103D40008C2FCF910895CF93C92F682F84E090E0F6
:103D50000E94E5276C2F81E290E0CF910C94E5273B
:103D6000AB01BC018FE090E00C94F727AB01BC01E4
:103D700083E190E00C94F72760E070E0CB010C94B5
:103D8000B61E60E070E0CB010E94B01E0C94BC1E19
:103D90006CEE7EEF90E080E00E94032860E082E01D
:103DA00090E00E94E52760E083E090E00E94E52734
:103DB0001092BC021092BD021092BE021092BF027D
:103DC00060E084E090E00E94E52760E081E290E01E
:103DD0000E94E52760E085E090E00E94E52760E032
:103DE00086E090E00E94E5276FEF87E090E00E9478
:103DF000E52740E050E0BA0188E090E00E94F72714
:103E000060E08DE090E00E94E52740E050E0BA01DC
:103E100088E190E00E94F72760E087E190E00E944F
:103E2000E52740E050E0BA018CE190E00E94F727DE
:103E300060E080E290E00E94E5270C94C11E0C94A3
:103E4000C81E682F8EE090E00C94E527FC013296A6
:103E500080917E01882321F0809113059EE187FFE8
:103E600096E080E0915008F4089521912223D1F347
:103E70008F5FF8CF662301F120917E012223F1F0BC
:103E80002091130527FF1AC0462F46954695469563
:103E90004E3190F4677021E030E002C0220F331FF2
:103EA0006A95E2F7840F911DFC01828190E028233E
:103EB000392381E0232B69F480E00895FC013296D8
:103EC00008962191261721F0E817F907D1F7F4CFCA
:103ED00081E008959C01FC0132969FEF80E04191C2
:103EE000461751F09F3F19F4411101C0982F8F5F81
:103EF0008630A9F79F3F09F40895290F311D97FDDA
:103F00003A95F90162830895FC0132960896219151
:103F1000261303C0DF0111971C92E817F907B9F7C0
:103F20000895E62FE695E695E695EE3168F4E80FFC
:103F3000F92FF11D677021E030E001C0220F6A9572
:103F4000EAF78281822B82830895E62FE695E69533
:103F5000E695EE3170F4E80FF92FF11D677021E05E
:103F600030E001C0220F6A95EAF72095828128236C
:103F70002283089520917E01222329F020911305A8
:103F800027FD0C94911F0C946A1F20917E0122231F
:103F900029F02091130527FD0C94A51F0C94841F74
:103FA000FC01329680917E01882351F080911305A7
:103FB00087FF06C08EE1DF011D928A95E9F708951B
:103FC00086E0F9CF089508950C94E31F0E94E41F42
:103FD00080911905843049F11092E60288E190E061
:103FE00020E40FB6F894A895809360000FBE20934C
:103FF000600080E00E946E090E94E41F83B7817F09
:10400000846083BF83B7816083BF7894889583B7CA
:104010008E7F83BF0FB6F894A89580916000886169
:1040200080936000109260000FBE08950895CF93B2
:104030000E94E21F0E942B060E941620C0E08C2FD7
:104040000E949F06811105C0CF5FC830C1F7CF9194
:10405000089581E0FCCF08950C942B200E94B018A5
:104060000E9485140E946E090C942C201F921FB68A
:104070001F9211248F939F93AF93BF938091E60279
:10408000811113C080910F0590911005A091110529
:10409000B09112054196A11DB11D80930F0590931B
:1040A0001005A0931105B0931205BF91AF919F9198
:1040B0008F911F901FBE1F90189582E084BD93E0E2
:1040C00095BD9AEF97BD80936E0008952FB7F89431
:1040D00080910F0590911005A0911105B0911205E6
:1040E0002FBF08952FB7F89460910F0570911005B8
:1040F00080911105909112052FBF08959C014FB733
:10410000F89480910F0590911005A0911105B09140
:1041100012054FBF821B930B0895CF92DF92EF924F
:10412000FF922FB7F894C0900F05D0901005E09043
:104130001105F09012052FBFA7019601261B370B22
:10414000480B590BCA01B901FF90EF90DF90CF9057
:10415000089578941F921FB61F9211248F939F93F6
:10416000AF93BF9380910F0590911005A091110519
:10417000B09112050196A11DB11D80930F0590937A
:104180001005A0931105B0931205BF91AF919F91B7
:104190008F911F901FBE1F90189587E797E7909308
:1041A00001088093000888E19AE00FB6F894A8957A
:1041B000809360000FBE90936000FFCF0E94821E2C
:1041C000811102C00E941F1F0E948D1E8093E50274
:1041D0000E94951E90931405809313050E94911ED2
:1041E000682F70E090E080E00E94D31B6091B802DD
:1041F0007091B9028091BA029091BB020C940D1C8F
:104200008091070308950895CF93DF9300D00F9214
:10421000CDB7DEB790911905943019F589837B836A
:104220006A8382E08093E9008FEF9091E8008150EB
:1042300095FD06C095ED9A95F1F700008111F5CF37
:104240008091E80085FF0DC050E040E063E070E041
:10425000CE0101960E940A238091E8008E77809318
:10426000E8000F900F900F90DF91CF910895BC015F
:1042700084E00C940421BC0183E00C940421CF93CE
:10428000DF93EC0180917E018823B1F180911305C9
:1042900087FF32C060E282E08093E9008FEF909167
:1042A000E800815095FD06C095ED9A95F1F7000064
:1042B0008111F5CF8091E80085FF1BC080917E01C0
:1042C00070E050E040E0811104C050E040E068E060
:1042D00070E0CE010E940A238091E8008E778093DF
:1042E000E80080E2FE01A7EEB2E001900D928A950F
:1042F000E1F7DF91CF91089568E081E0CDCF809123
:104300001805811109C00E949A240E94F724809107
:10431000E20084608093E2000895109218050895E9
:10432000089508950C942E2042E061EC81E00E94F3
:10433000162442E261EC82E00C94162480911B0565
:10434000833009F45FC030F48130C1F1823009F468
:104350009BC008958A3009F487C08B3009F46DC082
:10436000893009F04EC080911A05813209F049C0A8
:1043700080911E0590911F05029708F042C0809120
:10438000E800877F8093E8008091E80082FF35C0D5
:104390009091F3008091F200029729F48091F1004E
:1043A0008B7F813021F48091F1008093070380910D
:1043B000E8008B778093E8000C944A2480911A05DA
:1043C000813AF9F48091E800877F8093E80080913A
:1043D0001E0590911F05892B61F460E287EE92E043
:1043E00070E00E9459238091E8008B778093E80069
:1043F000089560E090E080E0F3CF8091190581118D
:10440000C3CF089580911A05813AD9F780911E058E
:1044100090911F05892BA9F78091E800877F8093F1
:10442000E8008091E80080FFFCCF80917E018093BE
:10443000F1008091E8008E77BDCF80911A0581321E
:1044400001F780911E0590911F05892BD1F680916F
:10445000E800877F8093E8000E944A2480911C0531
:1044600080937E010C94B01880911A05813249F630
:104470008091E800877F8093E8000E944A24809121
:104480001D0580930803089580911A05813A09F06B
:10449000B8CF8091E800877F8093E8008091E800A2
:1044A00080FFFCCF80910803C2CF84B7877F84BF91
:1044B0000FB6F894A89580916000886180936000A1
:1044C000109260000FBE80E890E00FB6F8948093E1
:1044D0006100909361000FBE0E94E5140E949A242F
:1044E0000E94F7248091E20084608093E200789437
:1044F0000E9480270E94EF1484E791E00E948014BC
:1045000080911905853019F00E94FA14F9CF0E94A4
:10451000E61F80911705882399F30E9417208823AE
:1045200079F30E94F422ECCF0C949622292F3327A2
:104530002330310519F168F42130310509F44AC0FE
:104540002230310509F44BC090E080E030E020E0FB
:1045500028C02132310579F122323105A9F780E4F2
:1045600090E028EE38E061157105D9F08DE690E015
:104570002BE738E061307105A1F0E6CF9927813053
:10458000910599F0009741F08230910589F00397E9
:10459000D9F6E8ECF7E002C0EAE2F8E0849190E0B6
:1045A0009F01FA01318320830895E8E1F8E0F6CF16
:1045B000EEECF7E0F3CF89E090E020E438E061151D
:1045C000710579F389E090E029E538E06130710503
:1045D00041F3BACF82E190E029E638E0E2CF8BE305
:1045E00090E02EE238E0DDCF80E189BD82E189BD37
:1045F00009B400FEFDCF8091D8008F7D8093D80054
:104600008091E00082608093E0008091E00081FD75
:10461000FCCF0895AF92BF92CF92DF92FF920F939B
:104620001F93CF93DF936C01EB018A010E946924F1
:10463000F82E811123C00115110539F0F801808190
:104640009181C81BD90BC80ED91EB12CA12C209763
:10465000A9F08091E80085FD22C08091E8008E7766
:104660008093E80001151105A1F0F8018081918186
:10467000A80EB91EB182A08285E0F82E8F2DDF91A1
:10468000CF911F910F91FF90DF90CF90BF90AF908F
:1046900008950E9469248823D1F2F82EEFCFF60105
:1046A00081916F018093F1002197FFEFAF1ABF0A4C
:1046B000CECFFC01809120059091210586179707A8
:1046C000A0F06115710529F49091E8009E77909310
:1046D000E80090E06115710551F4911108C08091D6
:1046E000E80082FF34C080E00895BC01F2CF8091E1
:1046F00019058823C1F18530C1F18091E80083FD5F
:1047000030C08091E80082FDEACF8091E80080FF10
:10471000E1CF8091F3002091F200382F61157105EF
:1047200019F02830310558F091E02830310509F0B2
:1047300090E02091E8002E772093E800CBCF819184
:104740008093F100615071092F5F3F4FE7CF809157
:104750001905882341F0853041F08091E80083FFFE
:10476000BECF81E0089582E0089583E00895FC01C2
:10477000809120059091210586179707A0F061157B
:10478000710529F48091E8008E778093E80090E02D
:104790006115710551F4911108C08091E80082FF04
:1047A00035C080E00895BC01F2CF809119058823BF
:1047B000C9F18530C9F18091E80083FD31C0809155
:1047C000E80082FDEACF8091E80080FFE1CF809190
:1047D000F3002091F200382F6115710519F028308F
:1047E000310558F091E02830310509F090E08091D2
:1047F000E8008E778093E800CBCF84918093F1001E
:104800003196615071092F5F3F4FE6CF80911905B6
:10481000882341F0853041F08091E80083FFBDCFCF
:1048200081E0089582E0089583E00895982F9730FD
:1048300028F08F708093E90081E008959093E9005B
:10484000242F762F50E0981731F07091EC002091D2
:10485000ED005091F00021FD02C09F5FE8CF309144
:10486000EB003E7F3093EB003091ED003D7F3093C5
:10487000ED003091EB0031603093EB007093EC0071
:104880002093ED005093F0002091EE0027FDE5CF3E
:1048900080E0089580911A0587FF13C08091E80099
:1048A00082FF06C08091E8008B778093E80004C007
:1048B000809119058111F2CF0895809119058823FF
:1048C000D9F38091E80080FFF8CF8091E8008E77DF
:1048D000ECCF2091E4003091E50095E6A90120910C
:1048E000EC00822F817020FF06C08091E80080FFDD
:1048F00006C080E008952091E80022FD1AC0809152
:104900001905882389F0853089F08091EB0085FDB9
:104910000FC02091E4003091E50042175307F9F2EF
:104920009150E1F684E0089582E0089583E00895CF
:1049300081E008950E9408250E941025E0EEF0E035
:10494000808181608083E8EDF0E080818F778083D3
:1049500019BCA7EDB0E08C918E7F8C9380818F7E07
:1049600080831092180508950F931F93CF93DF93C0
:104970000E9408250E941025C8EDD0E088818F771D
:10498000888388818068888388818F7D888319BC2B
:104990001092190510921505109217051092160520
:1049A00000EE10E0F80180818B7F80838881816038
:1049B000888342E060E080E00E941624E1EEF0E0AF
:1049C00080818E7F8083E2EEF0E080818160808351
:1049D000808188608083F80180818E7F80838881D8
:1049E00080618883DF91CF911F910F910895E8ED49
:1049F000F0E080818F7E8083E7EDF0E08081816050
:104A0000808384E082BF81E0809318050C94B424F5
:104A1000E8EDF0E080818E7F80831092E2000895BF
:104A20001092DA001092E10008951F920F920FB6D3
:104A30000F9211242F933F934F935F936F937F9324
:104A40008F939F93AF93BF93EF93FF938091E10078
:104A500082FF0BC08091E20082FF07C08091E100DD
:104A60008B7F8093E1000E947F278091DA0080FF96
:104A700019C08091D80080FF15C08091DA008E7F28
:104A80008093DA008091D90080FF96C080E189BDD3
:104A900082E189BD09B400FEFDCF81E08093190554
:104AA0000E947F218091E10080FF19C08091E20087
:104AB00080FF15C08091E2008E7F8093E20080919C
:104AC000E20080618093E2008091D8008062809350
:104AD000D80019BC85E0809319050E94912180912E
:104AE000E10084FF2BC08091E20084FF27C080E1B9
:104AF00089BD82E189BD89B5982F917080FFFBCF78
:104B00008091D8008F7D8093D8008091E1008F7EC6
:104B10008093E1008091E2008F7E8093E20080919B
:104B2000E20081608093E20080911505882309F4FA
:104B300049C084E0809319050E9492218091E10090
:104B400083FF29C08091E20083FF25C08091E100AE
:104B5000877F8093E10082E080931905109215050C
:104B60008091E1008E7F8093E1008091E2008E7F52
:104B70008093E2008091E20080618093E20042E055
:104B800060E080E00E9416248091F00088608093AD
:104B9000F0000E949021FF91EF91BF91AF919F9102
:104BA0008F917F916F915F914F913F912F910F90D6
:104BB0000FBE0F901F90189519BC109219050E94F6
:104BC0008D2170CF8091E30087FD93E090931905CC
:104BD000B3CF1F920F920FB60F9211242F933F93D2
:104BE0004F935F936F937F938F939F93AF93BF93F5
:104BF000CF93DF93EF93FF93D091E900DF70809123
:104C0000EC00C82FC17080FDC0E81092E9008091CF
:104C1000F000877F8093F00078940E942D261092F8
:104C2000E9008091F00088608093F000CD2BCF7078
:104C3000C093E900FF91EF91DF91CF91BF91AF91C8
:104C40009F918F917F916F915F914F913F912F91A4
:104C50000F900FBE0F901F9018951F93CF93DF9367
:104C6000CDB7DEB7AA970FB6F894DEBF0FBECDBFA3
:104C70008AE195E02091F100FC012193CF01F5E05C
:104C800082329F07B9F70E949E218091E80083FF3E
:104C90001EC180911A0590911B059A3008F017C12A
:104CA000E92FF0E0EB5CF74D0C94BB27803899F0CE
:104CB000823809F00CC180911E058F70873008F092
:104CC00006C18093E9008091EB0085FB882780F97D
:104CD0001092E90006C08091160590911705911178
:104CE00082609091E800977F9093E8008093F100B4
:104CF0001092F1008091E8008E77E5C0882309F4D6
:104D0000D3C0823009F0E3C080911C058111D6C068
:104D100080911E058F702FEF280F263008F0D7C026
:104D20008093E9002091EB0020FFC8C0933031F45C
:104D30008091EB0080628093EB00C0C09091EB000B
:104D400090619093EB0021E030E001C0220F8A9542
:104D5000EAF72093EA001092EA008091EB00886065
:104D6000EACF8111B4C010911C051F778091E30038
:104D70008078812B8093E3008091E800877F809387
:104D8000E8000E944A248091E80080FFFCCF8091D7
:104D9000E30080688093E30082E0111183E0809358
:104DA000190595C08058823008F091C080911C058B
:104DB00090911D058C3D23E09207A1F583E08A8345
:104DC0008AE289834FB7F894DE01139620E03EE033
:104DD00051E2E32FF0E050935700E49120FF03C02D
:104DE000E295EF703F5FEF708E2F90E0EA30C0F0F9
:104DF000C7968D939D932F5F243159F74FBF8091B4
:104E0000E800877F8093E8006AE270E0CE010196B7
:104E10000E9459238091E8008B778093E80057C067
:104E2000C096E7CF60911E0570911F05AE014F5FE0
:104E30005F4F0E949422BC01892B09F448C09091D5
:104E4000E800977F9093E80089819A810E94B723B8
:104E5000E1CF8038E1F58091E800877F8093E8001A
:104E6000809115058093F10045CF811130C090915C
:104E70001C05923060F58091E800877F8093E80000
:104E8000909315050E944A2480911505882311F0FE
:104E900084E005C08091E30087FDFACF81E0809334
:104EA00019050E94942113C080911C05813079F46A
:104EB00081E0933009F080E0809317051092E900BB
:104EC0008091E800877F8093E8000E944A248091C7
:104ED000E80083FF0AC08091E800877F8093E800A4
:104EE0008091EB0080628093EB00AA960FB6F89455
:104EF000DEBF0FBECDBFDF91CF911F910895089502
:104F0000CF93809119058823A1F0C091E900CF705B
:104F10009091EC00892F817090FD80E8C82B109251
:104F2000E9008091E80083FD0E942D26CF70C09398
:104F3000E900CF910895991B79E004C0991F961755
:104F400008F0961B881F7A95C9F780950895AA1BCB
:104F5000BB1B51E107C0AA1FBB1FA617B70710F064
:104F6000A61BB70B881F991F5A95A9F78095909596
:104F7000BC01CD010895EE0FFF1F0590F491E02DC7
:104F80000994FB01DC0102C005900D924150504094
:104F9000D8F70895FB01DC0104C08D9101908019C0
:104FA00021F441505040C8F7881B990B0895F99996
:104FB000FECF92BD81BDF89A992780B50895A8E1EA
:104FC000B0E042E050E00C940B28262FF999FECF78
:104FD00092BD81BDF89A019700B4021639F01FBA4C
:104FE00020BD0FB6F894FA9AF99A0FBE0895039669
:104FF000272F0E94E6270E94E527252F0E94E627FB
:10500000242F0C94E6270196272F0E94E6270C9464
:10501000E527DC01CB01FC01F999FECF06C0F2BD0A
:10502000E1BDF89A319600B40D9241505040B8F766
:105030000895F894FFCF91169116E816E8163417E4
:10504000BE16BE16BE165017DC17EB17EB17BF18AF
:10505000BF18C818C818CA18C818C818C818BF1860
:10506000BF18CF18C818C818CF1856267E2667272D
:0E5070007E266727B126D226672729273527F7
:10507E0005010F02000000010D020F0204100201D3
:10508E000D020E02000000041402FFFF68107810DB
:10509E00881000000000000000000000000000006A
:1050AE0066016810781088100000000000000000F3
:1050BE0000000000000062016810781088100000E7
:1050CE000000000000000000000000005E01E6008D
:1050DE00E200E10039002B0029000021007F2200B0
:1050EE0003FFC20200213F2103213B21372101F49E
:1050FE00F5F6F73133946697C600000000E200E93A
:10510E0000EA00B500B600B700CD008301CC008ADE
:10511E000192019401210223022402250226022774
:10512E00022A02B300B4006F00700081828300086F
:10513E00101818100800E200E900EA00B500B600E9
:10514E00B700CD008301CC008A01920194012102A7
:10515E00230224022502260227022A02B300B400EB
:08516E006F00700081828300D4
:00000001FF
