:100000000C9496040C94DD040C94DD040C948C1276
:100010000C94DD040C94DD040C94DD040C94DD04DC
:100020000C94DD040C94DD040C9417250C94EB2542
:100030000C9438200C94DD040C94DD040C94DD0445
:100040000C94DD040C94DD040C94DD040C94DD04AC
:100050000C94DD040C94AB200C94DD040C94DD04B2
:100060000C94DD040C94DD040C94DD040C94DD048C
:100070000C94DD040C94DD040C94DD040C94DD047C
:100080000C94DD040C94DD040C94DD040C94DD046C
:100090000C94DD040C94DD040C94DD040C94DD045C
:1000A0000C94DD040C94DD040C94DD0420949596EE
:1000B0002020B4B5B62020D4D5D62000209798991A
:1000C0002020B7B8B92020D7D8D92000209A9B9CEF
:1000D0002020BABBBC2020DADBDC20004172747522
:1000E000726F204E2E008081828384A0A1A2A3A4DF
:1000F000C0C1C2C3C400ABAC00CFD000C600CA00B0
:10010000C800A9AA00B1B2008B8C00CDCE00C500FA
:10011000C900C700CB00898A00919200A7A800AF50
:10012000B000C600CA00C800A5A600ADAE00878812
:10013000008F9000C500C900C700CB008586008DE8
:100140008E00202020202000005714001A000800F4
:1001500015001700015704001600070009000A00E7
:10016000E0001D001B000600190005000000000053
:100170000000E300295D2C002A00130012000C008F
:1001800018001C004C0035000F000E000D000B0085
:10019000E5003300370036001000110000000000B9
:1001A000000002572A5D280029007B007C007D00AA
:1001B0007A007900AE00A800AA00A900BE00BD0028
:1001C000AC00AB00AD00000000000000000000002B
:1001D0000000E30001002C002A0038002E0030004F
:1001E000300227024C0031001E0252002302250279
:1001F000E5002D004F005100500065000000000098
:10020000000002572A5D28003A003B003C003D00F8
:100210003E003F00400041004200430044004500D2
:10022000005C00000000B300B200460000000000C7
:100230000000E300295D2C00610060005F002F00DA
:100240002F0226025E005D005C002E0224022102C5
:100250005B005A00590062002002350200000000D5
:10026000000002570100280000AE00AF00DA028152
:10027000FFD9F1DB20A4A62EAF00A0C000A1C800CA
:10028000AED580A81FD300408D14200000000000D0
:1002900000003E5B4F5B3E003E6B4F6B3E001C3EE2
:1002A0007C3E1C00183C7E3C18001C577D571C00EF
:1002B0001C5E7F5E1C0000183C180000FFE7C3E7CF
:1002C000FF00001824180000FFE7DBE7FF003048BC
:1002D0003A060E00262979292600407F05050700E9
:1002E000407F05253F005A3CE73C5A007F3E1C1CDE
:1002F0000800081C1C3E7F0014227F2214005F5F50
:10030000005F5F0006097F017F00006689956A0033
:1003100060606060600094A2FFA2940008047E0404
:10032000080010207E20100008082A1C0800081C65
:100330002A0808001E10101010000C1E0C1E0C00C5
:1003400030383E383000060E3E0E06000000000039
:10035000000000005F000000000700070000147F9D
:10036000147F1400242A7F2A1200231308646200D9
:10037000364956205000000807030000001C2241A7
:1003800000000041221C00002A1C7F1C2A000808D3
:100390003E080800008070300000080808080800C7
:1003A0000000606000002010080402003E51494532
:1003B0003E0000427F400000724949494600214109
:1003C000494D33001814127F100027454545390068
:1003D0003C4A494931004121110907003649494940
:1003E0003600464949291E00000014000000004064
:1003F00034000000000814224100141414141400E6
:100400000041221408000201590906003E415D59CD
:100410004E007C1211127C007F49494936003E4152
:10042000414122007F4141413E007F49494941000D
:100430007F09090901003E41415173007F08080806
:100440007F0000417F4100002040413F01007F08C4
:10045000142241007F40404040007F021C027F0088
:100460007F0408107F003E4141413E007F09090999
:1004700006003E4151215E007F09192946002649A8
:100480004949320003017F0103003F4040403F00E3
:100490001F2040201F003F4038403F0063140814D5
:1004A00063000304780403006159494D4300007F51
:1004B00041414100020408102000004141417F00F9
:1004C00004020102040040404040400000030708CD
:1004D00000002054547840007F28444438003844B9
:1004E00044442800384444287F00385454541800A9
:1004F00000087E0902001824241C78007F080404E8
:10050000780000447D4000002040403D00007F1006
:100510002844000000417F4000007C0478047800FB
:100520007C08040478003844444438007C182424AF
:100530001800182424187C007C080404080048547F
:100540005454240004043F4424003C4040207C00D8
:100550001C2040201C003C4030403C004428102817
:1005600044004C9090907C004464544C440000083B
:10057000364100000000770000000041360800000E
:100580000201020402003C2623263C00F0180C065F
:1005900002010101010139293302020705060C0895
:1005A00018103060C0800000000000F8042252E201
:1005B000424242E2522222224282020222220204C9
:1005C000F80000F804020282422242820202028201
:1005D0004222122242820204F80000F8FCDEAE1E23
:1005E000BEBEBE1EAEDEDEDEBE7EFEFEDEDEFEFC7D
:1005F000F80000F8FCFEFE7EBEDEBE7EFEFE0000C1
:1006000000000000808040402020101008081010DA
:100610002020404080808080C0C0E0E0F0F0F8F80A
:10062000F0F0E0E0C0C080808080404020201010CA
:1006300008081010202040408080808040C060A0CA
:1006400050B058A850B060A040C080800FF80000A3
:1006500000008080C040C0C040C0C040C0C040C09A
:1006600080808080000103867C00001F20444A4770
:10067000424242474A444040404041424444402074
:100680001F00001F20404140404040404140414148
:100690004F4848484F4141201F00001F3F7B75785D
:1006A0007D7D7D78757B7F7F7F7F7E7D7B7B7F3FC0
:1006B0001F00001F3F7F7E7F7F7F7F7F7E7F000048
:1006C0000000000088885D5D3E3E7C7CF8F87C7C04
:1006D0003E3E5D5D888888885555232347478F8F28
:1006E00047472323555588888888D5D5E2E2C4C476
:1006F0008888C4C4E2E2D5D5888888885DD56BB681
:100700006DD6ADDA6DD66BB65DD588881C3F3F706F
:1007100070E1E0C1C1C0C0C0C0C4E27F712000016F
:100720000100030301030301000004F80000F804C2
:10073000201F00001F20FCF80000F8043F1F0000ED
:100740001F2004F80000F8FC201F00001F3FFCF8E9
:100750000000F8FC3F1F00001F3FFE7EBEDEEEDE05
:10076000BE7EFEFCF8007E7E70777777707E7E3FDF
:100770001F0000000000000000000000000000005A
:100780000000000000000101020204040808040443
:100790000202010100000000010102020404080835
:1007A0000404020201010000000001010303070725
:1007B0000F0F0707030301010000000001010302FE
:1007C00005060D0A050603020101000004033000BE
:1007D0000000480343006F0072006E0065002000B7
:1007E0004B006500790062006F00610072006400D8
:1007F00020005200650076002E0031002000280005
:100800004C00650067006100630079002000530020
:1008100070006C006900740029000000100366007D
:100820006F006F007300740061006E00000004032D
:10083000090409023B00020100A0FA0904000001BA
:100840000301010009211101000122400007058177
:100850000308000A09040100010300000009211136
:10086000010001226D000705820320000A12011019
:1008700001000000085346010001000102030105C8
:10088000010980A101850319012AB700150126B7C6
:1008900000950175108100C0050C0901A1018504B6
:1008A00019012AA002150126A002950175108100E8
:1008B000C005010906A1018505050719E029E7150D
:1008C0000025019508750181020507190029EF151A
:1008D00000250195F075018102050819012905958A
:1008E0000575019102950175039101C00501090685
:1008F000A101050719E029E71500250195087501F3
:1009000081029501750881010507190029FF15006D
:1009100026FF00950675088100050819012905952F
:100920000575019102950175039101C011241FBE47
:10093000CFEFDAE0DEBFCDBF04B603FE27C0809163
:10094000220590912305A0912405B09125058730BB
:10095000904BA740B04BD1F4109222051092230582
:10096000109224051092250514BE84B7877F84BF9A
:100970000FB6F894A895809160008861809360001C
:10098000109260000FBEE0E0F8E3099511E0A0E0EE
:10099000B1E0E2E8F0E502C005900D92A83FB10792
:1009A000D9F725E0A8EFB1E001C01D92A232B2074D
:1009B000E1F70E9457220C941B280C940000CF935F
:1009C000DF93A5E8B1E049E851E0C1E0D0E08D91C6
:1009D000E82FE295EF70F0E061A18F709E0101C0F9
:1009E000220F8A95EAF7922F9095962391A382A1E0
:1009F000822B82A34A175B0751F7DF91CF910895AD
:100A0000089508950C940105209A559A289A5D9AA4
:100A100008955D9808955D9A089528980895289AF4
:100A200008950E94C9060E94DF04AFE7B1E061E0CB
:100A300070E08D91E82FE295EF70F0E041A18F70AA
:100A40009B0101C0220F8A95EAF7922F909594237B
:100A500091A382A1822B82A381E0A538B80749F730
:100A60000E940405E0E0F2E0A8EFB1E011921D92CF
:100A700082E0E830F807D1F70E94A80680930802C8
:100A80000C9407098F929F92AF92BF92CF92DF9200
:100A9000EF92FF920F931F93CF93DF938091010109
:100AA000C4E0D0E0882311F0D0E0C0E085E8C82E93
:100AB00081E0D82EAE0148505E4F7A018A01912C18
:100AC000AA24A394B12C25E0822EF60181916F0116
:100AD000E82FE295EF70F0E021A18F70A50102C030
:100AE000440F551F8A95E2F7CA01922F982B91A3C4
:100AF00092A18095892382A350EA5A95F1F7EFE7F6
:100B0000F1E020E050E040E03191A32FA295AF70DA
:100B1000B0E090968C9190E03F7002C095958795DB
:100B20003A95E2F780FD3CC0C501042E01C0880F54
:100B30000A94EAF7282B4F5F5F4F4630510521F7A3
:100B4000F8018081821729F0208380920001992486
:100B500093940E94DF040F5F1F4FF9E8CF16F1E076
:100B6000DF0609F0B2CF80910001882359F081504F
:100B7000809300018823B1F08FE99FE00197F1F79E
:100B800000C00000892DDF91CF911F910F91FF9040
:100B9000EF90DF90CF90BF90AF909F908F9008958F
:100BA00080E0C8CFC050DE4F84E0F70191917F0113
:100BB00099938150D1F7E6CF0F931F93CF93DF9393
:100BC0002091010110E000E0222311F004E010E088
:100BD0000E94E406EC01009739F0029711F40E949C
:100BE0000D05C1E0D0E011C00E940F05F801E050F2
:100BF000FE4F8091140290911502A0911602B091BF
:100C0000170280839183A283B383CE01DF91CF91BA
:100C10001F910F9108950E94420590910101E4E017
:100C2000F0E0992311F0F0E0E0E0E050FE4F30E01A
:100C300020E040E0D901AC5EBD4F5C919191591329
:100C400041E09C932F5F3F4F2430310599F79091FD
:100C50000D02940F90930D0208951F93CF93DF938D
:100C600080910802882309F44BC00E944205182F86
:100C700080910101C4E0D0E0882311F0D0E0C0E011
:100C8000C050DE4F44E050E0BE0180E192E00E949F
:100C9000CC27488159816A817B814093100250930F
:100CA000110260931202709313020E94DC05892BDB
:100CB00011F10E940905809109028F5F809309025A
:100CC000863070F080910101F0E0E0E0882311F0BF
:100CD000E4E0F0E0E050FE4F1082118212821382B5
:100CE0000E940F09C1E0111101C0C0E08C2FDF91FB
:100CF000CF911F9108950E940B0510920902F0CF29
:100D00000E940B06C1E0811101C0C0E08091010189
:100D1000811114C090E080E080509E4F40911002FD
:100D2000509111026091120270911302FC014083F4
:100D30005183628373830E940F09D8CF84E090E0CF
:100D4000EBCFE82FF0E0E050FE4F8081089508954A
:100D500080910A02811111C08091D8008061809336
:100D6000D8008AE18A95F1F700C09091D900892FC7
:100D7000817090FF82E080930A0281E090910A02E4
:100D8000913009F080E008950E94A80691E089273B
:100D900008950E94C406809301010E94A80688233A
:100DA00021F00E94D806789408950E94DE06FBCFB9
:100DB00063E070E082E091E00C94391263E070E04F
:100DC00082E091E00C9442120F931F93CF93DF9334
:100DD0008C0190911B0180911A01D0E0C0E098171E
:100DE00059F082E090E00E941B13EC01892B21F462
:100DF00080911A0180931B0180910B0290910C024B
:100E0000082B192B90E080E0012B11F081E090E09D
:100E10000E941B13892B71F480910D0280931A019B
:100E200010920C0210920B02CE01DF91CF911F9114
:100E30000F91089581E090E090930C0280930B0253
:100E4000F3CF0C94000583E0089560E082E491E024
:100E50000C94C00CCF93DF93D82FD878C82FC474CC
:100E600060E0DD2329F18FE391E00E94C00C60E097
:100E700088E391E0CC2329F160E08AE391E00E94CD
:100E8000C00C60E081E391E00E94C00C60E0DD23D3
:100E900011F18BE291E00E94C00C60E086E291E0EB
:100EA0000E94C00CC11122C060E08CE191E021C021
:100EB0008CE391E00E94C00CC11109C060E084E3A2
:100EC00091E00E94C00C60E08EE291E0DDCF60E036
:100ED00086E391E0D4CF88E291E00E94C00C60E00C
:100EE000CC2359F084E291E00E94C00C60E08FE1D5
:100EF00091E0DF91CF910C94C00C82E291E00E94CE
:100F0000C00CD2CFCF93DF93D82FD171C82FC2722C
:100F100060E0DD2329F189E191E00E94C00C60E0EE
:100F200082E191E0CC2329F160E084E191E00E942C
:100F3000C00C60E08BE091E00E94C00C60E0DD231B
:100F400011F185E091E00E94C00C60E080E091E04A
:100F50000E94C00CC11122C060E086EF90E021C069
:100F600086E191E00E94C00CC11109C060E08EE0F2
:100F700091E00E94C00C60E088E091E0DDCF60E08D
:100F800080E191E0D4CF82E091E00E94C00C60E06B
:100F9000CC2359F08EEF90E00E94C00C60E089EF06
:100FA00090E0DF91CF910C94C00C8CEF90E00E9408
:100FB000C00CD2CF60E086EE90E00E94C00C60E0F2
:100FC0008CED90E00C94C00C81E00E94371C8823CB
:100FD00029F060E08CEC90E00C94C00C82E00E9460
:100FE000371C60E0882319F08CEB90E0F5CF8CEA99
:100FF00090E0F2CFCF930E94DA070E9425070E946B
:10100000E4070E9425070E94DF1DC82F0E94081ECA
:101010008C2B0E942A070E94DF1DC82F0E94081EE9
:101020008C2BCF910C948207609118027091190259
:1010300080911A0290911B020E948F2061347244A9
:101040008F40910510F00C94E60D0E94D20C0C9488
:10105000FA070F931F93CF93DF938C01EB018A81E3
:10106000882351F00E947420609318027093190233
:1010700080931A0290931B0209328DE5180751F0F4
:101080000A321D4579F0C1E08C2FDF91CF911F917D
:101090000F910895CA8181E0CC2339F00E94571C3A
:1010A000C0E0F2CFCA8182E0F7CF0E94781CECCF7B
:1010B000CF93DF939C013A9521153F4168F5EC01F0
:1010C000CC27D170DC01AA27B270AC014427547040
:1010D0009C012227387094FF11C080E1CD2B09F4C8
:1010E00080E0AB2B09F08062452B09F08064232B54
:1010F00009F08068FB01DF91CF91099481E0CD2B4D
:1011000009F480E0AB2B09F08260452B09F0846084
:10111000232B81F38860EECFDF91CF910895CF9399
:10112000DF93EC01805E9109089720F062E978E195
:10113000209711F46BE476E1CE010E9458088C2FC1
:10114000DF91CF910C94CA15CF93DF93EC010E94ED
:101150001016CE01805E9109089720F069E978E1C8
:10116000209711F462E576E1CE01DF91CF910C94E6
:10117000580881E008950C94290808950C94BD083E
:101180001F93CF93DF9300D000D00F92CDB7DEB77F
:1011900049835A836B833091610289819A8131112D
:1011A0001DC06623B9F02223A9F00E944A1D182F02
:1011B000682F89819A810E94F31C69817A81812F2D
:1011C0000F900F900F900F900F90DF91CF911F9184
:1011D0000C9478090E94211D182FEFCF0E944A1D00
:1011E00069817A81EDCFFC01262F40815181628196
:1011F000738184810C94C008CF93DF93EC0160E08D
:101200000E94F308BE01DF91CF910C94BE080E94AA
:10121000841E811102C00E94211F0C9421070E948C
:101220007F110C94020508950E94B2180E941309C0
:101230002FEF84E39CE0215080409040E1F700C014
:1012400000000C94CF200F931F93CF93DF93EC01FA
:1012500061E00E94F3088C01BE010E94DF10BE0114
:10126000C8010E94BB08882359F1BE01C8010E9431
:101270002511882329F1BE01C8010E94B00E8823E0
:10128000F9F0BE01C8010E94020F8823C9F0BE0117
:10129000C8010E942510882399F08A81882339F09B
:1012A00001158CE5180751F00E3D1C4579F0CE0173
:1012B000DF91CF911F910F910C94B9080E941409EE
:1012C00080E0DF91CF911F910F9108950E94211F1F
:1012D000F7CF08950C94690981E008950C946C0986
:1012E000CF93C82F0E946A098C2FCF910C946E095E
:1012F000972F70E026E0929F600D711D1124FB0175
:1013000090E3899FE00DF11D1124EE0FFF1FE85BB4
:10131000FE4F859194910895CF93DF930E947809B1
:101320000E94780AEC01811522E59207E8F5811503
:1013300031E5930708F0ACC0883E910510F5803E7A
:10134000910570F5883A910570F4853A910508F099
:1013500078C08130910521F1009711F1049700F5D3
:10136000D0E0C0E01DC08F3B9105D0F7C85AD0E057
:10137000CC0FDD1FC357DE4F0990D881C02DD46438
:101380000FC0811540E5940708F066C0C11580E4E0
:10139000D80708F05EC0CE019A9581159F4100F7ED
:1013A000CE01DF91CF910895811536E5930718F5A9
:1013B000811545E5940708F083C0C11584E5D80779
:1013C00008F079C09C2F969596959E01237033273F
:1013D000C115D34508F461C0C1E0D0E002C0CC0F14
:1013E000DD1F2A95E2F730E2939FC0011124C82B3C
:1013F000D92BDA68D5CFC1158AE5D80778F4C1159D
:1014000099E5D90708F066C0C11528E5D20708F4A8
:10141000A7CFDC2FCC27C06FD06AC2CFCE019056A9
:101420008115904208F09CCF8D2F8F710E940F0B79
:1014300090E0982F882788279F719C012C2BE90129
:1014400047C0C55AD0E0C554DE4FC881D0E0D06453
:10145000A7CFDF70D06AA4CFE4E096958795EA9590
:10146000E1F783702C2F26952695237040E2249F68
:1014700090011124382B8C2F8370C1E0D0E002C082
:10148000CC0FDD1F8A95E2F7C22BD32BDC6888CF07
:10149000D82FCC27C16FD06A83CFC1E0D0E002C083
:1014A000CC0FDD1F2A95E2F720E2929FC0011124A4
:1014B000C82BD92BEBCFDC2FCC27C46FD06A70CFD1
:1014C0000E940F0BC82FD0E0DC2FCC27CC27DF7178
:1014D000D06266CF8C2F8F700E940F0B34E0D695B0
:1014E000C7953A95E1F7CF709C2FEC01D06958CFA2
:1014F00082389105B1F1B0F48133910509F475C0DA
:1015000048F48932910509F469C08A32910509F4D9
:1015100073C008958533910509F459C08933910545
:1015200001F10895833E9105A9F138F4803E9105BB
:10153000F9F0823E910549F10895863E9105A9F1A1
:10154000873E9105C9F1843E910519F52091140556
:1015500021FF1FC08091130584FD14C087EE90E029
:101560000895209113052370A1F080EE90E0089576
:101570002091130520FD47C03091140530FF09C0AC
:1015800024FF44C090E080E004C02091130522FDB8
:10159000F7CF08952091130522FD3BC0309114052B
:1015A00030FDE3CF24FFF5CFEDCF2091130523FFCE
:1015B000F0CF24FDE7CFD2CF2091130523FD2CC01F
:1015C0003091140531FFEECF84EE90E00895209124
:1015D000130525FFDECF89E290E0089520911305E1
:1015E00025FFD7CF85E390E008952091130526FFCE
:1015F000D0CF8AE290E008952091130526FFC9CF4D
:1016000081E390E0089589E390E0089583EE90E00F
:10161000089582EE90E0089586EE90E0089590910E
:10162000130592FF06C0282F28712830F9F4877F10
:10163000846093FF06C0282F28712831F1F4877E3B
:1016400084612091140520FF06C0382F387138308E
:10165000D9F4877F816021FF06C0282F28712831A7
:10166000D1F4877E816194FD877E0895282F2471AF
:101670002430F9F68B7F8860DCCF282F2471243149
:1016800001F78B7E8861DDCF382F3171313019F74A
:101690008E7F8860E0CF282F2171213121F78E7E47
:1016A0008861E1CFCF92DF92EF92FF920F931F9369
:1016B000CF93DF936C017B0164E670E088E70E94C2
:1016C0009F13EC0197FD12C010E000E0F601E00F5F
:1016D000F11F849164E670E00E94FB13EC01892BFA
:1016E00029F40F5F1F4F0E151F0581F70E947E140E
:1016F000CE01DF91CF911F910F91FF90EF90DF907E
:10170000CF900895E9E0F3E080E092E0DF019C01F2
:101710001D9221503040E1F7F0930E05E0930D0546
:101720008FEF9FEF909348028093470208950E94A5
:1017300023078093430280FD0FC080E8809342021C
:101740000E9499136DE070E08FE792E00E94520BC7
:10175000892B21F080E0089580E2F0CF8091430250
:1017600063E070E081FD26C08CE792E00E94520B9E
:10177000892B81F76DE070E08CE692E00E94520BBD
:10178000892B41F70E947420605A75418F4F9F4FFB
:101790006093090570930A0580930B0590930C05DF
:1017A0000E94820B81E08093460280934502109252
:1017B0004402089589E792E0D9CF2091420236E0B1
:1017C000839FC0011124629F800D911D11248115FA
:1017D00022E0920714F090E080E0875F9C4F9093A6
:1017E0000E0580930D05089520910D0530910E058D
:1017F0002350334040914202642F70E0C9010E949F
:10180000A927481B463010F4240F311D211582E012
:10181000380710F030E020E0275F3C4F30930E0592
:1018200020930D0508951F93CF93DF93162F8A30D1
:1018300031F481E0DF91CF911F910C948D0C8D30AC
:1018400011F480E0F7CFC0910D05D0910E0596E020
:10185000FE01ACE1B2E001900D929A95E1F7803E75
:10186000C8F086E0FE0111928A95E9F711111EC0B9
:10187000C0910D05D0910E0546E050E0BE018CE10F
:1018800092E00E94CC27892BF9F4DF91CF911F9130
:101890000C94F40BF6E08F9FB001112464577D4F38
:1018A00046E050E0CE010E94C327E0CFE0910D0555
:1018B000F0910E059F012A5F3F4F2E173F07C1F29F
:1018C000808180958193F9CFC950D340CE0125E026
:1018D000969587952A95E1F721E030E0A90102C0AD
:1018E000440F551F8A95E2F7CA0140914702509173
:1018F0004802842B952B259645E0D695C7954A95A9
:10190000E1F702C0220F331FCA95E2F7822B932B17
:101910009093480280934702B8CFCF93382FE0913D
:101920000D05F0910E05E950F34020914202622F1F
:1019300070E0CF010E94A927281B822F332369F072
:1019400066E00E949D27C82FC15010F4CF910895E2
:1019500060E080E20E94130CF7CF9F01280F311D39
:101960002115324018F080E0F0E0E0E08E0F9F2F6C
:10197000911D875F9C4F90930E0580930D05E6CFD8
:101980001F93CF93DF93EC01162FFE0184918111F9
:1019900004C0DF91CF911F910895612F0E94130C15
:1019A0002196F3CF0E947420605A75418F4F9F4F4C
:1019B0006093090570930A0580930B0590930C05BD
:1019C00080914502811108C062E070E08AE692E0F1
:1019D0000E94520B892B19F080914502089581E0F5
:1019E00080934502F9CF2F923F925F926F927F9240
:1019F0008F929F92AF92BF92CF92DF92EF92FF921F
:101A00000F931F93CF93DF932091470230914802A9
:101A10002115310531F08091440261E070E08823A6
:101A200099F0DF91CF911F910F91FF90EF90DF9090
:101A3000CF90BF90AF909F908F907F906F905F906E
:101A40003F902F9008958F5F082F10E01B01082E04
:101A500002C0220C331C0A94E2F7A901422153214F
:101A6000452B89F39091430290FD44C08295880FE5
:101A7000807680936C019801369527953695279549
:101A800020936F01815E80936D011092700124E6B6
:101A900030E047E050E06AE671E088E70E942A14EF
:101AA000892B09F0BECFA80125E0440F551F2A95C8
:101AB000E1F78091430280FD2BC0475F5C4F04E655
:101AC00010E020E230E060E488E70E945114892BA6
:101AD00009F0A7CF0E94D20CE101C095D09580916A
:101AE000470290914802C823D923D0934802C0935B
:101AF000470297CF880F880F880F80936C01109250
:101B00006F01895F80936D0183E080937001BFCF87
:101B1000E2E2F2E080E2DF011D928A95E9F7A2ECB1
:101B2000B1E00EEB11E086ECC82E81E0D82E97E0F4
:101B3000592E772473948D91E80129918E01240FF9
:101B4000352F311D275F3C4FE82FF0E0EE5DFD4F54
:101B500090E080E0652C681A872C082E01C0880C64
:101B60000A94EAF77901A12CE701B9907E01B82027
:101B7000662D6A196770962E062E000C770BDB2DEA
:101B800001C0DD0F9A94EAF771956195710967704C
:101B9000772701C0B6946A95EAF7BD2A6081962E30
:101BA0009B289082A39468E0A612DECF019631961E
:101BB0008830910579F6CA16DB0609F0BCCF04E639
:101BC00010E020E230E042E252E07DCF8091450219
:101BD000882369F062E070E088E692E00E94520B90
:101BE000892B19F080914502089510924502809149
:101BF000450291E0892708950F931F938091460233
:101C0000882301F160E080E00E94DD0B0E9414084F
:101C10000E94F30C809145028823A1F00E94742059
:101C20000091090510910A0520910B0530910C05D2
:101C3000601B710B820B930B97FD04C01F910F91DA
:101C40000C94E60D1F910F910895AF92BF92CF9221
:101C5000DF92EF92FF920F931F93CF93DF937C015C
:101C60005B01C42FD22FFC0182818823F9F04093BD
:101C70004B020E94682090934A028093490280E2BE
:101C80008C0F883008F061C0C77081E001C0880FF8
:101C9000CA95EAF7DF91CF911F910F91FF90EF90D6
:101CA000DF90CF90BF90AF900C944B1610914B02E9
:101CB000141340C08091490290914A020E948020F2
:101CC0006C01B701C5010E94281BC816D90690F502
:101CD000C0E2CD0F1D17B9F080E2810F883040F4CB
:101CE000177081E001C0880F1A95EAF70E9452161A
:101CF000C83048F481E09D2F977001C0880F9A95F5
:101D0000EAF70E944B16802F0E943816C830E8F47C
:101D1000D77081E001C0880FDA95EAF7DF91CF91A3
:101D20001F910F91FF90EF90DF90CF90BF90AF90F9
:101D30000C94521680E28C0F883038F4C77081E022
:101D400001C0880FCA95EAF7E9CFDF91CF911F91C3
:101D50000F91FF90EF90DF90CF90BF90AF900895DC
:101D60000F939C01CB01233F4CE5340759F1A8F4B4
:101D7000283DFCE53F0701F1293D4CE53407D1F151
:101D8000273D3C4591F406E221EE41EE67ED7CE50E
:101D90000E94250E80E00F910895253FFCE53F0746
:101DA000E9F0B0F0263F3C45F9F0FC018281882340
:101DB00039F110924B02EFCF07E225EE45EE68EDC8
:101DC0007CE5E6CF06E221EE40EE63EF7CE5E0CF76
:101DD00007E225EE44EE64EF7CE5DACF06E221EE81
:101DE00042EE65EF7CE5D4CF07E225EE46EE66EFE6
:101DF0007CE5CECF08E221E045EE69ED7CE5C8CF79
:101E000081E0C9CFCF93DF93EC01FB01828188236E
:101E100009F419C1C230FCE5DF07C0F1C6319CE509
:101E2000D90730F09E012A5F3C452930310570F515
:101E30000E94971E9093140580931305C031ECE522
:101E4000DE0709F4CFC008F05BC0C8308CE5D807C6
:101E500009F4B6C088F5C430ECE5DE0709F4A8C083
:101E6000C0F4C2308CE5D80709F49CC080911305FA
:101E70008260C330DC4509F498C0809113059091CD
:101E800014050E94A51E0E94B21880E0DF91CF9138
:101E90000895809113058061C630ECE5DE0709F4F2
:101EA00084C0809113058860C730DC4508F47DC08C
:101EB00080911305806279C0CC308CE5D80709F495
:101EC00089C070F4809113058C60CA30ECE5DE07A0
:101ED00009F46BC008F478C0809113058E7F65C04B
:101EE000CE308CE5D80709F479C0809113058B7F3B
:101EF000CF30DC4508F459C0809113058F7E55C062
:101F0000CB3FECE5DE0709F457C030F5C3318CE573
:101F1000D80709F46FC078F4C131ECE5DE0709F4A5
:101F200065C0C231DC4509F0A8CF0E94B21880918B
:101F300013058F773AC0C5318CE5D80709F462C024
:101F400008F476C0809114058160CA3FDC4509F031
:101F500094CF8093140591CFCF3FFCE5DF0709F4C0
:101F60004DC088F4809114058D7FCD3F9CE5D90745
:101F700081F3809114058E7FCE3FDC4550F3809134
:101F800014058360E6CFC130FDE5DF0709F459C0D1
:101F900008F444C080E0C230DD4509F06ECF0E94F5
:101FA000231F6BCF8091130581608093130565CF4C
:101FB000809113058460F9CF809114058260C9CFA8
:101FC000809113058064F1CF0E94B21880911305AF
:101FD0008068EBCF809113058D7FE7CF809113054B
:101FE000877FE3CF809113058F7DDFCF809113052D
:101FF0008F7BDBCF80911305837FD7CF8091140532
:102000008C7FA7CF8091130582FB992790F921E05F
:10201000922790FB82F990FB83F9C7CF809114053A
:10202000982F909591708E7F892B90FB81F991CF9D
:102030000E94B21890911305892F97FB87F9805859
:10204000B4CF81E0ACCF81E021CFCF93DF93EB0120
:1020500086319C4511F50E94DF1D9A81992399F0E4
:102060008A7A91E009F490E090934C02811109C0C2
:1020700089E20E94BA1D0E94211E80E0DF91CF916B
:10208000089585E3F6CF80914C02811104C089E266
:102090000E94C11DF0CF85E3FBCF81E0EFCFCF934E
:1020A000DF93EC0181E0898B8F810E94E21D88859E
:1020B0000E94F51D0E94211EEA81FB81309739F0B4
:1020C0006C897D89CE010696DF91CF910994DF91CD
:1020D000CF910895CF93DF93EC018881823039F45A
:1020E000FB01828193810E948F0881E08B87DF91C1
:1020F000CF910895FC018081813029F4FB0180811A
:1021000091810C948F08823021F4FB0182819381AC
:10211000F8CF0895FC018081813029F4FB01808192
:1021200091810C94A408823021F4FB018281938177
:10213000F8CF0895EF92FF920F931F93CF93DF9301
:10214000EC018A85811134C0EB80FC8087E5F81AA8
:1021500026E12E9DC0012F9D900D1124DC01A45E6F
:10216000BE4F1496ED91FC911597309731F054962F
:102170006D917C918E5D9E4F099586E18E9D8001CB
:102180008F9D100D1124045E1E4FF80187810E945F
:10219000E81DF80180850E94FB1D0E94211E188207
:1021A00019861B861E821D8210924E0210924D02CD
:1021B000DF91CF911F910F91FF90EF900895DF92E3
:1021C000EF92FF920F931F93CF93DF937C01FB015C
:1021D0008281882391F0809171018F3F71F0CCE171
:1021E000D1E010E000E0DD24D39480917101082E4D
:1021F000000C990B8017910744F4DF91CF911F9148
:102200000F91FF90EF90DF9008958E818823C9F0A1
:1022100089859A858E159F0539F480914D0290919C
:102220004E028E159F0569F0DF86FC86EB86898954
:10223000811103C0CE010E944F10CE0106960E946C
:102240009A100F5F1F4F6696D0CFEF92FF920F93B9
:102250001F93CF93DF937C0197558F3F910509F032
:10226000D8F520917101022E000C330B2817390785
:1022700014F480937101FB01228136E1389F8001C3
:10228000399F100D1124E801C45EDE4F288B928126
:102290008E81992349F1FA86E9868F5F8E830E94A9
:1022A00068209E878D870E94081E8F830E94DF1DF5
:1022B00088870E94F21D9885892B8887E881F9819B
:1022C000309731F06C897D89C8018E5D9E4F0995EC
:1022D000F0924E02E0924D0281E0DF91CF911F918A
:1022E0000F91FF90EF9008958823B1F38989882397
:1022F00099F3C8018E5D9E4F0E949A10EDCFCF9248
:10230000DF92EF92FF920F931F93CF93DF93809111
:10231000710110E006E18F3FF1F5DF91CF911F9140
:102320000F91FF90EF90DF90CF9008950E9DF001F8
:102330000F9DF00D1124E45EFE4FC288D388C114B6
:10234000D10439F470E060E0818592850E94281BF9
:102350006C010E9DE0010F9DD00D1124C45EDE4F77
:102360008E818823B9F08D859E850E948020C816B5
:10237000D90680F4109F700111248989811105C04C
:10238000C701845E9E4F0E944F10C7018E5D9E4F15
:102390000E949A101F5FE12EF12C80917101082E8E
:1023A000000C990B8E159F050CF6B7CF8EE14A9B5A
:1023B00002C08150E1F74A9BFECF08955A9880E20F
:1023C0008A95F1F75A9A0895FC013BE03A95F1F7A6
:1023D00020E090E080E031E040E14A95F1F7880F9D
:1023E0004A9B02C08160232742E04A95F1F7000032
:1023F00040E14A95F1F79F5F6913EECF90E19A951E
:10240000F1F799B132E03A95F1F7000040E14A95D1
:10241000F1F792FB992790F992272081920F9083F0
:102420000895EF92FF920F931F93CF93DF930F9234
:10243000CDB7DEB719828C017C01E60EF11C0E15BA
:102440001F0561F481E09981911180E00F90DF9187
:10245000CF911F910F91FF90EF9008950E94D61198
:1024600068E0CE0101960E94E411F80181938F018A
:10247000E6CF909351028093500260934F02529A9C
:102480005A9A0895909351028093500260934F029C
:1024900052985A9AEA9AE9E6F0E080818F7C80832C
:1024A00008956150770B91E001C0990F6A95EAF7A2
:1024B00020E031E0911108C0222391F05A9A80E285
:1024C0008A95F1F75A980895492F482339F05A9A76
:1024D000232740E24A95F1F79695ECCF5A98F9CF29
:1024E0005A98EDCFFF920F931F93CF93DF93EC0198
:1024F0008C01060F111DC017D10731F4DF91CF9168
:102500001F910F91FF900895F9900E94DE1168E0ED
:102510008F2D0E945112EFCF1F920F920FB60F9284
:1025200011240F931F932F933F934F935F936F93B8
:102530007F938F939F93AF93BF93EF93FF93CF932B
:10254000DF930F92CDB7DEB719820E94D61167E0F4
:10255000CE0101960E94E411082F06950695069576
:10256000982F92959570202F2570920F292F237008
:10257000969596958770920F891344C08981811131
:1025800041C080914F028017E8F120E12A95F1F7D0
:102590005A9A529A82E08A95F1F700C0A8E00A9F01
:1025A000C00111240091500210915102080F191F0F
:1025B0005A98F8016581662321F0868197810E94EF
:1025C00072120E94DE11F0E1FA95F1F75A985298D2
:1025D0005A9A20E12A95F1F7D80112966C91129738
:1025E000662331F113968D919C910E941112D801AE
:1025F000ED91FC91882311F088E001C082E0808396
:102600000E94D6110F90DF91CF91FF91EF91BF9172
:10261000AF919F918F917F916F915F914F913F917A
:102620002F911F910F910F900FBE0F901F90189533
:10263000ED91FC91E1CF0F931F93CF93DF93209106
:102640004F02281719060CF471C08C0193E0000F9B
:10265000111F9A95E1F7C0915002D0915102C00F1D
:10266000D11FF894529A5A9825E02A95F1F7000064
:10267000982F969595708570980F892F83709695F1
:102680009695980F092B0E94DE1100C067E0802FFD
:102690000E94511280E18A95F1F752985A9A4A9B0A
:1026A00017C087E090E04A9915C06D81662321F13B
:1026B0008E819F810E94111281111EC0529A5A9AD6
:1026C000E881F98182E08083789482E090E00DC017
:1026D00000C0E5CF019771F4529A5A9AE881F981C6
:1026E00081E08083789481E090E0DF91CF911F9129
:1026F0000F91089500C0D7CF0E94D61120E22A95ED
:10270000F1F75A98529A80E18A95F1F76A81662327
:1027100021F08B819C810E9472120E94DE11E8815F
:10272000F9811082789490E080E0DFCF84E090E03F
:10273000DCCF1092B9008CE08093B8000895EF923E
:10274000FF920F931F93CF93DF93182FEB011092FB
:10275000BC0084EA8093BC000E9468207C018091C8
:10276000BC0087FF27C08091B900887F883029F09E
:102770008091B900887F8031D9F51093BB0084E83F
:102780008093BC000E9468208C018091BC0087FF70
:1027900024C02091B900287F90E080E02831B1F07A
:1027A00081E090E0203411F490E080E091958195F3
:1027B00091090CC0CF3FDC0791F20E9468208E196E
:1027C0009F098C179D0758F28EEF9FEFDF91CF91F5
:1027D0001F910F91FF90EF900895CF3FDC07A9F272
:1027E0000E946820801B910B8C179D0770F2ECCF24
:1027F0008FEF9FEFEBCF0F931F93CF93DF93EB01FF
:102800008093BB0084E88093BC000E9468208C0108
:102810008091BC0087FF11C02091B900287F81E022
:1028200090E0283211F490E080E091958195910933
:10283000DF91CF911F910F910895CF3FDC0741F3B6
:102840000E946820801B910B8C179D0708F38EEF68
:102850009FEFEECFCF92DF92EF92FF920F931F93F5
:10286000CF93DF936B018A017901B9010E949F1315
:10287000E6010C0D1D1DC017D10761F424E920935A
:10288000BC00DF91CF911F910F91FF90EF90DF90EF
:10289000CF90089597FDF2CFB70189910E94FB1365
:1028A000EACFCF92DF92EF92FF920F931F93CF93D5
:1028B000DF93C62F6A017901B8010E949F1397FD2B
:1028C0000CC0B8018C2F0E94FB13E601EC0CFD1C20
:1028D000CE15DF0511F097FF0CC024E92093BC0052
:1028E000DF91CF911F910F91FF90EF90DF90CF90EC
:1028F0000895B80189910E94FB13EACF84E980937F
:10290000BC00089590935702809356020895E09179
:102910005602F0915702309721F00190F081E02D9E
:10292000099480E00895E0915602F09157023097A3
:1029300099F020917E01222359F02091130527FF61
:1029400007C0DC012C9111962C93119725E02C9354
:102950000280F381E02D0994089520915402309172
:1029600055022817390771F090935502809354024D
:10297000E0915602F0915702309721F00680F781DE
:10298000E02D0994089520915202309153022817A6
:10299000390771F09093530280935202E0915602EE
:1029A000F0915702309721F00084F185E02D0994D1
:1029B000089585B7806885BF85B7806885BF08950D
:1029C000089508950C94E01408950C94E4140E9462
:1029D000D9140E94E1140C94E21481E008950C943F
:1029E000ED140E945F200E94110580E00E94970B69
:1029F0000E94E0200C94E514AF92BF92CF92DF9238
:102A0000EF92FF920F931F93CF93DF93CDB7DEB773
:102A10002A970FB6F894DEBF0FBECDBF0E942D06D9
:102A2000B82E0E94EF14882309F463C089E5C82EEC
:102A300082E0D82E10E000E0A02E802F0E94A10698
:102A4000E82EF601F1906F01F81609F44CC0809160
:102A5000E50281FD0E94A7069F2D9E2580E0FF24B0
:102A6000F394292F2F21D1F18E83AF82EF2081E0C3
:102A700009F480E088870E9468208160782F9A8717
:102A800089874E815F8168858A850E949B15F80140
:102A9000E75AFD4F8081F826F0820E94FC0DB110AC
:102AA0000E94D20C0E94871490915802891791F1CC
:102AB0000E948714809358022A960FB6F894DEBFBE
:102AC0000FBECDBFDF91CF911F910F91FF90EF907F
:102AD000DF90CF90BF90AF900C9470098F5FFF0C88
:102AE000863009F0BECF0F5F1F4F0830110509F087
:102AF000A3CF8FEF89838A831B820E946820816025
:102B0000782F9D838C8349815A816B818D810E94AE
:102B10009B15C3CF2A960FB6F894DEBF0FBECDBF6C
:102B2000DF91CF911F910F91FF90EF90DF90CF90A9
:102B3000BF90AF900895CF93DF93CDB7DEB72B97BB
:102B40000FB6F894DEBF0FBECDBF4F83588769879D
:102B50007A878B871E821D8285E0FE013796DE0113
:102B6000119601900D928A95E1F749815A816B8106
:102B70007C818D819E812B960FB6F894DEBF0FBEAF
:102B8000CDBFDF91CF910C942B1BFC0180819181F3
:102B90000C948C1DCF93C82F882309F43FC08CEF71
:102BA0008C0F813AA0F46C2F809172019091730187
:102BB0000E943C1F882329F08C2F0E94C11D0E9477
:102BC000211E8C2F0E94BA1DCF910C94211E80E2F1
:102BD0008C0F883048F4C77081E001C0880FCA9517
:102BE000EAF70E94E21DF0CFEBE5EC0FE33040F492
:102BF000F0E0EC50FE4F808190E0CF910C94AD144A
:102C0000C85AC73158F4EC2FF0E0EE0FFF1FEA531B
:102C1000FE4F80819181CF910C94C314CF91089580
:102C2000882329F19CEF980F913A20F40E94C11D4E
:102C30000C94211E90E2980F983050F4877091E028
:102C400001C0990F8A95EAF7892F0E94E81DF0CFFD
:102C50009BE5980F933020F490E080E00C94AD1445
:102C6000885A873120F490E080E00C94C3140895D2
:102C7000CF93C82F0E94CA15C93349F42FEF87EEAE
:102C800093E0215080409040E1F700C000008C2F7D
:102C9000CF910C941016882321F00E94E21D0C9411
:102CA000211E0895882321F00E94E81D0C94211E06
:102CB0000895BF92CF92DF92EF92FF920F931F93EE
:102CC000CF93DF937C01D62FC72FFC01058102959E
:102CD0000F70128111110E94021E0E94D81DD82E61
:102CE000882391F01123E9F08C2F807F803421F02C
:102CF00080E28D0F8830A8F082E00E946C1E0E9456
:102D0000D81D91E0D82ED926CC2EC2949FE0C9229E
:102D1000FBE0FC15A8F1EC2DF0E0E35EF74D0C9420
:102D2000BD27D12CF1CF0C2F0F70C07F11F0029571
:102D3000007F1123A9F0002359F080E28D0F883025
:102D400010F0D11109C0802F0E94E21D0E94211EA7
:102D50008D2F0E94CA1514C0802F0E94F51DF6CF3A
:102D60008D2F0E941016002359F080E28D0F8830BD
:102D700010F0D1112BC0802F0E94E81D0E94211E4F
:102D8000EC2DE850FF0B349720F40E9487140E942A
:102D90007009DD2009F47DC10E94D41D80FD79C138
:102DA000F70112820E94CE1D0E94571CC7010E948B
:102DB0006A180E94CE1DDF91CF911F910F91FF9055
:102DC000EF90DF90CF90BF900C94781C802F0E94E2
:102DD000FB1DD4CF2C2F2F70B22EC07FC03219F024
:102DE000B29480EFB822DD2339F0D13019F11123EC
:102DF00061F1002321F1ACCF112381F0011106C054
:102E00000E94081E8B290E944B16BACF0130C1F7D1
:102E10000E94081E8B290E940E1EB2CF011106C00F
:102E20000E94171E8B2D0E945216AACF013009F462
:102E3000A7CFF6CF112329F0063008F0A1CF8B2DB4
:102E4000E2CF053008F09CCFEDCF002359F3D93302
:102E500049F43FEF87EE93E0315080409040E1F736
:102E600000C000008D2F0E9410168ACF8C2F8695EF
:102E70008695837069F0813009F082CF8D2F9C2F69
:102E80009370111102C090E080E00E94C31478CFCB
:102E90008D2F9C2F9370111102C090E080E00E9452
:102EA000AD146ECF8C2F837009F041C0111168CF23
:102EB0004D2F429546954770440F440F0D2F0F70CC
:102EC00010E030E020E0042E04C0000F111F221F8C
:102ED000331F0A94D2F760E070E0CB01D4FF0FC03B
:102EE0006FE070E080E090E004C0660F771F881FFD
:102EF000991F4A95D2F76095709580959095C695E3
:102F0000C695C370602B712B822B932BC23049F076
:102F100058F4C13019F00E94E91B32CF0E94D71B30
:102F20002FCF0E94FB1B2CCF0E94D51B29CF86954B
:102F3000112311F08C2F8170882309F421CF4D2F9C
:102F4000429546954770440F440F0D2F0F7010E0C7
:102F500030E020E0042E04C0000F111F221F331F99
:102F60000A94D2F760E070E0CB01D4FF0FC06FE0AD
:102F700070E080E090E004C0660F771F881F991F03
:102F80004A95D2F76095709580959095C695C695AF
:102F9000C370602B712B822B932BC23049F058F4F5
:102FA000C13019F00E94CE1CEBCE0E94BC1CE8CEB2
:102FB0000E94E01CE5CE0E94111CE2CECF701123CE
:102FC00029F08C2F0E94571C8D2F1DCF8D2F0E9412
:102FD00052168C2F0E94781CD3CED23F89F160F418
:102FE000D03FC9F0D13F29F1112309F442C00111AA
:102FF000AFCE8C2F8F7121C0D33F39F1D43FA1F7D1
:10300000112369F1CF718C2F0E94571C63E08C2F24
:103010000E94571EB5CE112341F0053008F0B0CE06
:103020008C2F8F710E949B1CABCE063008F0A8CE6F
:10303000F7CF8C2F8F71112369F20E94571CA0CEFD
:103040008C2F8F711123C9F3C5CF112329F08C2F39
:103050008F710E94421C94CE0E941D1C91CE81E073
:103060000E946C1E023008F48BCE82E00E946C1E1F
:1030700087CE002359F0D93309F0F4CEEFEFF7EE05
:1030800023E0E150F0402040E1F7EACE8C2F8F7131
:10309000A1CFDF91CF911F910F91FF90EF90DF9023
:1030A000CF90BF9008950F931F93CF93DF93EC01C0
:1030B000688179818A810E94961D8C010E94F21C90
:1030C0000E94D41BB801CE01DF91CF911F910F91C7
:1030D0000C945916CF93DF93EC018B819C81892B43
:1030E00029F08881998189238F3F59F4DF91CF910D
:1030F0000895CE010E945318CE01DF91CF910C9418
:10310000FC08CE010E9423098111F3CF0E94D81D33
:10311000882361F38A81882349F382E0DF91CF918C
:103120000C946C1E882321F00E94F51D0C94211E26
:103130000895882321F00E94FB1D0C94211E089500
:103140000E94021E0E94051E0E94211E90E080E047
:103150000E94AD1490E080E00C94C3140E94C81D3E
:103160000C94A0180E94EF1D0C94AE18E92FE29564
:10317000EF70E250EE3070F4F0E0E75DF74D0C9444
:10318000BD27803F19F020F4883E20F481E00895A7
:10319000843FE1F380E00895883EC0F3813FD1F79A
:1031A000F5CF93FB882780F908950E948C1D0C941D
:1031B000B618CF93DF9300D000D00F92CDB7DEB713
:1031C0000F900F900F900F900F90DF91CF91089577
:1031D000CF93DF9300D000D000D0CDB7DEB72696D6
:1031E0000FB6F894DEBF0FBECDBFDF91CF9108952B
:1031F0001F93CF93DF93C091620216E08091630228
:103200008C1304C0DF91CF911F910895D0E01C9FD3
:10321000F0011D9FF00D1124EC59FD4F40815181AB
:1032200062817381848195810E94E8182196C7701C
:10323000E5CF409194025091950260919602709171
:10324000970280919802909199020C94E8181F932C
:10325000CF93DF9380919902807FA9F480919602A9
:10326000882389F080916202C09163026091940288
:1032700070919502A0919702B0919802D62FD72312
:1032800016E0C81304C0DF91CF911F91089590E01C
:10329000109711F0DF3F19F401968770F2CF189F55
:1032A0009001199F300D1124F901EC59FD4F418116
:1032B0004713F2CF40814613EFCF42814111ECCF4B
:1032C000438154814A1B5B0B403A510528F780919A
:1032D00099028F70806180939902F901E759FD4F3F
:1032E00080818F708061808384E992E00E946A18F7
:1032F000DF91CF911F910C94F818AF92BF92CF92AB
:10330000DF92EF92FF920F931F93CF93DF93CDB78E
:10331000DEB761970FB6F894DEBF0FBECDBF8C014C
:1033200085E0F801DE011D9601900D928A95E1F786
:10333000F80140815181E28084E9C82E82E0D82ED4
:1033400060919702709198026115710509F461C14D
:103350009091940220919502892F82238F3F09F446
:1033600058C1A380B480F0909602F501E61BF70BDC
:10337000FF2009F4FCC080919902382F307FE03A99
:10338000F10508F0B2C0311179C0FE2C251323C01D
:10339000941321C0E1101FC08F7080618093990247
:1033A0000E941919C6010E946A1880919902F801B9
:1033B00085838F2D61960FB6F894DEBF0FBECDBF0B
:1033C000DF91CF911F910F91FF90EF90DF90CF9001
:1033D000BF90AF900895AB2829F0842F85238F3FAD
:1033E00009F033C180E0F82FF170DF2E80FF3CC080
:1033F000809162022091630236E0821315C04D87EE
:103400005E878D859E850E948C1D292F22952F70A9
:103410002230F0F0243018F59F70F1F0F80195811A
:10342000907FD1F4D12C1EC090E0389FF001399FDD
:10343000F00D1124EC59FD4F6181651306C06081C8
:10344000641303C062816E110FC001968770D5CFDF
:103450009F7011F0882331F3805E883018F3C80123
:103460000E946A18FD2CA5CFEE2009F4A2CF80910E
:103470009902816080939902F12C9BCF251306C09D
:10348000941304C0F801EE2009F48DC04D875E87C7
:103490008D859E850E94D518882319F1EE2009F1AB
:1034A00080919902803270F02091940230919502BF
:1034B00038872F831986BB86AA868C87CE0107960C
:1034C0000E946A1886E0F801A4E9B2E001900D922A
:1034D0008A95E1F70E9427190E941919FF24F39495
:1034E00068CFC8010E946A18F9CF311113C07A2D34
:1034F000B98AA88A6E2D89890E94D91884E992E038
:103500000E946A1886E0F60111928A95E9F70E94F6
:103510001919B2CF25130FC094130DC0E1100BC0C1
:10352000F8018583C8010E946A1886E0F6011192AD
:103530008A95E9F73ECF4D875E878D859E850E94EF
:10354000D518882371F2EE2061F2809199028032C1
:1035500008F4B8CF20919402309195023A832983E0
:103560001B82BD82AC828E83CE010196A9CFE03A48
:10357000F10508F041C0FE2CEE2009F4B2CF25136E
:103580002AC0941328C08091990280FD1BC0982FF7
:10359000907FC1F0F8018583903F31F0982F907FA4
:1035A000905F8F70892B8583C8010E946A1886E01E
:1035B000F801A4E9B2E001900D928A95E1F70E942A
:1035C0001919F7CE86E0F801A4E9B2E001900D9256
:1035D0008A95E1F7EECE4D875E878D859E850E94A8
:1035E000D51881116FCF80919902816080939902E3
:1035F000C8010E946A18DDCE7A2DB98AA88A6E2D7C
:1036000089890E94D91886E0F60111928A95E9F716
:10361000D6CFEE2009F465CF4D875E878D859E85D8
:103620000E94D518F82E882309F45BCF86E0F801B4
:10363000A4E9B2E001900D928A95E1F784E992E065
:103640000E94C5150E942719BACF81E08E25CBCEE6
:1036500080EA90E008951F93CF93DF93CDB7DEB754
:103660002C970FB6F894DEBF0FBECDBF4F8358879F
:1036700069877A878B879C87CE0107960E947D1980
:10368000882369F08A859B85892B39F04F8158857D
:10369000842F85238F3F09F071C016E05FC086E05C
:1036A000FE013796DE01119601900D928A95E1F7A1
:1036B0008A859B85892B89F38F81988589238F3F04
:1036C00061F32091630230E0C90101968770992768
:1036D000409162024817190671F40E94B2181092C4
:1036E00063021092620286E0E4E9F2E0DF011D92DB
:1036F0008A95E9F7D2CF96E0929FD001939FB00DC3
:103700001124AC59BD4FFE01319601900D929A954E
:10371000E1F7809363020E94F818BFCF819FC00138
:1037200011248C599D4F0E947D198823E9F0E09166
:1037300062021E9FF0011124EC59FD4F408151811E
:1037400062817381848195810E94E8188091620270
:1037500090E00196877099278093620280916202BF
:10376000909163028913DACF2C960FB6F894DEBFDE
:103770000FBECDBFDF91CF911F91089569857A85E6
:103780008B859C850E94E81888CF08950C94C51BF2
:103790000E94C61B6093BC027093BD028093BE0260
:1037A0009093BF020C94A01808950C94C81B0F931B
:1037B0001F930091BC021091BD022091BE02309176
:1037C000BF02602B712B822B932B1F910F910C94B6
:1037D000C81B0F931F930091BC021091BD02209152
:1037E000BE023091BF0260237123822393231F9175
:1037F0000F910C94C81B0F931F930091BC02109162
:10380000BD022091BE023091BF026027712782273E
:1038100093271F910F910C94C81B0C94C51B0C94FB
:103820000D1C0E940F1C6093B8027093B902809324
:10383000BA029093BB020C94A01860E070E0CB0138
:103840000C94111C611571058105910529F481E025
:10385000442361F080E00895DC01CB0104C0B695FB
:10386000A795979587954A95D2F781700895482F27
:103870006091B8027091B9028091BA029091BB0236
:103880000C94221C0F931F9341E050E060E070E025
:103890008A019B0104C0000F111F221F331F8A954C
:1038A000D2F7C901B8011F910F910C94111C0F930D
:1038B0001F9341E050E060E070E004C0440F551FEA
:1038C000661F771F8A95D2F78091B8029091B9024E
:1038D000A091BA02B091BB028A019B01082B192B5F
:1038E0002A2B3B2BC901B8011F910F910C94111C7D
:1038F0000F931F9341E050E060E070E004C0440F7C
:10390000551F661F771F8A95D2F7CB01BA016095C4
:103910007095809590950091B8021091B902209110
:10392000BA023091BB0260237123822393231F913B
:103930000F910C94111C0F931F9341E050E060E035
:1039400070E004C0440F551F661F771F8A95D2F799
:103950008091B8029091B902A091BA02B091BB02D5
:103960008A019B01082719272A273B27C901B8018B
:103970001F910F910C94111C0F931F930091B8028B
:103980001091B9022091BA023091BB02602B712BC9
:10399000822B932B1F910F910C94111C0F931F934B
:1039A0000091B8021091B9022091BA023091BB0285
:1039B00060237123822393231F910F910C94111C78
:1039C0000F931F930091B8021091B9022091BA028F
:1039D0003091BB0260277127822793271F910F9197
:1039E0000C94111C0895E92FEE0FE90FEE0F8E0FC6
:1039F000982F977041E001C0440F9A95EAF7869599
:103A00008695869595E0899FF0011124E656FD4F35
:103A100030E020E070E05191DF011197CB01022EE0
:103A200002C0969587950A94E2F781708195852763
:103A3000842385278C932F5F3F4F2530310559F71D
:103A40000895E92FEE0FE90FEE0F8E0F982F977064
:103A500086958695869525E0829FF0011124E6568D
:103A6000FD4F50E040E080E0219130E0092E02C09F
:103A7000369527950A94E2F721703327042E01C06A
:103A8000220F0A94EAF7822B4F5F5F4F45305105B2
:103A900059F70895BF92CF92DF92EF92FF920F9362
:103AA0001F93CF93DF938C01C090B802D090B902DE
:103AB000E090BA02F090BB028091BC029091BD02EE
:103AC000A091BE02B091BF02C82AD92AEA2AFB2AD5
:103AD000CFE1D0E0BC2ED701C6010C2E04C0B695B4
:103AE000A795979587950A94D2F780FD0EC02197E8
:103AF00088F7B12C8B2DDF91CF911F910F91FF9003
:103B0000EF90DF90CF90BF900895B8018C2F0E9466
:103B10008C09019761F3EECFCF93DF93EC010E9404
:103B20004A1DBE01DF91CF910C948C091F93CF9356
:103B3000DF93EB0190916102992331F0CB01DF918A
:103B4000CF911F910C948C1D882379F0CB010E949A
:103B50004A1D182F682FCE010E94F31CBE01812F31
:103B6000DF91CF911F910C948C09CB010E94211DF4
:103B7000182FF4CF682F80917201909173010C94EB
:103B8000BC1F682F80917201909173010C94C71F24
:103B900080917201909173010C94D21F8091C002A8
:103BA00085958595859508958091C00287700895C3
:103BB0009091C002977081E009F480E008958091AF
:103BC000E40208959091E402892B8093E402089521
:103BD00080959091E40298239093E40208951092C6
:103BE000E40208958091E30208959091E302892B05
:103BF0008093E302089580959091E3029823909337
:103C0000E30208951092E30208951092E2020895EB
:103C10008091C102089508950C940B1E9091C102E9
:103C2000981721F08093C1020C940C1E0895809186
:103C3000C102882329F01092C10280E00C940C1E6E
:103C40000895E0917201F09173018091E402808304
:103C5000E0917201F091730180819091E302892BD0
:103C60008083E0917201F091730180819091E20272
:103C7000892B80839091C102992381F0E091720198
:103C8000F09173018081892B8083809172019091E2
:103C900073010E94281F81110E94171E80917201DA
:103CA000909173010C94931408950C94541E98E011
:103CB000899F90011124622B6093C0020E94571CBF
:103CC0008091C0028595859585950C94551E10921E
:103CD000C00280E00C94551E9091C002809589230B
:103CE0008093C002282F277071F4282F082E000C13
:103CF000330B9217130639F08595859585950E94AB
:103D0000781C0C94671E089590E080E00E94E127E3
:103D100021E08C3E9E4F09F020E0822F089582E042
:103D200090E00C94D92783E090E00C94D927CF93AE
:103D300084E090E00E94D927C82F81E290E00E94A1
:103D4000D927982F8C2FCF910895CF93C92F682F03
:103D500084E090E00E94E7276C2F81E290E0CF9111
:103D60000C94E727AB01BC018FE090E00C94F9279D
:103D7000AB01BC0183E190E00C94F92760E070E0B6
:103D8000CB010C94B81E60E070E0CB010E94B21E23
:103D90000C94BE1E6CEE7EEF90E080E00E94052841
:103DA00060E082E090E00E94E72760E083E090E03E
:103DB0000E94E7271092BC021092BD021092BE0230
:103DC0001092BF0260E084E090E00E94E72760E08C
:103DD00081E290E00E94E72760E085E090E00E94A9
:103DE000E72760E086E090E00E94E7276FEF87E03A
:103DF00090E00E94E72740E050E0BA0188E090E0C0
:103E00000E94F92760E08DE090E00E94E72740E003
:103E100050E0BA0188E190E00E94F92760E087E174
:103E200090E00E94E72740E050E0BA018CE190E08A
:103E30000E94F92760E080E290E00E94E7270C945E
:103E4000C31E0C94CA1E682F8EE090E00C94E727E6
:103E5000FC01329680917E01882321F08091130528
:103E60009EE187FF96E080E0915008F4089521914B
:103E70002223D1F38F5FF8CF662301F120917E01D9
:103E80002223F1F02091130527FF1AC0462F4695F3
:103E9000469546954E3190F4677021E030E002C0BF
:103EA000220F331F6A95E2F7840F911DFC01828176
:103EB00090E02823392381E0232B69F480E00895E2
:103EC000FC01329608962191261721F0E817F90790
:103ED000D1F7F4CF81E008959C01FC0132969FEF69
:103EE00080E04191461751F09F3F19F4411101C004
:103EF000982F8F5F8630A9F79F3F09F40895290F07
:103F0000311D97FD3A95F90162830895FC013296BF
:103F100008962191261303C0DF0111971C92E81720
:103F2000F907B9F70895E62FE695E695E695EE319F
:103F300068F4E80FF92FF11D677021E030E001C04F
:103F4000220F6A95EAF78281822B82830895E62FF9
:103F5000E695E695E695EE3170F4E80FF92FF11D40
:103F6000677021E030E001C0220F6A95EAF72095E2
:103F7000828128232283089520917E01222329F023
:103F80002091130527FD0C94931F0C946C1F209116
:103F90007E01222329F02091130527FD0C94A71FF1
:103FA0000C94861FFC01329680917E01882351F08B
:103FB0008091130587FF06C08EE1DF011D928A956F
:103FC000E9F7089586E0F9CF089508950C94E51F68
:103FD0000E94E61F80911905843049F11092E60293
:103FE00088E190E020E40FB6F894A89580936000F3
:103FF0000FBE2093600080E00E9470090E94E61FBF
:1040000083B7817F846083BF83B7816083BF7894E7
:10401000889583B78E7F83BF0FB6F894A89580915B
:104020006000886180936000109260000FBE089568
:104030000895CF930E94E41F0E942D060E9418202D
:10404000C0E08C2F0E94A106811105C0CF5FC8304F
:10405000C1F7CF91089581E0FCCF08950C942D20F5
:104060000E94B2180E9487140E9470090C942E209E
:104070001F921FB61F9211248F939F93AF93BF93EC
:104080008091E602811113C080910F059091100577
:10409000A0911105B09112054196A11DB11D80930B
:1040A0000F0590931005A0931105B0931205BF91D1
:1040B000AF919F918F911F901FBE1F90189582E026
:1040C00084BD93E095BD9AEF97BD80936E000895EF
:1040D0002FB7F89480910F0590911005A0911105CC
:1040E000B09112052FBF08952FB7F89460910F0576
:1040F0007091100580911105909112052FBF0895C0
:104100009C014FB7F89480910F0590911005A091F4
:104110001105B09112054FBF821B930B0895CF92EA
:10412000DF92EF92FF922FB7F894C0900F05D090D6
:104130001005E0901105F09012052FBFA701960120
:10414000261B370B480B590BCA01B901FF90EF90A2
:10415000DF90CF90089578941F921FB61F9211247C
:104160008F939F93AF93BF9380910F05909110050C
:10417000A0911105B09112050196A11DB11D80936A
:104180000F0590931005A0931105B0931205BF91F0
:10419000AF919F918F911F901FBE1F90189587E739
:1041A00097E7909301088093000888E19AE00FB6A2
:1041B000F894A895809360000FBE90936000FFCFA5
:1041C0000E94841E811102C00E94211F0E948F1E26
:1041D0008093E5020E94971E909314058093130527
:1041E0000E94931E682F70E090E080E00E94D51B33
:1041F0006091B8027091B9028091BA029091BB02AD
:104200000C940F1C8091070308950895CF93DF93BA
:1042100000D00F92CDB7DEB790911905943019F503
:1042200089837B836A8382E08093E9008FEF90919A
:10423000E800815095FD06C095ED9A95F1F70000D4
:104240008111F5CF8091E80085FF0DC050E040E07E
:1042500063E070E0CE0101960E940C238091E8009B
:104260008E778093E8000F900F900F90DF91CF91A1
:104270000895BC0184E00C940621BC0183E00C94F9
:104280000621CF93DF93EC0180917E018823B1F169
:104290008091130587FF32C060E282E08093E900DD
:1042A0008FEF9091E800815095FD06C095ED9A95AD
:1042B000F1F700008111F5CF8091E80085FF1BC068
:1042C00080917E0170E050E040E0811104C050E038
:1042D00040E068E070E0CE010E940C238091E8008D
:1042E0008E778093E80080E2FE01A7EEB2E00190B5
:1042F0000D928A95E1F7DF91CF91089568E081E012
:10430000CDCF80911805811109C00E949C240E9484
:10431000F9248091E20084608093E2000895109275
:1043200018050895089508950C94302042E061EC3A
:1043300081E00E94182442E261EC82E00C9418248F
:1043400080911B05833009F45FC030F48130C1F1E6
:10435000823009F49BC008958A3009F487C08B30FD
:1043600009F46DC0893009F04EC080911A05813280
:1043700009F049C080911E0590911F05029708F031
:1043800042C08091E800877F8093E8008091E80038
:1043900082FF35C09091F3008091F200029729F4DA
:1043A0008091F1008B7F813021F48091F100809326
:1043B00007038091E8008B778093E8000C944C24ED
:1043C00080911A05813AF9F48091E800877F809303
:1043D000E80080911E0590911F05892B61F460E231
:1043E00087EE92E070E00E945B238091E8008B777B
:1043F0008093E800089560E090E080E0F3CF809142
:1044000019058111C3CF089580911A05813AD9F712
:1044100080911E0590911F05892BA9F78091E800D6
:10442000877F8093E8008091E80080FFFCCF809137
:104430007E018093F1008091E8008E77BDCF80915E
:104440001A05813201F780911E0590911F05892B75
:10445000D1F68091E800877F8093E8000E944C2489
:1044600080911C0580937E010C94B21880911A05EE
:10447000813249F68091E800877F8093E8000E94AE
:104480004C2480911D0580930803089580911A059E
:10449000813A09F0B8CF8091E800877F8093E800E7
:1044A0008091E80080FFFCCF80910803C2CF84B7E1
:1044B000877F84BF0FB6F894A895809160008861CB
:1044C00080936000109260000FBE80E890E00FB60D
:1044D000F89480936100909361000FBE0E94E714EE
:1044E0000E949C240E94F9248091E20084608093C1
:1044F000E20078940E9482270E94F11484E791E000
:104500000E94821480911905853019F00E94FC14D4
:10451000F9CF0E94E81F80911705882399F30E9424
:104520001920882379F30E94F622ECCF0C9498226C
:10453000292F33272330310519F168F42130310553
:1045400009F44AC02230310509F44BC090E080E004
:1045500030E020E028C02132310579F122323105E6
:10456000A9F780E490E02CEE38E061157105D9F0F0
:104570008DE690E02FE738E061307105A1F0E6CFDD
:1045800099278130910599F0009741F0823091058B
:1045900089F00397D9F6ECECF7E002C0EEE2F8E020
:1045A000849190E09F01FA01318320830895ECE12A
:1045B000F8E0F6CFE2EDF7E0F3CF89E090E024E415
:1045C00038E06115710579F389E090E02DE538E078
:1045D0006130710541F3BACF82E190E02DE638E019
:1045E000E2CF8BE390E022E338E0DDCF80E189BDCC
:1045F00082E189BD09B400FEFDCF8091D8008F7D96
:104600008093D8008091E00082608093E0008091E8
:10461000E00081FDFCCF0895AF92BF92CF92DF9270
:10462000FF920F931F93CF93DF936C01EB018A01ED
:104630000E946B24F82E811123C00115110539F059
:10464000F80180819181C81BD90BC80ED91EB12CED
:10465000A12C2097A9F08091E80085FD22C08091CF
:10466000E8008E778093E80001151105A1F0F801AC
:1046700080819181A80EB91EB182A08285E0F82EBA
:104680008F2DDF91CF911F910F91FF90DF90CF90F1
:10469000BF90AF9008950E946B248823D1F2F82E2A
:1046A000EFCFF60181916F018093F1002197FFEF29
:1046B000AF1ABF0ACECFFC01809120059091210551
:1046C00086179707A0F06115710529F49091E8000D
:1046D0009E779093E80090E06115710551F4911177
:1046E00008C08091E80082FF34C080E00895BC01DA
:1046F000F2CF809119058823C1F18530C1F18091F5
:10470000E80083FD30C08091E80082FDEACF80910F
:10471000E80080FFE1CF8091F3002091F200382F74
:104720006115710519F02830310558F091E02830F5
:10473000310509F090E02091E8002E772093E80001
:10474000CBCF81918093F100615071092F5F3F4F72
:10475000E7CF80911905882341F0853041F08091A1
:10476000E80083FFBECF81E0089582E0089583E0F2
:104770000895FC01809120059091210586179707E7
:10478000A0F06115710529F48091E8008E7780937F
:10479000E80090E06115710551F4911108C0809115
:1047A000E80082FF35C080E00895BC01F2CF80911F
:1047B00019058823C9F18530C9F18091E80083FD8E
:1047C00031C08091E80082FDEACF8091E80080FF4F
:1047D000E1CF8091F3002091F200382F611571052F
:1047E00019F02830310558F091E02830310509F0F2
:1047F00090E08091E8008E778093E800CBCF8491A1
:104800008093F1003196615071092F5F3F4FE6CFE1
:1048100080911905882341F0853041F08091E800AE
:1048200083FFBDCF81E0089582E0089583E008957D
:10483000982F973028F08F708093E90081E00895D9
:104840009093E900242F762F50E0981731F0709163
:10485000EC002091ED005091F00021FD02C09F5F1F
:10486000E8CF3091EB003E7F3093EB003091ED00CC
:104870003D7F3093ED003091EB0031603093EB00E1
:104880007093EC002093ED005093F0002091EE0027
:1048900027FDE5CF80E0089580911A0587FF13C0BA
:1048A0008091E80082FF06C08091E8008B778093BA
:1048B000E80004C0809119058111F2CF089580911C
:1048C00019058823D9F38091E80080FFF8CF809103
:1048D000E8008E77ECCF2091E4003091E50095E67A
:1048E000A9012091EC00822F817020FF06C08091E9
:1048F000E80080FF06C080E008952091E80022FDD6
:104900001AC080911905882389F0853089F080913B
:10491000EB0085FD0FC02091E4003091E5004217C7
:104920005307F9F29150E1F684E0089582E008958A
:1049300083E0089581E008950E940A250E941225CF
:10494000E0EEF0E0808181608083E8EDF0E080813E
:104950008F77808319BCA7EDB0E08C918E7F8C930C
:1049600080818F7E80831092180508950F931F9386
:10497000CF93DF930E940A250E941225C8EDD0E054
:1049800088818F77888388818068888388818F7DFC
:10499000888319BC109219051092150510921705FD
:1049A0001092160500EE10E0F80180818B7F808365
:1049B00088818160888342E060E080E00E94182462
:1049C000E1EEF0E080818E7F8083E2EEF0E0808196
:1049D00081608083808188608083F80180818E7F00
:1049E0008083888180618883DF91CF911F910F91AF
:1049F0000895E8EDF0E080818F7E8083E7EDF0E0C0
:104A000080818160808384E082BF81E0809318058B
:104A10000C94B624E8EDF0E080818E7F80831092C4
:104A2000E20008951092DA001092E10008951F92BA
:104A30000F920FB60F9211242F933F934F935F93D2
:104A40006F937F938F939F93AF93BF93EF93FF9356
:104A50008091E10082FF0BC08091E20082FF07C0DD
:104A60008091E1008B7F8093E1000E9481278091FB
:104A7000DA0080FF19C08091D80080FF15C08091B6
:104A8000DA008E7F8093DA008091D90080FF96C093
:104A900080E189BD82E189BD09B400FEFDCF81E0DE
:104AA000809319050E9481218091E10080FF19C047
:104AB0008091E20080FF15C08091E2008E7F80939C
:104AC000E2008091E20080618093E2008091D80052
:104AD00080628093D80019BC85E0809319050E94FC
:104AE00093218091E10084FF2BC08091E20084FF3C
:104AF00027C080E189BD82E189BD89B5982F917079
:104B000080FFFBCF8091D8008F7D8093D80080916B
:104B1000E1008F7E8093E1008091E2008F7E8093A0
:104B2000E2008091E20081608093E20080911505AF
:104B3000882309F449C084E0809319050E949421D8
:104B40008091E10083FF29C08091E20083FF25C0AE
:104B50008091E100877F8093E10082E080931905D6
:104B6000109215058091E1008E7F8093E100809185
:104B7000E2008E7F8093E2008091E200806180936A
:104B8000E20042E060E080E00E9418248091F000A2
:104B900088608093F0000E949221FF91EF91BF9175
:104BA000AF919F918F917F916F915F914F913F91C5
:104BB0002F910F900FBE0F901F90189519BC109257
:104BC00019050E948F2170CF8091E30087FD93E04B
:104BD00090931905B3CF1F920F920FB60F92112425
:104BE0002F933F934F935F936F937F938F939F93F5
:104BF000AF93BF93CF93DF93EF93FF93D091E900EF
:104C0000DF708091EC00C82FC17080FDC0E8109269
:104C1000E9008091F000877F8093F00078940E94F3
:104C20002F261092E9008091F00088608093F000B8
:104C3000CD2BCF70C093E900FF91EF91DF91CF9121
:104C4000BF91AF919F918F917F916F915F914F91A4
:104C50003F912F910F900FBE0F901F9018951F93AB
:104C6000CF93DF93CDB7DEB7AA970FB6F894DEBF28
:104C70000FBECDBF8AE195E02091F100FC012193A8
:104C8000CF01F5E082329F07B9F70E94A021809101
:104C9000E80083FF1EC180911A0590911B059A3090
:104CA00008F017C1E92FF0E0E95CF74D0C94BD273F
:104CB000803899F0823809F00CC180911E058F7000
:104CC000873008F006C18093E9008091EB0085FBF6
:104CD000882780F91092E90006C08091160590910E
:104CE0001705911182609091E800977F9093E800FA
:104CF0008093F1001092F1008091E8008E77E5C07A
:104D0000882309F4D3C0823009F0E3C080911C05E8
:104D10008111D6C080911E058F702FEF280F26308D
:104D200008F0D7C08093E9002091EB0020FFC8C0B5
:104D3000933031F48091EB0080628093EB00C0C02F
:104D40009091EB0090619093EB0021E030E001C086
:104D5000220F8A95EAF72093EA001092EA008091E8
:104D6000EB008860EACF8111B4C010911C051F7759
:104D70008091E3008078812B8093E3008091E800AC
:104D8000877F8093E8000E944C248091E80080FF98
:104D9000FCCF8091E30080688093E30082E01111F2
:104DA00083E08093190595C08058823008F091C047
:104DB00080911C0590911D058C3D23E09207A1F583
:104DC00083E08A838AE289834FB7F894DE011396E1
:104DD00020E03EE051E2E32FF0E050935700E491F1
:104DE00020FF03C0E295EF703F5FEF708E2F90E0E1
:104DF000EA30C0F0C7968D939D932F5F243159F709
:104E00004FBF8091E800877F8093E8006AE270E0FE
:104E1000CE0101960E945B238091E8008B778093FE
:104E2000E80057C0C096E7CF60911E0570911F053E
:104E3000AE014F5F5F4F0E949622BC01892B09F49F
:104E400048C09091E800977F9093E80089819A810B
:104E50000E94B923E1CF8038E1F58091E800877F97
:104E60008093E800809115058093F10045CF811172
:104E700030C090911C05923060F58091E800877FEA
:104E80008093E800909315050E944C2480911505AD
:104E9000882311F084E005C08091E30087FDFACFFC
:104EA00081E0809319050E94962113C080911C0512
:104EB000813079F481E0933009F080E08093170528
:104EC0001092E9008091E800877F8093E8000E94BB
:104ED0004C248091E80083FF0AC08091E800877F1E
:104EE0008093E8008091EB0080628093EB00AA96AB
:104EF0000FB6F894DEBF0FBECDBFDF91CF911F91EB
:104F000008950895CF93809119058823A1F0C09149
:104F1000E900CF709091EC00892F817090FD80E8BE
:104F2000C82B1092E9008091E80083FD0E942F2693
:104F3000CF70C093E900CF910895991B79E004C028
:104F4000991F961708F0961B881F7A95C9F78095C8
:104F50000895AA1BBB1B51E107C0AA1FBB1FA617C0
:104F6000B70710F0A61BB70B881F991F5A95A9F712
:104F700080959095BC01CD010895EE0FFF1F05901F
:104F8000F491E02D0994FB01DC0102C005900D9223
:104F900041505040D8F70895FB01DC0104C08D91C9
:104FA0000190801921F441505040C8F7881B990B9B
:104FB0000895F999FECF92BD81BDF89A992780B5E1
:104FC0000895A8E1B0E042E050E00C940D28262FAF
:104FD000F999FECF92BD81BDF89A019700B40216EF
:104FE00039F01FBA20BD0FB6F894FA9AF99A0FBE9D
:104FF00008950396272F0E94E8270E94E727252F70
:105000000E94E827242F0C94E8270196272F0E945E
:10501000E8270C94E727DC01CB01FC01F999FECFCE
:1050200006C0F2BDE1BDF89A319600B40D92415030
:105030005040B8F70895F894FFCF93169316EA16E8
:10504000EA163617C016C016C0165217DE17ED172F
:10505000ED17C118C118CA18CA18CC18CA18CA182E
:10506000CA18C118C118D118CA18CA18D118582698
:105070008026692780266927B326D42669272B270F
:025080003727D0
:1050820005010F02000000010D020F0204100201CF
:105092000D020E02000000041402FFFF6A107A10D3
:1050A2008A10000000000000000000000000000064
:1050B20066016A107A108A100000000000000000E9
:1050C20000000000000062016A107A108A100000DD
:1050D2000000000000000000000000005E01E60089
:1050E200E200E10039002B0029000021007F2200AC
:1050F20003FFC2020221412105213D21392101F490
:10510200F5F6F73133946697C600000000E200E935
:1051120000EA00B500B600B700CD008301CC008ADA
:105122000192019401210223022402250226022770
:10513200022A02B300B4006F00700081828300086B
:10514200101818100800E200E900EA00B500B600E5
:10515200B700CD008301CC008A01920194012102A3
:10516200230224022502260227022A02B300B400E7
:085172006F00700081828300D0
:00000001FF
