:100000000C949C040C94E3040C94E3040C947C1175
:100010000C94E3040C94E3040C94E3040C94E304C4
:100020000C94E3040C94E3040C94E2230C94B624A3
:100030000C94031F0C94E3040C94E3040C94E30469
:100040000C94E3040C94E3040C94E3040C94E30494
:100050000C94E3040C94761F0C94E3040C94E304D6
:100060000C94E3040C94E3040C94E3040C94E30474
:100070000C94E3040C94E3040C94E3040C94E30464
:100080000C94E3040C94E3040C94E3040C94E30454
:100090000C94E3040C94E3040C94E3040C94E30444
:1000A0000C94E3040C94E3040C94E30420949596DC
:1000B0002020B4B5B62020D4D5D62000209798991A
:1000C0002020B7B8B92020D7D8D92000209A9B9CEF
:1000D0002020BABBBC2020DADBDC200080818283B8
:1000E00084A0A1A2A3A4C0C1C2C3C40047696F2A4F
:1000F0004B008081828384A0A1A2A3A4C0C1C2C3FB
:10010000C400ABAC00CFD000C600CA00C800A9AA8A
:1001100000B1B2008B8C00CDCE00C500C900C70075
:10012000CB00898A00919200A7A800AFB000C6005A
:10013000CA00C800A5A600ADAE008788008F900059
:10014000C500C900C700CB008586008D8E00202029
:1001500020202000065703570457055713001C00A2
:10016000085704001200080018000C00E0000957AE
:1001700014000D000E001B00000000000000E30052
:10018000295D0C572A000F00150006000A0009001F
:100190004C001600110017000B000700E4001D00C2
:1001A00019001A00100005000000000000000A57A6
:1001B0002A5D0C572400250026002F002F0226025E
:1001C0002100220023002102240220021E001F0021
:1001D000200027000B572900000000000000E3006A
:1001E00001000C572A000057075730003002270241
:1001F0004C0001574F00520051005000E4000257DC
:100200001E022302250265000000000000000A57BC
:100210002A5D0C573A003B003C003D003E003F0089
:10022000400041004200430044004500005C0000E3
:100230000000B300B2004600000000000000E30030
:10024000295D0C57E60079007A007D007C007B0078
:10025000BD00BE00A900AA00A800AE00000000007A
:100260000000AD00AB00AC000000000000000A5729
:1002700001000C5700AE00AF00DA0281FFD9F1DBBC
:1002800020A4A62EAF00A0C000A1C800AED580A8B3
:100290001FD300408D1420000000000000003E5BD2
:1002A0004F5B3E003E6B4F6B3E001C3E7C3E1C0095
:1002B000183C7E3C18001C577D571C001C5E7F5E5E
:1002C0001C0000183C180000FFE7C3E7FF000018FF
:1002D00024180000FFE7DBE7FF0030483A060E0075
:1002E000262979292600407F05050700407F05253E
:1002F0003F005A3CE73C5A007F3E1C1C0800081C8B
:100300001C3E7F0014227F2214005F5F005F5F00AD
:1003100006097F017F00006689956A006060606061
:10032000600094A2FFA2940008047E04080010203C
:100330007E20100008082A1C0800081C2A08080053
:100340001E10101010000C1E0C1E0C0030383E3811
:100350003000060E3E0E0600000000000000000007
:100360005F000000000700070000147F147F1400E6
:10037000242A7F2A1200231308646200364956207B
:100380005000000807030000001C2241000000414B
:10039000221C00002A1C7F1C2A0008083E080800B6
:1003A0000080703000000808080808000000606045
:1003B00000002010080402003E5149453E00004262
:1003C0007F4000007249494946002141494D3300B0
:1003D0001814127F10002745454539003C4A494909
:1003E0003100412111090700364949493600464983
:1003F00049291E00000014000000004034000000E5
:100400000008142241001414141414000041221492
:1004100008000201590906003E415D594E007C1258
:1004200011127C007F49494936003E41414122007A
:100430007F4141413E007F49494941007F09090907
:1004400001003E41415173007F0808087F000041D0
:100450007F4100002040413F01007F0814224100FD
:100460007F40404040007F021C027F007F04081054
:100470007F003E4141413E007F09090906003E419F
:1004800051215E007F091929460026494949320059
:1004900003017F0103003F4040403F001F204020F8
:1004A0001F003F4038403F006314081463000304FA
:1004B000780403006159494D4300007F41414100E8
:1004C000020408102000004141417F0004020102A3
:1004D0000400404040404000000307080000205452
:1004E000547840007F28444438003844444428006D
:1004F000384444287F0038545454180000087E09BA
:1005000002001824241C78007F08040478000044AA
:100510007D4000002040403D00007F102844000046
:1005200000417F4000007C04780478007C080404CB
:1005300078003844444438007C18242418001824D7
:1005400024187C007C0804040800485454542400F7
:1005500004043F4424003C4040207C001C204020F8
:100560001C003C4030403C004428102844004C9083
:1005700090907C004464544C4400000836410000D4
:10058000000077000000004136080000020102046C
:1005900002003C2623263C00F078F808C4245414BA
:1005A000141414341414349494149424C408F000CF
:1005B00000808000000000F8042252E2424242E241
:1005C000522222224282020222220204F80000F871
:1005D0000402028242224282020202824222122249
:1005E00042820204F80000F8FCDEAE1EBEBEBE1E53
:1005F000AEDEDEDEBE7EFEFEDEDEFEFCF80000F8D5
:10060000FCFEFE7EBEDEBE7EFEFE000000000000A0
:10061000808040402020101008081010202040400A
:1006200080808080C0C0E0E0F0F0F8F8F0F0E0E01A
:10063000C0C080808080404020201010080810102A
:10064000202040408080808040C060A050B058A8EA
:1006500050B060A040C080803C9EFF00FF2000089A
:100660000080021000F00F000041620407044702FE
:100670004160000FF000001F20444A4742424247B9
:100680004A44404040404142444440201F00001F33
:100690002040414040404040414041414F4848484F
:1006A0004F4141201F00001F3F7B75787D7D7D7885
:1006B000757B7F7F7F7F7E7D7B7B7F3F1F00001F61
:1006C0003F7F7E7F7F7F7F7F7E7F00000000000076
:1006D00088885D5D3E3E7C7CF8F87C7C3E3E5D5DBE
:1006E000888888885555232347478F8F474723237A
:1006F000555588888888D5D5E2E2C4C48888C4C4A2
:10070000E2E2D5D5888888885DD56BB66DD6ADDA3E
:100710006DD66BB65DD588880703073C28192B2A50
:100720003A0A0A0A0A0B0A0C18282B3A0A1B2A2A28
:100730003B080402010004F80000F804201F000038
:100740001F20FCF80000F8043F1F00001F2004F8E1
:100750000000F8FC201F00001F3FFCF80000F8FC20
:100760003F1F00001F3FFE7EBEDEEEDEBE7EFEFCB3
:10077000F8007E7E70777777707E7E3F1F000000E6
:100780000000000000000000000000000000000069
:10079000000001010202040408080404020201012D
:1007A000000000000101020204040808040402021F
:1007B0000101000000000101030307070F0F0707F5
:1007C00003030101000000000101030205060D0AF8
:1007D0000506030201010000040330000000480385
:1007E00043006F0072006E00650020004B00650042
:1007F000790062006F006100720064002000520006
:10080000650076002E003100200028004C006500B5
:1008100067006100630079002000530070006C00E5
:100820006900740029000000100366006F006F006B
:100830007300740061006E000000040309040902E3
:100840003B00020100A0FA090400000103010100BD
:100850000921110100012240000705810308000A57
:100860000904010001030000000921110100012217
:100870006D000705820320000A120110010000002C
:10088000085346010001000102030105010980A18E
:1008900001850319012AB700150126B700950175D6
:1008A000108100C0050C0901A101850419012AA0CD
:1008B00002150126A002950175108100C0050109ED
:1008C00006A1018505050719E029E7150025019511
:1008D00008750181020507190029EF15002501950A
:1008E000F075018102050819012905950575019129
:1008F00002950175039101C005010906A1010507D3
:1009000019E029E715002501950875018102950177
:10091000750881010507190029FF150026FF0095BC
:1009200006750881000508190129059505750191CD
:1009300002950175039101C011241FBECFEFDAE0CB
:10094000DEBFCDBF04B603FE27C080913306909171
:100950003406A0913506B09136068730904BA740FB
:10096000B04BD1F410923306109234061092350633
:100970001092360614BE84B7877F84BF0FB6F894F2
:10098000A89580916000886180936000109260005B
:100990000FBEE0E0F8E3099513E0A0E0B1E0EAE57E
:1009A000F7E502C005900D92A230B107D9F726E015
:1009B000A2E0B3E001C01D92A333B207E1F70E94A9
:1009C00022210C94872B0C940000CF93DF93A9E88D
:1009D000B2E04DE852E0C1E0D0E08D91E82FE29521
:1009E000EF70F0E061A18F709E0101C0220F8A9527
:1009F000EAF7922F9095962391A382A1822B82A34E
:100A00004A175B0751F7DF91CF9108950895089534
:100A10000C940705209A559A289A5D9A08955D9836
:100A200008955D9A089528980895289A08950E9437
:100A3000CF060E94E504A3E8B2E061E070E08D918A
:100A4000E82FE295EF70F0E041A18F709B0101C0AB
:100A5000220F8A95EAF7922F9095942391A382A171
:100A6000822B82A382E0A938B80749F70E940A05C1
:100A7000EAE0F3E0A2E0B3E011921D9283E0E231FC
:100A8000F807D1F70E94AE06809312030C944A092E
:100A90008F929F92AF92BF92CF92DF92EF92FF928E
:100AA0000F931F93CF93DF9380910101C4E0D0E0B7
:100AB000882311F0D0E0C0E089E8C82E82E0D82E6B
:100AC000AE014E5F5C4F7A018A01912CAA24A39457
:100AD000B12C25E0822EF60181916F01E82FE2957D
:100AE000EF70F0E021A18F70A50102C0440F551FE7
:100AF0008A95E2F7CA01922F982B91A392A1809533
:100B0000892382A350EA5A95F1F7E3E8F2E020E066
:100B100050E040E03191A32FA295AF70B0E09096E5
:100B20008C9190E03F7002C0959587953A95E2F7D9
:100B300080FD3CC0C501042E01C0880F0A94EAF76D
:100B4000282B4F5F5F4F4630510521F7F801808118
:100B5000821729F0208380920001992493940E94A7
:100B6000E5040F5F1F4FFDE8CF16F2E0DF0609F046
:100B7000B2CF80910001882359F081508093000109
:100B80008823B1F08FE99FE00197F1F700C00000E2
:100B9000892DDF91CF911F910F91FF90EF90DF9002
:100BA000CF90BF90AF909F908F90089580E0C8CF76
:100BB000C65FDC4F84E0F70191917F0199938150EA
:100BC000D1F7E6CF0F931F93CF93DF9320910101CD
:100BD00010E000E0222311F004E010E00E94EA0699
:100BE000EC01009739F0029711F40E941305C1E05F
:100BF000D0E011C00E941505F801E65FFC4F80911E
:100C00001E0390911F03A0912003B09121038083C4
:100C10009183A283B383CE01DF91CF911F910F9176
:100C200008950E94480590910101E4E0F0E09923C5
:100C300011F0F0E0E0E0E65FFC4F30E020E040E063
:100C4000D901A25EBC4F5C919191591341E09C93F4
:100C50002F5F3F4F2430310599F790911703940F80
:100C60009093170308951F93CF93DF9380911203FE
:100C7000882309F44BC00E944805182F8091010178
:100C8000C4E0D0E0882311F0D0E0C0E0C65FDC4FC4
:100C900044E050E0BE018AE193E00E946F28488161
:100CA00059816A817B8140931A0350931B0360939F
:100CB0001C0370931D030E94E205892B11F10E9411
:100CC0000F05809113038F5F80931303863070F0BC
:100CD00080910101F0E0E0E0882311F0E4E0F0E031
:100CE000E65FFC4F10821182128213820E94520929
:100CF000C1E0111101C0C0E08C2FDF91CF911F9195
:100D000008950E94110510921303F0CF0E9411065E
:100D1000C1E0811101C0C0E080910101811114C0C6
:100D200090E080E0865F9C4F40911A0350911B0336
:100D300060911C0370911D03FC0140835183628309
:100D400073830E945209D8CF84E090E0EBCFE82F64
:100D5000F0E0E65FFC4F80810895089580911403D0
:100D6000811111C08091D80080618093D8008AE100
:100D70008A95F1F700C09091D900892F817090FF7A
:100D800082E08093140381E090911403913009F084
:100D900080E008950E94AE0691E0892708950E94A0
:100DA000CA06809301010E94AE06882321F00E94AA
:100DB000DE06789408950E94E406FBCF63E070E0BD
:100DC00082E091E00C94291163E070E082E091E010
:100DD0000C9432110F931F93CF93DF938C0190915A
:100DE0001B0180911A01D0E0C0E0981759F082E011
:100DF00090E00E940B12EC01892B21F480911A01E2
:100E000080931B018091150390911603082B192BD9
:100E100090E080E0012B11F081E090E00E940B1245
:100E2000892B71F48091170380931A011092160395
:100E300010921503CE01DF91CF911F910F9108956C
:100E400081E090E09093160380931503F3CF0C9408
:100E5000060583E0089560E08EE491E00C94DA0DDD
:100E6000CF93DF93D82FD878C82FC47460E0DD23E8
:100E700029F18BE491E00E94DA0D60E084E491E0D6
:100E8000CC2329F160E086E491E00E94DA0D60E075
:100E90008DE391E00E94DA0D60E0DD2311F187E33C
:100EA00091E00E94DA0D60E082E391E00E94DA0DA9
:100EB000C11122C060E088E291E021C088E491E0A5
:100EC0000E94DA0DC11109C060E080E491E00E9447
:100ED000DA0D60E08AE391E0DDCF60E082E491E04A
:100EE000D4CF84E391E00E94DA0D60E0CC2359F086
:100EF00080E391E00E94DA0D60E08BE291E0DF9107
:100F0000CF910C94DA0D8EE291E00E94DA0DD2CFEF
:100F1000CF93DF93D82FD171C82FC27260E0DD2349
:100F200029F185E291E00E94DA0D60E08EE191E026
:100F3000CC2329F160E080E291E00E94DA0D60E0CC
:100F400087E191E00E94DA0D60E0DD2311F181E19B
:100F500091E00E94DA0D60E08CE091E00E94DA0DF1
:100F6000C11122C060E082E091E021C082E291E004
:100F70000E94DA0DC11109C060E08AE191E00E948F
:100F8000DA0D60E084E191E0DDCF60E08CE191E09A
:100F9000D4CF8EE091E00E94DA0D60E0CC2359F0CE
:100FA0008AE091E00E94DA0D60E085E091E0DF9157
:100FB000CF910C94DA0D88E091E00E94DA0DD2CF47
:100FC00060E082EF90E00E94DA0D60E08CEE90E04D
:100FD0000C94DA0D60E08CED90E00E94DA0D0E9436
:100FE0008C0B1F928F9381E992E09F938F9384E102
:100FF00094E09F938F930E947C280F900F900F9006
:101000000F900F900F9060E084E194E00C94BE0D7F
:1010100081E00E94141B882329F060E08CEC90E0B2
:101020000C94DA0D82E00E94141B60E0882319F012
:101030008CEB90E0F5CF8CEA90E0F2CFCF930E945A
:10104000E0070E942B070E9408080E942B070E94BD
:10105000BC1CC82F0E94E51C8C2B0E9430070E94EC
:10106000BC1CC82F0E94E51C8C2BCF910C948807C8
:10107000CF930E94EA070E942B070E9408080E9453
:101080002B070E94BC1CC82F0E94E51C8C2B0E94C1
:1010900030070E94BC1CC82F0E94E51C8C2BCF91EE
:1010A0000C9488076091220370912303809124039C
:1010B000909125030E945A1F6136734E8641910517
:1010C00010F00C94000F0E94EC0D8091120381111E
:1010D0000C941E080C9438080F931F93CF93DF9342
:1010E0008C01EB018A81882351F00E943F1F60939D
:1010F00022037093230380932403909325030932E2
:101100008DE5180751F00A321D4579F0C1E08C2FAA
:10111000DF91CF911F910F910895CA8181E0CC2377
:1011200039F00E94341BC0E0F2CFCA8182E0F7CFD1
:101130000E94551BECCFCF93DF939C013A9521156C
:101140003F4168F5EC01CC27D170DC01AA27B270D1
:10115000AC01442754709C012227387094FF11C0C1
:1011600080E1CD2B09F480E0AB2B09F08062452BA8
:1011700009F08064232B09F08068FB01DF91CF9197
:10118000099481E0CD2B09F480E0AB2B09F082605B
:10119000452B09F08460232B81F38860EECFDF912B
:1011A000CF910895CF93DF93EC01805E910908976A
:1011B00020F06FE677E1209711F468E275E1CE0147
:1011C0000E949B088C2FDF91CF910C94BA14CF937F
:1011D000DF93EC010E940015CE01805E9109089713
:1011E00020F066E777E1209711F46FE275E1CE0118
:1011F000DF91CF910C949B0881E008950C946C08CA
:1012000008950C9400091F93CF93DF9300D000D072
:101210000F92CDB7DEB749835A836B8330916A034F
:1012200089819A8131111DC06623B9F02223A9F06A
:101230000E94271C182F682F89819A810E94D01B39
:1012400069817A81812F0F900F900F900F900F90EE
:10125000DF91CF911F910C94B2090E94FE1B182FB1
:10126000EFCF0E94271C69817A81EDCFFC01262FE8
:10127000408151816281738184810C940309CF93F1
:10128000DF93EC0160E00E943609BE01DF91CF914F
:101290000C9401090E94611D811102C00E94F11D80
:1012A0000C9427070E946F100E940E0C0C940805E6
:1012B00008950E948F170E9458092FEF84E39CE045
:1012C000215080409040E1F700C000000C949A1F2C
:1012D0000F931F93CF93DF93EC0161E00E943609D7
:1012E0008C018A81882319F0C8010E94B80BBE01C5
:1012F000C8010E94CF0FBE01C8010E94FE088823CA
:10130000C9F0BE01C8010E941510882399F08A8196
:10131000882339F001158CE5180751F00E3D1C4566
:1013200079F0CE01DF91CF911F910F910C94FC08C1
:101330000E94590980E0DF91CF911F910F9108958C
:101340000E94F11DF7CF08950C94A30981E0089540
:101350000C94A609CF93C82F0E94A4098C2FCF917B
:101360000C94A809972F70E026E0929F600D711DE4
:101370001124FB0190E3899FE00DF11D1124EE0F74
:10138000FF1FEC5AFE4F859194910895CF93DF9300
:101390000E94B2090E94B20AEC01811522E592076F
:1013A000E8F5811531E5930708F0ACC0883E91055A
:1013B00010F5803E910570F5883A910570F4853AF4
:1013C000910508F078C08130910521F1009711F165
:1013D000049700F5D0E0C0E01DC08F3B9105D0F729
:1013E000C85AD0E0CC0FDD1FC856DD4F0990D88118
:1013F000C02DD4640FC0811540E5940708F066C085
:10140000C11580E4D80708F05EC0CE019A95811519
:101410009F4100F7CE01DF91CF910895811536E508
:10142000930718F5811545E5940708F083C0C115A9
:1014300084E5D80708F079C09C2F969596959E0173
:1014400023703327C115D34508F461C0C1E0D0E053
:1014500002C0CC0FDD1F2A95E2F730E2939FC00156
:101460001124C82BD92BDA68D5CFC1158AE5D80746
:1014700078F4C11599E5D90708F066C0C11528E5CB
:10148000D20708F4A7CFDC2FCC27C06FD06AC2CF19
:10149000CE0190568115904208F09CCF8D2F8F7110
:1014A0000E94490B90E0982F882788279F719C0104
:1014B0002C2BE90147C0C55AD0E0CA53DD4FC88183
:1014C000D0E0D064A7CFDF70D06AA4CFE4E09695D7
:1014D0008795EA95E1F783702C2F26952695237042
:1014E00040E2249F90011124382B8C2F8370C1E09F
:1014F000D0E002C0CC0FDD1F8A95E2F7C22BD32BC0
:10150000DC6888CFD82FCC27C16FD06A83CFC1E0E9
:10151000D0E002C0CC0FDD1F2A95E2F720E2929FB7
:10152000C0011124C82BD92BEBCFDC2FCC27C46FE3
:10153000D06A70CF0E94490BC82FD0E0DC2FCC2797
:10154000CC27DF71D06266CF8C2F8F700E94490B41
:1015500034E0D695C7953A95E1F7CF709C2FEC0112
:10156000D06958CF82389105B1F1B0F4813391053B
:1015700009F475C048F48932910509F469C08A32CA
:10158000910509F473C008958533910509F459C094
:101590008933910501F10895833E9105A9F138F44D
:1015A000803E9105F9F0823E910549F10895863E0D
:1015B0009105A9F1873E9105C9F1843E910519F580
:1015C0002091250621FF1FC08091240684FD14C0B0
:1015D00087EE90E00895209124062370A1F080EE1C
:1015E00090E008952091240620FD47C03091250603
:1015F00030FF09C024FF44C090E080E004C0209187
:10160000240622FDF7CF08952091240622FD3BC039
:101610003091250630FDE3CF24FFF5CFEDCF2091AB
:10162000240623FFF0CF24FDE7CFD2CF209124065C
:1016300023FD2CC03091250631FFEECF84EE90E0E3
:1016400008952091240625FFDECF89E290E00895D9
:101650002091240625FFD7CF85E390E008952091BF
:10166000240626FFD0CF8AE290E008952091240638
:1016700026FFC9CF81E390E0089589E390E00895C3
:1016800083EE90E0089582EE90E0089586EE90E07B
:1016900008959091240692FF06C0282F28712830C3
:1016A000F9F4877F846093FF06C0282F28712831C2
:1016B000F1F4877E84612091250620FF06C0382F33
:1016C00038713830D9F4877F816021FF06C0282F18
:1016D00028712831D1F4877E816194FD877E089539
:1016E000282F24712430F9F68B7F8860DCCF282FD7
:1016F0002471243101F78B7E8861DDCF382F317161
:10170000313019F78E7F8860E0CF282F2171213189
:1017100021F78E7E8861E1CF8091280308959C0196
:101720003056211540E2340748F0305E211540E183
:10173000340720F0315C21153F4178F499279C0152
:10174000245031092432310578F02752310981E0E3
:101750002E30310550F080E008958F3F910579F3E8
:1017600070F390E080E0EBCF81E008950C948F0B54
:10177000CF92DF92EF92FF92CF93DF930E94B60B4E
:10178000882309F444C08091260390912703009791
:10179000C1F10E944B1F60912803C62FD0E09C012D
:1017A00050E040E060E67AEE80E090E00E941F2882
:1017B000CA01B90125E030E040E050E00E941F2856
:1017C00030E02C1B3D0BB901330F880B990B0E94A5
:1017D000062727EA39E747E45DE30E9492276B0179
:1017E0007C01BE01DD0F880B990B0E9406279B012F
:1017F000AC01C701B6010E9469260E94D5266093FC
:1018000028030E94331F9093270380932603DF91C0
:10181000CF91FF90EF90DF90CF900895CF92DF921D
:10182000EF92FF92CF93DF9380912603909127034D
:101830000E944B1F893E934060F160912803C62FA0
:10184000D0E0662777276C1B7D0B072E000C880BDA
:10185000990B0E94062727EA39E747E45DE30E94D7
:1018600092276B017C01BE01DD0F880B990B0E9452
:1018700006279B01AC01C701B6010E9469260E94A0
:10188000D526609328030E94331F909327038093EB
:101890002603DF91CF91FF90EF90DF90CF900895D6
:1018A000CF92DF92EF92FF920F931F93CF93DF932C
:1018B0006C017B0164E670E088E70E948F12EC0106
:1018C00097FD12C010E000E0F601E00FF11F8491D7
:1018D00064E670E00E94EB12EC01892B29F40F5FA3
:1018E0001F4F0E151F0581F70E946E13CE01DF9169
:1018F000CF911F910F91FF90EF90DF90CF900895BF
:10190000EAE1F4E080E092E0DF019C011D922150C9
:101910003040E1F7F0931F06E0931E068FEF9FEF34
:10192000909355038093540308950E942907809350
:10193000500380FD0FC080E880934F030E948912FE
:101940006DE070E08BE892E00E94500C892B21F052
:1019500080E0089580E2F0CF8091500363E070E072
:1019600081FD26C088E892E00E94500C892B81F707
:101970006DE070E088E792E00E94500C892B41F7FF
:101980000E943F1F605A75418F4F9F4F60931A0608
:1019900070931B0680931C0690931D060E94800C7A
:1019A00081E0809353038093520310925103089572
:1019B00085E892E0D9CF20914F0336E0839FC001A4
:1019C0001124629F800D911D1124811522E0920740
:1019D00014F090E080E0865E9B4F90931F0680930A
:1019E0001E06089520911E0630911F062451344092
:1019F00040914F03642F70E0C9010E940B28481BDF
:101A0000463010F4240F311D211582E0380710F004
:101A100030E020E0265E3B4F30931F0620931E06E9
:101A200008951F93CF93DF93162F8A3031F481E00E
:101A3000DF91CF911F910C948B0D8D3011F480E0CC
:101A4000F7CFC0911E06D0911F0696E0FE01A9E2D5
:101A5000B3E001900D929A95E1F7803EC8F086E0E0
:101A6000FE0111928A95E9F711111EC0C0911E0660
:101A7000D0911F0646E050E0BE0189E293E00E944B
:101A80006F28892BF9F4DF91CF911F910C94F20C00
:101A9000F6E08F9FB001112468567D4F46E050E07C
:101AA000CE010E946628E0CFE0911E06F0911F064D
:101AB0009F012A5F3F4F2E173F07C1F2808180951B
:101AC0008193F9CFCA51D440CE0125E096958795F0
:101AD0002A95E1F721E030E0A90102C0440F551F2B
:101AE0008A95E2F7CA014091540350915503842B23
:101AF000952B259645E0D695C7954A95E1F702C006
:101B0000220F331FCA95E2F7822B932B9093550334
:101B100080935403B8CFCF93382FE0911E06F091F5
:101B20001F06EA51F44020914F03622F70E0CF016D
:101B30000E940B28281B822F332369F066E00E9445
:101B4000FF27C82FC15010F4CF91089560E080E2C4
:101B50000E94110DF7CF9F01280F311D2115324032
:101B600018F080E0F0E0E0E08E0F9F2F911D865E80
:101B70009B4F90931F0680931E06E6CFFF920F9314
:101B80001F93CF93DF93EC01F62EFC010190002010
:101B9000E9F78F0101501109C017D10730F0DF912B
:101BA000CF911F910F91FF9008956F2D89910E9401
:101BB000110DF2CF1F93CF93DF93EC01162FFE018F
:101BC0008491811104C0DF91CF911F910895612FFD
:101BD0000E94110D2196F3CF0E943F1F605A75415C
:101BE0008F4F9F4F60931A0670931B0680931C06BD
:101BF00090931D0680915203811108C062E070E04D
:101C000086E792E00E94500C892B19F080915203D4
:101C1000089581E080935203F9CF2F923F925F9213
:101C20006F927F928F929F92AF92BF92CF92DF92EC
:101C3000EF92FF920F931F93CF93DF932091540362
:101C4000309155032115310531F08091510361E048
:101C500070E0882399F0DF91CF911F910F91FF9051
:101C6000EF90DF90CF90BF90AF909F908F907F903C
:101C70006F905F903F902F9008958F5F082F10E036
:101C80001B01082E02C0220C331C0A94E2F7A901A2
:101C900042215321452B89F39091500390FD44C07C
:101CA0008295880F807680937002980136952795EB
:101CB0003695279520937302815E8093710210926E
:101CC000740224E630E047E050E06EE672E088E718
:101CD0000E941A13892B09F0BECFA80125E0440FFA
:101CE000551F2A95E1F78091500380FD2BC0465E79
:101CF0005B4F04E610E020E230E060E488E70E94F9
:101D00004113892B09F0A7CF0E94EC0DE101C0958A
:101D1000D0958091540390915503C823D923D09333
:101D20005503C093540397CF880F880F880F809373
:101D3000700210927302895F8093710283E0809336
:101D40007402BFCFEFE2F3E080E2DF011D928A95DB
:101D5000E9F7ADECB2E009EC12E081EDC82E82E0CB
:101D6000D82E97E0592E772473948D91E80129910C
:101D70008E01240F352F311D265E3B4FE82FF0E0FA
:101D8000E15DFC4F90E080E0652C681A872C082EFE
:101D900001C0880C0A94EAF77901A12CE701B990F7
:101DA0007E01B820662D6A196770962E062E000CEB
:101DB000770BDB2D01C0DD0F9A94EAF771956195E1
:101DC00071096770772701C0B6946A95EAF7BD2A52
:101DD0006081962E9B289082A39468E0A612DECFA5
:101DE000019631968830910579F6CA16DB0609F01E
:101DF000BCCF04E610E020E230E04FE253E07DCFBC
:101E000080915203882369F062E070E084E792E0F9
:101E10000E94500C892B19F0809152030895109262
:101E200052038091520391E0892708950F931F93E5
:101E300080915303882301F160E080E00E94DB0C75
:101E40000E9452080E940D0E809152038823A1F037
:101E50000E943F1F00911A0610911B0620911C063C
:101E600030911D06601B710B820B930B97FD04C014
:101E70001F910F910C94000F1F910F910895CF9314
:101E8000DF93EC0181E0898B8F810E94BF1C8885E4
:101E90000E94D21C0E94FE1CEA81FB81309739F01F
:101EA0006C897D89CE010696DF91CF910994DF91EF
:101EB000CF910895CF93DF93EC018881823039F47C
:101EC000FB01828193810E94D20881E08B87DF91A0
:101ED000CF910895FC018081813029F4FB0180813C
:101EE00091810C94D208823021F4FB01828193818C
:101EF000F8CF0895FC018081813029F4FB018081B5
:101F000091810C94E708823021F4FB018281938156
:101F1000F8CF0895EF92FF920F931F93CF93DF9323
:101F2000EC018A85811134C0EB80FC8087E5F81ACA
:101F300026E12E9DC0012F9D900D1124DC01A45E91
:101F4000BE4F1496ED91FC911597309731F0549651
:101F50006D917C918E5D9E4F099586E18E9D8001ED
:101F60008F9D100D1124045E1E4FF80187810E9481
:101F7000C51CF80180850E94D81C0E94FE1C188296
:101F800019861B861E821D821092570310925603DB
:101F9000DF91CF911F910F91FF90EF900895DF9205
:101FA000EF92FF920F931F93CF93DF937C01FB017E
:101FB0008281882391F0809175028F3F71F0CCE18E
:101FC000D1E010E000E0DD24D39480917502082E6A
:101FD000000C990B8017910744F4DF91CF911F916A
:101FE0000F91FF90EF90DF9008958E818823C9F0C4
:101FF00089859A858E159F0539F4809156039091B5
:1020000057038E159F0569F0DF86FC86EB8689896C
:10201000811103C0CE010E943F0FCE0106960E949F
:102020008A0F0F5F1F4F6696D0CFEF92FF920F93EC
:102030001F93CF93DF937C0197558F3F910509F054
:10204000D8F520917502022E000C330B28173907A2
:1020500014F480937502FB01228136E1389F8001E0
:10206000399F100D1124E801C45EDE4F288B928148
:102070008E81992349F1FA86E9868F5F8E830E94CB
:10208000331F9E878D870E94E51C8F830E94BC1C96
:1020900088870E94CF1C9885892B8887E881F981E1
:1020A000309731F06C897D89C8018E5D9E4F09950E
:1020B000F0925703E092560381E0DF91CF911F9198
:1020C0000F91FF90EF9008958823B1F389898823B9
:1020D00099F3C8018E5D9E4F0E948A0FEDCFCF927B
:1020E000DF92EF92FF920F931F93CF93DF93809134
:1020F000750210E006E18F3FF1F5DF91CF911F915E
:102100000F91FF90EF90DF90CF9008950E9DF0011A
:102110000F9DF00D1124E45EFE4FC288D388C114D8
:10212000D10439F470E060E0818592850E94051A3F
:102130006C010E9DE0010F9DD00D1124C45EDE4F99
:102140008E818823B9F08D859E850E944B1FC8160D
:10215000D90680F4109F700111248989811105C06E
:10216000C701845E9E4F0E943F0FC7018E5D9E4F48
:102170000E948A0F1F5FE12EF12C80917502082EBC
:10218000000C990B8E159F050CF6B7CF8EE14A9B7C
:1021900002C08150E1F74A9BFECF08955A9880E231
:1021A0008A95F1F75A9A0895FC013BE03A95F1F7C8
:1021B00020E090E080E031E040E14A95F1F7880FBF
:1021C0004A9B02C08160232742E04A95F1F7000054
:1021D00040E14A95F1F79F5F6913EECF90E19A9540
:1021E000F1F799B132E03A95F1F7000040E14A95F4
:1021F000F1F792FB992790F992272081920F908313
:102200000895EF92FF920F931F93CF93DF930F9256
:10221000CDB7DEB719828C017C01E60EF11C0E15DC
:102220001F0561F481E09981911180E00F90DF91A9
:10223000CF911F910F91FF90EF9008950E94C610CB
:1022400068E0CE0101960E94D410F80181938F01BD
:10225000E6CF90935A038093590360935803529AA0
:102260005A9A089590935A038093590360935803A0
:1022700052985A9AEA9AE9E6F0E080818F7C80834E
:1022800008956150770B91E001C0990F6A95EAF7C4
:1022900020E031E0911108C0222391F05A9A80E2A7
:1022A0008A95F1F75A980895492F482339F05A9A98
:1022B000232740E24A95F1F79695ECCF5A98F9CF4B
:1022C0005A98EDCFFF920F931F93CF93DF93EC01BA
:1022D0008C01060F111DC017D10731F4DF91CF918A
:1022E0001F910F91FF900895F9900E94CE1068E021
:1022F0008F2D0E944111EFCF1F920F920FB60F92B8
:1023000011240F931F932F933F934F935F936F93DA
:102310007F938F939F93AF93BF93EF93FF93CF934D
:10232000DF930F92CDB7DEB719820E94C61067E027
:10233000CE0101960E94D410082F069506950695A9
:10234000982F92959570202F2570920F292F23702A
:10235000969596958770920F891344C08981811153
:1023600041C0809158038017E8F120E12A95F1F7E8
:102370005A9A529A82E08A95F1F700C0A8E00A9F23
:10238000C00111240091590310915A03080F191F1D
:102390005A98F8016581662321F0868197810E9411
:1023A00062110E94CE10F0E1FA95F1F75A98529816
:1023B0005A9A20E12A95F1F7D80112966C9112975A
:1023C000662331F113968D919C910E940111D801E1
:1023D000ED91FC91882311F088E001C082E08083B8
:1023E0000E94C6100F90DF91CF91FF91EF91BF91A6
:1023F000AF919F918F917F916F915F914F913F919D
:102400002F911F910F910F900FBE0F901F90189555
:10241000ED91FC91E1CF0F931F93CF93DF93209128
:102420005803281719060CF471C08C0193E0000FB3
:10243000111F9A95E1F7C0915903D0915A03C00F2B
:10244000D11FF894529A5A9825E02A95F1F7000086
:10245000982F969595708570980F892F8370969513
:102460009695980F092B0E94CE1000C067E0802F30
:102470000E94411180E18A95F1F752985A9A4A9B3D
:1024800017C087E090E04A9915C06D81662321F15D
:102490008E819F810E94011181111EC0529A5A9A09
:1024A000E881F98182E08083789482E090E00DC039
:1024B00000C0E5CF019771F4529A5A9AE881F981E8
:1024C00081E08083789481E090E0DF91CF911F914B
:1024D0000F91089500C0D7CF0E94C61020E22A9520
:1024E000F1F75A98529A80E18A95F1F76A8166234A
:1024F00021F08B819C810E9462110E94CE10E881A4
:10250000F9811082789490E080E0DFCF84E090E061
:10251000DCCF1092B9008CE08093B8000895EF9260
:10252000FF920F931F93CF93DF93182FEB0110921D
:10253000BC0084EA8093BC000E94331F7C01809120
:10254000BC0087FF27C08091B900887F883029F0C0
:102550008091B900887F8031D9F51093BB0084E861
:102560008093BC000E94331F8C018091BC0087FFC8
:1025700024C02091B900287F90E080E02831B1F09C
:1025800081E090E0203411F490E080E09195819515
:1025900091090CC0CF3FDC0791F20E94331F8E19C6
:1025A0009F098C179D0758F28EEF9FEFDF91CF9117
:1025B0001F910F91FF90EF900895CF3FDC07A9F294
:1025C0000E94331F801B910B8C179D0770F2ECCF7C
:1025D0008FEF9FEFEBCF0F931F93CF93DF93EB0121
:1025E0008093BB0084E88093BC000E94331F8C0161
:1025F0008091BC0087FF11C02091B900287F81E045
:1026000090E0283211F490E080E091958195910955
:10261000DF91CF911F910F910895CF3FDC0741F3D8
:102620000E94331F801B910B8C179D0708F38EEFC0
:102630009FEFEECFCF92DF92EF92FF920F931F9317
:10264000CF93DF936B018A017901B9010E948F1248
:10265000E6010C0D1D1DC017D10761F424E920937C
:10266000BC00DF91CF911F910F91FF90EF90DF9011
:10267000CF90089597FDF2CFB70189910E94EB1298
:10268000EACFCF92DF92EF92FF920F931F93CF93F7
:10269000DF93C62F6A017901B8010E948F1297FD5E
:1026A0000CC0B8018C2F0E94EB12E601EC0CFD1C53
:1026B000CE15DF0511F097FF0CC024E92093BC0074
:1026C000DF91CF911F910F91FF90EF90DF90CF900E
:1026D0000895B80189910E94EB12EACF84E98093B2
:1026E000BC0008959093600380935F030895E09188
:1026F0005F03F0916003309721F00190F081E02DAD
:10270000099480E00895E0915F03F09160033097B1
:1027100099F020918202222359F02091240627FF6C
:1027200007C0DC012C9111962C93119725E02C9376
:102730000280F381E02D0994089520915D0330918A
:102740005E032817390771F090935E0380935D0351
:10275000E0915F03F0916003309721F00680F781EC
:10276000E02D0994089520915B0330915C032817B4
:10277000390771F090935C0380935B03E0915F03F2
:10278000F0916003309721F00084F185E02D0994E9
:10279000089585B7806885BF85B7806885BF08952F
:1027A000089508950C94D01308950C94D4130E94A6
:1027B000C9130E94D1130C94D21381E008950C9494
:1027C000DD130E942A1F0E94170580E00E94950CCD
:1027D0000E94AB1F0C94D513AF92BF92CF92DF92A1
:1027E000EF92FF920F931F93CF93DF93CDB7DEB796
:1027F0002A970FB6F894DEBF0FBECDBF0E943306F6
:10280000B82E0E94DF13882309F463C082E6C82E25
:1028100083E0D82E10E000E0A02E802F0E94A706B3
:10282000E82EF601F1906F01F81609F44CC0809182
:10283000EE0381FD0E94AD069F2D9E2580E0FF24C2
:10284000F394292F2F21D1F18E83AF82EF2081E0E5
:1028500009F480E088870E94331F8160782F9A876F
:1028600089874E815F8168858A850E948B14F80173
:10287000EE59FC4F8081F826F0820E94160FB110AD
:102880000E94EC0D0E94771390916103891791F1DA
:102890000E947713809361032A960FB6F894DEBFE7
:1028A0000FBECDBFDF91CF911F910F91FF90EF90A1
:1028B000DF90CF90BF90AF900C94AA098F5FFF0C70
:1028C000863009F0BECF0F5F1F4F0830110509F0A9
:1028D000A3CF8FEF89838A831B820E94331F81607D
:1028E000782F9D838C8349815A816B818D810E94D1
:1028F0008B14C3CF2A960FB6F894DEBF0FBECDBFA0
:10290000DF91CF911F910F91FF90EF90DF90CF90CB
:10291000BF90AF900895CF93DF93CDB7DEB72B97DD
:102920000FB6F894DEBF0FBECDBF4F8358876987BF
:102930007A878B871E821D8285E0FE013796DE0135
:10294000119601900D928A95E1F749815A816B8128
:102950007C818D819E812B960FB6F894DEBF0FBED1
:10296000CDBFDF91CF910C94081AFC018081918139
:102970000C94691CCF93C82F882309F43FC08CEFB7
:102980008C0F813AA0F46C2F80917602909177029F
:102990000E94071E882329F08C2F0E949E1C0E94F3
:1029A000FE1C8C2F0E94971CCF910C94FE1C80E281
:1029B0008C0F883048F4C77081E001C0880FCA9539
:1029C000EAF70E94BF1CF0CFEBE5EC0FE33040F4D8
:1029D000F0E0E150FD4F808190E0CF910C949D1389
:1029E000C85AC73158F4EC2FF0E0EE0FFF1FEF523A
:1029F000FD4F80819181CF910C94B313CF910895B5
:102A0000882329F19CEF980F913A20F40E949E1C94
:102A10000C94FE1C90E2980F983050F4877091E06F
:102A200001C0990F8A95EAF7892F0E94C51CF0CF43
:102A30009BE5980F933020F490E080E00C949D1378
:102A4000885A873120F490E080E00C94B313089505
:102A5000882321F00E94BF1C0C94FE1C089588233B
:102A600021F00E94C51C0C94FE1C0895BF92CF92C9
:102A7000DF92EF92FF920F931F93CF93DF937C012E
:102A8000D62FC72FFC01058102950F7012811111FD
:102A90000E94DF1C0E94B51CD82E882391F01123C0
:102AA000E9F08C2F807F803421F080E28D0F883018
:102AB000A8F082E00E94491D0E94B51C91E0D82E2A
:102AC000D926CC2EC2949FE0C922FBE0FC15A8F1C8
:102AD000EC2DF0E0E757F44D0C943E28D12CF1CFCB
:102AE0000C2F0F70C07F11F00295007F1123A9F009
:102AF000002359F080E28D0F883010F0D11109C009
:102B0000802F0E94BF1C0E94FE1C8D2F0E94BA14B1
:102B100014C0802F0E94D21CF6CF8D2F0E9400156A
:102B2000002359F080E28D0F883010F0D1112BC0B6
:102B3000802F0E94C51C0E94FE1CEC2DE850FF0B4C
:102B4000349720F40E9477130E94AA09DD2009F42B
:102B50007DC10E94B11C80FD79C1F70112820E94E3
:102B6000AB1C0E94341BC7010E9447170E94AB1C7C
:102B7000DF91CF911F910F91FF90EF90DF90CF9059
:102B8000BF900C94551B802F0E94D81CD4CF2C2FA3
:102B90002F70B22EC07FC03219F0B29480EFB822ED
:102BA000DD2339F0D13019F1112361F1002321F136
:102BB000ACCF112381F0011106C00E94E51C8B29C6
:102BC0000E942815BACF0130C1F70E94E51C8B295D
:102BD0000E94EB1CB2CF011106C00E94F41C8B2D89
:102BE0000E942F15AACF013009F4A7CFF6CF1123E9
:102BF00029F0063008F0A1CF8B2DE2CF053008F088
:102C00009CCFEDCF002359F3D93349F43FEF87EE42
:102C100093E0315080409040E1F700C000008D2FDC
:102C20000E9400158ACF8C2F86958695837069F057
:102C3000813009F082CF8D2F9C2F9370111102C02B
:102C400090E080E00E94B31378CF8D2F9C2F93707B
:102C5000111102C090E080E00E949D136ECF8C2F76
:102C6000837009F041C0111168CF4D2F42954695F0
:102C70004770440F440F0D2F0F7010E030E020E03C
:102C8000042E04C0000F111F221F331F0A94D2F715
:102C900060E070E0CB01D4FF0FC06FE070E080E037
:102CA00090E004C0660F771F881F991F4A95D2F7DE
:102CB0006095709580959095C695C695C370602B6C
:102CC000712B822B932BC23049F058F4C13019F08C
:102CD0000E94C61A32CF0E94B41A2FCF0E94D81A6F
:102CE0002CCF0E94B21A29CF8695112311F08C2F78
:102CF0008170882309F421CF4D2F42954695477066
:102D0000440F440F0D2F0F7010E030E020E0042E30
:102D100004C0000F111F221F331F0A94D2F760E076
:102D200070E0CB01D4FF0FC06FE070E080E090E076
:102D300004C0660F771F881F991F4A95D2F76095C8
:102D4000709580959095C695C695C370602B712B34
:102D5000822B932BC23049F058F4C13019F00E94F5
:102D6000AB1BEBCE0E94991BE8CE0E94BD1BE5CEAB
:102D70000E94EE1AE2CECF70112329F08C2F0E9410
:102D8000341B8D2F1DCF8D2F0E942F158C2F0E944D
:102D9000551BD3CED23F89F160F4D03FC9F0D13F6B
:102DA00029F1112309F442C00111AFCE8C2F8F718C
:102DB00021C0D33F39F1D43FA1F7112369F1CF717D
:102DC0008C2F0E94341B63E08C2F0E94341DB5CEE3
:102DD000112341F0053008F0B0CE8C2F8F710E9486
:102DE000781BABCE063008F0A8CEF7CF8C2F8F71B2
:102DF000112369F20E94341BA0CE8C2F8F711123F6
:102E0000C9F3C5CF112329F08C2F8F710E941F1B8E
:102E100094CE0E94FA1A91CE81E00E94491D0230A0
:102E200008F48BCE82E00E94491D87CE002359F022
:102E3000D93309F0F4CEEFEFF7EE23E0E150F040A4
:102E40002040E1F7EACE8C2F8F71A1CFDF91CF9197
:102E50001F910F91FF90EF90DF90CF90BF9008955A
:102E60000F931F93CF93DF93EC01688179818A815F
:102E70000E94731C8C010E94CF1B0E94B11AB801E2
:102E8000CE01DF91CF911F910F910C943615CF9306
:102E9000DF93EC018B819C81892B29F088819981BA
:102EA00089238F3F59F4DF91CF910895CE010E947D
:102EB0003017CE01DF91CF910C943F09CE010E94D3
:102EC00068098111F3CF0E94B51C882361F38A81C0
:102ED000882349F382E0DF91CF910C94491D882328
:102EE00021F00E94D21C0C94FE1C0895882321F02E
:102EF0000E94D81C0C94FE1C08950E94DF1C0E94A6
:102F0000E21C0E94FE1C90E080E00E949D1390E075
:102F100080E00C94B3130E94A51C0C947D170E94B2
:102F2000CC1C0C948B17E92FE295EF70E250EE3039
:102F300070F4F0E0EB56F44D0C943E28803F19F00D
:102F400020F4883E20F481E00895843FE1F380E09E
:102F50000895883EC0F3813FD1F7F5CF93FB8827D2
:102F600080F908950E94691C0C949317CF93DF9306
:102F700000D000D00F92CDB7DEB70F900F900F901A
:102F80000F900F90DF91CF910895CF93DF9300D0F2
:102F900000D000D0CDB7DEB726960FB6F894DEBFCE
:102FA0000FBECDBFDF91CF9108951F93CF93DF93D5
:102FB000C0916B0316E080916C038C1304C0DF9109
:102FC000CF911F910895D0E01C9FF0011D9FF00D3F
:102FD0001124E359FC4F40815181628173818481C6
:102FE00095810E94C5172196C770E5CF40919D033A
:102FF00050919E0360919F037091A0038091A10363
:103000009091A2030C94C5171F93CF93DF938091E7
:10301000A203807FA9F480919F03882389F0809187
:103020006B03C0916C0360919D0370919E03A0910E
:10303000A003B091A103D62FD72316E0C81304C074
:10304000DF91CF911F91089590E0109711F0DF3F2D
:1030500019F401968770F2CF189F9001199F300DD7
:103060001124F901E359FC4F41814713F2CF40810C
:103070004613EFCF42814111ECCF438154814A1B6B
:103080005B0B4738510528F78091A2038F70806150
:103090008093A203F901EE58FC4F80818F7080610C
:1030A00080838DE993E00E944717DF91CF911F91B4
:1030B0000C94D517AF92BF92CF92DF92EF92FF920E
:1030C0000F931F93CF93DF93CDB7DEB761970FB602
:1030D000F894DEBF0FBECDBF8C0185E0F801DE01A4
:1030E0001D9601900D928A95E1F7F801408151817A
:1030F000E2808DE9C82E83E0D82E6091A003709104
:10310000A1036115710509F461C190919D0320919E
:103110009E03892F82238F3F09F458C1A380B48076
:10312000F0909F03F501E61BF70BFF2009F4FCC0AC
:103130008091A203382F307FE738F10508F0B2C044
:10314000311179C0FE2C251323C0941321C0E11046
:103150001FC08F7080618093A2030E94F617C60182
:103160000E9447178091A203F80185838F2D6196F5
:103170000FB6F894DEBF0FBECDBFDF91CF911F9188
:103180000F91FF90EF90DF90CF90BF90AF90089598
:10319000AB2829F0842F85238F3F09F033C180E0CD
:1031A000F82FF170DF2E80FF3CC080916B032091DF
:1031B0006C0336E0821315C04D875E878D859E8532
:1031C0000E94691C292F22952F702230F0F02430A4
:1031D00018F59F70F1F0F8019581907FD1F4D12C12
:1031E0001EC090E0389FF001399FF00D1124E35983
:1031F000FC4F6181651306C06081641303C0628166
:103200006E110FC001968770D5CF9F7011F0882383
:1032100031F3805E883018F3C8010E944717FD2CF7
:10322000A5CFEE2009F4A2CF8091A2038160809304
:10323000A203F12C9BCF251306C0941304C0F80100
:10324000EE2009F48DC04D875E878D859E850E9496
:10325000B217882319F1EE2009F18091A203803280
:1032600070F020919D0330919E0338872F8319863B
:10327000BB86AA868C87CE0107960E94471786E0F8
:10328000F801ADE9B3E001900D928A95E1F70E9453
:1032900004180E94F617FF24F39468CFC8010E9417
:1032A0004717F9CF311113C07A2DB98AA88A6E2D2C
:1032B00089890E94B6178DE993E00E94471786E03E
:1032C000F60111928A95E9F70E94F617B2CF2513FD
:1032D0000FC094130DC0E1100BC0F8018583C80125
:1032E0000E94471786E0F60111928A95E9F73ECFD2
:1032F0004D875E878D859E850E94B217882371F267
:10330000EE2061F28091A203803208F4B8CF2091C0
:103310009D0330919E033A8329831B82BD82AC8238
:103320008E83CE010196A9CFE738F10508F041C0A0
:10333000FE2CEE2009F4B2CF25132AC0941328C026
:103340008091A20380FD1BC0982F907FC1F0F801EF
:103350008583903F31F0982F907F905F8F70892BFD
:103360008583C8010E94471786E0F801ADE9B3E004
:1033700001900D928A95E1F70E94F617F7CE86E04C
:10338000F801ADE9B3E001900D928A95E1F7EECE38
:103390004D875E878D859E850E94B21781116FCF04
:1033A0008091A20381608093A203C8010E94471705
:1033B000DDCE7A2DB98AA88A6E2D89890E94B6172A
:1033C00086E0F60111928A95E9F7D6CFEE2009F44E
:1033D00065CF4D875E878D859E850E94B217F82E3A
:1033E000882309F45BCF86E0F801ADE9B3E00190F2
:1033F0000D928A95E1F78DE993E00E94B5140E9441
:103400000418BACF81E08E25CBCE87E890E00895EE
:103410001F93CF93DF93CDB7DEB72C970FB6F894F9
:10342000DEBF0FBECDBF4F83588769877A878B87F2
:103430009C87CE0107960E945A18882369F08A85D6
:103440009B85892B39F04F815885842F85238F3FA9
:1034500009F071C016E05FC086E0FE013796DE011C
:10346000119601900D928A95E1F78A859B85892BAB
:1034700089F38F81988589238F3F61F320916C03B5
:1034800030E0C90101968770992740916B03481776
:10349000190671F40E948F1710926C0310926B033F
:1034A00086E0EDE9F3E0DF011D928A95E9F7D2CFDE
:1034B00096E0929FD001939FB00D1124A359BC4F69
:1034C000FE01319601900D929A95E1F780936C037D
:1034D0000E94D517BFCF819FC001112483599C4FF3
:1034E0000E945A188823E9F0E0916B031E9FF001B7
:1034F0001124E359FC4F40815181628173818481A1
:1035000095810E94C51780916B0390E001968770AA
:10351000992780936B0380916B0390916C038913BF
:10352000DACF2C960FB6F894DEBF0FBECDBFDF9179
:10353000CF911F91089569857A858B859C850E941E
:10354000C51788CF08950C94A21A0E94A31A6093FD
:10355000C5037093C6038093C7039093C8030C946C
:103560007D1708950C94A51A0F931F930091C5031E
:103570001091C6032091C7033091C803602B712BB3
:10358000822B932B1F910F910C94A51A0F931F93CD
:103590000091C5031091C6032091C7033091C80361
:1035A00060237123822393231F910F910C94A51AFA
:1035B0000F931F930091C5031091C6032091C70379
:1035C0003091C80360277127822793271F910F919D
:1035D0000C94A51A0C94A21A0C94EA1A0E94EC1AE4
:1035E0006093C1037093C2038093C3039093C40399
:1035F0000C947D1760E070E0CB010C94EE1A61151D
:1036000071058105910529F481E0442361F080E092
:103610000895DC01CB0104C0B695A79597958795D1
:103620004A95D2F781700895482F6091C103709137
:10363000C2038091C3039091C4030C94FF1A0F93AB
:103640001F9341E050E060E070E08A019B0104C0FC
:10365000000F111F221F331F8A95D2F7C901B8012D
:103660001F910F910C94EE1A0F931F9341E050E0BD
:1036700060E070E004C0440F551F661F771F8A95F5
:10368000D2F78091C1039091C203A091C303B0917E
:10369000C4038A019B01082B192B2A2B3B2BC90140
:1036A000B8011F910F910C94EE1A0F931F9341E0F4
:1036B00050E060E070E004C0440F551F661F771FA4
:1036C0008A95D2F7CB01BA01609570958095909557
:1036D0000091C1031091C2032091C3033091C40330
:1036E00060237123822393231F910F910C94EE1A70
:1036F0000F931F9341E050E060E070E004C0440F7E
:10370000551F661F771F8A95D2F78091C10390914C
:10371000C203A091C303B091C4038A019B0108278F
:1037200019272A273B27C901B8011F910F910C9433
:10373000EE1A0F931F930091C1031091C2032091C1
:10374000C3033091C403602B712B822B932B1F91E9
:103750000F910C94EE1A0F931F930091C1031091D7
:10376000C2032091C3033091C403602371238223D9
:1037700093231F910F910C94EE1A0F931F930091B6
:10378000C1031091C2032091C3033091C403602789
:103790007127822793271F910F910C94EE1A089599
:1037A000E92FEE0FE90FEE0F8E0F982F977041E083
:1037B00001C0440F9A95EAF786958695869595E01F
:1037C000899FF0011124ED55FC4F30E020E070E0BE
:1037D0005191DF011197CB01022E02C0969587957A
:1037E0000A94E2F7817081958527842385278C933D
:1037F0002F5F3F4F2530310559F70895E92FEE0F20
:10380000E90FEE0F8E0F982F977086958695869507
:1038100025E0829FF0011124ED55FC4F50E040E07F
:1038200080E0219130E0092E02C0369527950A9458
:10383000E2F721703327042E01C0220F0A94EAF721
:10384000822B4F5F5F4F4530510559F70895BF9266
:10385000CF92DF92EF92FF920F931F93CF93DF935C
:103860008C01C090C103D090C203E090C303F090DC
:10387000C4038091C5039091C603A091C703B09182
:10388000C803C82AD92AEA2AFB2ACFE1D0E0BC2EF5
:10389000D701C6010C2E04C0B695A79597958795BC
:1038A0000A94D2F780FD0EC0219788F7B12C8B2D9A
:1038B000DF91CF911F910F91FF90EF90DF90CF900C
:1038C000BF900895B8018C2F0E94C609019761F33B
:1038D000EECFCF93DF93EC010E94271CBE01DF9156
:1038E000CF910C94C6091F93CF93DF93EB01909176
:1038F0006A03992331F0CB01DF91CF911F910C9492
:10390000691C882379F0CB010E94271C182F682F8F
:10391000CE010E94D01BBE01812FDF91CF911F915C
:103920000C94C609CB010E94FE1B182FF4CF682F00
:1039300080917602909177020C94871E682F809177
:103940007602909177020C94921E8091760290916B
:1039500077020C949D1E8091C90385958595859568
:1039600008958091C903877008959091C903977055
:1039700081E009F480E008958091ED03089590912D
:10398000ED03892B8093ED03089580959091ED03CD
:1039900098239093ED0308951092ED03089580917C
:1039A000EC0308959091EC03892B8093EC03089528
:1039B00080959091EC0398239093EC0308951092D6
:1039C000EC0308951092EB0308958091CA030895C3
:1039D00008950C94E81C9091CA03981721F08093E5
:1039E000CA030C94E91C08958091CA03882329F026
:1039F0001092CA0380E00C94E91C0895E0917602CD
:103A0000F09177028091ED038083E0917602F0914E
:103A1000770280819091EC03892B8083E09176027C
:103A2000F091770280819091EB03892B80839091B4
:103A3000CA03992381F0E0917602F09177028081A8
:103A4000892B808380917602909177020E94F31DEA
:103A500081110E94F41C80917602909177020C945F
:103A6000831308950C94311D98E0899F90011124CF
:103A7000622B6093C9030E94341B8091C903859512
:103A8000859585950C94321D1092C90380E00C94A5
:103A9000321D9091C903809589238093C903282FF3
:103AA000277071F4282F082E000C330B9217130681
:103AB00039F08595859585950E94551B0C94441D7C
:103AC000089590E080E00E94162B21E08C3E9E4FEE
:103AD00009F020E0822F089582E090E00C940E2BF4
:103AE00083E090E00C940E2BCF9384E090E00E9452
:103AF0000E2BC82F81E290E00E940E2B982F8C2F66
:103B0000CF910895AB01BC018FE090E00C942E2B77
:103B1000AB01BC0183E190E00C942E2B60E070E0DF
:103B2000CB010C94881D60E070E0CB010E94821DE7
:103B30000C948E1D6CEE7EEF90E080E00E943A2B9C
:103B400060E082E090E00E941C2B60E083E090E067
:103B50000E941C2B1092C5031092C6031092C7033B
:103B60001092C80360E084E090E00E941C2B60E0AB
:103B700081E290E00E941C2B60E085E090E00E94D2
:103B80001C2B60E086E090E00E941C2B6FEF87E02A
:103B900090E00E941C2B40E050E0BA0188E090E0E9
:103BA0000E942E2B60E08DE090E00E941C2B40E0F4
:103BB00050E0BA0188E190E00E942E2B60E087E19E
:103BC00090E00E941C2B40E050E0BA018CE190E0B4
:103BD0000E942E2B60E080E290E00E941C2B0C944F
:103BE000931D0C949A1DFC013296809182028823C9
:103BF00021F0809124069EE187FF96E080E09150BD
:103C000008F4089521912223D1F38F5FF8CF662322
:103C100001F1209182022223F1F02091240627FF56
:103C20001AC0462F4695469546954E3190F46770DA
:103C300021E030E002C0220F331F6A95E2F7840FC3
:103C4000911DFC01828190E02823392381E0232B00
:103C500069F480E00895FC013296089621912617B8
:103C600021F0E817F907D1F7F4CF81E008959C011E
:103C7000FC0132969FEF80E04191461751F09F3F43
:103C800019F4411101C0982F8F5F8630A9F79F3F2B
:103C900009F40895290F311D97FD3A95F9016283C2
:103CA0000895FC01329608962191261303C0DF0186
:103CB00011971C92E817F907B9F70895E62FE695D2
:103CC000E695E695EE3168F4E80FF92FF11D67707F
:103CD00021E030E001C0220F6A95EAF78281822B51
:103CE00082830895E62FE695E695E695EE3170F429
:103CF000E80FF92FF11D677021E030E001C0220FBD
:103D00006A95EAF7209582812823228308952091DD
:103D10008202222329F02091240627FD0C945E1EA6
:103D20000C94371E20918202222329F02091240630
:103D300027FD0C94721E0C94511EFC01329680914A
:103D40008202882351F08091240687FF06C08EE10D
:103D5000DF011D928A95E9F7089586E0F9CF08956D
:103D600008950C94B01E0E94B11E80912A068430E2
:103D700049F11092EF0388E190E020E40FB6F89447
:103D8000A895809360000FBE2093600080E00E94A1
:103D9000AA090E94B11E83B7817F846083BF83B765
:103DA000816083BF7894889583B78E7F83BF0FB679
:103DB000F894A895809160008861809360001092CB
:103DC00060000FBE08950895CF930E94AF1E0E9419
:103DD00033060E94E31EC0E08C2F0E94A7068111CB
:103DE00005C0CF5FC830C1F7CF91089581E0FCCF07
:103DF00008950C94F81E0E948F170E9477130E945A
:103E0000AA090C94F91E1F921FB61F9211248F93BA
:103E10009F93AF93BF938091EF03811113C0809163
:103E2000200690912106A0912206B091230641968A
:103E3000A11DB11D8093200690932106A093220618
:103E4000B0932306BF91AF919F918F911F901FBE9A
:103E50001F90189582E084BD93E095BD9AEF97BDC1
:103E600080936E0008952FB7F8948091200690916A
:103E70002106A0912206B09123062FBF08952FB7E7
:103E8000F89460912006709121068091220690910D
:103E900023062FBF08959C014FB7F8948091200608
:103EA00090912106A0912206B09123064FBF821B5C
:103EB000930B0895CF92DF92EF92FF922FB7F89471
:103EC000C0902006D0902106E0902206F0902306B4
:103ED0002FBFA7019601261B370B480B590BCA01B0
:103EE000B901FF90EF90DF90CF90089578941F92E2
:103EF0001FB61F9211248F939F93AF93BF9380910E
:103F0000200690912106A0912206B09123060196E9
:103F1000A11DB11D8093200690932106A093220637
:103F2000B0932306BF91AF919F918F911F901FBEB9
:103F30001F90189587E797E79093010880930008F2
:103F400088E19AE00FB6F894A895809360000FBEC0
:103F500090936000FFCF0E94611D811102C00E94FA
:103F6000F11D0E946C1D8093EE030E94741D9093BE
:103F70002506809324060E94701D682F70E090E053
:103F800080E00E94B21A6091C1037091C2038091D7
:103F9000C3039091C4030C94EC1A8091100408950B
:103FA0000895CF93DF9300D00F92CDB7DEB79091F5
:103FB0002A06943019F589837B836A8382E0809393
:103FC000E9008FEF9091E800815095FD06C095EDD6
:103FD0009A95F1F700008111F5CF8091E80085FFF7
:103FE0000DC050E040E063E070E0CE0101960E9419
:103FF000D7218091E8008E778093E8000F900F9092
:104000000F90DF91CF910895BC0184E00C94D11FF3
:10401000BC0183E00C94D11FCF93DF93EC0180911E
:1040200082028823B1F18091240687FF32C060E2CA
:1040300082E08093E9008FEF9091E800815095FD38
:1040400006C095ED9A95F1F700008111F5CF8091AA
:10405000E80085FF1BC08091820270E050E040E0E4
:10406000811104C050E040E068E070E0CE010E94A1
:10407000D7218091E8008E778093E80080E2FE01EE
:10408000A0EFB3E001900D928A95E1F7DF91CF9117
:10409000089568E081E0CDCF80912906811109C0A3
:1040A0000E9467230E94C4238091E2008460809371
:1040B000E2000895109229060895089508950C9439
:1040C000FB1E42E061EC81E00E94E32242E261ECEF
:1040D00082E00C94E32280912C06833009F45FC0C7
:1040E00030F48130C1F1823009F49BC008958A30E8
:1040F00009F487C08B3009F46DC0893009F04EC0D7
:1041000080912B06813209F049C080912F06909151
:104110003006029708F042C08091E800877F8093C4
:10412000E8008091E80082FF35C09091F300809113
:10413000F200029729F48091F1008B7F813021F405
:104140008091F100809310048091E8008B77809338
:10415000E8000C94172380912B06813AF9F48091A2
:10416000E800877F8093E80080912F0690913006C9
:10417000892B61F460E280EF93E070E00E942622D8
:104180008091E8008B778093E800089560E090E0EC
:1041900080E0F3CF80912A068111C3CF08958091EA
:1041A0002B06813AD9F780912F0690913006892B02
:1041B000A9F78091E800877F8093E8008091E8006C
:1041C00080FFFCCF809182028093F1008091E80013
:1041D0008E77BDCF80912B06813201F780912F061B
:1041E00090913006892BD1F68091E800877F8093EB
:1041F000E8000E94172380912D06809382020C9480
:104200008F1780912B06813249F68091E800877FD5
:104210008093E8000E94172380912E06809311045A
:10422000089580912B06813A09F0B8CF8091E8007B
:10423000877F8093E8008091E80080FFFCCF809129
:104240001104C2CF84B7877F84BF0FB6F894A895B6
:1042500080916000886180936000109260000FBEC2
:1042600080E890E00FB6F89480936100909361002D
:104270000FBE0E94D7130E9467230E94C42380911F
:10428000E20084608093E20078940E944D260E94B0
:10429000E11388E792E00E94721380912A0685302C
:1042A00019F00E94EC13F9CF0E94B31E80912806EA
:1042B000882399F30E94E41E882379F30E94C12188
:1042C000ECCF0C946321292F33272330310519F1CA
:1042D00068F42130310509F44AC02230310509F46F
:1042E0004BC090E080E030E020E028C02132310572
:1042F00079F122323105A9F780E490E028EF38E027
:1043000061157105D9F08DE690E02BE838E0613059
:104310007105A1F0E6CF99278130910599F00097BA
:1043200041F08230910589F00397D9F6E8EDF7E086
:1043300002C0EAE3F8E0849190E09F01FA01318342
:1043400020830895E8E2F8E0F6CFEEEDF7E0F3CF52
:1043500089E090E020E538E06115710579F389E0A6
:1043600090E029E638E06130710541F3BACF82E18F
:1043700090E029E738E0E2CF8BE390E02EE338E0ED
:10438000DDCF80E189BD82E189BD09B400FEFDCFAA
:104390008091D8008F7D8093D8008091E00082606A
:1043A0008093E0008091E00081FDFCCF0895AF9202
:1043B000BF92CF92DF92FF920F931F93CF93DF9321
:1043C0006C01EB018A010E943623F82E811123C073
:1043D0000115110539F0F80180819181C81BD90BB5
:1043E000C80ED91EB12CA12C2097A9F08091E8000D
:1043F00085FD22C08091E8008E778093E80001154A
:104400001105A1F0F80180819181A80EB91EB18239
:10441000A08285E0F82E8F2DDF91CF911F910F9113
:10442000FF90DF90CF90BF90AF9008950E94362309
:104430008823D1F2F82EEFCFF60181916F0180939E
:10444000F1002197FFEFAF1ABF0ACECFFC01809198
:1044500031069091320686179707A0F06115710515
:1044600029F49091E8009E779093E80090E0611520
:10447000710551F4911108C08091E80082FF34C0A9
:1044800080E00895BC01F2CF80912A068823C1F113
:104490008530C1F18091E80083FD30C08091E80053
:1044A00082FDEACF8091E80080FFE1CF8091F300A8
:1044B0002091F200382F6115710519F0283031056F
:1044C00058F091E02830310509F090E02091E800A3
:1044D0002E772093E800CBCF81918093F10061503B
:1044E00071092F5F3F4FE7CF80912A06882341F063
:1044F000853041F08091E80083FFBECF81E00895D0
:1045000082E0089583E00895FC0180913106909146
:10451000320686179707A0F06115710529F480917E
:10452000E8008E778093E80090E06115710551F402
:10453000911108C08091E80082FF35C080E00895A5
:10454000BC01F2CF80912A068823C9F18530C9F1D8
:104550008091E80083FD31C08091E80082FDEACFC0
:104560008091E80080FFE1CF8091F3002091F2007C
:10457000382F6115710519F02830310558F091E098
:104580002830310509F090E08091E8008E77809323
:10459000E800CBCF84918093F1003196615071098E
:1045A0002F5F3F4FE6CF80912A06882341F0853068
:1045B00041F08091E80083FFBDCF81E0089582E063
:1045C000089583E00895982F973028F08F70809396
:1045D000E90081E008959093E900242F762F50E0C0
:1045E000981731F07091EC002091ED005091F0009F
:1045F00021FD02C09F5FE8CF3091EB003E7F3093FA
:10460000EB003091ED003D7F3093ED003091EB00F9
:1046100031603093EB007093EC002093ED005093E9
:10462000F0002091EE0027FDE5CF80E00895809115
:104630002B0687FF13C08091E80082FF06C080919F
:10464000E8008B778093E80004C080912A068111EE
:10465000F2CF089580912A068823D9F38091E8004B
:1046600080FFF8CF8091E8008E77ECCF2091E400B6
:104670003091E50095E6A9012091EC00822F817030
:1046800020FF06C08091E80080FF06C080E008950A
:104690002091E80022FD1AC080912A06882389F023
:1046A000853089F08091EB0085FD0FC02091E400FA
:1046B0003091E50042175307F9F29150E1F684E09A
:1046C000089582E0089583E0089581E008950E94AE
:1046D000D5230E94DD23E0EEF0E0808181608083BD
:1046E000E8EDF0E080818F77808319BCA7EDB0E022
:1046F0008C918E7F8C9380818F7E8083109229068F
:1047000008950F931F93CF93DF930E94D5230E94A8
:10471000DD23C8EDD0E088818F7788838881806829
:10472000888388818F7D888319BC10922A06109215
:104730002606109228061092270600EE10E0F801D7
:1047400080818B7F808388818160888342E060E004
:1047500080E00E94E322E1EEF0E080818E7F8083A2
:10476000E2EEF0E0808181608083808188608083D8
:10477000F80180818E7F8083888180618883DF91CA
:10478000CF911F910F910895E8EDF0E080818F7E29
:104790008083E7EDF0E080818160808384E082BFE8
:1047A00081E0809329060C948123E8EDF0E080817C
:1047B0008E7F80831092E20008951092DA001092AA
:1047C000E10008951F920F920FB60F9211242F93BC
:1047D0003F934F935F936F937F938F939F93AF9389
:1047E000BF93EF93FF938091E10082FF0BC0809114
:1047F000E20082FF07C08091E1008B7F8093E1009F
:104800000E944C268091DA0080FF19C08091D80068
:1048100080FF15C08091DA008E7F8093DA0080914E
:10482000D90080FF96C080E189BD82E189BD09B4CD
:1048300000FEFDCF81E080932A060E944C208091EB
:10484000E10080FF19C08091E20080FF15C08091D7
:10485000E2008E7F8093E2008091E200806180938D
:10486000E2008091D80080628093D80019BC85E076
:1048700080932A060E945E208091E10084FF2BC075
:104880008091E20084FF27C080E189BD82E189BD7B
:1048900089B5982F917080FFFBCF8091D8008F7DD4
:1048A0008093D8008091E1008F7E8093E100809119
:1048B000E2008F7E8093E2008091E200816080932D
:1048C000E20080912606882309F449C084E08093A1
:1048D0002A060E945F208091E10083FF29C0809119
:1048E000E20083FF25C08091E100877F8093E10093
:1048F00082E080932A06109226068091E1008E7F46
:104900008093E1008091E2008E7F8093E2008091AD
:10491000E20080618093E20042E060E080E00E947B
:10492000E3228091F00088608093F0000E945D2077
:10493000FF91EF91BF91AF919F918F917F916F9177
:104940005F914F913F912F910F900FBE0F901F904D
:10495000189519BC10922A060E945A2070CF809197
:10496000E30087FD93E090932A06B3CF1F920F9246
:104970000FB60F9211242F933F934F935F936F9332
:104980007F938F939F93AF93BF93CF93DF93EF93D7
:10499000FF93D091E900DF708091EC00C82FC170C7
:1049A00080FDC0E81092E9008091F000877F80933D
:1049B000F00078940E94FA241092E9008091F000AF
:1049C00088608093F000CD2BCF70C093E900FF91F9
:1049D000EF91DF91CF91BF91AF919F918F917F9197
:1049E0006F915F914F913F912F910F900FBE0F905C
:1049F0001F9018951F93CF93DF93CDB7DEB7AA977B
:104A00000FB6F894DEBF0FBECDBF8BE296E02091CB
:104A1000F100FC012193CF01F6E083339F07B9F742
:104A20000E946B208091E80083FF1EC180912B06BD
:104A300090912C069A3008F017C1E92FF0E0ED555F
:104A4000F44D0C943E28803899F0823809F00CC15E
:104A500080912F068F70873008F006C18093E9009F
:104A60008091EB0085FB882780F91092E90006C051
:104A70008091270690912806911182609091E8001C
:104A8000977F9093E8008093F1001092F10080915D
:104A9000E8008E77E5C0882309F4D3C0823009F09E
:104AA000E3C080912D068111D6C080912F068F70B2
:104AB0002FEF280F263008F0D7C08093E90020910F
:104AC000EB0020FFC8C0933031F48091EB0080628E
:104AD0008093EB00C0C09091EB0090619093EB004D
:104AE00021E030E001C0220F8A95EAF72093EA0026
:104AF0001092EA008091EB008860EACF8111B4C087
:104B000010912D061F778091E3008078812B809390
:104B1000E3008091E800877F8093E8000E941723DC
:104B20008091E80080FFFCCF8091E3008068809353
:104B3000E30082E0111183E080932A0695C080583B
:104B4000823008F091C080912D0690912E068C3D08
:104B500023E09207A1F583E08A838AE289834FB735
:104B6000F894DE01139620E03EE051E2E32FF0E0FE
:104B700050935700E49120FF03C0E295EF703F5F30
:104B8000EF708E2F90E0EA30C0F0C7968D939D9322
:104B90002F5F243159F74FBF8091E800877F8093C2
:104BA000E8006AE270E0CE0101960E942622809120
:104BB000E8008B778093E80057C0C096E7CF6091FC
:104BC0002F0670913006AE014F5F5F4F0E9461214A
:104BD000BC01892B09F448C09091E800977F90931D
:104BE000E80089819A810E948422E1CF8038E1F532
:104BF0008091E800877F8093E8008091260680936B
:104C0000F10045CF811130C090912D06923060F5B2
:104C10008091E800877F8093E800909326060E94A9
:104C2000172380912606882311F084E005C0809127
:104C3000E30087FDFACF81E080932A060E9461207D
:104C400013C080912D06813079F481E0933009F012
:104C500080E0809328061092E9008091E800877F29
:104C60008093E8000E9417238091E80083FF0AC028
:104C70008091E800877F8093E8008091EB0080625C
:104C80008093EB00AA960FB6F894DEBF0FBECDBF9F
:104C9000DF91CF911F9108950895CF9380912A06B7
:104CA0008823A1F0C091E900CF709091EC00892F8A
:104CB000817090FD80E8C82B1092E9008091E80097
:104CC00083FD0E94FA24CF70C093E900CF9108952C
:104CD0005058BB27AA270E9480260C9458270E9470
:104CE0004A2738F00E94512720F039F49F3F19F4E9
:104CF00026F40C9447270EF4E095E7FB0C9441272B
:104D0000E92F0E94692758F3BA17620773078407CF
:104D1000950720F079F4A6F50C948B270EF4E09516
:104D20000B2EBA2FA02D0B01B90190010C01CA0165
:104D3000A0011124FF27591B99F0593F50F4503E10
:104D400068F11A16F040A22F232F342F4427585F02
:104D5000F3CF469537952795A795F0405395C9F71A
:104D60007EF41F16BA0B620B730B840BBAF09150D2
:104D7000A1F0FF0FBB1F661F771F881FC2F70EC071
:104D8000BA0F621F731F841F48F487957795679544
:104D9000B795F7959E3F08F0B0CF9395880F08F030
:104DA0009927EE0F9795879508950E94712788F0AF
:104DB0009F5798F0B92F9927B751B0F0E1F0660FDF
:104DC000771F881F991F1AF0BA95C9F714C0B13020
:104DD00091F00E948B27B1E008950C948B27672FE8
:104DE000782F8827B85F39F0B93FCCF3869577954F
:104DF0006795B395D9F73EF4909580957095619538
:104E00007F4F8F4F9F4F0895E89409C097FB3EF462
:104E100090958095709561957F4F8F4F9F4F992307
:104E2000A9F0F92F96E9BB279395F6958795779585
:104E30006795B795F111F8CFFAF4BB0F11F460FF45
:104E40001BC06F5F7F4F8F4F9F4F16C0882311F09D
:104E500096E911C0772321F09EE8872F762F05C0B1
:104E6000662371F096E8862F70E060E02AF09A954C
:104E7000660F771F881FDAF7880F9695879597F941
:104E8000089597F99F6780E870E060E008959FEFCC
:104E900080EC089500240A941616170618060906D1
:104EA000089500240A9412161306140605060895A0
:104EB000092E0394000C11F4882352F0BB0F40F428
:104EC000BF2B11F460FF04C06F5F7F4F8F4F9F4F68
:104ED000089557FD9058440F551F59F05F3F71F0EA
:104EE0004795880F97FB991F61F09F3F79F0879551
:104EF0000895121613061406551FF2CF4695F1DFDA
:104F000008C0161617061806991FF1CF8695710569
:104F1000610508940895E894BB2766277727CB019D
:104F200097F908950E94A5270C9458270E944A27B4
:104F300038F00E94512720F0952311F00C9441275E
:104F40000C94472711240C948C270E94692770F336
:104F5000959FC1F3950F50E0551F629FF001729F1E
:104F6000BB27F00DB11D639FAA27F00DB11DAA1F2D
:104F7000649F6627B00DA11D661F829F2227B00D7A
:104F8000A11D621F739FB00DA11D621F839FA00D05
:104F9000611D221F749F3327A00D611D231F849F55
:104FA000600D211D822F762F6A2F11249F575040AC
:104FB0009AF0F1F088234AF0EE0FFF1FBB1F661F27
:104FC000771F881F91505040A9F79E3F510580F0F0
:104FD0000C9441270C948C275F3FE4F3983ED4F364
:104FE000869577956795B795F795E7959F5FC1F794
:104FF000FE2B880F911D9695879597F90895991B1B
:1050000079E004C0991F961708F0961B881F7A95BF
:10501000C9F780950895AA1BBB1B51E107C0AA1FC1
:10502000BB1FA617B70710F0A61BB70B881F991F49
:105030005A95A9F780959095BC01CD010895052E4C
:1050400097FB1EF400940E94362857FD07D00E945B
:10505000442807FC03D04EF40C9436285095409514
:10506000309521953F4F4F4F5F4F08959095809514
:10507000709561957F4F8F4F9F4F0895EE0FFF1FE3
:105080000590F491E02D0994A1E21A2EAA1BBB1BF6
:10509000FD010DC0AA1FBB1FEE1FFF1FA217B30704
:1050A000E407F50720F0A21BB30BE40BF50B661F1A
:1050B000771F881F991F1A9469F7609570958095DE
:1050C00090959B01AC01BD01CF010895FB01DC016E
:1050D00002C005900D9241505040D8F70895FB0151
:1050E000DC0104C08D910190801921F441505040A1
:1050F000C8F7881B990B0895AEE0B0E0E2E8F8E24B
:105100000C945E2B0D891E8986E08C831A8309839B
:105110008FEF9FE79E838D83AE01475E5F4F6F8960
:10512000788DCE0101960E949F282F813885020F2D
:10513000131FF80110822E96E4E00C947A2BABE05A
:10514000B0E0E5EAF8E20C94502B7C013B018A01C7
:10515000FC0117821682838181FFB9C19AE0292E52
:10516000CE0101965C01F7019381F30193FD8591D6
:1051700093FF81913F01882309F446C1853239F4B8
:1051800093FD859193FF81913F01853229F4B70109
:1051900090E00E94802AE7CF912C412C512CFFE116
:1051A000F51538F08B3209F188F4803201F1833241
:1051B00021F157FC3AC020ED280F2A3040F556FE69
:1051C0001FC0929C200D1124922E06C08D3291F0AA
:1051D000803379F7689450F8F30193FD859193FF3C
:1051E00081913F018111DBCF20C0689451F8689410
:1051F00052F8F2CF689453F8EFCF689454F8ECCF9C
:10520000429C200D1124422E689455F8E5CF8E3231
:1052100029F456FCF9C0689456F8DECF8C3619F4A0
:10522000689457F8D9CF8836B9F2982F9F7D955456
:105230009330C0F08336A1F18337C1F1833509F093
:105240005BC0F801C190D1908F01692D70E056FCD0
:1052500002C06FEF7FEFC6010E946A2A4C0168947A
:1052600057F80AC00C5F1F4F2FE3298388248394CB
:10527000912C6501E89457F853FC04C048141904B4
:1052800009F018F5342C8114910431F5332009F418
:105290006ACFB70180E290E00E94802A3A94F6CF6C
:1052A000F801808189830E5F1F4FE0CFF801C19024
:1052B000D1908F01692D70E056FC02C06FEF7FEF37
:1052C000C6010E94752A4C01D5CFB70180E290E05B
:1052D0000E94802A4A94D2CFF60157FC859157FE4E
:1052E00081916F01B70190E00E94802A31103A94B9
:1052F000F1E08F1A9108C7CF843619F0893609F08A
:1053000074C0F80157FE6AC06191719181919191C9
:105310008F01252D2F76D22E97FF09C0909580956D
:10532000709561957F4F8F4F9F4F6894D7F82AE013
:1053300030E0A5010E94B02AC82ECA188C2C5D2C22
:10534000D6FE0CC0E89450F8C91440F4D4FE05C051
:10535000D2FC03C0FD2DFE7E5F2E892C54FE8FC033
:10536000FE01EC0DF11D8081803309F081C0252DF7
:10537000297E522E852D8870382E53FC8FC050FE0A
:1053800089C09C2C841418F44C0C942C981854FE4E
:105390008BC0B70180E390E00E94802A52FE09C0D2
:1053A00088E790E051FE02C088E590E0B7010E94D6
:1053B000802AC91408F484C0CA94D12C9FEFC91A5A
:1053C000D90ACA0CDB1CF60182916F01B70190E08B
:1053D0000E94802AAC14BD04B1F758CF619171913D
:1053E000072E000C880B990B93CFD52CE894D4F89A
:1053F0002AE030E0853739F1952D997FD92E8F3607
:1054000001F148F48835A9F0F701868197812B9640
:10541000E2E10C946C2B803749F08837A9F7D4FE71
:1054200002C06894D2F820E130E00DC06894D4F84E
:10543000F6CF54FE03C0E92FE660DE2E20E132E015
:1054400002C028E030E0F801D7FE0DC061917191F3
:10545000819191918F01A5010E94B02AC82ECA188E
:10546000E894D7F86BCF6191719190E080E0F2CF32
:1054700052FC02C083947ECF839483947BCF852D8E
:10548000867809F477CFF6CFB70180E290E00E94EA
:10549000802A83948414C0F3312C79CF342C3818AB
:1054A000841408F474CFF8CF852D867809F481CF61
:1054B0008BE251FE80E257FC8DE2B70190E077CF9E
:1054C000B70180E390E00E94802A9A9472CF8FEF18
:1054D0009FEF9DCFFC010590615070400110D8F7FF
:1054E000809590958E0F9F1F0895FC01615070402C
:1054F00001900110D8F7809590958E0F9F1F089509
:105500000F931F93CF93DF93182F092FEB018B81FC
:1055100081FD09C01FEF0FEF812F902FDF91CF91F9
:105520001F910F91089582FF14C02E813F818C81BD
:105530009D81281739073CF4E881F981CF01019654
:105540009983888310838E819F8101969F838E83A8
:10555000E3CFE885F985812F0995892BA1F3DACF6F
:10556000FA01AA27283051F1203181F1E8946F9394
:105570006E7F6E5F7F4F8F4F9F4FAF4FB1E03ED03A
:10558000B4E03CD0670F781F891F9A1FA11D680FD8
:10559000791F8A1F911DA11D6A0F711D811D911D0B
:1055A000A11D20D009F468943F912AE0269F112480
:1055B0003019305D3193DEF6CF010895462F4770E4
:1055C000405D4193B3E00FD0C9F7F6CF462F4F703F
:1055D000405D4A3318F0495D31FD4052419302D09D
:1055E000A9F7EACFB4E0A695979587957795679543
:1055F000BA95C9F700976105710508959B01AC0143
:105600000A2E06945795479537952795BA95C9F769
:10561000620F731F841F951FA01D0895F999FECF77
:1056200092BD81BDF89A992780B50895A8E1B0E0B0
:1056300042E050E00C94422B262FF999FECF92BD08
:1056400081BDF89A019700B4021639F01FBA20BD47
:105650000FB6F894FA9AF99A0FBE08950396272F79
:105660000E941D2B0E941C2B252F0E941D2B242FD6
:105670000C941D2B0196272F0E941D2B0C941C2B84
:10568000DC01CB01FC01F999FECF06C0F2BDE1BD02
:10569000F89A319600B40D9241505040B8F70895F1
:1056A0002F923F924F925F926F927F928F929F9232
:1056B000AF92BF92CF92DF92EF92FF920F931F9320
:1056C000CF93DF93CDB7DEB7CA1BDB0B0FB6F894D1
:1056D000DEBF0FBECDBF09942A88398848885F8411
:1056E0006E847D848C849B84AA84B984C884DF8082
:1056F000EE80FD800C811B81AA81B981CE0FD11D66
:105700000FB6F894DEBF0FBECDBFED010895F8943B
:10571000FFCF70157015C715C71513169D159D156C
:105720009D152F16BB16CA16CA169E179E17A717C9
:10573000A717A917A717A717A7179E179E17AE1782
:10574000A717A717AE1723254B2534264B2534263C
:0A5750007E259F253426F62502264B
:10575A00050119030000000117031903041A0301C4
:10576A0017031803000000041E03FFFF5A0F6A0FF5
:10577A007A0F000000000000000000000000000096
:10578A006A025A0F6A0F7A0F000000000000000038
:10579A000000000000005E025A0F6A0F7A0F000034
:1057AA000000000000000000000000005A025A0F2A
:1057BA006A0F7A0F000000000000000000000000DD
:1057CA00000056025A0F6A0F7A0F0000000000000C
:1057DA00000000000000000052025A0F6A0F7A0F00
:1057EA0000000000000000000000000000004E025F
:1057FA005A0F6A0F7A0F0000000000000000000034
:10580A000000000046025A0F6A0F7A0F00000000DB
:10581A000000000000000000000062025A0F6A0F38
:10582A007A0F0000000000000000000000000000E5
:10583A0042025A0F6A0F7A0F0000000000000000AF
:10584A0000000000000066025A0F6A0F7A0F00007B
:10585A000000000000000000000000003E025A0F95
:10586A006A0F7A0F0000000000000000000000002C
:10587A0000004A025A0F6A0F7A0F00000000000067
:10588A0000000000000000003A022C002800E60098
:10589A00E200E10039002B0029003500350237000B
:1058AA00370236003602330033022D002D02310052
:1058BA0031022E002E023400340238003802002150
:1058CA00007F220003FFCB03CD1F0C20D01F08202E
:1058DA00042001F4F5F6F73133946697C600000008
:1058EA00003E3E2530336400E200E900EA00B500DC
:1058FA00B600B700CD008301CC008A019201940161
:10590A002102230224022502260227022A02B300C8
:10591A00B4006F0070008182830008101818100804
:10592A0000E200E900EA00B500B600B700CD008346
:10593A0001CC008A0192019401210223022402254A
:10594A0002260227022A02B300B4006F0070008107
:02595A00828346
:00000001FF
