:100000000C9496040C94DD040C94DD040C94731190
:100010000C94DD040C94DD040C94DD040C94DD04DC
:100020000C94DD040C94DD040C94D9230C94AD24C1
:100030000C94FA1E0C94DD040C94DD040C94DD0485
:100040000C94DD040C94DD040C94DD040C94DD04AC
:100050000C94DD040C946D1F0C94DD040C94DD04F1
:100060000C94DD040C94DD040C94DD040C94DD048C
:100070000C94DD040C94DD040C94DD040C94DD047C
:100080000C94DD040C94DD040C94DD040C94DD046C
:100090000C94DD040C94DD040C94DD040C94DD045C
:1000A0000C94DD040C94DD040C94DD0420949596EE
:1000B0002020B4B5B62020D4D5D62000209798991A
:1000C0002020B7B8B92020D7D8D92000209A9B9CEF
:1000D0002020BABBBC2020DADBDC200052656E6534
:1000E00020482E532E008081828384A0A1A2A3A445
:1000F000C0C1C2C3C400ABAC00CFD000C600CA00B0
:10010000C800A9AA00B1B2008B8C00CDCE00C500FA
:10011000C900C700CB00898A00919200A7A800AF50
:10012000B000C600CA00C800A5A600ADAE00878812
:10013000008F9000C500C900C700CB008586008DE8
:100140008E00202020202000065703570457055713
:1001500013001C00085704001200080018000C00CF
:10016000E000095714000D000E001B000000000005
:100170000000E300295D2C002A000F001500060096
:100180000A0009004C001600110017000B000700C0
:10019000E4001D0019001A00100005000000000016
:1001A00000000A572A5D28005F00600061002F00F0
:1001B0002F0226025C005D005E0021022402200264
:1001C00059005A005B00620035022900000000005F
:1001D0000000E30001002C002A0000570757300000
:1001E000300227024C0001574F00520051005000CE
:1001F000E40002571E0223022502650000000000F1
:1002000000000A572A5D28003A003B003C003D00F0
:100210003E003F00400041004200430044004500D2
:10022000005C00000000B300B200460000000000C7
:100230000000E300295D2C00E60079007A007D00D3
:100240007C007B00BD00BE00A900AA00A800AE0093
:10025000000000000000AD00AB00AC00000000009A
:1002600000000A570100280000AE00AF00DA02814A
:10027000FFD9F1DB20A4A62EAF00A0C000A1C800CA
:10028000AED580A81FD300408D14200000000000D0
:1002900000003E5B4F5B3E003E6B4F6B3E001C3EE2
:1002A0007C3E1C00183C7E3C18001C577D571C00EF
:1002B0001C5E7F5E1C0000183C180000FFE7C3E7CF
:1002C000FF00001824180000FFE7DBE7FF003048BC
:1002D0003A060E00262979292600407F05050700E9
:1002E000407F05253F005A3CE73C5A007F3E1C1CDE
:1002F0000800081C1C3E7F0014227F2214005F5F50
:10030000005F5F0006097F017F00006689956A0033
:1003100060606060600094A2FFA2940008047E0404
:10032000080010207E20100008082A1C0800081C65
:100330002A0808001E10101010000C1E0C1E0C00C5
:1003400030383E383000060E3E0E06000000000039
:10035000000000005F000000000700070000147F9D
:10036000147F1400242A7F2A1200231308646200D9
:10037000364956205000000807030000001C2241A7
:1003800000000041221C00002A1C7F1C2A000808D3
:100390003E080800008070300000080808080800C7
:1003A0000000606000002010080402003E51494532
:1003B0003E0000427F400000724949494600214109
:1003C000494D33001814127F100027454545390068
:1003D0003C4A494931004121110907003649494940
:1003E0003600464949291E00000014000000004064
:1003F00034000000000814224100141414141400E6
:100400000041221408000201590906003E415D59CD
:100410004E007C1211127C007F49494936003E4152
:10042000414122007F4141413E007F49494941000D
:100430007F09090901003E41415173007F08080806
:100440007F0000417F4100002040413F01007F08C4
:10045000142241007F40404040007F021C027F0088
:100460007F0408107F003E4141413E007F09090999
:1004700006003E4151215E007F09192946002649A8
:100480004949320003017F0103003F4040403F00E3
:100490001F2040201F003F4038403F0063140814D5
:1004A00063000304780403006159494D4300007F51
:1004B00041414100020408102000004141417F00F9
:1004C00004020102040040404040400000030708CD
:1004D00000002054547840007F28444438003844B9
:1004E00044442800384444287F00385454541800A9
:1004F00000087E0902001824241C78007F080404E8
:10050000780000447D4000002040403D00007F1006
:100510002844000000417F4000007C0478047800FB
:100520007C08040478003844444438007C182424AF
:100530001800182424187C007C080404080048547F
:100540005454240004043F4424003C4040207C00D8
:100550001C2040201C003C4030403C004428102817
:1005600044004C9090907C004464544C440000083B
:10057000364100000000770000000041360800000E
:100580000201020402003C2623263C00F078F80811
:10059000C42454141414143414143494941494244B
:1005A000C408F00000808000000000F8042252E23D
:1005B000424242E2522222224282020222220204C9
:1005C000F80000F804020282422242820202028201
:1005D0004222122242820204F80000F8FCDEAE1E23
:1005E000BEBEBE1EAEDEDEDEBE7EFEFEDEDEFEFC7D
:1005F000F80000F8FCFEFE7EBEDEBE7EFEFE0000C1
:1006000000000000808040402020101008081010DA
:100610002020404080808080C0C0E0E0F0F0F8F80A
:10062000F0F0E0E0C0C080808080404020201010CA
:1006300008081010202040408080808040C060A0CA
:1006400050B058A850B060A040C080803C9EFF00D1
:10065000FF2000080080021000F00F00004162043B
:10066000070447024160000FF000001F20444A4782
:10067000424242474A444040404041424444402074
:100680001F00001F20404140404040404140414148
:100690004F4848484F4141201F00001F3F7B75785D
:1006A0007D7D7D78757B7F7F7F7F7E7D7B7B7F3FC0
:1006B0001F00001F3F7F7E7F7F7F7F7F7E7F000048
:1006C0000000000088885D5D3E3E7C7CF8F87C7C04
:1006D0003E3E5D5D888888885555232347478F8F28
:1006E00047472323555588888888D5D5E2E2C4C476
:1006F0008888C4C4E2E2D5D5888888885DD56BB681
:100700006DD6ADDA6DD66BB65DD588880703073C2C
:1007100028192B2A3A0A0A0A0A0B0A0C18282B3A1B
:100720000A1B2A2A3B080402010004F80000F8040E
:10073000201F00001F20FCF80000F8043F1F0000ED
:100740001F2004F80000F8FC201F00001F3FFCF8E9
:100750000000F8FC3F1F00001F3FFE7EBEDEEEDE05
:10076000BE7EFEFCF8007E7E70777777707E7E3FDF
:100770001F0000000000000000000000000000005A
:100780000000000000000101020204040808040443
:100790000202010100000000010102020404080835
:1007A0000404020201010000000001010303070725
:1007B0000F0F0707030301010000000001010302FE
:1007C00005060D0A050603020101000004033000BE
:1007D0000000480343006F0072006E0065002000B7
:1007E0004B006500790062006F00610072006400D8
:1007F00020005200650076002E0031002000280005
:100800004C00650067006100630079002000530020
:1008100070006C006900740029000000100366007D
:100820006F006F007300740061006E00000004032D
:10083000090409023B00020100A0FA0904000001BA
:100840000301010009211101000122400007058177
:100850000308000A09040100010300000009211136
:10086000010001226D000705820320000A12011019
:1008700001000000085346010001000102030105C8
:10088000010980A101850319012AB700150126B7C6
:1008900000950175108100C0050C0901A1018504B6
:1008A00019012AA002150126A002950175108100E8
:1008B000C005010906A1018505050719E029E7150D
:1008C0000025019508750181020507190029EF151A
:1008D00000250195F075018102050819012905958A
:1008E0000575019102950175039101C00501090685
:1008F000A101050719E029E71500250195087501F3
:1009000081029501750881010507190029FF15006D
:1009100026FF00950675088100050819012905952F
:100920000575019102950175039101C011241FBE47
:10093000CFEFDAE0DEBFCDBF04B603FE27C0809163
:10094000070690910806A0910906B0910A06873023
:10095000904BA740B04BD1F41092070610920806B6
:100960001092090610920A0614BE84B7877F84BFCE
:100970000FB6F894A895809160008861809360001C
:10098000109260000FBEE0E0F8E3099512E0A0E0ED
:10099000B1E0E8E4F7E502C005900D92A23DB10791
:1009A000D9F726E0A2EDB2E001C01D92A730B20750
:1009B000E1F70E9419210C947E2B0C940000CF9338
:1009C000DF93A5E5B2E049E552E0C1E0D0E08D91CA
:1009D000E82FE295EF70F0E061A18F709E0101C0F9
:1009E000220F8A95EAF7922F9095962391A382A1E0
:1009F000822B82A34A175B0751F7DF91CF910895AD
:100A0000089508950C940105209A559A289A5D9AA4
:100A100008955D9808955D9A089528980895289AF4
:100A200008950E94C9060E94DF04AFE4B2E061E0CD
:100A300070E08D91E82FE295EF70F0E041A18F70AA
:100A40009B0101C0220F8A95EAF7922F909594237B
:100A500091A382A1822B82A382E0A535B80749F732
:100A60000E940405EAEDF2E0A2EDB2E011921D92BF
:100A700082E0E23EF807D1F70E94A8068093E202E6
:100A80000C9441098F929F92AF92BF92CF92DF92C6
:100A9000EF92FF920F931F93CF93DF938091010109
:100AA000C4E0D0E0882311F0D0E0C0E085E5C82E96
:100AB00082E0D82EAE014E525D4F7A018A01912C10
:100AC000AA24A394B12C25E0822EF60181916F0116
:100AD000E82FE295EF70F0E021A18F70A50102C030
:100AE000440F551F8A95E2F7CA01922F982B91A3C4
:100AF00092A18095892382A350EA5A95F1F7EFE4F9
:100B0000F2E020E050E040E03191A32FA295AF70D9
:100B1000B0E090968C9190E03F7002C095958795DB
:100B20003A95E2F780FD3CC0C501042E01C0880F54
:100B30000A94EAF7282B4F5F5F4F4630510521F7A3
:100B4000F8018081821729F0208380920001992486
:100B500093940E94DF040F5F1F4FF9E5CF16F2E078
:100B6000DF0609F0B2CF80910001882359F081504F
:100B7000809300018823B1F08FE99FE00197F1F79E
:100B800000C00000892DDF91CF911F910F91FF9040
:100B9000EF90DF90CF90BF90AF909F908F9008958F
:100BA00080E0C8CFC652DD4F84E0F70191917F010C
:100BB00099938150D1F7E6CF0F931F93CF93DF9393
:100BC0002091010110E000E0222311F004E010E088
:100BD0000E94E406EC01009739F0029711F40E949C
:100BE0000D05C1E0D0E011C00E940F05F801E652EA
:100BF000FD4F8091EE029091EF02A091F002B09132
:100C0000F10280839183A283B383CE01DF91CF91E0
:100C10001F910F9108950E94420590910101E4E017
:100C2000F0E0992311F0F0E0E0E0E652FD4F30E013
:100C300020E040E0D901A251BD4F5C919191591340
:100C400041E09C932F5F3F4F2430310599F79091FD
:100C5000E702940F9093E70208951F93CF93DF93D9
:100C60008091E202882309F44BC00E944205182FAC
:100C700080910101C4E0D0E0882311F0D0E0C0E011
:100C8000C652DD4F44E050E0BE018AEE92E00E9481
:100C90006628488159816A817B814093EA0250939A
:100CA000EB026093EC027093ED020E94DC05892B4D
:100CB00011F10E9409058091E3028F5F8093E302A6
:100CC000863070F080910101F0E0E0E0882311F0BF
:100CD000E4E0F0E0E652FD4F1082118212821382AE
:100CE0000E944909C1E0111101C0C0E08C2FDF91C1
:100CF000CF911F9108950E940B051092E302F0CF4F
:100D00000E940B06C1E0811101C0C0E08091010189
:100D1000811114C090E080E086529D4F4091EA021C
:100D20005091EB026091EC027091ED02FC01408366
:100D30005183628373830E944909D8CF84E090E095
:100D4000EBCFE82FF0E0E652FD4F80810895089543
:100D50008091E402811111C08091D800806180935C
:100D6000D8008AE18A95F1F700C09091D900892FC7
:100D7000817090FF82E08093E40281E09091E40230
:100D8000913009F080E008950E94A80691E089273B
:100D900008950E94C406809301010E94A80688233A
:100DA00021F00E94D806789408950E94DE06FBCFB9
:100DB00063E070E082E091E00C94201163E070E069
:100DC00082E091E00C9429110F931F93CF93DF934E
:100DD0008C0190911B0180911A01D0E0C0E098171E
:100DE00059F082E090E00E940212EC01892B21F47C
:100DF00080911A0180931B018091E5029091E60297
:100E0000082B192B90E080E0012B11F081E090E09D
:100E10000E940212892B71F48091E70280931A01DB
:100E20001092E6021092E502CE01DF91CF911F9160
:100E30000F91089581E090E09093E6028093E5029F
:100E4000F3CF0C94000583E0089560E082E491E024
:100E50000C94D10DCF93DF93D82FD878C82FC474BA
:100E600060E0DD2329F18FE391E00E94D10D60E085
:100E700088E391E0CC2329F160E08AE391E00E94CD
:100E8000D10D60E081E391E00E94D10D60E0DD23AF
:100E900011F18BE291E00E94D10D60E086E291E0D9
:100EA0000E94D10DC11122C060E08CE191E021C00F
:100EB0008CE391E00E94D10DC11109C060E084E390
:100EC00091E00E94D10D60E08EE291E0DDCF60E024
:100ED00086E391E0D4CF88E291E00E94D10D60E0FA
:100EE000CC2359F084E291E00E94D10D60E08FE1C3
:100EF00091E0DF91CF910C94D10D82E291E00E94BC
:100F0000D10DD2CFCF93DF93D82FD171C82FC2721A
:100F100060E0DD2329F189E191E00E94D10D60E0DC
:100F200082E191E0CC2329F160E084E191E00E942C
:100F3000D10D60E08BE091E00E94D10D60E0DD23F7
:100F400011F185E091E00E94D10D60E080E091E038
:100F50000E94D10DC11122C060E086EF90E021C057
:100F600086E191E00E94D10DC11109C060E08EE0E0
:100F700091E00E94D10D60E088E091E0DDCF60E07B
:100F800080E191E0D4CF82E091E00E94D10D60E059
:100F9000CC2359F08EEF90E00E94D10D60E089EFF4
:100FA00090E0DF91CF910C94D10D8CEF90E00E94F6
:100FB000D10DD2CF60E086EE90E00E94D10D60E0CE
:100FC0008CED90E00C94D10D81E00E940B1B8823E6
:100FD00029F060E08CEC90E00C94D10D82E00E944E
:100FE0000B1B60E0882319F08CEB90E0F5CF8CEAC6
:100FF00090E0F2CFCF930E94DA070E9425070E946B
:10100000E4070E9425070E94B31CC82F0E94DC1C25
:101010008C2B0E942A070E94B31CC82F0E94DC1C44
:101020008C2BCF910C948207CF930E94DA070E94F9
:1010300025070E94E4070E9425070E94B31CC82FC1
:101040000E94DC1C8C2B0E942A070E94B31CC82F14
:101050000E94DC1C8C2B0E9482070E9425070E94A4
:10106000830B1F928F938DE592E09F938F9384EE75
:1010700093E09F938F930E9473280F900F900F908F
:101080000F900F900F9060E084EE93E0CF910C945E
:10109000B50D6091F2027091F3028091F40290918B
:1010A000F5020E94511F613472448F40910510F087
:1010B0000C94F70E0E94E30D8091E20281110C94D2
:1010C000FA070C9414080F931F93CF93DF938C01AE
:1010D000EB018A81882351F00E94361F6093F2024F
:1010E0007093F3028093F4029093F50209328DE538
:1010F000180751F00A321D4579F0C1E08C2FDF91BD
:10110000CF911F910F910895CA8181E0CC2339F0CE
:101110000E942B1BC0E0F2CFCA8182E0F7CF0E9471
:101120004C1BECCFCF93DF939C013A9521153F41A7
:1011300068F5EC01CC27D170DC01AA27B270AC01B4
:10114000442754709C012227387094FF11C080E11D
:10115000CD2B09F480E0AB2B09F08062452B09F020
:101160008064232B09F08068FB01DF91CF91099403
:1011700081E0CD2B09F480E0AB2B09F08260452B98
:1011800009F08460232B81F38860EECFDF91CF914B
:101190000895CF93DF93EC01805E9109089720F0CA
:1011A00066E677E1209711F46FE175E1CE010E94C8
:1011B00092088C2FDF91CF910C94B114CF93DF93D1
:1011C000EC010E94F714CE01805E9109089720F08F
:1011D0006DE677E1209711F466E275E1CE01DF91CB
:1011E000CF910C94920881E008950C9463080895BF
:1011F0000C94F7081F93CF93DF9300D000D00F9289
:10120000CDB7DEB749835A836B8330913A03898126
:101210009A8131111DC06623B9F02223A9F00E94E2
:101220001E1C182F682F89819A810E94C71B698113
:101230007A81812F0F900F900F900F900F90DF9178
:10124000CF911F910C94A9090E94F51B182FEFCF85
:101250000E941E1C69817A81EDCFFC01262F4081FE
:1012600051816281738184810C94FA08CF93DF935A
:10127000EC0160E00E942D09BE01DF91CF910C943A
:10128000F8080E94581D811102C00E94E81D0C94AC
:1012900021070E9466100E94050C0C940205089517
:1012A0000E9486170E944F092FEF84E39CE0215093
:1012B00080409040E1F700C000000C94911F0F9314
:1012C0001F93CF93DF93EC0161E00E942D098C0105
:1012D0008A81882319F0C8010E94AF0BBE01C801A2
:1012E0000E94C60FBE01C8010E94F5088823C9F0FC
:1012F000BE01C8010E940C10882399F08A818823BE
:1013000039F001158CE5180751F00E3D1C4579F0B8
:10131000CE01DF91CF911F910F910C94F3080E94A1
:10132000500980E0DF91CF911F910F9108950E94A5
:10133000E81DF7CF08950C949A0981E008950C9464
:101340009D09CF93C82F0E949B098C2FCF910C949D
:101350009F09972F70E026E0929F600D711D112468
:10136000FB0190E3899FE00DF11D1124EE0FFF1F9B
:10137000E85BFE4F859194910895CF93DF930E948F
:10138000A9090E94A90AEC01811522E59207E8F556
:10139000811531E5930708F0ACC0883E910510F542
:1013A000803E910570F5883A910570F4853A910573
:1013B00008F078C08130910521F1009711F1049770
:1013C00000F5D0E0C0E01DC08F3B9105D0F7C85AB2
:1013D000D0E0CC0FDD1FC959DD4F0990D881C02D59
:1013E000D4640FC0811540E5940708F066C0C115AC
:1013F00080E4D80708F05EC0CE019A9581159F4120
:1014000000F7CE01DF91CF910895811536E593075E
:1014100018F5811545E5940708F083C0C11584E5EA
:10142000D80708F079C09C2F969596959E01237059
:101430003327C115D34508F461C0C1E0D0E002C034
:10144000CC0FDD1F2A95E2F730E2939FC0011124F3
:10145000C82BD92BDA68D5CFC1158AE5D80778F41F
:10146000C11599E5D90708F066C0C11528E5D2076E
:1014700008F4A7CFDC2FCC27C06FD06AC2CFCE0133
:1014800090568115904208F09CCF8D2F8F710E944D
:10149000400B90E0982F882788279F719C012C2B68
:1014A000E90147C0C55AD0E0CB56DD4FC881D0E036
:1014B000D064A7CFDF70D06AA4CFE4E0969587957B
:1014C000EA95E1F783702C2F26952695237040E24C
:1014D000249F90011124382B8C2F8370C1E0D0E021
:1014E00002C0CC0FDD1F8A95E2F7C22BD32BDC683C
:1014F00088CFD82FCC27C16FD06A83CFC1E0D0E08E
:1015000002C0CC0FDD1F2A95E2F720E2929FC001B6
:101510001124C82BD92BEBCFDC2FCC27C46FD06A7A
:1015200070CF0E94400BC82FD0E0DC2FCC27CC27F7
:10153000DF71D06266CF8C2F8F700E94400B34E039
:10154000D695C7953A95E1F7CF709C2FEC01D069FD
:1015500058CF82389105B1F1B0F48133910509F487
:1015600075C048F48932910509F469C08A32910541
:1015700009F473C008958533910509F459C089337E
:10158000910501F10895833E9105A9F138F4803E5B
:101590009105F9F0823E910549F10895863E910545
:1015A000A9F1873E9105C9F1843E910519F5209175
:1015B000F90521FF1FC08091F80584FD14C087EE56
:1015C00090E008952091F8052370A1F080EE90E05E
:1015D00008952091F80520FD47C03091F90530FFAE
:1015E00009C024FF44C090E080E004C02091F805C9
:1015F00022FDF7CF08952091F80522FD3BC03091E0
:10160000F90530FDE3CF24FFF5CFEDCF2091F805AC
:1016100023FFF0CF24FDE7CFD2CF2091F80523FDA3
:101620002CC03091F90531FFEECF84EE90E00895A3
:101630002091F80525FFDECF89E290E00895209102
:10164000F80525FFD7CF85E390E008952091F805B0
:1016500026FFD0CF8AE290E008952091F80526FF7A
:10166000C9CF81E390E0089589E390E0089583EE87
:1016700090E0089582EE90E0089586EE90E008955F
:101680009091F80592FF06C0282F28712830F9F4B0
:10169000877F846093FF06C0282F28712831F1F4DA
:1016A000877E84612091F90520FF06C0382F3871AC
:1016B0003830D9F4877F816021FF06C0282F287138
:1016C0002831D1F4877E816194FD877E0895282F8B
:1016D00024712430F9F68B7F8860DCCF282F2471A9
:1016E000243101F78B7E8861DDCF382F31713130A5
:1016F00019F78E7F8860E0CF282F2171213121F7E3
:101700008E7E8861E1CF8091F80208959C01305669
:10171000211540E2340748F0305E211540E13407DE
:1017200020F0315C21153F4178F499279C01245029
:1017300031092432310578F02752310981E02E3009
:10174000310550F080E008958F3F910579F370F3F3
:1017500090E080E0EBCF81E008950C94860BCF926F
:10176000DF92EF92FF92CF93DF930E94AD0B88231D
:1017700009F444C08091F6029091F7020097C1F1FC
:101780000E94421F6091F802C62FD0E09C0150E0F9
:1017900040E060E67AEE80E090E00E941628CA0100
:1017A000B90125E030E040E050E00E94162830E02A
:1017B0002C1B3D0BB901330F880B990B0E94FD26A2
:1017C00027EA39E747E45DE30E9489276B017C0142
:1017D000BE01DD0F880B990B0E94FD269B01AC0119
:1017E000C701B6010E9460260E94CC266093F802D1
:1017F0000E942A1F9093F7028093F602DF91CF9107
:10180000FF90EF90DF90CF900895CF92DF92EF920C
:10181000FF92CF93DF938091F6029091F7020E949E
:10182000421F893E934060F16091F802C62FD0E0DC
:10183000662777276C1B7D0B072E000C880B990BF6
:101840000E94FD2627EA39E747E45DE30E948927E5
:101850006B017C01BE01DD0F880B990B0E94FD26F8
:101860009B01AC01C701B6010E9460260E94CC26F4
:101870006093F8020E942A1F9093F7028093F60269
:10188000DF91CF91FF90EF90DF90CF900895CF92AE
:10189000DF92EF92FF920F931F93CF93DF936C0130
:1018A0007B0164E670E088E70E948612EC0197FDF8
:1018B00012C010E000E0F601E00FF11F849164E631
:1018C00070E00E94E212EC01892B29F40F5F1F4F98
:1018D0000E151F0581F70E946513CE01DF91CF9190
:1018E0001F910F91FF90EF90DF90CF900895EEEE53
:1018F000F3E080E092E0DF019C011D922150304036
:10190000E1F7F093F305E093F2058FEF9FEF9093EB
:1019100025038093240308950E94230780932003C6
:1019200080FD0FC080E880931F030E9480126DE04D
:1019300070E08FE792E00E94470C892B21F080E055
:10194000089580E2F0CF8091200363E070E081FD94
:1019500026C08CE792E00E94470C892B81F76DE04E
:1019600070E08CE692E00E94470C892B41F70E94C0
:10197000361F605A75418F4F9F4F6093EE057093ED
:10198000EF058093F0059093F1050E94770C81E0BC
:10199000809323038093220310922103089589E703
:1019A00092E0D9CF20911F0336E0839FC00111241C
:1019B000629F800D911D1124811522E0920714F081
:1019C00090E080E082519C4F9093F3058093F20564
:1019D00008952091F2053091F305285E334040913F
:1019E0001F03642F70E0C9010E940228481B463083
:1019F00010F4240F311D211582E0380710F030E07B
:101A000020E022513C4F3093F3052093F2050895D6
:101A10001F93CF93DF93162F8A3031F481E0DF914B
:101A2000CF911F910C94820D8D3011F480E0F7CF8F
:101A3000C091F205D091F30596E0FE01A9EFB2E066
:101A400001900D929A95E1F7803EC8F086E0FE0184
:101A500011928A95E9F711111EC0C091F205D0913B
:101A6000F30546E050E0BE0189EF92E00E9466284F
:101A7000892BF9F4DF91CF911F910C94E90CF6E0DA
:101A80008F9FB001112464577D4F46E050E0CE0196
:101A90000E945D28E0CFE091F205F091F3059F01EF
:101AA0002A5F3F4F2E173F07C1F2808180958193B7
:101AB000F9CFCE5ED340CE0125E0969587952A9545
:101AC000E1F721E030E0A90102C0440F551F8A95DB
:101AD000E2F7CA014091240350912503842B952BF2
:101AE000259645E0D695C7954A95E1F702C0220FA5
:101AF000331FCA95E2F7822B932B90932503809393
:101B00002403B8CFCF93382FE091F205F091F3057D
:101B1000EE5EF34020911F03622F70E0CF010E9420
:101B20000228281B822F332369F066E00E94F627E3
:101B3000C82FC15010F4CF91089560E080E20E9458
:101B4000080DF7CF9F01280F311D2115324018F0E5
:101B500080E0F0E0E0E08E0F9F2F911D82519C4FBE
:101B60009093F3058093F205E6CFFF920F931F93B6
:101B7000CF93DF93EC01F62EFC0101900020E9F7F2
:101B80008F0101501109C017D10730F0DF91CF91BB
:101B90001F910F91FF9008956F2D89910E94080D5C
:101BA000F2CF1F93CF93DF93EC01162FFE018491A8
:101BB000811104C0DF91CF911F910895612F0E9480
:101BC000080D2196F3CF0E94361F605A75418F4F42
:101BD0009F4F6093EE057093EF058093F00590930F
:101BE000F10580912203811108C062E070E08AE66D
:101BF00092E00E94470C892B19F0809122030895EE
:101C000081E080932203F9CF2F923F925F926F92EF
:101C10007F928F929F92AF92BF92CF92DF92EF927C
:101C2000FF920F931F93CF93DF9320912403309162
:101C300025032115310531F08091210361E070E029
:101C4000882399F0DF91CF911F910F91FF90EF9032
:101C5000DF90CF90BF90AF909F908F907F906F90CC
:101C60005F903F902F9008958F5F082F10E01B0129
:101C7000082E02C0220C331C0A94E2F7A90142216B
:101C80005321452B89F39091200390FD44C0829508
:101C9000880F807680933C0298013695279536957B
:101CA000279520933F02815E80933D02109240026F
:101CB00024E630E047E050E06AE372E088E70E9403
:101CC0001113892B09F0BECFA80125E0440F551F41
:101CD0002A95E1F78091200380FD2BC042515C4F93
:101CE00004E610E020E230E060E488E70E94381368
:101CF000892B09F0A7CF0E94E30DE101C095D09593
:101D00008091240390912503C823D923D0932503E0
:101D1000C093240397CF880F880F880F80933C02CD
:101D200010923F02895F80933D0283E080934002DE
:101D3000BFCFEFEFF2E080E2DF011D928A95E9F775
:101D4000ACE9B2E008E912E080EAC82E82E0D82EC1
:101D500097E0592E772473948D91E80129918E0193
:101D6000240F352F311D22513C4FE82FF0E0E15078
:101D7000FD4F90E080E0652C681A872C082E01C08A
:101D8000880C0A94EAF77901A12CE701B9907E0149
:101D9000B820662D6A196770962E062E000C770BF8
:101DA000DB2D01C0DD0F9A94EAF7719561957109F9
:101DB0006770772701C0B6946A95EAF7BD2A6081FB
:101DC000962E9B289082A39468E0A612DECF0196FF
:101DD00031968830910579F6CA16DB0609F0BCCF3A
:101DE00004E610E020E230E04FEF52E07DCF80913A
:101DF0002203882369F062E070E088E692E00E94A6
:101E0000470C892B19F08091220308951092220328
:101E10008091220391E0892708950F931F93809169
:101E20002303882301F160E080E00E94D20C0E942D
:101E300049080E94040E809122038823A1F00E9489
:101E4000361F0091EE051091EF052091F0053091BD
:101E5000F105601B710B820B930B97FD04C01F9162
:101E60000F910C94F70E1F910F910895CF93DF936C
:101E7000EC0181E0898B8F810E94B61C88850E94CD
:101E8000C91C0E94F51CEA81FB81309739F06C89EE
:101E90007D89CE010696DF91CF910994DF91CF9194
:101EA0000895CF93DF93EC018881823039F4FB01F0
:101EB000828193810E94C90881E08B87DF91CF9155
:101EC0000895FC018081813029F4FB01808191819A
:101ED0000C94C908823021F4FB0182819381F8CFF0
:101EE0000895FC018081813029F4FB01808191817A
:101EF0000C94DE08823021F4FB0182819381F8CFBB
:101F00000895EF92FF920F931F93CF93DF93EC010D
:101F10008A85811134C0EB80FC8087E5F81A26E1C0
:101F20002E9DC0012F9D900D1124DC01A45EBE4F9B
:101F30001496ED91FC911597309731F054966D9170
:101F40007C918E5D9E4F099586E18E9D80018F9DCF
:101F5000100D1124045E1E4FF80187810E94BC1CE5
:101F6000F80180850E94CF1C0E94F51C18821986FA
:101F70001B861E821D821092270310922603DF917A
:101F8000CF911F910F91FF90EF900895DF92EF9204
:101F9000FF920F931F93CF93DF937C01FB0182810C
:101FA000882391F0809141028F3F71F0CCE1D1E024
:101FB00010E000E0DD24D39480914102082E000C53
:101FC000990B8017910744F4DF91CF911F910F91E6
:101FD000FF90EF90DF9008958E818823C9F0898566
:101FE0009A858E159F0539F48091260390912703D9
:101FF0008E159F0569F0DF86FC86EB868989811145
:1020000003C0CE010E94360FCE0106960E94810FBA
:102010000F5F1F4F6696D0CFEF92FF920F931F93E3
:10202000CF93DF937C0197558F3F910509F0D8F549
:1020300020914102022E000C330B2817390714F4AB
:1020400080934102FB01228136E1389F8001399F54
:10205000100D1124E801C45EDE4F288B92818E8121
:10206000992349F1FA86E9868F5F8E830E942A1FA1
:102070009E878D870E94DC1C8F830E94B31C8887FB
:102080000E94C61C9885892B8887E881F981309742
:1020900031F06C897D89C8018E5D9E4F0995F09263
:1020A0002703E092260381E0DF91CF911F910F91EA
:1020B000FF90EF9008958823B1F38989882399F3DD
:1020C000C8018E5D9E4F0E94810FEDCFCF92DF92AF
:1020D000EF92FF920F931F93CF93DF938091410272
:1020E00010E006E18F3FF1F5DF91CF911F910F9145
:1020F000FF90EF90DF90CF9008950E9DF0010F9D1F
:10210000F00D1124E45EFE4FC288D388C114D104BF
:1021100039F470E060E0818592850E94FC196C01C1
:102120000E9DE0010F9DD00D1124C45EDE4F8E8107
:102130008823B9F08D859E850E94421FC816D90656
:1021400080F4109F700111248989811105C0C70195
:10215000845E9E4F0E94360FC7018E5D9E4F0E9487
:10216000810F1F5FE12EF12C80914102082E000C9F
:10217000990B8E159F050CF6B7CF8EE14A9B02C0D6
:102180008150E1F74A9BFECF08955A9880E28A95E4
:10219000F1F75A9A0895FC013BE03A95F1F720E0F7
:1021A00090E080E031E040E14A95F1F7880F4A9BEA
:1021B00002C08160232742E04A95F1F7000040E128
:1021C0004A95F1F79F5F6913EECF90E19A95F1F789
:1021D00099B132E03A95F1F7000040E14A95F1F704
:1021E00092FB992790F992272081920F908308956E
:1021F000EF92FF920F931F93CF93DF930F92CDB780
:10220000DEB719828C017C01E60EF11C0E151F054C
:1022100061F481E09981911180E00F90DF91CF917D
:102220001F910F91FF90EF9008950E94BD1068E0FC
:10223000CE0101960E94CB10F80181938F01E6CF69
:1022400090932A038093290360932803529A5A9A01
:10225000089590932A03809329036093280352984A
:102260005A9AEA9AE9E6F0E080818F7C80830895AB
:102270006150770B91E001C0990F6A95EAF720E071
:1022800031E0911108C0222391F05A9A80E28A9598
:10229000F1F75A980895492F482339F05A9A23277D
:1022A00040E24A95F1F79695ECCF5A98F9CF5A98B3
:1022B000EDCFFF920F931F93CF93DF93EC018C012F
:1022C000060F111DC017D10731F4DF91CF911F9177
:1022D0000F91FF900895F9900E94C51068E08F2D2E
:1022E0000E943811EFCF1F920F920FB60F92112458
:1022F0000F931F932F933F934F935F936F937F930E
:102300008F939F93AF93BF93EF93FF93CF93DF93FD
:102310000F92CDB7DEB719820E94BD1067E0CE01E3
:1023200001960E94CB10082F069506950695982FCA
:1023300092959570202F2570920F292F23709695D6
:1023400096958770920F891344C08981811141C08D
:10235000809128038017E8F120E12A95F1F75A9A35
:10236000529A82E08A95F1F700C0A8E00A9FC00166
:1023700011240091290310912A03080F191F5A985C
:10238000F8016581662321F0868197810E945911A9
:102390000E94C510F0E1FA95F1F75A9852985A9AAE
:1023A00020E12A95F1F7D80112966C9112976623D5
:1023B00031F113968D919C910E94F810D801ED9106
:1023C000FC91882311F088E001C082E080830E94A4
:1023D000BD100F90DF91CF91FF91EF91BF91AF9121
:1023E0009F918F917F916F915F914F913F912F912D
:1023F0001F910F910F900FBE0F901F901895ED91A8
:10240000FC91E1CF0F931F93CF93DF93209128038B
:10241000281719060CF471C08C0193E0000F111FEE
:102420009A95E1F7C0912903D0912A03C00FD11FDB
:10243000F894529A5A9825E02A95F1F70000982FBF
:10244000969595708570980F892F837096959695BF
:10245000980F092B0E94C51000C067E0802F0E94D2
:10246000381180E18A95F1F752985A9A4A9B17C021
:1024700087E090E04A9915C06D81662321F18E8135
:102480009F810E94F81081111EC0529A5A9AE881C9
:10249000F98182E08083789482E090E00DC000C0F2
:1024A000E5CF019771F4529A5A9AE881F98181E057
:1024B0008083789481E090E0DF91CF911F910F911C
:1024C000089500C0D7CF0E94BD1020E22A95F1F7F1
:1024D0005A98529A80E18A95F1F76A81662321F031
:1024E0008B819C810E9459110E94C510E881F9815D
:1024F0001082789490E080E0DFCF84E090E0DCCF41
:102500001092B9008CE08093B8000895EF92FF928A
:102510000F931F93CF93DF93182FEB011092BC0002
:1025200084EA8093BC000E942A1F7C018091BC0039
:1025300087FF27C08091B900887F883029F080917B
:10254000B900887F8031D9F51093BB0084E880936F
:10255000BC000E942A1F8C018091BC0087FF24C010
:102560002091B900287F90E080E02831B1F081E02F
:1025700090E0203411F490E080E0919581959109EC
:102580000CC0CF3FDC0791F20E942A1F8E199F09D1
:102590008C179D0758F28EEF9FEFDF91CF911F911F
:1025A0000F91FF90EF900895CF3FDC07A9F20E94B2
:1025B0002A1F801B910B8C179D0770F2ECCF8FEFB9
:1025C0009FEFEBCF0F931F93CF93DF93EB0180939C
:1025D000BB0084E88093BC000E942A1F8C0180917C
:1025E000BC0087FF11C02091B900287F81E090E0F6
:1025F000283211F490E080E0919581959109DF9166
:10260000CF911F910F910895CF3FDC0741F30E94B6
:102610002A1F801B910B8C179D0708F38EEF9FEFED
:10262000EECFCF92DF92EF92FF920F931F93CF9353
:10263000DF936B018A017901B9010E948612E601DC
:102640000C0D1D1DC017D10761F424E92093BC00B7
:10265000DF91CF911F910F91FF90EF90DF90CF907E
:10266000089597FDF2CFB70189910E94E212EACF57
:10267000CF92DF92EF92FF920F931F93CF93DF934E
:10268000C62F6A017901B8010E94861297FD0CC01D
:10269000B8018C2F0E94E212E601EC0CFD1CCE1555
:1026A000DF0511F097FF0CC024E92093BC00DF91F7
:1026B000CF911F910F91FF90EF90DF90CF900895F1
:1026C000B80189910E94E212EACF84E98093BC00AC
:1026D00008959093300380932F030895E0912F0382
:1026E000F0913003309721F00190F081E02D0994B2
:1026F00080E00895E0912F03F0913003309799F036
:1027000020914E02222359F02091F80527FF07C09F
:10271000DC012C9111962C93119725E02C930280CB
:10272000F381E02D0994089520912D0330912E031B
:102730002817390771F090932E0380932D03E091B1
:102740002F03F0913003309721F00680F781E02DC0
:102750000994089520912B0330912C0328173907F1
:1027600071F090932C0380932B03E0912F03F09151
:102770003003309721F00084F185E02D099408950D
:1027800085B7806885BF85B7806885BF089508953F
:1027900008950C94C71308950C94CB130E94C01392
:1027A0000E94C8130C94C91381E008950C94D413AB
:1027B0000E94211F0E94110580E00E948C0C0E9443
:1027C000A21F0C94CC13AF92BF92CF92DF92EF92E4
:1027D000FF920F931F93CF93DF93CDB7DEB72A9766
:1027E0000FB6F894DEBF0FBECDBF0E942D06B82EE7
:1027F0000E94D613882309F463C082E3C82E83E0C5
:10280000D82E10E000E0A02E802F0E94A106E82E16
:10281000F601F1906F01F81609F44CC08091BE03E7
:1028200081FD0E94A7069F2D9E2580E0FF24F39442
:10283000292F2F21D1F18E83AF82EF2081E009F47F
:1028400080E088870E942A1F8160782F9A87898775
:102850004E815F8168858A850E948214F801EE5C52
:10286000FC4F8081F826F0820E940D0FB1100E946B
:10287000E30D0E946E1390913103891791F10E942C
:102880006E13809331032A960FB6F894DEBF0FBE05
:10289000CDBFDF91CF911F910F91FF90EF90DF900F
:1028A000CF90BF90AF900C94A1098F5FFF0C863042
:1028B00009F0BECF0F5F1F4F0830110509F0A3CFFD
:1028C0008FEF89838A831B820E942A1F8160782F61
:1028D0009D838C8349815A816B818D810E948214F2
:1028E000C3CF2A960FB6F894DEBF0FBECDBFDF91DF
:1028F000CF911F910F91FF90EF90DF90CF90BF90FD
:10290000AF900895CF93DF93CDB7DEB72B970FB677
:10291000F894DEBF0FBECDBF4F83588769877A8793
:102920008B871E821D8285E0FE013796DE0111969F
:1029300001900D928A95E1F749815A816B817C81E2
:102940008D819E812B960FB6F894DEBF0FBECDBF52
:10295000DF91CF910C94FF19FC01808191810C943F
:10296000601CCF93C82F882309F43FC08CEF8C0FD5
:10297000813AA0F46C2F80914202909143020E9410
:10298000FE1D882329F08C2F0E94951C0E94F51CA7
:102990008C2F0E948E1CCF910C94F51C80E28C0F22
:1029A000883048F4C77081E001C0880FCA95EAF703
:1029B0000E94B61CF0CFEBE5EC0FE33040F4F0E002
:1029C000E253FD4F808190E0CF910C949413C85A4C
:1029D000C73158F4EC2FF0E0EE0FFF1FE056FD4F2B
:1029E00080819181CF910C94AA13CF91089588236F
:1029F00029F19CEF980F913A20F40E94951C0C94B9
:102A0000F51C90E2980F983050F4877091E001C067
:102A1000990F8A95EAF7892F0E94BC1CF0CF9BE59D
:102A2000980F933020F490E080E00C949413885A2F
:102A3000873120F490E080E00C94AA130895882355
:102A400021F00E94B61C0C94F51C0895882321F0F7
:102A50000E94BC1C0C94F51C0895BF92CF92DF928B
:102A6000EF92FF920F931F93CF93DF937C01D62FAA
:102A7000C72FFC01058102950F70128111110E9470
:102A8000D61C0E94AC1CD82E882391F01123E9F0AB
:102A90008C2F807F803421F080E28D0F8830A8F069
:102AA00082E00E94401D0E94AC1C91E0D82ED926E5
:102AB000CC2EC2949FE0C922FBE0FC15A8F1EC2DBE
:102AC000F0E0E058F44D0C943528D12CF1CF0C2FC8
:102AD0000F70C07F11F00295007F1123A9F0002331
:102AE00059F080E28D0F883010F0D11109C0802F8D
:102AF0000E94B61C0E94F51C8D2F0E94B11414C0B8
:102B0000802F0E94C91CF6CF8D2F0E94F71400233E
:102B100059F080E28D0F883010F0D1112BC0802F3A
:102B20000E94BC1C0E94F51CEC2DE850FF0B349752
:102B300020F40E946E130E94A109DD2009F47DC1DA
:102B40000E94A81C80FD79C1F70112820E94A21C7C
:102B50000E942B1BC7010E943E170E94A21CDF91FE
:102B6000CF911F910F91FF90EF90DF90CF90BF908A
:102B70000C944C1B802F0E94CF1CD4CF2C2F2F7075
:102B8000B22EC07FC03219F0B29480EFB822DD239C
:102B900039F0D13019F1112361F1002321F1ACCFCB
:102BA000112381F0011106C00E94DC1C8B290E94B8
:102BB0001F15BACF0130C1F70E94DC1C8B290E947F
:102BC000E21CB2CF011106C00E94EB1C8B2D0E94AB
:102BD0002615AACF013009F4A7CFF6CF112329F08B
:102BE000063008F0A1CF8B2DE2CF053008F09CCF46
:102BF000EDCF002359F3D93349F43FEF87EE93E04B
:102C0000315080409040E1F700C000008D2F0E94BD
:102C1000F7148ACF8C2F86958695837069F0813062
:102C200009F082CF8D2F9C2F9370111102C090E07C
:102C300080E00E94AA1378CF8D2F9C2F93701111E2
:102C400002C090E080E00E9494136ECF8C2F8370BE
:102C500009F041C0111168CF4D2F4295469547703C
:102C6000440F440F0D2F0F7010E030E020E0042ED1
:102C700004C0000F111F221F331F0A94D2F760E017
:102C800070E0CB01D4FF0FC06FE070E080E090E017
:102C900004C0660F771F881F991F4A95D2F7609569
:102CA000709580959095C695C695C370602B712BD5
:102CB000822B932BC23049F058F4C13019F00E9496
:102CC000BD1A32CF0E94AB1A2FCF0E94CF1A2CCF41
:102CD0000E94A91A29CF8695112311F08C2F81709B
:102CE000882309F421CF4D2F429546954770440F14
:102CF000440F0D2F0F7010E030E020E0042E04C0D0
:102D0000000F111F221F331F0A94D2F760E070E0FA
:102D1000CB01D4FF0FC06FE070E080E090E004C012
:102D2000660F771F881F991F4A95D2F76095709597
:102D300080959095C695C695C370602B712B822B9C
:102D4000932BC23049F058F4C13019F00E94A21BF5
:102D5000EBCE0E94901BE8CE0E94B41BE5CE0E94F1
:102D6000E51AE2CECF70112329F08C2F0E942B1B85
:102D70008D2F1DCF8D2F0E9426158C2F0E944C1B4E
:102D8000D3CED23F89F160F4D03FC9F0D13F29F1D1
:102D9000112309F442C00111AFCE8C2F8F7121C0D5
:102DA000D33F39F1D43FA1F7112369F1CF718C2FB3
:102DB0000E942B1B63E08C2F0E942B1DB5CE11238C
:102DC00041F0053008F0B0CE8C2F8F710E946F1B40
:102DD000ABCE063008F0A8CEF7CF8C2F8F71112321
:102DE00069F20E942B1BA0CE8C2F8F711123C9F387
:102DF000C5CF112329F08C2F8F710E94161B94CE02
:102E00000E94F11A91CE81E00E94401D023008F428
:102E10008BCE82E00E94401D87CE002359F0D9332B
:102E200009F0F4CEEFEFF7EE23E0E150F040204060
:102E3000E1F7EACE8C2F8F71A1CFDF91CF911F9157
:102E40000F91FF90EF90DF90CF90BF9008950F9378
:102E50001F93CF93DF93EC01688179818A810E946F
:102E60006A1C8C010E94C61B0E94A81AB801CE01E0
:102E7000DF91CF911F910F910C942D15CF93DF937C
:102E8000EC018B819C81892B29F088819981892390
:102E90008F3F59F4DF91CF910895CE010E942717FB
:102EA000CE01DF91CF910C943609CE010E945F09CB
:102EB0008111F3CF0E94AC1C882361F38A8188239F
:102EC00049F382E0DF91CF910C94401D882321F0DB
:102ED0000E94C91C0C94F51C0895882321F00E94BF
:102EE000CF1C0C94F51C08950E94D61C0E94D91C7E
:102EF0000E94F51C90E080E00E94941390E080E036
:102F00000C94AA130E949C1C0C9474170E94C31C5E
:102F10000C948217E92FE295EF70E250EE3070F4D6
:102F2000F0E0E457F44D0C943528803F19F020F47C
:102F3000883E20F481E00895843FE1F380E0089525
:102F4000883EC0F3813FD1F7F5CF93FB882780F906
:102F500008950E94601C0C948A17CF93DF9300D0D1
:102F600000D00F92CDB7DEB70F900F900F900F905B
:102F70000F90DF91CF910895CF93DF9300D000D0D1
:102F800000D0CDB7DEB726960FB6F894DEBF0FBEE1
:102F9000CDBFDF91CF9108951F93CF93DF93C09161
:102FA0003B0316E080913C038C1304C0DF91CF916A
:102FB0001F910895D0E01C9FF0011D9FF00D11247A
:102FC000E35CFC4F408151816281738184819581F2
:102FD0000E94BC172196C770E5CF40916D035091B8
:102FE0006E0360916F0370917003809171039091F3
:102FF00072030C94BC171F93CF93DF9380917203DD
:10300000807FA9F480916F03882389F080913B032E
:10301000C0913C0360916D0370916E03A0917003A9
:10302000B0917103D62FD72316E0C81304C0DF91E7
:10303000CF911F91089590E0109711F0DF3F19F4A0
:1030400001968770F2CF189F9001199F300D1124BF
:10305000F901E35CFC4F41814713F2CF40814613F5
:10306000EFCF42814111ECCF438154814A1B5B0B6E
:10307000403A510528F7809172038F7080618093E8
:103080007203F901EE5BFC4F80818F708061808359
:103090008DE693E00E943E17DF91CF911F910C9433
:1030A000CC17AF92BF92CF92DF92EF92FF920F9325
:1030B0001F93CF93DF93CDB7DEB761970FB6F89428
:1030C000DEBF0FBECDBF8C0185E0F801DE011D968D
:1030D00001900D928A95E1F7F80140815181E280DB
:1030E0008DE6C82E83E0D82E609170037091710335
:1030F0006115710509F461C190916D0320916E0312
:10310000892F82238F3F09F458C1A380B480F090A7
:103110006F03F501E61BF70BFF2009F4FCC080915B
:103120007203382F307FE03AF10508F0B2C0311158
:1031300079C0FE2C251323C0941321C0E1101FC0B9
:103140008F708061809372030E94ED17C6010E9408
:103150003E1780917203F80185838F2D61960FB61B
:10316000F894DEBF0FBECDBFDF91CF911F910F91BD
:10317000FF90EF90DF90CF90BF90AF900895AB2875
:1031800029F0842F85238F3F09F033C180E0F82F89
:10319000F170DF2E80FF3CC080913B0320913C0307
:1031A00036E0821315C04D875E878D859E850E940F
:1031B000601C292F22952F702230F0F0243018F552
:1031C0009F70F1F0F8019581907FD1F4D12C1EC051
:1031D00090E0389FF001399FF00D1124E35CFC4F23
:1031E0006181651306C06081641303C062816E1142
:1031F0000FC001968770D5CF9F7011F0882331F3EF
:10320000805E883018F3C8010E943E17FD2CA5CFC0
:10321000EE2009F4A2CF8091720381608093720343
:10322000F12C9BCF251306C0941304C0F801EE20A7
:1032300009F48DC04D875E878D859E850E94A917F4
:10324000882319F1EE2009F180917203803270F029
:1032500020916D0330916E0338872F831986BB86CA
:10326000AA868C87CE0107960E943E1786E0F80159
:10327000ADE6B3E001900D928A95E1F70E94FB174D
:103280000E94ED17FF24F39468CFC8010E943E17F7
:10329000F9CF311113C07A2DB98AA88A6E2D898988
:1032A0000E94AD178DE693E00E943E1786E0F6017E
:1032B00011928A95E9F70E94ED17B2CF25130FC03E
:1032C00094130DC0E1100BC0F8018583C8010E9462
:1032D0003E1786E0F60111928A95E9F73ECF4D87B9
:1032E0005E878D859E850E94A917882371F2EE2046
:1032F00061F280917203803208F4B8CF20916D039F
:1033000030916E033A8329831B82BD82AC828E8307
:10331000CE010196A9CFE03AF10508F041C0FE2C9C
:10332000EE2009F4B2CF25132AC0941328C080914F
:10333000720380FD1BC0982F907FC1F0F801858338
:10334000903F31F0982F907F905F8F70892B85830D
:10335000C8010E943E1786E0F801ADE6B3E0019097
:103360000D928A95E1F70E94ED17F7CE86E0F801FD
:10337000ADE6B3E001900D928A95E1F7EECE4D8770
:103380005E878D859E850E94A91781116FCF8091E0
:103390007203816080937203C8010E943E17DDCEE4
:1033A0007A2DB98AA88A6E2D89890E94AD1786E088
:1033B000F60111928A95E9F7D6CFEE2009F465CF90
:1033C0004D875E878D859E850E94A917F82E8823DC
:1033D00009F45BCF86E0F801ADE6B3E001900D9211
:1033E0008A95E1F78DE693E00E94AC140E94FB17EA
:1033F000BACF81E08E25CBCE80EA90E008951F936E
:10340000CF93DF93CDB7DEB72C970FB6F894DEBF1E
:103410000FBECDBF4F83588769877A878B879C877C
:10342000CE0107960E945118882369F08A859B85F2
:10343000892B39F04F815885842F85238F3F09F0E0
:1034400071C016E05FC086E0FE013796DE0111967E
:1034500001900D928A95E1F78A859B85892B89F3E6
:103460008F81988589238F3F61F320913C0330E061
:10347000C90101968770992740913B0348171906A7
:1034800071F40E94861710923C0310923B0386E071
:10349000EDE6F3E0DF011D928A95E9F7D2CF96E0E1
:1034A000929FD001939FB00D1124A35CBC4FFE01ED
:1034B000319601900D929A95E1F780933C030E941A
:1034C000CC17BFCF819FC0011124835C9C4F0E9409
:1034D00051188823E9F0E0913B031E9FF00111246D
:1034E000E35CFC4F408151816281738184819581CD
:1034F0000E94BC1780913B0390E00196877099274A
:1035000080933B0380913B0390913C038913DACF76
:103510002C960FB6F894DEBF0FBECDBFDF91CF91D2
:103520001F91089569857A858B859C850E94BC17BB
:1035300088CF08950C94991A0E949A1A6093950363
:103540007093960380939703909398030C94741749
:1035500008950C949C1A0F931F930091950310915A
:1035600096032091970330919803602B712B822B47
:10357000932B1F910F910C949C1A0F931F93009102
:10358000950310919603209197033091980360233F
:103590007123822393231F910F910C949C1A0F93F4
:1035A0001F930091950310919603209197033091FA
:1035B000980360277127822793271F910F910C94FE
:1035C0009C1A0C94991A0C94E11A0E94E31A6093C5
:1035D00091037093920380939303909394030C94BC
:1035E000741760E070E0CB010C94E51A6115710569
:1035F0008105910529F481E0442361F080E008957C
:10360000DC01CB0104C0B695A795979587954A959F
:10361000D2F781700895482F6091910370919203C1
:1036200080919303909194030C94F61A0F931F9337
:1036300041E050E060E070E08A019B0104C0000FAF
:10364000111F221F331F8A95D2F7C901B8011F919C
:103650000F910C94E51A0F931F9341E050E060E046
:1036600070E004C0440F551F661F771F8A95D2F77C
:103670008091910390919203A0919303B091940350
:103680008A019B01082B192B2A2B3B2BC901B8015E
:103690001F910F910C94E51A0F931F9341E050E096
:1036A00060E070E004C0440F551F661F771F8A95C5
:1036B000D2F7CB01BA0160957095809590950091F5
:1036C000910310919203209193033091940360230E
:1036D0007123822393231F910F910C94E51A0F936A
:1036E0001F9341E050E060E070E004C0440F551FBC
:1036F000661F771F8A95D2F780919103909192036C
:10370000A0919303B09194038A019B010827192784
:103710002A273B27C901B8011F910F910C94E51A84
:103720000F931F93009191031091920320919303A3
:1037300030919403602B712B822B932B1F910F914F
:103740000C94E51A0F931F9300919103109192032B
:103750002091930330919403602371238223932358
:103760001F910F910C94E51A0F931F9300919103F1
:103770001091920320919303309194036027712755
:10378000822793271F910F910C94E51A0895E92F32
:10379000EE0FE90FEE0F8E0F982F977041E001C0EA
:1037A000440F9A95EAF786958695869595E0899FC8
:1037B000F0011124ED58FC4F30E020E070E0519111
:1037C000DF011197CB01022E02C0969587950A94CE
:1037D000E2F7817081958527842385278C932F5F5D
:1037E0003F4F2530310559F70895E92FEE0FE90FC6
:1037F000EE0F8E0F982F977086958695869525E00B
:10380000829FF0011124ED58FC4F50E040E080E031
:10381000219130E0092E02C0369527950A94E2F7EF
:1038200021703327042E01C0220F0A94EAF7822B5D
:103830004F5F5F4F4530510559F70895BF92CF92C2
:10384000DF92EF92FF920F931F93CF93DF938C0140
:10385000C0909103D0909203E0909303F090940372
:103860008091950390919603A0919703B09198034E
:10387000C82AD92AEA2AFB2ACFE1D0E0BC2ED701F8
:10388000C6010C2E04C0B695A795979587950A9406
:10389000D2F780FD0EC0219788F7B12C8B2DDF91D8
:1038A000CF911F910F91FF90EF90DF90CF90BF903D
:1038B0000895B8018C2F0E94BD09019761F3EECFE6
:1038C000CF93DF93EC010E941E1CBE01DF91CF91CC
:1038D0000C94BD091F93CF93DF93EB0190913A03B2
:1038E000992331F0CB01DF91CF911F910C94601C93
:1038F000882379F0CB010E941E1C182F682FCE015F
:103900000E94C71BBE01812FDF91CF911F910C94A4
:10391000BD09CB010E94F51B182FF4CF682F8091B1
:103920004202909143020C947E1E682F80914202C5
:10393000909143020C94891E80914202909143021F
:103940000C94941E8091990385958595859508958D
:10395000809199038770089590919903977081E001
:1039600009F480E008958091BD0308959091BD030E
:10397000892B8093BD03089580959091BD03982372
:103980009093BD0308951092BD0308958091BC03E8
:1039900008959091BC03892B8093BC030895809572
:1039A0009091BC0398239093BC0308951092BC039C
:1039B00008951092BB03089580919A030895089585
:1039C0000C94DF1C90919A03981721F080939A032E
:1039D0000C94E01C089580919A03882329F010929A
:1039E0009A0380E00C94E01C0895E0914202F0916B
:1039F00043028091BD038083E0914202F091430233
:103A000080819091BC03892B8083E0914202F091E8
:103A1000430280819091BB03892B808390919A030C
:103A2000992381F0E0914202F09143028081892B39
:103A3000808380914202909143020E94EA1D81118D
:103A40000E94EB1C80914202909143020C947A13E5
:103A500008950C94281D98E0899F90011124622BF1
:103A6000609399030E942B1B8091990385958595FE
:103A700085950C94291D1092990380E00C94291DC2
:103A8000909199038095892380939903282F27701B
:103A900071F4282F082E000C330B9217130639F0FF
:103AA0008595859585950E944C1B0C943B1D08952A
:103AB00090E080E00E940D2B21E08C3E9E4F09F0AB
:103AC00020E0822F089582E090E00C94052B83E0A3
:103AD00090E00C94052BCF9384E090E00E94052B9E
:103AE000C82F81E290E00E94052B982F8C2FCF9158
:103AF0000895AB01BC018FE090E00C94252BAB0145
:103B0000BC0183E190E00C94252B60E070E0CB01D8
:103B10000C947F1D60E070E0CB010E94791D0C9435
:103B2000851D6CEE7EEF90E080E00E94312B60E01E
:103B300082E090E00E94132B60E083E090E00E941E
:103B4000132B1092950310929603109297031092E4
:103B5000980360E084E090E00E94132B60E081E233
:103B600090E00E94132B60E085E090E00E94132B10
:103B700060E086E090E00E94132B6FEF87E090E01A
:103B80000E94132B40E050E0BA0188E090E00E94D0
:103B9000252B60E08DE090E00E94132B40E050E088
:103BA000BA0188E190E00E94252B60E087E190E077
:103BB0000E94132B40E050E0BA018CE190E00E949B
:103BC000252B60E080E290E00E94132B0C948A1D6C
:103BD0000C94911DFC01329680914E02882321F0B5
:103BE0008091F8059EE187FF96E080E0915008F40F
:103BF000089521912223D1F38F5FF8CF662301F13D
:103C000020914E022223F1F02091F80527FF1AC0DF
:103C1000462F4695469546954E3190F4677021E0C3
:103C200030E002C0220F331F6A95E2F7840F911D26
:103C3000FC01828190E02823392381E0232B69F461
:103C400080E00895FC01329608962191261721F014
:103C5000E817F907D1F7F4CF81E008959C01FC0142
:103C600032969FEF80E04191461751F09F3F19F443
:103C7000411101C0982F8F5F8630A9F79F3F09F44B
:103C80000895290F311D97FD3A95F9016283089532
:103C9000FC01329608962191261303C0DF0111978B
:103CA0001C92E817F907B9F70895E62FE695E6950F
:103CB000E695EE3168F4E80FF92FF11D677021E009
:103CC00030E001C0220F6A95EAF78281822B82835D
:103CD0000895E62FE695E695E695EE3170F4E80F47
:103CE000F92FF11D677021E030E001C0220F6A95C5
:103CF000EAF72095828128232283089520914E029D
:103D0000222329F02091F80527FD0C94551E0C94D0
:103D10002E1E20914E02222329F02091F80527FD26
:103D20000C94691E0C94481EFC01329680914E0240
:103D3000882351F08091F80587FF06C08EE1DF01EE
:103D40001D928A95E9F7089586E0F9CF08950895C0
:103D50000C94A71E0E94A81E8091FE05843049F194
:103D60001092BF0388E190E020E40FB6F894A89584
:103D7000809360000FBE2093600080E00E94A10944
:103D80000E94A81E83B7817F846083BF83B7816050
:103D900083BF7894889583B78E7F83BF0FB6F894DE
:103DA000A895809160008861809360001092600007
:103DB0000FBE08950895CF930E94A61E0E942D065F
:103DC0000E94DA1EC0E08C2F0E94A106811105C05E
:103DD000CF5FC830C1F7CF91089581E0FCCF08953F
:103DE0000C94EF1E0E9486170E946E130E94A10978
:103DF0000C94F01E1F921FB61F9211248F939F9355
:103E0000AF93BF938091BF03811113C08091F405DC
:103E10009091F505A091F605B091F7054196A11D89
:103E2000B11D8093F4059093F505A093F605B0932A
:103E3000F705BF91AF919F918F911F901FBE1F906B
:103E4000189582E084BD93E095BD9AEF97BD80936D
:103E50006E0008952FB7F8948091F4059091F505C0
:103E6000A091F605B091F7052FBF08952FB7F894EC
:103E70006091F4057091F5058091F6059091F70534
:103E80002FBF08959C014FB7F8948091F40590914D
:103E9000F505A091F605B091F7054FBF821B930B76
:103EA0000895CF92DF92EF92FF922FB7F894C090CF
:103EB000F405D090F505E090F605F090F7052FBFDA
:103EC000A7019601261B370B480B590BCA01B901F4
:103ED000FF90EF90DF90CF90089578941F921FB6D7
:103EE0001F9211248F939F93AF93BF938091F405FA
:103EF0009091F505A091F605B091F7050196A11DE9
:103F0000B11D8093F4059093F505A093F605B09349
:103F1000F705BF91AF919F918F911F901FBE1F908A
:103F2000189587E797E7909301088093000888E148
:103F30009AE00FB6F894A895809360000FBE909316
:103F40006000FFCF0E94581D811102C00E94E81D31
:103F50000E94631D8093BE030E946B1D9093F90520
:103F60008093F8050E94671D682F70E090E080E064
:103F70000E94A91A6091910370919203809193031A
:103F8000909194030C94E31A8091E00308950895AE
:103F9000CF93DF9300D00F92CDB7DEB79091FE059F
:103FA000943019F589837B836A8382E08093E900EA
:103FB0008FEF9091E800815095FD06C095ED9A95A0
:103FC000F1F700008111F5CF8091E80085FF0DC069
:103FD00050E040E063E070E0CE0101960E94CE2107
:103FE0008091E8008E778093E8000F900F900F90FB
:103FF000DF91CF910895BC0184E00C94C81FBC01EF
:1040000083E00C94C81FCF93DF93EC0180914E02A4
:104010008823B1F18091F80587FF32C060E282E029
:104020008093E9008FEF9091E800815095FD06C0E4
:1040300095ED9A95F1F700008111F5CF8091E80098
:1040400085FF1BC080914E0270E050E040E081117E
:1040500004C050E040E068E070E0CE010E94CE2154
:104060008091E8008E778093E80080E2FE01A0EC6A
:10407000B3E001900D928A95E1F7DF91CF91089519
:1040800068E081E0CDCF8091FD05811109C00E94DB
:104090005E230E94BB238091E20084608093E20053
:1040A00008951092FD050895089508950C94F21E48
:1040B00042E061EC81E00E94DA2242E261EC82E0BF
:1040C0000C94DA2280910006833009F45FC030F44A
:1040D0008130C1F1823009F49BC008958A3009F41F
:1040E00087C08B3009F46DC0893009F04EC08091D3
:1040F000FF05813209F049C08091030690910406C2
:10410000029708F042C08091E800877F8093E80022
:104110008091E80082FF35C09091F3008091F20019
:10412000029729F48091F1008B7F813021F48091F6
:10413000F1008093E0038091E8008B778093E800A2
:104140000C940E238091FF05813AF9F48091E800E8
:10415000877F8093E8008091030690910406892B65
:1041600061F460E280EC93E070E00E941D22809197
:10417000E8008B778093E800089560E090E080E0AD
:10418000F3CF8091FE058111C3CF08958091FF0583
:10419000813AD9F78091030690910406892BA9F7FB
:1041A0008091E800877F8093E8008091E80080FF9D
:1041B000FCCF80914E028093F1008091E8008E77D1
:1041C000BDCF8091FF05813201F780910306909168
:1041D0000406892BD1F68091E800877F8093E80060
:1041E0000E940E238091010680934E020C94861744
:1041F0008091FF05813249F68091E800877F8093A6
:10420000E8000E940E23809102068093E103089546
:104210008091FF05813A09F0B8CF8091E800877F4F
:104220008093E8008091E80080FFFCCF8091E1035B
:10423000C2CF84B7877F84BF0FB6F894A8958091CA
:104240006000886180936000109260000FBE80E87B
:1042500090E00FB6F89480936100909361000FBED8
:104260000E94CE130E945E230E94BB238091E20035
:1042700084608093E20078940E9444260E94D813C0
:1042800084E492E00E9469138091FE05853019F064
:104290000E94E313F9CF0E94AA1E8091FC05882397
:1042A00099F30E94DB1E882379F30E94B821ECCF9A
:1042B0000C945A21292F33272330310519F168F442
:1042C0002130310509F44AC02230310509F44BC0D0
:1042D00090E080E030E020E028C02132310579F123
:1042E00022323105A9F780E490E02CEE38E0611528
:1042F0007105D9F08DE690E02FE738E06130710567
:10430000A1F0E6CF99278130910599F0009741F00F
:104310008230910589F00397D9F6ECECF7E002C002
:10432000EEE2F8E0849190E09F01FA01318320836E
:104330000895ECE1F8E0F6CFE2EDF7E0F3CF89E0A5
:1043400090E024E438E06115710579F389E090E0AC
:104350002DE538E06130710541F3BACF82E190E09C
:104360002DE638E0E2CF8BE390E022E338E0DDCFCA
:1043700080E189BD82E189BD09B400FEFDCF809155
:10438000D8008F7D8093D8008091E0008260809378
:10439000E0008091E00081FDFCCF0895AF92BF92D4
:1043A000CF92DF92FF920F931F93CF93DF936C0115
:1043B000EB018A010E942D23F82E811123C00115E3
:1043C000110539F0F80180819181C81BD90BC80E05
:1043D000D91EB12CA12C2097A9F08091E80085FD71
:1043E00022C08091E8008E778093E80001151105C6
:1043F000A1F0F80180819181A80EB91EB182A0823E
:1044000085E0F82E8F2DDF91CF911F910F91FF90B6
:10441000DF90CF90BF90AF9008950E942D23882306
:10442000D1F2F82EEFCFF60181916F018093F10068
:104430002197FFEFAF1ABF0ACECFFC01809105068E
:104440009091060686179707A0F06115710529F46B
:104450009091E8009E779093E80090E061157105D7
:1044600051F4911108C08091E80082FF34C080E0CF
:104470000895BC01F2CF8091FE058823C1F18530FB
:10448000C1F18091E80083FD30C08091E80082FD99
:10449000EACF8091E80080FFE1CF8091F300209186
:1044A000F200382F6115710519F02830310558F0E8
:1044B00091E02830310509F090E02091E8002E7756
:1044C0002093E800CBCF81918093F1006150710976
:1044D0002F5F3F4FE7CF8091FE05882341F0853065
:1044E00041F08091E80083FFBECF81E0089582E033
:1044F000089583E00895FC018091050690910606D9
:1045000086179707A0F06115710529F48091E800DE
:104510008E778093E80090E06115710551F4911158
:1045200008C08091E80082FF35C080E00895BC019A
:10453000F2CF8091FE058823C9F18530C9F18091C1
:10454000E80083FD31C08091E80082FDEACF8091D0
:10455000E80080FFE1CF8091F3002091F200382F36
:104560006115710519F02830310558F091E02830B7
:10457000310509F090E08091E8008E778093E800A3
:10458000CBCF84918093F1003196615071092F5FF8
:104590003F4FE6CF8091FE05882341F0853041F002
:1045A0008091E80083FFBDCF81E0089582E0089507
:1045B00083E00895982F973028F08F708093E9005A
:1045C00081E008959093E900242F762F50E098170A
:1045D00031F07091EC002091ED005091F00021FD40
:1045E00002C09F5FE8CF3091EB003E7F3093EB003D
:1045F0003091ED003D7F3093ED003091EB00316064
:104600003093EB007093EC002093ED005093F0009A
:104610002091EE0027FDE5CF80E008958091FF0511
:1046200087FF13C08091E80082FF06C08091E800F8
:104630008B778093E80004C08091FE058111F2CF52
:1046400008958091FE058823D9F38091E80080FFCA
:10465000F8CF8091E8008E77ECCF2091E400309184
:10466000E50095E6A9012091EC00822F817020FFE2
:1046700006C08091E80080FF06C080E00895209188
:10468000E80022FD1AC08091FE05882389F085305C
:1046900089F08091EB0085FD0FC02091E4003091FE
:1046A000E50042175307F9F29150E1F684E00895CE
:1046B00082E0089583E0089581E008950E94CC236C
:1046C0000E94D423E0EEF0E0808181608083E8EDF9
:1046D000F0E080818F77808319BCA7EDB0E08C91EA
:1046E0008E7F8C9380818F7E80831092FD0508954C
:1046F0000F931F93CF93DF930E94CC230E94D42368
:10470000C8EDD0E088818F7788838881806888832E
:1047100088818F7D888319BC1092FE051092FA055E
:104720001092FC051092FB0500EE10E0F80180816C
:104730008B7F808388818160888342E060E080E0B5
:104740000E94DA22E1EEF0E080818E7F8083E2EE4B
:10475000F0E0808181608083808188608083F801BF
:1047600080818E7F8083888180618883DF91CF9173
:104770001F910F910895E8EDF0E080818F7E808396
:10478000E7EDF0E080818160808384E082BF81E09A
:104790008093FD050C947823E8EDF0E080818E7F16
:1047A00080831092E20008951092DA001092E100E6
:1047B00008951F920F920FB60F9211242F933F93DB
:1047C0004F935F936F937F938F939F93AF93BF9319
:1047D000EF93FF938091E10082FF0BC08091E20094
:1047E00082FF07C08091E1008B7F8093E1000E94EF
:1047F00043268091DA0080FF19C08091D80080FFA5
:1048000015C08091DA008E7F8093DA008091D90004
:1048100080FF96C080E189BD82E189BD09B400FEB8
:10482000FDCF81E08093FE050E9443208091E1004E
:1048300080FF19C08091E20080FF15C08091E200E6
:104840008E7F8093E2008091E20080618093E2009D
:104850008091D80080628093D80019BC85E0809355
:10486000FE050E9455208091E10084FF2BC08091BD
:10487000E20084FF27C080E189BD82E189BD89B55E
:10488000982F917080FFFBCF8091D8008F7D80930F
:10489000D8008091E1008F7E8093E1008091E2005A
:1048A0008F7E8093E2008091E20081608093E2003D
:1048B0008091FA05882309F449C084E08093FE05BD
:1048C0000E9456208091E10083FF29C08091E20080
:1048D00083FF25C08091E100877F8093E10082E023
:1048E0008093FE051092FA058091E1008E7F8093FF
:1048F000E1008091E2008E7F8093E2008091E200EF
:1049000080618093E20042E060E080E00E94DA2271
:104910008091F00088608093F0000E945420FF9105
:10492000EF91BF91AF919F918F917F916F915F9127
:104930004F913F912F910F900FBE0F901F901895A0
:1049400019BC1092FE050E94512070CF8091E300A7
:1049500087FD93E09093FE05B3CF1F920F920FB6A1
:104960000F9211242F933F934F935F936F937F93F5
:104970008F939F93AF93BF93CF93DF93EF93FF9367
:10498000D091E900DF708091EC00C82FC17080FDEC
:10499000C0E81092E9008091F000877F8093F000DA
:1049A00078940E94F1241092E9008091F0008860D0
:1049B0008093F000CD2BCF70C093E900FF91EF9171
:1049C000DF91CF91BF91AF919F918F917F916F9127
:1049D0005F914F913F912F910F900FBE0F901F90BD
:1049E00018951F93CF93DF93CDB7DEB7AA970FB675
:1049F000F894DEBF0FBECDBF8FEF95E02091F100A0
:104A0000FC012193CF01F6E087309F07B9F70E94A0
:104A100062208091E80083FF1EC18091FF05909184
:104A200000069A3008F017C1E92FF0E0E656F44D81
:104A30000C943528803899F0823809F00CC18091A7
:104A400003068F70873008F006C18093E9008091DB
:104A5000EB0085FB882780F91092E90006C0809161
:104A6000FB059091FC05911182609091E800977F81
:104A70009093E8008093F1001092F1008091E8009B
:104A80008E77E5C0882309F4D3C0823009F0E3C0F3
:104A9000809101068111D6C0809103068F702FEF9F
:104AA000280F263008F0D7C08093E9002091EB0052
:104AB00020FFC8C0933031F48091EB008062809376
:104AC000EB00C0C09091EB0090619093EB0021E06F
:104AD00030E001C0220F8A95EAF72093EA00109295
:104AE000EA008091EB008860EACF8111B4C0109198
:104AF00001061F778091E3008078812B8093E3008B
:104B00008091E800877F8093E8000E940E238091C7
:104B1000E80080FFFCCF8091E30080688093E30091
:104B200082E0111183E08093FE0595C080588230A9
:104B300008F091C080910106909102068C3D23E01F
:104B40009207A1F583E08A838AE289834FB7F894BC
:104B5000DE01139620E03EE051E2E32FF0E05093B7
:104B60005700E49120FF03C0E295EF703F5FEF70C4
:104B70008E2F90E0EA30C0F0C7968D939D932F5F03
:104B8000243159F74FBF8091E800877F8093E80078
:104B90006AE270E0CE0101960E941D228091E80039
:104BA0008B778093E80057C0C096E7CF60910306EB
:104BB00070910406AE014F5F5F4F0E945821BC0107
:104BC000892B09F448C09091E800977F9093E80002
:104BD00089819A810E947B22E1CF8038E1F5809122
:104BE000E800877F8093E8008091FA058093F100C8
:104BF00045CF811130C090910106923060F58091CF
:104C0000E800877F8093E8009093FA050E940E23C6
:104C10008091FA05882311F084E005C08091E300BB
:104C200087FDFACF81E08093FE050E94582013C0D3
:104C300080910106813079F481E0933009F080E0C1
:104C40008093FC051092E9008091E800877F8093B3
:104C5000E8000E940E238091E80083FF0AC0809143
:104C6000E800877F8093E8008091EB00806280936A
:104C7000EB00AA960FB6F894DEBF0FBECDBFDF9152
:104C8000CF911F9108950895CF938091FE058823B9
:104C9000A1F0C091E900CF709091EC00892F817054
:104CA00090FD80E8C82B1092E9008091E80083FD18
:104CB0000E94F124CF70C093E900CF91089550581D
:104CC000BB27AA270E9477260C944F270E944127D2
:104CD00038F00E94482720F039F49F3F19F426F459
:104CE0000C943E270EF4E095E7FB0C943827E92F4F
:104CF0000E94602758F3BA17620773078407950765
:104D000020F079F4A6F50C9482270EF4E0950B2E92
:104D1000BA2FA02D0B01B90190010C01CA01A0010D
:104D20001124FF27591B99F0593F50F4503E68F168
:104D30001A16F040A22F232F342F4427585FF3CFA9
:104D4000469537952795A795F0405395C9F77EF47A
:104D50001F16BA0B620B730B840BBAF09150A1F0C3
:104D6000FF0FBB1F661F771F881FC2F70EC0BA0F49
:104D7000621F731F841F48F4879577956795B795D1
:104D8000F7959E3F08F0B0CF9395880F08F09927CC
:104D9000EE0F9795879508950E94682788F09F5792
:104DA00098F0B92F9927B751B0F0E1F0660F771F4F
:104DB000881F991F1AF0BA95C9F714C0B13091F045
:104DC0000E948227B1E008950C948227672F782FE4
:104DD0008827B85F39F0B93FCCF38695779567950A
:104DE000B395D9F73EF490958095709561957F4F76
:104DF0008F4F9F4F0895E89409C097FB3EF490951C
:104E00008095709561957F4F8F4F9F4F9923A9F0A3
:104E1000F92F96E9BB279395F69587957795679532
:104E2000B795F111F8CFFAF4BB0F11F460FF1BC076
:104E30006F5F7F4F8F4F9F4F16C0882311F096E909
:104E400011C0772321F09EE8872F762F05C06623B7
:104E500071F096E8862F70E060E02AF09A95660F70
:104E6000771F881FDAF7880F9695879597F9089529
:104E700097F99F6780E870E060E008959FEF80EC0D
:104E8000089500240A9416161706180609060895B0
:104E900000240A9412161306140605060895092E16
:104EA0000394000C11F4882352F0BB0F40F4BF2B85
:104EB00011F460FF04C06F5F7F4F8F4F9F4F0895C5
:104EC00057FD9058440F551F59F05F3F71F04795BB
:104ED000880F97FB991F61F09F3F79F087950895A0
:104EE000121613061406551FF2CF4695F1DF08C0BF
:104EF000161617061806991FF1CF869571056105DC
:104F000008940895E894BB2766277727CB0197F983
:104F100008950E949C270C944F270E94412738F047
:104F20000E94482720F0952311F00C9438270C9408
:104F30003E2711240C9483270E94602770F3959FCD
:104F4000C1F3950F50E0551F629FF001729FBB2780
:104F5000F00DB11D639FAA27F00DB11DAA1F649F1C
:104F60006627B00DA11D661F829F2227B00DA11DCF
:104F7000621F739FB00DA11D621F839FA00D611D55
:104F8000221F749F3327A00D611D231F849F600D76
:104F9000211D822F762F6A2F11249F5750409AF09F
:104FA000F1F088234AF0EE0FFF1FBB1F661F771F2B
:104FB000881F91505040A9F79E3F510580F00C94F6
:104FC00038270C9483275F3FE4F3983ED4F386950B
:104FD00077956795B795F795E7959F5FC1F7FE2B96
:104FE000880F911D9695879597F90895991B79E0FB
:104FF00004C0991F961708F0961B881F7A95C9F769
:1050000080950895AA1BBB1B51E107C0AA1FBB1FB7
:10501000A617B70710F0A61BB70B881F991F5A9544
:10502000A9F780959095BC01CD010895052E97FBB9
:105030001EF400940E942D2857FD07D00E943B28A3
:1050400007FC03D04EF40C942D28509540953095D4
:1050500021953F4F4F4F5F4F0895909580957095E4
:1050600061957F4F8F4F9F4F0895EE0FFF1F059063
:10507000F491E02D0994A1E21A2EAA1BBB1BFD019D
:105080000DC0AA1FBB1FEE1FFF1FA217B307E40727
:10509000F50720F0A21BB30BE40BF50B661F771F7F
:1050A000881F991F1A9469F760957095809590955F
:1050B0009B01AC01BD01CF010895FB01DC0102C0E1
:1050C00005900D9241505040D8F70895FB01DC0146
:1050D00004C08D910190801921F441505040C8F7CF
:1050E000881B990B0895AEE0B0E0E9E7F8E20C9474
:1050F000552B0D891E8986E08C831A8309838FEFD7
:105100009FE79E838D83AE01475E5F4F6F89788DE9
:10511000CE0101960E9496282F813885020F131F19
:10512000F80110822E96E4E00C94712BABE0B0E015
:10513000ECE9F8E20C94472B7C013B018A01FC016D
:1051400017821682838181FFB9C19AE0292ECE0190
:1051500001965C01F7019381F30193FD859193FF23
:1051600081913F01882309F446C1853239F493FDCA
:10517000859193FF81913F01853229F4B70190E039
:105180000E94772AE7CF912C412C512CFFE1F51595
:1051900038F08B3209F188F4803201F1833221F149
:1051A00057FC3AC020ED280F2A3040F556FE1FC0AC
:1051B000929C200D1124922E06C08D3291F08033E6
:1051C00079F7689450F8F30193FD859193FF8191ED
:1051D0003F018111DBCF20C0689451F8689452F8E8
:1051E000F2CF689453F8EFCF689454F8ECCF429C18
:1051F000200D1124422E689455F8E5CF8E3229F403
:1052000056FCF9C0689456F8DECF8C3619F46894D1
:1052100057F8D9CF8836B9F2982F9F7D955493309F
:10522000C0F08336A1F18337C1F1833509F05BC04B
:10523000F801C190D1908F01692D70E056FC02C039
:105240006FEF7FEFC6010E94612A4C01689457F806
:105250000AC00C5F1F4F2FE3298388248394912C6D
:105260006501E89457F853FC04C04814190409F088
:1052700018F5342C8114910431F5332009F46ACFE8
:10528000B70180E290E00E94772A3A94F6CFF801C5
:10529000808189830E5F1F4FE0CFF801C190D190CC
:1052A0008F01692D70E056FC02C06FEF7FEFC601E1
:1052B0000E946C2A4C01D5CFB70180E290E00E9499
:1052C000772A4A94D2CFF60157FC859157FE8191F7
:1052D0006F01B70190E00E94772A31103A94F1E013
:1052E0008F1A9108C7CF843619F0893609F074C037
:1052F000F80157FE6AC061917191819191918F017E
:10530000252D2F76D22E97FF09C090958095709508
:1053100061957F4F8F4F9F4F6894D7F82AE030E018
:10532000A5010E94A72AC82ECA188C2C5D2CD6FE77
:105330000CC0E89450F8C91440F4D4FE05C0D2FC67
:1053400003C0FD2DFE7E5F2E892C54FE8FC0FE0112
:10535000EC0DF11D8081803309F081C0252D297E5F
:10536000522E852D8870382E53FC8FC050FE89C078
:105370009C2C841418F44C0C942C981854FE8BC05C
:10538000B70180E390E00E94772A52FE09C088E7C7
:1053900090E051FE02C088E590E0B7010E94772AB4
:1053A000C91408F484C0CA94D12C9FEFC91AD90A31
:1053B000CA0CDB1CF60182916F01B70190E00E94DC
:1053C000772AAC14BD04B1F758CF61917191072EC3
:1053D000000C880B990B93CFD52CE894D4F82AE0D5
:1053E00030E0853739F1952D997FD92E8F3601F12F
:1053F00048F48835A9F0F701868197812B96E2E180
:105400000C94632B803749F08837A9F7D4FE02C08B
:105410006894D2F820E130E00DC06894D4F8F6CF5B
:1054200054FE03C0E92FE660DE2E20E132E002C028
:1054300028E030E0F801D7FE0DC0619171918191B3
:1054400091918F01A5010E94A72AC82ECA18E8943D
:10545000D7F86BCF6191719190E080E0F2CF52FC70
:1054600002C083947ECF839483947BCF852D8678EE
:1054700009F477CFF6CFB70180E290E00E94772A57
:1054800083948414C0F3312C79CF342C38188414CD
:1054900008F474CFF8CF852D867809F481CF8BE29C
:1054A00051FE80E257FC8DE2B70190E077CFB70163
:1054B00080E390E00E94772A9A9472CF8FEF9FEF5B
:1054C0009DCFFC010590615070400110D8F7809588
:1054D00090958E0F9F1F0895FC01615070400190C0
:1054E0000110D8F7809590958E0F9F1F08950F9308
:1054F0001F93CF93DF93182F092FEB018B8181FD31
:1055000009C01FEF0FEF812F902FDF91CF911F91D7
:105510000F91089582FF14C02E813F818C819D815F
:10552000281739073CF4E881F981CF010196998366
:10553000888310838E819F8101969F838E83E3CF22
:10554000E885F985812F0995892BA1F3DACFFA0136
:10555000AA27283051F1203181F1E8946F936E7FB2
:105560006E5F7F4F8F4F9F4FAF4FB1E03ED0B4E0A3
:105570003CD0670F781F891F9A1FA11D680F791FE4
:105580008A1F911DA11D6A0F711D811D911DA11DF5
:1055900020D009F468943F912AE0269F1124301905
:1055A000305D3193DEF6CF010895462F4770405DA0
:1055B0004193B3E00FD0C9F7F6CF462F4F70405D4F
:1055C0004A3318F0495D31FD4052419302D0A9F7AA
:1055D000EACFB4E0A6959795879577956795BA95A4
:1055E000C9F700976105710508959B01AC010A2E6A
:1055F00006945795479537952795BA95C9F7620F41
:10560000731F841F951FA01D0895F999FECF92BDA9
:1056100081BDF89A992780B50895A8E1B0E042E0ED
:1056200050E00C94392B262FF999FECF92BD81BD05
:10563000F89A019700B4021639F01FBA20BD0FB6D0
:10564000F894FA9AF99A0FBE08950396272F0E94AC
:10565000142B0E94132B252F0E94142B242F0C9403
:10566000142B0196272F0E94142B0C94132BDC0172
:10567000CB01FC01F999FECF06C0F2BDE1BDF89A5D
:10568000319600B40D9241505040B8F708952F92D2
:105690003F924F925F926F927F928F929F92AF92C2
:1056A000BF92CF92DF92EF92FF920F931F93CF930F
:1056B000DF93CDB7DEB7CA1BDB0B0FB6F894DEBFA6
:1056C0000FBECDBF09942A88398848885F846E84CC
:1056D0007D848C849B84AA84B984C884DF80EE8016
:1056E000FD800C811B81AA81B981CE0FD11D0FB61F
:1056F000F894DEBF0FBECDBFED010895F894FFCF43
:1057000067156715BE15BE150A16941594159415E0
:105710002616B216C116C116951795179E179E1715
:10572000A0179E179E179E1795179517A5179E17DA
:105730009E17A5171A2542252B2642252B267525AF
:0857400096252B26ED25F92525
:105748000501E90200000001E702E90204EA02019A
:10575800E702E80200000004EE02FFFF510F610FAC
:10576800710F0000000000000000000000000000B1
:105778003602510F610F710F000000000000000099
:105788000000000000002A02510F610F710F000095
:105798000000000000000000000000002602510F79
:1057A800610F710F00000000000000000000000001
:1057B80000002202510F610F710F0000000000006D
:1057C80000000000000000001E02510F610F710F61
:1057D80000000000000000000000000000001A02A5
:1057E800510F610F710F0000000000000000000061
:1057F800000000001602510F610F710F0000000039
:10580800000000000000000000002E02510F610F90
:10581800710F000000000000000000000000000000
:105828001202510F610F710F00000000000000000C
:105838000000000000003202510F610F710F0000DC
:105848000000000000000000000000000E02E6005A
:10585800E200E10039002B0029003700370236004A
:105868003602330033022D002D02310031022E00A2
:105878002E0234003402380038020021007F220052
:1058880003FF9B03C41F0320C71FFF1FFB1F01F457
:10589800F5F6F73133946697C60000000057504D6F
:1058A8003A202530336400E200E900EA00B500B68A
:1058B80000B700CD008301CC008A01920194012138
:1058C80002230224022502260227022A02B300B478
:1058D800006F0070008182830008101818100800FB
:1058E800E200E900EA00B500B600B700CD00830188
:1058F800CC008A019201940121022302240225028C
:10590800260227022A02B300B4006F0070008182C9
:0259180083000A
:00000001FF
